{
  "contractName": "Controller",
  "abi": [
    {
      "inputs": [],
      "stateMutability": "nonpayable",
      "type": "constructor"
    },
    {
      "anonymous": false,
      "inputs": [
        {
          "indexed": false,
          "internalType": "bytes16",
          "name": "_productId",
          "type": "bytes16"
        },
        {
          "indexed": false,
          "internalType": "string",
          "name": "_newStatus",
          "type": "string"
        }
      ],
      "name": "DetailsUpdate",
      "type": "event"
    },
    {
      "anonymous": false,
      "inputs": [
        {
          "indexed": false,
          "internalType": "address",
          "name": "owner",
          "type": "address"
        }
      ],
      "name": "ManufacturerCreated",
      "type": "event"
    },
    {
      "anonymous": false,
      "inputs": [
        {
          "indexed": false,
          "internalType": "string",
          "name": "productName",
          "type": "string"
        },
        {
          "indexed": false,
          "internalType": "string",
          "name": "productStatus",
          "type": "string"
        }
      ],
      "name": "ProductAddition",
      "type": "event"
    },
    {
      "anonymous": false,
      "inputs": [
        {
          "indexed": false,
          "internalType": "bytes16",
          "name": "productId",
          "type": "bytes16"
        },
        {
          "indexed": false,
          "internalType": "string",
          "name": "productName",
          "type": "string"
        },
        {
          "indexed": false,
          "internalType": "string",
          "name": "productStatus",
          "type": "string"
        }
      ],
      "name": "ProductEdit",
      "type": "event"
    },
    {
      "anonymous": false,
      "inputs": [
        {
          "indexed": false,
          "internalType": "bytes16",
          "name": "_productId",
          "type": "bytes16"
        }
      ],
      "name": "ProductSearch",
      "type": "event"
    },
    {
      "anonymous": false,
      "inputs": [
        {
          "indexed": false,
          "internalType": "address",
          "name": "supplier",
          "type": "address"
        }
      ],
      "name": "SupplierAddition",
      "type": "event"
    },
    {
      "anonymous": false,
      "inputs": [
        {
          "indexed": false,
          "internalType": "bytes16",
          "name": "_productId",
          "type": "bytes16"
        },
        {
          "indexed": false,
          "internalType": "address",
          "name": "_receiver",
          "type": "address"
        }
      ],
      "name": "TransactionRecord",
      "type": "event"
    },
    {
      "inputs": [],
      "name": "owner",
      "outputs": [
        {
          "internalType": "address",
          "name": "",
          "type": "address"
        }
      ],
      "stateMutability": "view",
      "type": "function",
      "constant": true
    },
    {
      "inputs": [
        {
          "internalType": "string",
          "name": "_productName",
          "type": "string"
        },
        {
          "internalType": "string",
          "name": "_productStatus",
          "type": "string"
        }
      ],
      "name": "addProduct",
      "outputs": [],
      "stateMutability": "nonpayable",
      "type": "function"
    },
    {
      "inputs": [
        {
          "internalType": "bytes16",
          "name": "_productId",
          "type": "bytes16"
        },
        {
          "internalType": "string",
          "name": "_productName",
          "type": "string"
        },
        {
          "internalType": "string",
          "name": "_productStatus",
          "type": "string"
        }
      ],
      "name": "editProduct",
      "outputs": [],
      "stateMutability": "nonpayable",
      "type": "function"
    },
    {
      "inputs": [
        {
          "internalType": "address",
          "name": "_supplier",
          "type": "address"
        }
      ],
      "name": "addSupplier",
      "outputs": [],
      "stateMutability": "nonpayable",
      "type": "function"
    },
    {
      "inputs": [
        {
          "internalType": "bytes16",
          "name": "_productId",
          "type": "bytes16"
        },
        {
          "internalType": "address",
          "name": "_receiver",
          "type": "address"
        }
      ],
      "name": "createTransaction",
      "outputs": [],
      "stateMutability": "nonpayable",
      "type": "function"
    },
    {
      "inputs": [
        {
          "internalType": "bytes16",
          "name": "_productId",
          "type": "bytes16"
        }
      ],
      "name": "findProduct",
      "outputs": [],
      "stateMutability": "nonpayable",
      "type": "function"
    },
    {
      "inputs": [
        {
          "internalType": "bytes16",
          "name": "_productId",
          "type": "bytes16"
        },
        {
          "internalType": "string",
          "name": "_newStatus",
          "type": "string"
        }
      ],
      "name": "editProductStatus",
      "outputs": [],
      "stateMutability": "nonpayable",
      "type": "function"
    }
  ],
  "bytecode": "0x608060405234801561001057600080fd5b50336000806101000a81548173ffffffffffffffffffffffffffffffffffffffff021916908373ffffffffffffffffffffffffffffffffffffffff1602179055507fac58e4632a2c1f18a999b9b17d315ca1b593f2284d0ca7b7a4d2fb210b5f740260008054906101000a900473ffffffffffffffffffffffffffffffffffffffff166040516100a091906100bc565b60405180910390a1610109565b6100b6816100d7565b82525050565b60006020820190506100d160008301846100ad565b92915050565b60006100e2826100e9565b9050919050565b600073ffffffffffffffffffffffffffffffffffffffff82169050919050565b610bb1806101186000396000f3fe608060405234801561001057600080fd5b506004361061007d5760003560e01c8063a78983891161005b578063a7898389146100d8578063ca2efb55146100f4578063cafcacfe14610110578063d3519b8a1461012c5761007d565b806317df47451461008257806378075b611461009e5780638da5cb5b146100ba575b600080fd5b61009c6004803603810190610097919061062f565b610148565b005b6100b860048036038101906100b39190610711565b610210565b005b6100c26102de565b6040516100cf9190610876565b60405180910390f35b6100f260048036038101906100ed9190610658565b610302565b005b61010e60048036038101906101099190610790565b61033c565b005b61012a600480360381019061012591906106bd565b610407565b005b61014660048036038101906101419190610681565b6104d2565b005b60008054906101000a900473ffffffffffffffffffffffffffffffffffffffff1673ffffffffffffffffffffffffffffffffffffffff163373ffffffffffffffffffffffffffffffffffffffff16146101d6576040517f08c379a00000000000000000000000000000000000000000000000000000000081526004016101cd90610981565b60405180910390fd5b7f832bbe32e7c8fcebb79f2b495d2342d4aee6ad7411ee0aae797a49ff22e44f17816040516102059190610876565b60405180910390a150565b60008054906101000a900473ffffffffffffffffffffffffffffffffffffffff1673ffffffffffffffffffffffffffffffffffffffff163373ffffffffffffffffffffffffffffffffffffffff161461029e576040517f08c379a000000000000000000000000000000000000000000000000000000000815260040161029590610981565b60405180910390fd5b7f6d1065d33376327b8510d26a477d04b4fdae26f46ba3825bdfb6a778f284ae968383836040516102d193929190610905565b60405180910390a1505050565b60008054906101000a900473ffffffffffffffffffffffffffffffffffffffff1681565b7f1b00af4f379819b4dcf09356dbd88b0b38ad19798c738a5cafb98dac555ee4a3816040516103319190610891565b60405180910390a150565b60008054906101000a900473ffffffffffffffffffffffffffffffffffffffff1673ffffffffffffffffffffffffffffffffffffffff163373ffffffffffffffffffffffffffffffffffffffff16146103ca576040517f08c379a00000000000000000000000000000000000000000000000000000000081526004016103c190610981565b60405180910390fd5b7f28c199ecc05fc0207d0671488bfd38866e75c771099b192c20d964259e04022982826040516103fb92919061094a565b60405180910390a15050565b60008054906101000a900473ffffffffffffffffffffffffffffffffffffffff1673ffffffffffffffffffffffffffffffffffffffff163373ffffffffffffffffffffffffffffffffffffffff1614610495576040517f08c379a000000000000000000000000000000000000000000000000000000000815260040161048c90610981565b60405180910390fd5b7f6364b0d3115a40059d23f0065bc46e0c3ecf4d454c89b787702bb932e6fe26f782826040516104c69291906108d5565b60405180910390a15050565b60008054906101000a900473ffffffffffffffffffffffffffffffffffffffff1673ffffffffffffffffffffffffffffffffffffffff163373ffffffffffffffffffffffffffffffffffffffff1614610560576040517f08c379a000000000000000000000000000000000000000000000000000000000815260040161055790610981565b60405180910390fd5b7fba0c8683bc2643158ecb25f3996562407709bde7cd9442a72062441a3a3d541282826040516105919291906108ac565b60405180910390a15050565b60006105b06105ab846109c6565b6109a1565b9050828152602081018484840111156105c857600080fd5b6105d3848285610a71565b509392505050565b6000813590506105ea81610b4d565b92915050565b6000813590506105ff81610b64565b92915050565b600082601f83011261061657600080fd5b813561062684826020860161059d565b91505092915050565b60006020828403121561064157600080fd5b600061064f848285016105db565b91505092915050565b60006020828403121561066a57600080fd5b6000610678848285016105f0565b91505092915050565b6000806040838503121561069457600080fd5b60006106a2858286016105f0565b92505060206106b3858286016105db565b9150509250929050565b600080604083850312156106d057600080fd5b60006106de858286016105f0565b925050602083013567ffffffffffffffff8111156106fb57600080fd5b61070785828601610605565b9150509250929050565b60008060006060848603121561072657600080fd5b6000610734868287016105f0565b935050602084013567ffffffffffffffff81111561075157600080fd5b61075d86828701610605565b925050604084013567ffffffffffffffff81111561077a57600080fd5b61078686828701610605565b9150509250925092565b600080604083850312156107a357600080fd5b600083013567ffffffffffffffff8111156107bd57600080fd5b6107c985828601610605565b925050602083013567ffffffffffffffff8111156107e657600080fd5b6107f285828601610605565b9150509250929050565b61080581610a13565b82525050565b61081481610a25565b82525050565b6000610825826109f7565b61082f8185610a02565b935061083f818560208601610a80565b61084881610b13565b840191505092915050565b6000610860601483610a02565b915061086b82610b24565b602082019050919050565b600060208201905061088b60008301846107fc565b92915050565b60006020820190506108a6600083018461080b565b92915050565b60006040820190506108c1600083018561080b565b6108ce60208301846107fc565b9392505050565b60006040820190506108ea600083018561080b565b81810360208301526108fc818461081a565b90509392505050565b600060608201905061091a600083018661080b565b818103602083015261092c818561081a565b90508181036040830152610940818461081a565b9050949350505050565b60006040820190508181036000830152610964818561081a565b90508181036020830152610978818461081a565b90509392505050565b6000602082019050818103600083015261099a81610853565b9050919050565b60006109ab6109bc565b90506109b78282610ab3565b919050565b6000604051905090565b600067ffffffffffffffff8211156109e1576109e0610ae4565b5b6109ea82610b13565b9050602081019050919050565b600081519050919050565b600082825260208201905092915050565b6000610a1e82610a51565b9050919050565b60007fffffffffffffffffffffffffffffffff0000000000000000000000000000000082169050919050565b600073ffffffffffffffffffffffffffffffffffffffff82169050919050565b82818337600083830152505050565b60005b83811015610a9e578082015181840152602081019050610a83565b83811115610aad576000848401525b50505050565b610abc82610b13565b810181811067ffffffffffffffff82111715610adb57610ada610ae4565b5b80604052505050565b7f4e487b7100000000000000000000000000000000000000000000000000000000600052604160045260246000fd5b6000601f19601f8301169050919050565b7f4e6f7420746865206d616e756661637475726572000000000000000000000000600082015250565b610b5681610a13565b8114610b6157600080fd5b50565b610b6d81610a25565b8114610b7857600080fd5b5056fea264697066735822122022776ce11389b9bbdc3e5c656185b54b053f1154ff3913e0ac2a71c2b4ca649464736f6c63430008020033",
  "immutableReferences": {},
  "source": "// SPDX-License-Identifier: MIT\r\n\r\npragma solidity ^0.8.0;\r\n\r\ncontract Controller {\r\n    address public owner;\r\n\r\n    event ManufacturerCreated(address owner);\r\n    event ProductAddition(string productName, string productStatus);\r\n    event ProductEdit(\r\n        bytes16 productId,\r\n        string productName,\r\n        string productStatus\r\n    );\r\n    event SupplierAddition(address supplier);\r\n    event TransactionRecord(bytes16 _productId, address _receiver);\r\n    event ProductSearch(bytes16 _productId);\r\n    event DetailsUpdate(bytes16 _productId, string _newStatus);\r\n\r\n    // modifier onlyAuthorized() {\r\n    //     require(\r\n    //         msg.sender == owner || supplyChain.isSupplier(msg.sender),\r\n    //         \"Not authorized\"\r\n    //     );\r\n    //     _;\r\n    // }\r\n\r\n    modifier onlyManufacturer() {\r\n        require(msg.sender == owner, \"Not the manufacturer\");\r\n        _;\r\n    }\r\n\r\n    constructor() {\r\n        owner = msg.sender;\r\n        emit ManufacturerCreated(owner);\r\n    }\r\n\r\n    function addProduct(\r\n        string memory _productName,\r\n        string memory _productStatus\r\n    ) public onlyManufacturer {\r\n        emit ProductAddition(_productName, _productStatus);\r\n    }\r\n\r\n    function editProduct(\r\n        bytes16 _productId,\r\n        string memory _productName,\r\n        string memory _productStatus\r\n    ) public onlyManufacturer {\r\n        emit ProductEdit(_productId, _productName, _productStatus);\r\n    }\r\n\r\n    function addSupplier(address _supplier) public onlyManufacturer {\r\n        emit SupplierAddition(_supplier);\r\n    }\r\n\r\n    function createTransaction(\r\n        bytes16 _productId,\r\n        address _receiver\r\n    ) public onlyManufacturer {\r\n        emit TransactionRecord(_productId, _receiver);\r\n    }\r\n\r\n    function findProduct(bytes16 _productId) public {\r\n        emit ProductSearch(_productId);\r\n    }\r\n\r\n    function editProductStatus(\r\n        bytes16 _productId,\r\n        string memory _newStatus\r\n    ) public onlyManufacturer {\r\n        emit DetailsUpdate(_productId, _newStatus);\r\n    }\r\n}\r\n",
  "sourcePath": "C:\\Users\\User\\Desktop\\Uni Projects\\Bitirme\\Project\\backend\\web3-controller\\contracts\\Controller.sol",
  "compiler": {
    "name": "solc",
    "version": "0.8.2+commit.661d1103.Emscripten.clang"
  },
  "schemaVersion": "3.4.16",
  "updatedAt": "2024-03-06T17:49:38.261Z",
  "networkType": "ethereum",
  "devdoc": {
    "kind": "dev",
    "methods": {},
    "version": 1
  },
  "userdoc": {
    "kind": "user",
    "methods": {},
    "version": 1
  }
}