{
  "contractName": "ProductAction",
  "abi": [
    {
      "inputs": [
        {
          "internalType": "address",
          "name": "_owner",
          "type": "address"
        }
      ],
      "stateMutability": "nonpayable",
      "type": "constructor"
    },
    {
      "inputs": [],
      "name": "owner",
      "outputs": [
        {
          "internalType": "address",
          "name": "",
          "type": "address"
        }
      ],
      "stateMutability": "view",
      "type": "function"
    },
    {
      "inputs": [
        {
          "internalType": "bytes16",
          "name": "",
          "type": "bytes16"
        }
      ],
      "name": "products",
      "outputs": [
        {
          "internalType": "bytes16",
          "name": "productId",
          "type": "bytes16"
        },
        {
          "internalType": "address",
          "name": "owner",
          "type": "address"
        },
        {
          "internalType": "string",
          "name": "productName",
          "type": "string"
        },
        {
          "internalType": "string",
          "name": "productStatus",
          "type": "string"
        },
        {
          "internalType": "uint256",
          "name": "timestamp",
          "type": "uint256"
        }
      ],
      "stateMutability": "view",
      "type": "function"
    },
    {
      "inputs": [
        {
          "internalType": "string",
          "name": "_productName",
          "type": "string"
        },
        {
          "internalType": "string",
          "name": "_productStatus",
          "type": "string"
        }
      ],
      "name": "registerProduct",
      "outputs": [],
      "stateMutability": "nonpayable",
      "type": "function"
    },
    {
      "inputs": [
        {
          "internalType": "bytes16",
          "name": "_productId",
          "type": "bytes16"
        },
        {
          "internalType": "string",
          "name": "_productName",
          "type": "string"
        },
        {
          "internalType": "string",
          "name": "_productStatus",
          "type": "string"
        }
      ],
      "name": "updateProduct",
      "outputs": [],
      "stateMutability": "view",
      "type": "function"
    },
    {
      "inputs": [
        {
          "internalType": "bytes16",
          "name": "_productId",
          "type": "bytes16"
        }
      ],
      "name": "getProductDetails",
      "outputs": [
        {
          "components": [
            {
              "internalType": "bytes16",
              "name": "productId",
              "type": "bytes16"
            },
            {
              "internalType": "address",
              "name": "owner",
              "type": "address"
            },
            {
              "internalType": "string",
              "name": "productName",
              "type": "string"
            },
            {
              "internalType": "string",
              "name": "productStatus",
              "type": "string"
            },
            {
              "internalType": "uint256",
              "name": "timestamp",
              "type": "uint256"
            }
          ],
          "internalType": "struct Types.Product",
          "name": "",
          "type": "tuple"
        }
      ],
      "stateMutability": "view",
      "type": "function"
    },
    {
      "inputs": [
        {
          "internalType": "bytes16",
          "name": "_productId",
          "type": "bytes16"
        },
        {
          "internalType": "string",
          "name": "_newDetails",
          "type": "string"
        }
      ],
      "name": "addProductDetails",
      "outputs": [
        {
          "internalType": "string",
          "name": "",
          "type": "string"
        }
      ],
      "stateMutability": "nonpayable",
      "type": "function"
    },
    {
      "inputs": [
        {
          "internalType": "bytes16",
          "name": "_productId",
          "type": "bytes16"
        }
      ],
      "name": "findProduct",
      "outputs": [
        {
          "components": [
            {
              "internalType": "bytes16",
              "name": "productId",
              "type": "bytes16"
            },
            {
              "internalType": "address",
              "name": "owner",
              "type": "address"
            },
            {
              "internalType": "string",
              "name": "productName",
              "type": "string"
            },
            {
              "internalType": "string",
              "name": "productStatus",
              "type": "string"
            },
            {
              "internalType": "uint256",
              "name": "timestamp",
              "type": "uint256"
            }
          ],
          "internalType": "struct Types.Product",
          "name": "",
          "type": "tuple"
        }
      ],
      "stateMutability": "view",
      "type": "function"
    }
  ],
  "bytecode": "0x608060405234801562000010575f80fd5b506040516200166a3803806200166a8339818101604052810190620000369190620000e1565b805f806101000a81548173ffffffffffffffffffffffffffffffffffffffff021916908373ffffffffffffffffffffffffffffffffffffffff1602179055505062000111565b5f80fd5b5f73ffffffffffffffffffffffffffffffffffffffff82169050919050565b5f620000ab8262000080565b9050919050565b620000bd816200009f565b8114620000c8575f80fd5b50565b5f81519050620000db81620000b2565b92915050565b5f60208284031215620000f957620000f86200007c565b5b5f6200010884828501620000cb565b91505092915050565b61154b806200011f5f395ff3fe608060405234801561000f575f80fd5b506004361061007b575f3560e01c80638da5cb5b116100595780638da5cb5b146100ff5780638fbd0dcf1461011d578063a789838914610139578063d408f8ae146101695761007b565b80630ca761661461007f578063416005711461009b5780637e485fcf146100cb575b5f80fd5b61009960048036038101906100949190610db2565b610199565b005b6100b560048036038101906100b09190610e3a565b6103b0565b6040516100c29190610f0e565b60405180910390f35b6100e560048036038101906100e09190610f2e565b610488565b6040516100f6959493929190610fbf565b60405180910390f35b6101076105f1565b604051610114919061101e565b60405180910390f35b61013760048036038101906101329190611037565b610614565b005b610153600480360381019061014e9190610f2e565b610776565b604051610160919061119c565b60405180910390f35b610183600480360381019061017e9190610f2e565b610981565b604051610190919061119c565b60405180910390f35b5f60015f856fffffffffffffffffffffffffffffffff19166fffffffffffffffffffffffffffffffff191681526020019081526020015f206040518060a00160405290815f82015f9054906101000a900460801b6fffffffffffffffffffffffffffffffff19166fffffffffffffffffffffffffffffffff19168152602001600182015f9054906101000a900473ffffffffffffffffffffffffffffffffffffffff1673ffffffffffffffffffffffffffffffffffffffff1673ffffffffffffffffffffffffffffffffffffffff16815260200160028201805461027c906111e9565b80601f01602080910402602001604051908101604052809291908181526020018280546102a8906111e9565b80156102f35780601f106102ca576101008083540402835291602001916102f3565b820191905f5260205f20905b8154815290600101906020018083116102d657829003601f168201915b5050505050815260200160038201805461030c906111e9565b80601f0160208091040260200160405190810160405280929190818152602001828054610338906111e9565b80156103835780601f1061035a57610100808354040283529160200191610383565b820191905f5260205f20905b81548152906001019060200180831161036657829003601f168201915b50505050508152602001600482015481525050905082816040018190525081816060018190525050505050565b60608160015f856fffffffffffffffffffffffffffffffff19166fffffffffffffffffffffffffffffffff191681526020019081526020015f2060030190816103f991906113b6565b8054610404906111e9565b80601f0160208091040260200160405190810160405280929190818152602001828054610430906111e9565b801561047b5780601f106104525761010080835404028352916020019161047b565b820191905f5260205f20905b81548152906001019060200180831161045e57829003601f168201915b5050505050905092915050565b6001602052805f5260405f205f91509050805f015f9054906101000a900460801b90806001015f9054906101000a900473ffffffffffffffffffffffffffffffffffffffff16908060020180546104de906111e9565b80601f016020809104026020016040519081016040528092919081815260200182805461050a906111e9565b80156105555780601f1061052c57610100808354040283529160200191610555565b820191905f5260205f20905b81548152906001019060200180831161053857829003601f168201915b50505050509080600301805461056a906111e9565b80601f0160208091040260200160405190810160405280929190818152602001828054610596906111e9565b80156105e15780601f106105b8576101008083540402835291602001916105e1565b820191905f5260205f20905b8154815290600101906020018083116105c457829003601f168201915b5050505050908060040154905085565b5f8054906101000a900473ffffffffffffffffffffffffffffffffffffffff1681565b5f61061d610b8c565b90506040518060a00160405280826fffffffffffffffffffffffffffffffff191681526020015f8054906101000a900473ffffffffffffffffffffffffffffffffffffffff1673ffffffffffffffffffffffffffffffffffffffff1681526020018481526020018381526020014281525060015f836fffffffffffffffffffffffffffffffff19166fffffffffffffffffffffffffffffffff191681526020019081526020015f205f820151815f015f6101000a8154816fffffffffffffffffffffffffffffffff021916908360801c02179055506020820151816001015f6101000a81548173ffffffffffffffffffffffffffffffffffffffff021916908373ffffffffffffffffffffffffffffffffffffffff160217905550604082015181600201908161074d91906113b6565b50606082015181600301908161076391906113b6565b5060808201518160040155905050505050565b61077e610bbb565b60015f836fffffffffffffffffffffffffffffffff19166fffffffffffffffffffffffffffffffff191681526020019081526020015f206040518060a00160405290815f82015f9054906101000a900460801b6fffffffffffffffffffffffffffffffff19166fffffffffffffffffffffffffffffffff19168152602001600182015f9054906101000a900473ffffffffffffffffffffffffffffffffffffffff1673ffffffffffffffffffffffffffffffffffffffff1673ffffffffffffffffffffffffffffffffffffffff168152602001600282018054610860906111e9565b80601f016020809104026020016040519081016040528092919081815260200182805461088c906111e9565b80156108d75780601f106108ae576101008083540402835291602001916108d7565b820191905f5260205f20905b8154815290600101906020018083116108ba57829003601f168201915b505050505081526020016003820180546108f0906111e9565b80601f016020809104026020016040519081016040528092919081815260200182805461091c906111e9565b80156109675780601f1061093e57610100808354040283529160200191610967565b820191905f5260205f20905b81548152906001019060200180831161094a57829003601f168201915b505050505081526020016004820154815250509050919050565b610989610bbb565b60015f836fffffffffffffffffffffffffffffffff19166fffffffffffffffffffffffffffffffff191681526020019081526020015f206040518060a00160405290815f82015f9054906101000a900460801b6fffffffffffffffffffffffffffffffff19166fffffffffffffffffffffffffffffffff19168152602001600182015f9054906101000a900473ffffffffffffffffffffffffffffffffffffffff1673ffffffffffffffffffffffffffffffffffffffff1673ffffffffffffffffffffffffffffffffffffffff168152602001600282018054610a6b906111e9565b80601f0160208091040260200160405190810160405280929190818152602001828054610a97906111e9565b8015610ae25780601f10610ab957610100808354040283529160200191610ae2565b820191905f5260205f20905b815481529060010190602001808311610ac557829003601f168201915b50505050508152602001600382018054610afb906111e9565b80601f0160208091040260200160405190810160405280929190818152602001828054610b27906111e9565b8015610b725780601f10610b4957610100808354040283529160200191610b72565b820191905f5260205f20905b815481529060010190602001808311610b5557829003601f168201915b505050505081526020016004820154815250509050919050565b5f4233604051602001610ba09291906114ea565b60405160208183030381529060405280519060200120905090565b6040518060a001604052805f6fffffffffffffffffffffffffffffffff191681526020015f73ffffffffffffffffffffffffffffffffffffffff16815260200160608152602001606081526020015f81525090565b5f604051905090565b5f80fd5b5f80fd5b5f7fffffffffffffffffffffffffffffffff0000000000000000000000000000000082169050919050565b610c5581610c21565b8114610c5f575f80fd5b50565b5f81359050610c7081610c4c565b92915050565b5f80fd5b5f80fd5b5f601f19601f8301169050919050565b7f4e487b71000000000000000000000000000000000000000000000000000000005f52604160045260245ffd5b610cc482610c7e565b810181811067ffffffffffffffff82111715610ce357610ce2610c8e565b5b80604052505050565b5f610cf5610c10565b9050610d018282610cbb565b919050565b5f67ffffffffffffffff821115610d2057610d1f610c8e565b5b610d2982610c7e565b9050602081019050919050565b828183375f83830152505050565b5f610d56610d5184610d06565b610cec565b905082815260208101848484011115610d7257610d71610c7a565b5b610d7d848285610d36565b509392505050565b5f82601f830112610d9957610d98610c76565b5b8135610da9848260208601610d44565b91505092915050565b5f805f60608486031215610dc957610dc8610c19565b5b5f610dd686828701610c62565b935050602084013567ffffffffffffffff811115610df757610df6610c1d565b5b610e0386828701610d85565b925050604084013567ffffffffffffffff811115610e2457610e23610c1d565b5b610e3086828701610d85565b9150509250925092565b5f8060408385031215610e5057610e4f610c19565b5b5f610e5d85828601610c62565b925050602083013567ffffffffffffffff811115610e7e57610e7d610c1d565b5b610e8a85828601610d85565b9150509250929050565b5f81519050919050565b5f82825260208201905092915050565b5f5b83811015610ecb578082015181840152602081019050610eb0565b5f8484015250505050565b5f610ee082610e94565b610eea8185610e9e565b9350610efa818560208601610eae565b610f0381610c7e565b840191505092915050565b5f6020820190508181035f830152610f268184610ed6565b905092915050565b5f60208284031215610f4357610f42610c19565b5b5f610f5084828501610c62565b91505092915050565b610f6281610c21565b82525050565b5f73ffffffffffffffffffffffffffffffffffffffff82169050919050565b5f610f9182610f68565b9050919050565b610fa181610f87565b82525050565b5f819050919050565b610fb981610fa7565b82525050565b5f60a082019050610fd25f830188610f59565b610fdf6020830187610f98565b8181036040830152610ff18186610ed6565b905081810360608301526110058185610ed6565b90506110146080830184610fb0565b9695505050505050565b5f6020820190506110315f830184610f98565b92915050565b5f806040838503121561104d5761104c610c19565b5b5f83013567ffffffffffffffff81111561106a57611069610c1d565b5b61107685828601610d85565b925050602083013567ffffffffffffffff81111561109757611096610c1d565b5b6110a385828601610d85565b9150509250929050565b6110b681610c21565b82525050565b6110c581610f87565b82525050565b5f82825260208201905092915050565b5f6110e582610e94565b6110ef81856110cb565b93506110ff818560208601610eae565b61110881610c7e565b840191505092915050565b61111c81610fa7565b82525050565b5f60a083015f8301516111375f8601826110ad565b50602083015161114a60208601826110bc565b506040830151848203604086015261116282826110db565b9150506060830151848203606086015261117c82826110db565b91505060808301516111916080860182611113565b508091505092915050565b5f6020820190508181035f8301526111b48184611122565b905092915050565b7f4e487b71000000000000000000000000000000000000000000000000000000005f52602260045260245ffd5b5f600282049050600182168061120057607f821691505b602082108103611213576112126111bc565b5b50919050565b5f819050815f5260205f209050919050565b5f6020601f8301049050919050565b5f82821b905092915050565b5f600883026112757fffffffffffffffffffffffffffffffffffffffffffffffffffffffffffffffff8261123a565b61127f868361123a565b95508019841693508086168417925050509392505050565b5f819050919050565b5f6112ba6112b56112b084610fa7565b611297565b610fa7565b9050919050565b5f819050919050565b6112d3836112a0565b6112e76112df826112c1565b848454611246565b825550505050565b5f90565b6112fb6112ef565b6113068184846112ca565b505050565b5b818110156113295761131e5f826112f3565b60018101905061130c565b5050565b601f82111561136e5761133f81611219565b6113488461122b565b81016020851015611357578190505b61136b6113638561122b565b83018261130b565b50505b505050565b5f82821c905092915050565b5f61138e5f1984600802611373565b1980831691505092915050565b5f6113a6838361137f565b9150826002028217905092915050565b6113bf82610e94565b67ffffffffffffffff8111156113d8576113d7610c8e565b5b6113e282546111e9565b6113ed82828561132d565b5f60209050601f83116001811461141e575f841561140c578287015190505b611416858261139b565b86555061147d565b601f19841661142c86611219565b5f5b828110156114535784890151825560018201915060208501945060208101905061142e565b86831015611470578489015161146c601f89168261137f565b8355505b6001600288020188555050505b505050505050565b5f819050919050565b61149f61149a82610fa7565b611485565b82525050565b5f8160601b9050919050565b5f6114bb826114a5565b9050919050565b5f6114cc826114b1565b9050919050565b6114e46114df82610f87565b6114c2565b82525050565b5f6114f5828561148e565b60208201915061150582846114d3565b601482019150819050939250505056fea26469706673582212200c496cbb1b9d9ef2d55aa00cd9df12898cd9e6bd8b76b2ae1b0296eb4dcb491264736f6c63430008180033",
  "immutableReferences": {},
  "source": "// SPDX-License-Identifier: MIT\r\n\r\npragma solidity ^0.8.0;\r\n\r\nimport \"./Types.sol\";\r\n\r\ncontract ProductAction {\r\n    address public owner;\r\n\r\n    mapping(bytes16 => Types.Product) public products;\r\n\r\n    // modifier isProductExist(bytes16 _productId) {\r\n    //     require(\r\n    //         products[_productId].exists,\r\n    //         \"Product with given id does not exist!\"\r\n    //     );\r\n    //     _;\r\n    // }\r\n\r\n    constructor(address _owner) {\r\n        owner = _owner;\r\n    }\r\n\r\n    function registerProduct(\r\n        string memory _productName,\r\n        string memory _productStatus\r\n    ) external {\r\n        bytes16 productId = generateUUID();\r\n        products[productId] = Types.Product({\r\n            productId: productId,\r\n            owner: owner,\r\n            productName: _productName,\r\n            productStatus: _productStatus,\r\n            timestamp: block.timestamp\r\n        });\r\n    }\r\n\r\n    function updateProduct(\r\n        bytes16 _productId,\r\n        string memory _productName,\r\n        string memory _productStatus\r\n    ) external view {\r\n        Types.Product memory product = products[_productId];\r\n        product.productName = _productName;\r\n        product.productStatus = _productStatus;\r\n    }\r\n\r\n    function generateUUID() internal view returns (bytes16) {\r\n        return\r\n            bytes16(keccak256(abi.encodePacked(block.timestamp, msg.sender)));\r\n    }\r\n\r\n    function getProductDetails(\r\n        bytes16 _productId\r\n    ) external view returns (Types.Product memory) {\r\n        return products[_productId];\r\n    }\r\n\r\n    function addProductDetails(\r\n        bytes16 _productId,\r\n        string memory _newDetails\r\n    ) external returns (string memory) {\r\n        return products[_productId].productStatus = _newDetails;\r\n    }\r\n\r\n    function findProduct(\r\n        bytes16 _productId\r\n    ) external view returns (Types.Product memory) {\r\n        return products[_productId];\r\n    }\r\n}\r\n",
  "sourcePath": "C:\\Users\\User\\Desktop\\Uni Projects\\Bitirme\\Project\\backend\\web3-controller\\contracts\\ProductAction.sol",
  "compiler": {
    "name": "solc",
    "version": "0.8.24+commit.e11b9ed9.Emscripten.clang"
  },
  "schemaVersion": "3.4.16",
  "updatedAt": "2024-02-28T18:14:44.655Z",
  "devdoc": {
    "kind": "dev",
    "methods": {},
    "version": 1
  },
  "userdoc": {
    "kind": "user",
    "methods": {},
    "version": 1
  }
}