{
  "contractName": "ProductAction",
  "abi": [
    {
      "inputs": [],
      "stateMutability": "nonpayable",
      "type": "constructor"
    },
    {
      "inputs": [],
      "name": "owner",
      "outputs": [
        {
          "internalType": "address",
          "name": "",
          "type": "address"
        }
      ],
      "stateMutability": "view",
      "type": "function",
      "constant": true
    },
    {
      "inputs": [
        {
          "internalType": "bytes16",
          "name": "",
          "type": "bytes16"
        }
      ],
      "name": "products",
      "outputs": [
        {
          "internalType": "bytes16",
          "name": "productId",
          "type": "bytes16"
        },
        {
          "internalType": "address",
          "name": "owner",
          "type": "address"
        },
        {
          "internalType": "string",
          "name": "productName",
          "type": "string"
        },
        {
          "internalType": "string",
          "name": "productStatus",
          "type": "string"
        },
        {
          "internalType": "uint256",
          "name": "timestamp",
          "type": "uint256"
        }
      ],
      "stateMutability": "view",
      "type": "function",
      "constant": true
    },
    {
      "inputs": [
        {
          "internalType": "string",
          "name": "_productName",
          "type": "string"
        },
        {
          "internalType": "string",
          "name": "_productStatus",
          "type": "string"
        }
      ],
      "name": "registerProduct",
      "outputs": [],
      "stateMutability": "nonpayable",
      "type": "function"
    },
    {
      "inputs": [
        {
          "internalType": "bytes16",
          "name": "_productId",
          "type": "bytes16"
        },
        {
          "internalType": "string",
          "name": "_productName",
          "type": "string"
        },
        {
          "internalType": "string",
          "name": "_productStatus",
          "type": "string"
        }
      ],
      "name": "updateProduct",
      "outputs": [],
      "stateMutability": "view",
      "type": "function",
      "constant": true
    },
    {
      "inputs": [
        {
          "internalType": "bytes16",
          "name": "_productId",
          "type": "bytes16"
        }
      ],
      "name": "getProductDetails",
      "outputs": [
        {
          "components": [
            {
              "internalType": "bytes16",
              "name": "productId",
              "type": "bytes16"
            },
            {
              "internalType": "address",
              "name": "owner",
              "type": "address"
            },
            {
              "internalType": "string",
              "name": "productName",
              "type": "string"
            },
            {
              "internalType": "string",
              "name": "productStatus",
              "type": "string"
            },
            {
              "internalType": "uint256",
              "name": "timestamp",
              "type": "uint256"
            }
          ],
          "internalType": "struct Types.Product",
          "name": "",
          "type": "tuple"
        }
      ],
      "stateMutability": "view",
      "type": "function",
      "constant": true
    },
    {
      "inputs": [
        {
          "internalType": "bytes16",
          "name": "_productId",
          "type": "bytes16"
        },
        {
          "internalType": "string",
          "name": "_newDetails",
          "type": "string"
        }
      ],
      "name": "addProductDetails",
      "outputs": [
        {
          "internalType": "string",
          "name": "",
          "type": "string"
        }
      ],
      "stateMutability": "nonpayable",
      "type": "function"
    },
    {
      "inputs": [
        {
          "internalType": "bytes16",
          "name": "_productId",
          "type": "bytes16"
        }
      ],
      "name": "findProduct",
      "outputs": [
        {
          "components": [
            {
              "internalType": "bytes16",
              "name": "productId",
              "type": "bytes16"
            },
            {
              "internalType": "address",
              "name": "owner",
              "type": "address"
            },
            {
              "internalType": "string",
              "name": "productName",
              "type": "string"
            },
            {
              "internalType": "string",
              "name": "productStatus",
              "type": "string"
            },
            {
              "internalType": "uint256",
              "name": "timestamp",
              "type": "uint256"
            }
          ],
          "internalType": "struct Types.Product",
          "name": "",
          "type": "tuple"
        }
      ],
      "stateMutability": "view",
      "type": "function",
      "constant": true
    },
    {
      "inputs": [
        {
          "internalType": "address",
          "name": "_owner",
          "type": "address"
        }
      ],
      "name": "setOwner",
      "outputs": [],
      "stateMutability": "nonpayable",
      "type": "function"
    }
  ],
  "bytecode": "0x608060405234801561001057600080fd5b50611490806100206000396000f3fe608060405234801561001057600080fd5b50600436106100885760003560e01c80638da5cb5b1161005b5780638da5cb5b146101295780638fbd0dcf14610147578063a789838914610163578063d408f8ae1461019357610088565b80630ca761661461008d57806313af4035146100a957806341600571146100c55780637e485fcf146100f5575b600080fd5b6100a760048036038101906100a29190610ea4565b6101c3565b005b6100c360048036038101906100be9190610dfe565b6103e4565b005b6100df60048036038101906100da9190610e50565b610427565b6040516100ec91906111ae565b60405180910390f35b61010f600480360381019061010a9190610e27565b61050a565b60405161012095949392919061114d565b60405180910390f35b61013161067d565b60405161013e9190611132565b60405180910390f35b610161600480360381019061015c9190610f23565b6106a1565b005b61017d60048036038101906101789190610e27565b610819565b60405161018a91906111d0565b60405180910390f35b6101ad60048036038101906101a89190610e27565b610a2d565b6040516101ba91906111d0565b60405180910390f35b600060016000856fffffffffffffffffffffffffffffffff19166fffffffffffffffffffffffffffffffff191681526020019081526020016000206040518060a00160405290816000820160009054906101000a900460801b6fffffffffffffffffffffffffffffffff19166fffffffffffffffffffffffffffffffff191681526020016001820160009054906101000a900473ffffffffffffffffffffffffffffffffffffffff1673ffffffffffffffffffffffffffffffffffffffff1673ffffffffffffffffffffffffffffffffffffffff1681526020016002820180546102ac9061131f565b80601f01602080910402602001604051908101604052809291908181526020018280546102d89061131f565b80156103255780601f106102fa57610100808354040283529160200191610325565b820191906000526020600020905b81548152906001019060200180831161030857829003601f168201915b5050505050815260200160038201805461033e9061131f565b80601f016020809104026020016040519081016040528092919081815260200182805461036a9061131f565b80156103b75780601f1061038c576101008083540402835291602001916103b7565b820191906000526020600020905b81548152906001019060200180831161039a57829003601f168201915b50505050508152602001600482015481525050905082816040018190525081816060018190525050505050565b806000806101000a81548173ffffffffffffffffffffffffffffffffffffffff021916908373ffffffffffffffffffffffffffffffffffffffff16021790555050565b60608160016000856fffffffffffffffffffffffffffffffff19166fffffffffffffffffffffffffffffffff191681526020019081526020016000206003019080519060200190610479929190610c71565b80546104849061131f565b80601f01602080910402602001604051908101604052809291908181526020018280546104b09061131f565b80156104fd5780601f106104d2576101008083540402835291602001916104fd565b820191906000526020600020905b8154815290600101906020018083116104e057829003601f168201915b5050505050905092915050565b60016020528060005260406000206000915090508060000160009054906101000a900460801b908060010160009054906101000a900473ffffffffffffffffffffffffffffffffffffffff16908060020180546105669061131f565b80601f01602080910402602001604051908101604052809291908181526020018280546105929061131f565b80156105df5780601f106105b4576101008083540402835291602001916105df565b820191906000526020600020905b8154815290600101906020018083116105c257829003601f168201915b5050505050908060030180546105f49061131f565b80601f01602080910402602001604051908101604052809291908181526020018280546106209061131f565b801561066d5780601f106106425761010080835404028352916020019161066d565b820191906000526020600020905b81548152906001019060200180831161065057829003601f168201915b5050505050908060040154905085565b60008054906101000a900473ffffffffffffffffffffffffffffffffffffffff1681565b60006106ab610c41565b90506040518060a00160405280826fffffffffffffffffffffffffffffffff1916815260200160008054906101000a900473ffffffffffffffffffffffffffffffffffffffff1673ffffffffffffffffffffffffffffffffffffffff1681526020018481526020018381526020014281525060016000836fffffffffffffffffffffffffffffffff19166fffffffffffffffffffffffffffffffff1916815260200190815260200160002060008201518160000160006101000a8154816fffffffffffffffffffffffffffffffff021916908360801c021790555060208201518160010160006101000a81548173ffffffffffffffffffffffffffffffffffffffff021916908373ffffffffffffffffffffffffffffffffffffffff16021790555060408201518160020190805190602001906107e9929190610c71565b506060820151816003019080519060200190610806929190610c71565b5060808201518160040155905050505050565b610821610cf7565b60016000836fffffffffffffffffffffffffffffffff19166fffffffffffffffffffffffffffffffff191681526020019081526020016000206040518060a00160405290816000820160009054906101000a900460801b6fffffffffffffffffffffffffffffffff19166fffffffffffffffffffffffffffffffff191681526020016001820160009054906101000a900473ffffffffffffffffffffffffffffffffffffffff1673ffffffffffffffffffffffffffffffffffffffff1673ffffffffffffffffffffffffffffffffffffffff1681526020016002820180546109089061131f565b80601f01602080910402602001604051908101604052809291908181526020018280546109349061131f565b80156109815780601f1061095657610100808354040283529160200191610981565b820191906000526020600020905b81548152906001019060200180831161096457829003601f168201915b5050505050815260200160038201805461099a9061131f565b80601f01602080910402602001604051908101604052809291908181526020018280546109c69061131f565b8015610a135780601f106109e857610100808354040283529160200191610a13565b820191906000526020600020905b8154815290600101906020018083116109f657829003601f168201915b505050505081526020016004820154815250509050919050565b610a35610cf7565b60016000836fffffffffffffffffffffffffffffffff19166fffffffffffffffffffffffffffffffff191681526020019081526020016000206040518060a00160405290816000820160009054906101000a900460801b6fffffffffffffffffffffffffffffffff19166fffffffffffffffffffffffffffffffff191681526020016001820160009054906101000a900473ffffffffffffffffffffffffffffffffffffffff1673ffffffffffffffffffffffffffffffffffffffff1673ffffffffffffffffffffffffffffffffffffffff168152602001600282018054610b1c9061131f565b80601f0160208091040260200160405190810160405280929190818152602001828054610b489061131f565b8015610b955780601f10610b6a57610100808354040283529160200191610b95565b820191906000526020600020905b815481529060010190602001808311610b7857829003601f168201915b50505050508152602001600382018054610bae9061131f565b80601f0160208091040260200160405190810160405280929190818152602001828054610bda9061131f565b8015610c275780601f10610bfc57610100808354040283529160200191610c27565b820191906000526020600020905b815481529060010190602001808311610c0a57829003601f168201915b505050505081526020016004820154815250509050919050565b60004233604051602001610c56929190611106565b60405160208183030381529060405280519060200120905090565b828054610c7d9061131f565b90600052602060002090601f016020900481019282610c9f5760008555610ce6565b82601f10610cb857805160ff1916838001178555610ce6565b82800160010185558215610ce6579182015b82811115610ce5578251825591602001919060010190610cca565b5b509050610cf39190610d4f565b5090565b6040518060a0016040528060006fffffffffffffffffffffffffffffffff19168152602001600073ffffffffffffffffffffffffffffffffffffffff1681526020016060815260200160608152602001600081525090565b5b80821115610d68576000816000905550600101610d50565b5090565b6000610d7f610d7a84611217565b6111f2565b905082815260208101848484011115610d9757600080fd5b610da28482856112dd565b509392505050565b600081359050610db98161142c565b92915050565b600081359050610dce81611443565b92915050565b600082601f830112610de557600080fd5b8135610df5848260208601610d6c565b91505092915050565b600060208284031215610e1057600080fd5b6000610e1e84828501610daa565b91505092915050565b600060208284031215610e3957600080fd5b6000610e4784828501610dbf565b91505092915050565b60008060408385031215610e6357600080fd5b6000610e7185828601610dbf565b925050602083013567ffffffffffffffff811115610e8e57600080fd5b610e9a85828601610dd4565b9150509250929050565b600080600060608486031215610eb957600080fd5b6000610ec786828701610dbf565b935050602084013567ffffffffffffffff811115610ee457600080fd5b610ef086828701610dd4565b925050604084013567ffffffffffffffff811115610f0d57600080fd5b610f1986828701610dd4565b9150509250925092565b60008060408385031215610f3657600080fd5b600083013567ffffffffffffffff811115610f5057600080fd5b610f5c85828601610dd4565b925050602083013567ffffffffffffffff811115610f7957600080fd5b610f8585828601610dd4565b9150509250929050565b610f9881611275565b82525050565b610fa781611275565b82525050565b610fbe610fb982611275565b611382565b82525050565b610fcd81611287565b82525050565b610fdc81611287565b82525050565b6000610fed82611248565b610ff78185611253565b93506110078185602086016112ec565b6110108161140e565b840191505092915050565b600061102682611248565b6110308185611264565b93506110408185602086016112ec565b6110498161140e565b840191505092915050565b600060a08301600083015161106c6000860182610fc4565b50602083015161107f6020860182610f8f565b50604083015184820360408601526110978282610fe2565b915050606083015184820360608601526110b18282610fe2565b91505060808301516110c660808601826110d1565b508091505092915050565b6110da816112d3565b82525050565b6110e9816112d3565b82525050565b6111006110fb826112d3565b6113a6565b82525050565b600061111282856110ef565b6020820191506111228284610fad565b6014820191508190509392505050565b60006020820190506111476000830184610f9e565b92915050565b600060a0820190506111626000830188610fd3565b61116f6020830187610f9e565b8181036040830152611181818661101b565b90508181036060830152611195818561101b565b90506111a460808301846110e0565b9695505050505050565b600060208201905081810360008301526111c8818461101b565b905092915050565b600060208201905081810360008301526111ea8184611054565b905092915050565b60006111fc61120d565b90506112088282611351565b919050565b6000604051905090565b600067ffffffffffffffff821115611232576112316113df565b5b61123b8261140e565b9050602081019050919050565b600081519050919050565b600082825260208201905092915050565b600082825260208201905092915050565b6000611280826112b3565b9050919050565b60007fffffffffffffffffffffffffffffffff0000000000000000000000000000000082169050919050565b600073ffffffffffffffffffffffffffffffffffffffff82169050919050565b6000819050919050565b82818337600083830152505050565b60005b8381101561130a5780820151818401526020810190506112ef565b83811115611319576000848401525b50505050565b6000600282049050600182168061133757607f821691505b6020821081141561134b5761134a6113b0565b5b50919050565b61135a8261140e565b810181811067ffffffffffffffff82111715611379576113786113df565b5b80604052505050565b600061138d82611394565b9050919050565b600061139f8261141f565b9050919050565b6000819050919050565b7f4e487b7100000000000000000000000000000000000000000000000000000000600052602260045260246000fd5b7f4e487b7100000000000000000000000000000000000000000000000000000000600052604160045260246000fd5b6000601f19601f8301169050919050565b60008160601b9050919050565b61143581611275565b811461144057600080fd5b50565b61144c81611287565b811461145757600080fd5b5056fea26469706673582212201ca3b28404d82966ce2a72ab4986575f1e96ac6505c245f586ceab0e26ac494f64736f6c63430008020033",
  "immutableReferences": {},
  "source": "// SPDX-License-Identifier: MIT\r\n\r\npragma solidity ^0.8.0;\r\n\r\nimport \"./Types.sol\";\r\n\r\ncontract ProductAction {\r\n    address public owner;\r\n\r\n    mapping(bytes16 => Types.Product) public products;\r\n\r\n    constructor() {}\r\n\r\n    function registerProduct(\r\n        string memory _productName,\r\n        string memory _productStatus\r\n    ) external {\r\n        bytes16 productId = generateUUID();\r\n        products[productId] = Types.Product({\r\n            productId: productId,\r\n            owner: owner,\r\n            productName: _productName,\r\n            productStatus: _productStatus,\r\n            timestamp: block.timestamp\r\n        });\r\n    }\r\n\r\n    function updateProduct(\r\n        bytes16 _productId,\r\n        string memory _productName,\r\n        string memory _productStatus\r\n    ) external view {\r\n        Types.Product memory product = products[_productId];\r\n        product.productName = _productName;\r\n        product.productStatus = _productStatus;\r\n    }\r\n\r\n    function generateUUID() internal view returns (bytes16) {\r\n        return\r\n            bytes16(keccak256(abi.encodePacked(block.timestamp, msg.sender)));\r\n    }\r\n\r\n    function getProductDetails(\r\n        bytes16 _productId\r\n    ) external view returns (Types.Product memory) {\r\n        return products[_productId];\r\n    }\r\n\r\n    function addProductDetails(\r\n        bytes16 _productId,\r\n        string memory _newDetails\r\n    ) external returns (string memory) {\r\n        return products[_productId].productStatus = _newDetails;\r\n    }\r\n\r\n    function findProduct(\r\n        bytes16 _productId\r\n    ) external view returns (Types.Product memory) {\r\n        return products[_productId];\r\n    }\r\n\r\n    function setOwner(address _owner) public {\r\n        owner = _owner;\r\n    }\r\n}\r\n",
  "sourcePath": "C:\\Users\\User\\Desktop\\Uni Projects\\Bitirme\\Project\\backend\\web3-controller\\contracts\\ProductAction.sol",
  "compiler": {
    "name": "solc",
    "version": "0.8.2+commit.661d1103.Emscripten.clang"
  },
  "schemaVersion": "3.4.16",
  "updatedAt": "2024-03-06T17:49:38.487Z",
  "networkType": "ethereum",
  "devdoc": {
    "kind": "dev",
    "methods": {},
    "version": 1
  },
  "userdoc": {
    "kind": "user",
    "methods": {},
    "version": 1
  }
}