{
  "contractName": "ProductAction",
  "abi": [
    {
      "inputs": [
        {
          "internalType": "address",
          "name": "_owner",
          "type": "address"
        }
      ],
      "stateMutability": "nonpayable",
      "type": "constructor"
    },
    {
      "inputs": [],
      "name": "owner",
      "outputs": [
        {
          "internalType": "address",
          "name": "",
          "type": "address"
        }
      ],
      "stateMutability": "view",
      "type": "function"
    },
    {
      "inputs": [
        {
          "internalType": "bytes16",
          "name": "",
          "type": "bytes16"
        }
      ],
      "name": "products",
      "outputs": [
        {
          "internalType": "bytes16",
          "name": "productId",
          "type": "bytes16"
        },
        {
          "internalType": "address",
          "name": "owner",
          "type": "address"
        },
        {
          "internalType": "string",
          "name": "productName",
          "type": "string"
        },
        {
          "internalType": "string",
          "name": "productStatus",
          "type": "string"
        },
        {
          "internalType": "uint256",
          "name": "timestamp",
          "type": "uint256"
        }
      ],
      "stateMutability": "view",
      "type": "function"
    },
    {
      "inputs": [
        {
          "internalType": "string",
          "name": "_productName",
          "type": "string"
        },
        {
          "internalType": "string",
          "name": "_productStatus",
          "type": "string"
        }
      ],
      "name": "registerProduct",
      "outputs": [],
      "stateMutability": "nonpayable",
      "type": "function"
    },
    {
      "inputs": [
        {
          "internalType": "bytes16",
          "name": "_productId",
          "type": "bytes16"
        },
        {
          "internalType": "string",
          "name": "_productName",
          "type": "string"
        },
        {
          "internalType": "string",
          "name": "_productStatus",
          "type": "string"
        }
      ],
      "name": "updateProduct",
      "outputs": [],
      "stateMutability": "view",
      "type": "function"
    },
    {
      "inputs": [
        {
          "internalType": "bytes16",
          "name": "_productId",
          "type": "bytes16"
        }
      ],
      "name": "getProductDetails",
      "outputs": [
        {
          "components": [
            {
              "internalType": "bytes16",
              "name": "productId",
              "type": "bytes16"
            },
            {
              "internalType": "address",
              "name": "owner",
              "type": "address"
            },
            {
              "internalType": "string",
              "name": "productName",
              "type": "string"
            },
            {
              "internalType": "string",
              "name": "productStatus",
              "type": "string"
            },
            {
              "internalType": "uint256",
              "name": "timestamp",
              "type": "uint256"
            }
          ],
          "internalType": "struct Types.Product",
          "name": "",
          "type": "tuple"
        }
      ],
      "stateMutability": "view",
      "type": "function"
    },
    {
      "inputs": [
        {
          "internalType": "bytes16",
          "name": "_productId",
          "type": "bytes16"
        },
        {
          "internalType": "string",
          "name": "_newDetails",
          "type": "string"
        }
      ],
      "name": "addProductDetails",
      "outputs": [
        {
          "internalType": "string",
          "name": "",
          "type": "string"
        }
      ],
      "stateMutability": "nonpayable",
      "type": "function"
    },
    {
      "inputs": [
        {
          "internalType": "bytes16",
          "name": "_productId",
          "type": "bytes16"
        }
      ],
      "name": "findProduct",
      "outputs": [
        {
          "components": [
            {
              "internalType": "bytes16",
              "name": "productId",
              "type": "bytes16"
            },
            {
              "internalType": "address",
              "name": "owner",
              "type": "address"
            },
            {
              "internalType": "string",
              "name": "productName",
              "type": "string"
            },
            {
              "internalType": "string",
              "name": "productStatus",
              "type": "string"
            },
            {
              "internalType": "uint256",
              "name": "timestamp",
              "type": "uint256"
            }
          ],
          "internalType": "struct Types.Product",
          "name": "",
          "type": "tuple"
        }
      ],
      "stateMutability": "view",
      "type": "function"
    }
  ],
  "bytecode": "0x60806040523480156200001157600080fd5b50604051620014f0380380620014f0833981810160405281019062000037919062000095565b806000806101000a81548173ffffffffffffffffffffffffffffffffffffffff021916908373ffffffffffffffffffffffffffffffffffffffff160217905550506200010f565b6000815190506200008f81620000f5565b92915050565b600060208284031215620000a857600080fd5b6000620000b8848285016200007e565b91505092915050565b6000620000ce82620000d5565b9050919050565b600073ffffffffffffffffffffffffffffffffffffffff82169050919050565b6200010081620000c1565b81146200010c57600080fd5b50565b6113d1806200011f6000396000f3fe608060405234801561001057600080fd5b506004361061007d5760003560e01c80638da5cb5b1161005b5780638da5cb5b146101025780638fbd0dcf14610120578063a78983891461013c578063d408f8ae1461016c5761007d565b80630ca7616614610082578063416005711461009e5780637e485fcf146100ce575b600080fd5b61009c60048036038101906100979190610dfc565b61019c565b005b6100b860048036038101906100b39190610da8565b6103bd565b6040516100c59190611106565b60405180910390f35b6100e860048036038101906100e39190610d7f565b6104a0565b6040516100f99594939291906110a5565b60405180910390f35b61010a610613565b604051610117919061108a565b60405180910390f35b61013a60048036038101906101359190610e7b565b610637565b005b61015660048036038101906101519190610d7f565b6107af565b6040516101639190611128565b60405180910390f35b61018660048036038101906101819190610d7f565b6109c3565b6040516101939190611128565b60405180910390f35b600060016000856fffffffffffffffffffffffffffffffff19166fffffffffffffffffffffffffffffffff191681526020019081526020016000206040518060a00160405290816000820160009054906101000a900460801b6fffffffffffffffffffffffffffffffff19166fffffffffffffffffffffffffffffffff191681526020016001820160009054906101000a900473ffffffffffffffffffffffffffffffffffffffff1673ffffffffffffffffffffffffffffffffffffffff1673ffffffffffffffffffffffffffffffffffffffff16815260200160028201805461028590611277565b80601f01602080910402602001604051908101604052809291908181526020018280546102b190611277565b80156102fe5780601f106102d3576101008083540402835291602001916102fe565b820191906000526020600020905b8154815290600101906020018083116102e157829003601f168201915b5050505050815260200160038201805461031790611277565b80601f016020809104026020016040519081016040528092919081815260200182805461034390611277565b80156103905780601f1061036557610100808354040283529160200191610390565b820191906000526020600020905b81548152906001019060200180831161037357829003601f168201915b50505050508152602001600482015481525050905082816040018190525081816060018190525050505050565b60608160016000856fffffffffffffffffffffffffffffffff19166fffffffffffffffffffffffffffffffff19168152602001908152602001600020600301908051906020019061040f929190610c07565b805461041a90611277565b80601f016020809104026020016040519081016040528092919081815260200182805461044690611277565b80156104935780601f1061046857610100808354040283529160200191610493565b820191906000526020600020905b81548152906001019060200180831161047657829003601f168201915b5050505050905092915050565b60016020528060005260406000206000915090508060000160009054906101000a900460801b908060010160009054906101000a900473ffffffffffffffffffffffffffffffffffffffff16908060020180546104fc90611277565b80601f016020809104026020016040519081016040528092919081815260200182805461052890611277565b80156105755780601f1061054a57610100808354040283529160200191610575565b820191906000526020600020905b81548152906001019060200180831161055857829003601f168201915b50505050509080600301805461058a90611277565b80601f01602080910402602001604051908101604052809291908181526020018280546105b690611277565b80156106035780601f106105d857610100808354040283529160200191610603565b820191906000526020600020905b8154815290600101906020018083116105e657829003601f168201915b5050505050908060040154905085565b60008054906101000a900473ffffffffffffffffffffffffffffffffffffffff1681565b6000610641610bd7565b90506040518060a00160405280826fffffffffffffffffffffffffffffffff1916815260200160008054906101000a900473ffffffffffffffffffffffffffffffffffffffff1673ffffffffffffffffffffffffffffffffffffffff1681526020018481526020018381526020014281525060016000836fffffffffffffffffffffffffffffffff19166fffffffffffffffffffffffffffffffff1916815260200190815260200160002060008201518160000160006101000a8154816fffffffffffffffffffffffffffffffff021916908360801c021790555060208201518160010160006101000a81548173ffffffffffffffffffffffffffffffffffffffff021916908373ffffffffffffffffffffffffffffffffffffffff160217905550604082015181600201908051906020019061077f929190610c07565b50606082015181600301908051906020019061079c929190610c07565b5060808201518160040155905050505050565b6107b7610c8d565b60016000836fffffffffffffffffffffffffffffffff19166fffffffffffffffffffffffffffffffff191681526020019081526020016000206040518060a00160405290816000820160009054906101000a900460801b6fffffffffffffffffffffffffffffffff19166fffffffffffffffffffffffffffffffff191681526020016001820160009054906101000a900473ffffffffffffffffffffffffffffffffffffffff1673ffffffffffffffffffffffffffffffffffffffff1673ffffffffffffffffffffffffffffffffffffffff16815260200160028201805461089e90611277565b80601f01602080910402602001604051908101604052809291908181526020018280546108ca90611277565b80156109175780601f106108ec57610100808354040283529160200191610917565b820191906000526020600020905b8154815290600101906020018083116108fa57829003601f168201915b5050505050815260200160038201805461093090611277565b80601f016020809104026020016040519081016040528092919081815260200182805461095c90611277565b80156109a95780601f1061097e576101008083540402835291602001916109a9565b820191906000526020600020905b81548152906001019060200180831161098c57829003601f168201915b505050505081526020016004820154815250509050919050565b6109cb610c8d565b60016000836fffffffffffffffffffffffffffffffff19166fffffffffffffffffffffffffffffffff191681526020019081526020016000206040518060a00160405290816000820160009054906101000a900460801b6fffffffffffffffffffffffffffffffff19166fffffffffffffffffffffffffffffffff191681526020016001820160009054906101000a900473ffffffffffffffffffffffffffffffffffffffff1673ffffffffffffffffffffffffffffffffffffffff1673ffffffffffffffffffffffffffffffffffffffff168152602001600282018054610ab290611277565b80601f0160208091040260200160405190810160405280929190818152602001828054610ade90611277565b8015610b2b5780601f10610b0057610100808354040283529160200191610b2b565b820191906000526020600020905b815481529060010190602001808311610b0e57829003601f168201915b50505050508152602001600382018054610b4490611277565b80601f0160208091040260200160405190810160405280929190818152602001828054610b7090611277565b8015610bbd5780601f10610b9257610100808354040283529160200191610bbd565b820191906000526020600020905b815481529060010190602001808311610ba057829003601f168201915b505050505081526020016004820154815250509050919050565b60004233604051602001610bec92919061105e565b60405160208183030381529060405280519060200120905090565b828054610c1390611277565b90600052602060002090601f016020900481019282610c355760008555610c7c565b82601f10610c4e57805160ff1916838001178555610c7c565b82800160010185558215610c7c579182015b82811115610c7b578251825591602001919060010190610c60565b5b509050610c899190610ce5565b5090565b6040518060a0016040528060006fffffffffffffffffffffffffffffffff19168152602001600073ffffffffffffffffffffffffffffffffffffffff1681526020016060815260200160608152602001600081525090565b5b80821115610cfe576000816000905550600101610ce6565b5090565b6000610d15610d108461116f565b61114a565b905082815260208101848484011115610d2d57600080fd5b610d38848285611235565b509392505050565b600081359050610d4f81611384565b92915050565b600082601f830112610d6657600080fd5b8135610d76848260208601610d02565b91505092915050565b600060208284031215610d9157600080fd5b6000610d9f84828501610d40565b91505092915050565b60008060408385031215610dbb57600080fd5b6000610dc985828601610d40565b925050602083013567ffffffffffffffff811115610de657600080fd5b610df285828601610d55565b9150509250929050565b600080600060608486031215610e1157600080fd5b6000610e1f86828701610d40565b935050602084013567ffffffffffffffff811115610e3c57600080fd5b610e4886828701610d55565b925050604084013567ffffffffffffffff811115610e6557600080fd5b610e7186828701610d55565b9150509250925092565b60008060408385031215610e8e57600080fd5b600083013567ffffffffffffffff811115610ea857600080fd5b610eb485828601610d55565b925050602083013567ffffffffffffffff811115610ed157600080fd5b610edd85828601610d55565b9150509250929050565b610ef0816111cd565b82525050565b610eff816111cd565b82525050565b610f16610f11826111cd565b6112da565b82525050565b610f25816111df565b82525050565b610f34816111df565b82525050565b6000610f45826111a0565b610f4f81856111ab565b9350610f5f818560208601611244565b610f6881611366565b840191505092915050565b6000610f7e826111a0565b610f8881856111bc565b9350610f98818560208601611244565b610fa181611366565b840191505092915050565b600060a083016000830151610fc46000860182610f1c565b506020830151610fd76020860182610ee7565b5060408301518482036040860152610fef8282610f3a565b915050606083015184820360608601526110098282610f3a565b915050608083015161101e6080860182611029565b508091505092915050565b6110328161122b565b82525050565b6110418161122b565b82525050565b6110586110538261122b565b6112fe565b82525050565b600061106a8285611047565b60208201915061107a8284610f05565b6014820191508190509392505050565b600060208201905061109f6000830184610ef6565b92915050565b600060a0820190506110ba6000830188610f2b565b6110c76020830187610ef6565b81810360408301526110d98186610f73565b905081810360608301526110ed8185610f73565b90506110fc6080830184611038565b9695505050505050565b600060208201905081810360008301526111208184610f73565b905092915050565b600060208201905081810360008301526111428184610fac565b905092915050565b6000611154611165565b905061116082826112a9565b919050565b6000604051905090565b600067ffffffffffffffff82111561118a57611189611337565b5b61119382611366565b9050602081019050919050565b600081519050919050565b600082825260208201905092915050565b600082825260208201905092915050565b60006111d88261120b565b9050919050565b60007fffffffffffffffffffffffffffffffff0000000000000000000000000000000082169050919050565b600073ffffffffffffffffffffffffffffffffffffffff82169050919050565b6000819050919050565b82818337600083830152505050565b60005b83811015611262578082015181840152602081019050611247565b83811115611271576000848401525b50505050565b6000600282049050600182168061128f57607f821691505b602082108114156112a3576112a2611308565b5b50919050565b6112b282611366565b810181811067ffffffffffffffff821117156112d1576112d0611337565b5b80604052505050565b60006112e5826112ec565b9050919050565b60006112f782611377565b9050919050565b6000819050919050565b7f4e487b7100000000000000000000000000000000000000000000000000000000600052602260045260246000fd5b7f4e487b7100000000000000000000000000000000000000000000000000000000600052604160045260246000fd5b6000601f19601f8301169050919050565b60008160601b9050919050565b61138d816111df565b811461139857600080fd5b5056fea2646970667358221220414023b7c3707ab63f200cf95bbd563c36e7d63eae0909a4aea08ebe1caa5a8164736f6c63430008020033",
  "immutableReferences": {},
  "source": "// SPDX-License-Identifier: MIT\r\n\r\npragma solidity ^0.8.0;\r\n\r\nimport \"./Types.sol\";\r\n\r\ncontract ProductAction {\r\n    address public owner;\r\n\r\n    mapping(bytes16 => Types.Product) public products;\r\n\r\n    // modifier isProductExist(bytes16 _productId) {\r\n    //     require(\r\n    //         products[_productId].exists,\r\n    //         \"Product with given id does not exist!\"\r\n    //     );\r\n    //     _;\r\n    // }\r\n\r\n    constructor(address _owner) {\r\n        owner = _owner;\r\n    }\r\n\r\n    function registerProduct(\r\n        string memory _productName,\r\n        string memory _productStatus\r\n    ) external {\r\n        bytes16 productId = generateUUID();\r\n        products[productId] = Types.Product({\r\n            productId: productId,\r\n            owner: owner,\r\n            productName: _productName,\r\n            productStatus: _productStatus,\r\n            timestamp: block.timestamp\r\n        });\r\n    }\r\n\r\n    function updateProduct(\r\n        bytes16 _productId,\r\n        string memory _productName,\r\n        string memory _productStatus\r\n    ) external view {\r\n        Types.Product memory product = products[_productId];\r\n        product.productName = _productName;\r\n        product.productStatus = _productStatus;\r\n    }\r\n\r\n    function generateUUID() internal view returns (bytes16) {\r\n        return\r\n            bytes16(keccak256(abi.encodePacked(block.timestamp, msg.sender)));\r\n    }\r\n\r\n    function getProductDetails(\r\n        bytes16 _productId\r\n    ) external view returns (Types.Product memory) {\r\n        return products[_productId];\r\n    }\r\n\r\n    function addProductDetails(\r\n        bytes16 _productId,\r\n        string memory _newDetails\r\n    ) external returns (string memory) {\r\n        return products[_productId].productStatus = _newDetails;\r\n    }\r\n\r\n    function findProduct(\r\n        bytes16 _productId\r\n    ) external view returns (Types.Product memory) {\r\n        return products[_productId];\r\n    }\r\n}\r\n",
  "sourcePath": "C:\\Users\\User\\Desktop\\Uni Projects\\Bitirme\\Project\\backend\\web3-controller\\contracts\\ProductAction.sol",
  "compiler": {
    "name": "solc",
    "version": "0.8.2+commit.661d1103.Emscripten.clang"
  },
  "schemaVersion": "3.4.16",
  "updatedAt": "2024-03-05T09:22:42.014Z",
  "devdoc": {
    "kind": "dev",
    "methods": {},
    "version": 1
  },
  "userdoc": {
    "kind": "user",
    "methods": {},
    "version": 1
  }
}