{
  "contractName": "ProductAction",
  "abi": [
    {
      "inputs": [],
      "stateMutability": "nonpayable",
      "type": "constructor"
    },
    {
      "anonymous": false,
      "inputs": [
        {
          "components": [
            {
              "internalType": "bytes16",
              "name": "productId",
              "type": "bytes16"
            },
            {
              "internalType": "address",
              "name": "owner",
              "type": "address"
            },
            {
              "internalType": "string",
              "name": "productName",
              "type": "string"
            },
            {
              "internalType": "string",
              "name": "productStatus",
              "type": "string"
            },
            {
              "internalType": "uint256",
              "name": "timestamp",
              "type": "uint256"
            }
          ],
          "indexed": false,
          "internalType": "struct Types.Product",
          "name": "product",
          "type": "tuple"
        }
      ],
      "name": "ProductAccessed",
      "type": "event"
    },
    {
      "anonymous": false,
      "inputs": [
        {
          "indexed": false,
          "internalType": "bytes16",
          "name": "productId",
          "type": "bytes16"
        },
        {
          "indexed": false,
          "internalType": "string",
          "name": "productName",
          "type": "string"
        },
        {
          "indexed": false,
          "internalType": "string",
          "name": "productStatus",
          "type": "string"
        }
      ],
      "name": "ProductCreated",
      "type": "event"
    },
    {
      "anonymous": false,
      "inputs": [
        {
          "indexed": false,
          "internalType": "bytes16",
          "name": "productId",
          "type": "bytes16"
        },
        {
          "indexed": false,
          "internalType": "string",
          "name": "productStatus",
          "type": "string"
        }
      ],
      "name": "ProductDetailsUpdated",
      "type": "event"
    },
    {
      "anonymous": false,
      "inputs": [
        {
          "indexed": false,
          "internalType": "bytes16",
          "name": "productId",
          "type": "bytes16"
        },
        {
          "indexed": false,
          "internalType": "string",
          "name": "productName",
          "type": "string"
        },
        {
          "indexed": false,
          "internalType": "string",
          "name": "productStatus",
          "type": "string"
        }
      ],
      "name": "ProductUpdated",
      "type": "event"
    },
    {
      "inputs": [],
      "name": "owner",
      "outputs": [
        {
          "internalType": "address",
          "name": "",
          "type": "address"
        }
      ],
      "stateMutability": "view",
      "type": "function",
      "constant": true
    },
    {
      "inputs": [
        {
          "internalType": "bytes16",
          "name": "",
          "type": "bytes16"
        }
      ],
      "name": "products",
      "outputs": [
        {
          "internalType": "bytes16",
          "name": "productId",
          "type": "bytes16"
        },
        {
          "internalType": "address",
          "name": "owner",
          "type": "address"
        },
        {
          "internalType": "string",
          "name": "productName",
          "type": "string"
        },
        {
          "internalType": "string",
          "name": "productStatus",
          "type": "string"
        },
        {
          "internalType": "uint256",
          "name": "timestamp",
          "type": "uint256"
        }
      ],
      "stateMutability": "view",
      "type": "function",
      "constant": true
    },
    {
      "inputs": [
        {
          "internalType": "string",
          "name": "_productName",
          "type": "string"
        },
        {
          "internalType": "string",
          "name": "_productStatus",
          "type": "string"
        }
      ],
      "name": "registerProduct",
      "outputs": [],
      "stateMutability": "nonpayable",
      "type": "function"
    },
    {
      "inputs": [
        {
          "internalType": "bytes16",
          "name": "_productId",
          "type": "bytes16"
        },
        {
          "internalType": "string",
          "name": "_productName",
          "type": "string"
        },
        {
          "internalType": "string",
          "name": "_productStatus",
          "type": "string"
        }
      ],
      "name": "updateProduct",
      "outputs": [],
      "stateMutability": "nonpayable",
      "type": "function"
    },
    {
      "inputs": [
        {
          "internalType": "bytes16",
          "name": "_productId",
          "type": "bytes16"
        },
        {
          "internalType": "string",
          "name": "_newDetails",
          "type": "string"
        }
      ],
      "name": "addProductDetails",
      "outputs": [],
      "stateMutability": "nonpayable",
      "type": "function"
    },
    {
      "inputs": [
        {
          "internalType": "bytes16",
          "name": "_productId",
          "type": "bytes16"
        }
      ],
      "name": "findProduct",
      "outputs": [],
      "stateMutability": "nonpayable",
      "type": "function"
    }
  ],
  "bytecode": "0x608060405234801561001057600080fd5b50336000806101000a81548173ffffffffffffffffffffffffffffffffffffffff021916908373ffffffffffffffffffffffffffffffffffffffff1602179055506113c2806100606000396000f3fe608060405234801561001057600080fd5b50600436106100625760003560e01c80630ca761661461006757806341600571146100835780637e485fcf1461009f5780638da5cb5b146100d35780638fbd0dcf146100f1578063a78983891461010d575b600080fd5b610081600480360381019061007c9190610b8d565b610129565b005b61009d60048036038101906100989190610b39565b61041f565b005b6100b960048036038101906100b49190610b10565b610576565b6040516100ca959493929190610f41565b60405180910390f35b6100db6106e9565b6040516100e89190610f26565b60405180910390f35b61010b60048036038101906101069190610c0c565b61070d565b005b61012760048036038101906101229190610b10565b61094e565b005b60008054906101000a900473ffffffffffffffffffffffffffffffffffffffff1673ffffffffffffffffffffffffffffffffffffffff163373ffffffffffffffffffffffffffffffffffffffff16146101b7576040517f08c379a00000000000000000000000000000000000000000000000000000000081526004016101ae90611017565b60405180910390fd5b600060016000856fffffffffffffffffffffffffffffffff19166fffffffffffffffffffffffffffffffff191681526020019081526020016000206040518060a00160405290816000820160009054906101000a900460801b6fffffffffffffffffffffffffffffffff19166fffffffffffffffffffffffffffffffff191681526020016001820160009054906101000a900473ffffffffffffffffffffffffffffffffffffffff1673ffffffffffffffffffffffffffffffffffffffff1673ffffffffffffffffffffffffffffffffffffffff1681526020016002820180546102a0906111d7565b80601f01602080910402602001604051908101604052809291908181526020018280546102cc906111d7565b80156103195780601f106102ee57610100808354040283529160200191610319565b820191906000526020600020905b8154815290600101906020018083116102fc57829003601f168201915b50505050508152602001600382018054610332906111d7565b80601f016020809104026020016040519081016040528092919081815260200182805461035e906111d7565b80156103ab5780601f10610380576101008083540402835291602001916103ab565b820191906000526020600020905b81548152906001019060200180831161038e57829003601f168201915b5050505050815260200160048201548152505090508281604001819052508181606001819052507f178eba4789a097c6212073261794b838380873631938229e893b358011e9240681600001518260400151836060015160405161041193929190610fa2565b60405180910390a150505050565b60008054906101000a900473ffffffffffffffffffffffffffffffffffffffff1673ffffffffffffffffffffffffffffffffffffffff163373ffffffffffffffffffffffffffffffffffffffff16146104ad576040517f08c379a00000000000000000000000000000000000000000000000000000000081526004016104a490611017565b60405180910390fd5b8060016000846fffffffffffffffffffffffffffffffff19166fffffffffffffffffffffffffffffffff1916815260200190815260200160002060030190805190602001906104fd9291906109f0565b507fd5e70717d2af1738ee1bde4d5c6fb77a7ebe3ab542d43138166852da4288d1458260016000856fffffffffffffffffffffffffffffffff19166fffffffffffffffffffffffffffffffff1916815260200190815260200160002060030160405161056a929190610fe7565b60405180910390a15050565b60016020528060005260406000206000915090508060000160009054906101000a900460801b908060010160009054906101000a900473ffffffffffffffffffffffffffffffffffffffff16908060020180546105d2906111d7565b80601f01602080910402602001604051908101604052809291908181526020018280546105fe906111d7565b801561064b5780601f106106205761010080835404028352916020019161064b565b820191906000526020600020905b81548152906001019060200180831161062e57829003601f168201915b505050505090806003018054610660906111d7565b80601f016020809104026020016040519081016040528092919081815260200182805461068c906111d7565b80156106d95780601f106106ae576101008083540402835291602001916106d9565b820191906000526020600020905b8154815290600101906020018083116106bc57829003601f168201915b5050505050908060040154905085565b60008054906101000a900473ffffffffffffffffffffffffffffffffffffffff1681565b60008054906101000a900473ffffffffffffffffffffffffffffffffffffffff1673ffffffffffffffffffffffffffffffffffffffff163373ffffffffffffffffffffffffffffffffffffffff161461079b576040517f08c379a000000000000000000000000000000000000000000000000000000000815260040161079290611017565b60405180910390fd5b60006107a56109c0565b90506040518060a00160405280826fffffffffffffffffffffffffffffffff1916815260200160008054906101000a900473ffffffffffffffffffffffffffffffffffffffff1673ffffffffffffffffffffffffffffffffffffffff1681526020018481526020018381526020014281525060016000836fffffffffffffffffffffffffffffffff19166fffffffffffffffffffffffffffffffff1916815260200190815260200160002060008201518160000160006101000a8154816fffffffffffffffffffffffffffffffff021916908360801c021790555060208201518160010160006101000a81548173ffffffffffffffffffffffffffffffffffffffff021916908373ffffffffffffffffffffffffffffffffffffffff16021790555060408201518160020190805190602001906108e39291906109f0565b5060608201518160030190805190602001906109009291906109f0565b50608082015181600401559050507f7d93e5789c391278861525912f511a46c01f71a94540f4c17aedb936b5c4988781848460405161094193929190610fa2565b60405180910390a1505050565b7fcb02ce9c8857ea7f453fe6e4f53fc110ab63ad6f3d3285e5dd5f1fb0307674d560016000836fffffffffffffffffffffffffffffffff19166fffffffffffffffffffffffffffffffff191681526020019081526020016000206040516109b59190611037565b60405180910390a150565b600042336040516020016109d5929190610efa565b60405160208183030381529060405280519060200120905090565b8280546109fc906111d7565b90600052602060002090601f016020900481019282610a1e5760008555610a65565b82601f10610a3757805160ff1916838001178555610a65565b82800160010185558215610a65579182015b82811115610a64578251825591602001919060010190610a49565b5b509050610a729190610a76565b5090565b5b80821115610a8f576000816000905550600101610a77565b5090565b6000610aa6610aa18461107e565b611059565b905082815260208101848484011115610abe57600080fd5b610ac9848285611195565b509392505050565b600081359050610ae081611375565b92915050565b600082601f830112610af757600080fd5b8135610b07848260208601610a93565b91505092915050565b600060208284031215610b2257600080fd5b6000610b3084828501610ad1565b91505092915050565b60008060408385031215610b4c57600080fd5b6000610b5a85828601610ad1565b925050602083013567ffffffffffffffff811115610b7757600080fd5b610b8385828601610ae6565b9150509250929050565b600080600060608486031215610ba257600080fd5b6000610bb086828701610ad1565b935050602084013567ffffffffffffffff811115610bcd57600080fd5b610bd986828701610ae6565b925050604084013567ffffffffffffffff811115610bf657600080fd5b610c0286828701610ae6565b9150509250925092565b60008060408385031215610c1f57600080fd5b600083013567ffffffffffffffff811115610c3957600080fd5b610c4585828601610ae6565b925050602083013567ffffffffffffffff811115610c6257600080fd5b610c6e85828601610ae6565b9150509250929050565b610c818161112d565b82525050565b610c908161112d565b82525050565b610ca7610ca28261112d565b611288565b82525050565b610cb68161113f565b82525050565b610cc58161113f565b82525050565b6000610cd6826110c4565b610ce081856110e0565b9350610cf08185602086016111a4565b610cf981611314565b840191505092915050565b60008154610d11816111d7565b610d1b81866110cf565b94506001821660008114610d365760018114610d4857610d7b565b60ff1983168652602086019350610d7b565b610d51856110af565b60005b83811015610d7357815481890152600182019150602081019050610d54565b808801955050505b50505092915050565b60008154610d91816111d7565b610d9b81866110e0565b94506001821660008114610db65760018114610dc857610dfb565b60ff1983168652602086019350610dfb565b610dd1856110af565b60005b83811015610df357815481890152600182019150602081019050610dd4565b808801955050505b50505092915050565b6000610e116014836110e0565b9150610e1c8261134c565b602082019050919050565b600060a083016000808401549050610e3e81611223565b610e4b6000870182610cad565b5060018401549050610e5c81611209565b610e696020870182610c78565b50600284018583036040870152610e808382610d04565b925050600384018583036060870152610e998382610d04565b92505060048401549050610eac8161123d565b610eb96080870182610ec5565b50819250505092915050565b610ece8161118b565b82525050565b610edd8161118b565b82525050565b610ef4610eef8261118b565b6112ac565b82525050565b6000610f068285610ee3565b602082019150610f168284610c96565b6014820191508190509392505050565b6000602082019050610f3b6000830184610c87565b92915050565b600060a082019050610f566000830188610cbc565b610f636020830187610c87565b8181036040830152610f758186610ccb565b90508181036060830152610f898185610ccb565b9050610f986080830184610ed4565b9695505050505050565b6000606082019050610fb76000830186610cbc565b8181036020830152610fc98185610ccb565b90508181036040830152610fdd8184610ccb565b9050949350505050565b6000604082019050610ffc6000830185610cbc565b818103602083015261100e8184610d84565b90509392505050565b6000602082019050818103600083015261103081610e04565b9050919050565b600060208201905081810360008301526110518184610e27565b905092915050565b6000611063611074565b905061106f8282611257565b919050565b6000604051905090565b600067ffffffffffffffff821115611099576110986112e5565b5b6110a282611314565b9050602081019050919050565b60008190508160005260206000209050919050565b600081519050919050565b600082825260208201905092915050565b600082825260208201905092915050565b600073ffffffffffffffffffffffffffffffffffffffff82169050919050565b600061111c82611325565b9050919050565b6000819050919050565b60006111388261116b565b9050919050565b60007fffffffffffffffffffffffffffffffff0000000000000000000000000000000082169050919050565b600073ffffffffffffffffffffffffffffffffffffffff82169050919050565b6000819050919050565b82818337600083830152505050565b60005b838110156111c25780820151818401526020810190506111a7565b838111156111d1576000848401525b50505050565b600060028204905060018216806111ef57607f821691505b60208210811415611203576112026112b6565b5b50919050565b600061121c6112178361133f565b6110f1565b9050919050565b60006112366112318361133f565b611111565b9050919050565b600061125061124b8361133f565b611123565b9050919050565b61126082611314565b810181811067ffffffffffffffff8211171561127f5761127e6112e5565b5b80604052505050565b60006112938261129a565b9050919050565b60006112a582611332565b9050919050565b6000819050919050565b7f4e487b7100000000000000000000000000000000000000000000000000000000600052602260045260246000fd5b7f4e487b7100000000000000000000000000000000000000000000000000000000600052604160045260246000fd5b6000601f19601f8301169050919050565b60008160801b9050919050565b60008160601b9050919050565b60008160001c9050919050565b7f4e6f7420746865206d616e756661637475726572000000000000000000000000600082015250565b61137e8161113f565b811461138957600080fd5b5056fea2646970667358221220e6d126558ded97304609f92c0cdba4373a12be5a9688dc53e072515a2df190b464736f6c63430008020033",
  "immutableReferences": {},
  "source": "// SPDX-License-Identifier: MIT\r\n\r\npragma solidity ^0.8.0;\r\n\r\nimport \"./Types.sol\";\r\n\r\ncontract ProductAction {\r\n    address public owner;\r\n\r\n    event ProductCreated(\r\n        bytes16 productId,\r\n        string productName,\r\n        string productStatus\r\n    );\r\n    event ProductUpdated(\r\n        bytes16 productId,\r\n        string productName,\r\n        string productStatus\r\n    );\r\n    event ProductAccessed(Types.Product product);\r\n    event ProductDetailsUpdated(bytes16 productId, string productStatus);\r\n\r\n    mapping(bytes16 => Types.Product) public products;\r\n\r\n    modifier onlyManufacturer() {\r\n        require(msg.sender == owner, \"Not the manufacturer\");\r\n        _;\r\n    }\r\n\r\n    constructor() {\r\n        owner = msg.sender;\r\n    }\r\n\r\n    function registerProduct(\r\n        string memory _productName,\r\n        string memory _productStatus\r\n    ) external onlyManufacturer {\r\n        bytes16 productId = generateUUID();\r\n        products[productId] = Types.Product({\r\n            productId: productId,\r\n            owner: owner,\r\n            productName: _productName,\r\n            productStatus: _productStatus,\r\n            timestamp: block.timestamp\r\n        });\r\n        emit ProductCreated(productId, _productName, _productStatus);\r\n    }\r\n\r\n    function updateProduct(\r\n        bytes16 _productId,\r\n        string memory _productName,\r\n        string memory _productStatus\r\n    ) external onlyManufacturer {\r\n        Types.Product memory product = products[_productId];\r\n        product.productName = _productName;\r\n        product.productStatus = _productStatus;\r\n        emit ProductUpdated(\r\n            product.productId,\r\n            product.productName,\r\n            product.productStatus\r\n        );\r\n    }\r\n\r\n    function generateUUID() internal view returns (bytes16) {\r\n        return\r\n            bytes16(keccak256(abi.encodePacked(block.timestamp, msg.sender)));\r\n    }\r\n\r\n    function addProductDetails(\r\n        bytes16 _productId,\r\n        string memory _newDetails\r\n    ) external onlyManufacturer {\r\n        products[_productId].productStatus = _newDetails;\r\n        emit ProductDetailsUpdated(\r\n            _productId,\r\n            products[_productId].productStatus\r\n        );\r\n    }\r\n\r\n    function findProduct(bytes16 _productId) external {\r\n        emit ProductAccessed(products[_productId]);\r\n    }\r\n}\r\n",
  "sourcePath": "C:\\Users\\User\\Desktop\\Uni Projects\\Bitirme\\Project\\backend\\web3-controller\\contracts\\ProductAction.sol",
  "compiler": {
    "name": "solc",
    "version": "0.8.2+commit.661d1103.Emscripten.clang"
  },
  "schemaVersion": "3.4.16",
  "updatedAt": "2024-03-26T09:50:29.666Z",
  "networkType": "ethereum",
  "devdoc": {
    "kind": "dev",
    "methods": {},
    "version": 1
  },
  "userdoc": {
    "kind": "user",
    "methods": {},
    "version": 1
  }
}