{
  "contractName": "ProductAction",
  "abi": [
    {
      "inputs": [],
      "stateMutability": "nonpayable",
      "type": "constructor"
    },
    {
      "anonymous": false,
      "inputs": [
        {
          "components": [
            {
              "internalType": "bytes16",
              "name": "productId",
              "type": "bytes16"
            },
            {
              "internalType": "address",
              "name": "owner",
              "type": "address"
            },
            {
              "internalType": "string",
              "name": "productName",
              "type": "string"
            },
            {
              "internalType": "string",
              "name": "productStatus",
              "type": "string"
            }
          ],
          "indexed": false,
          "internalType": "struct Types.Product",
          "name": "product",
          "type": "tuple"
        }
      ],
      "name": "ProductAccessed",
      "type": "event"
    },
    {
      "anonymous": false,
      "inputs": [
        {
          "indexed": false,
          "internalType": "bytes16",
          "name": "productId",
          "type": "bytes16"
        },
        {
          "indexed": false,
          "internalType": "string",
          "name": "productName",
          "type": "string"
        },
        {
          "indexed": false,
          "internalType": "string",
          "name": "productStatus",
          "type": "string"
        }
      ],
      "name": "ProductCreated",
      "type": "event"
    },
    {
      "anonymous": false,
      "inputs": [
        {
          "indexed": false,
          "internalType": "bytes16",
          "name": "productId",
          "type": "bytes16"
        },
        {
          "indexed": false,
          "internalType": "string",
          "name": "productStatus",
          "type": "string"
        }
      ],
      "name": "ProductDetailsUpdated",
      "type": "event"
    },
    {
      "anonymous": false,
      "inputs": [
        {
          "indexed": false,
          "internalType": "bytes16",
          "name": "productId",
          "type": "bytes16"
        },
        {
          "indexed": false,
          "internalType": "string",
          "name": "productName",
          "type": "string"
        },
        {
          "indexed": false,
          "internalType": "string",
          "name": "productStatus",
          "type": "string"
        }
      ],
      "name": "ProductUpdated",
      "type": "event"
    },
    {
      "anonymous": false,
      "inputs": [
        {
          "components": [
            {
              "internalType": "bytes16",
              "name": "productId",
              "type": "bytes16"
            },
            {
              "internalType": "address",
              "name": "owner",
              "type": "address"
            },
            {
              "internalType": "string",
              "name": "productName",
              "type": "string"
            },
            {
              "internalType": "string",
              "name": "productStatus",
              "type": "string"
            }
          ],
          "indexed": false,
          "internalType": "struct Types.Product[]",
          "name": "products",
          "type": "tuple[]"
        }
      ],
      "name": "ProductsReturned",
      "type": "event"
    },
    {
      "inputs": [],
      "name": "owner",
      "outputs": [
        {
          "internalType": "address",
          "name": "",
          "type": "address"
        }
      ],
      "stateMutability": "view",
      "type": "function",
      "constant": true
    },
    {
      "inputs": [
        {
          "internalType": "bytes16",
          "name": "",
          "type": "bytes16"
        }
      ],
      "name": "products",
      "outputs": [
        {
          "internalType": "bytes16",
          "name": "productId",
          "type": "bytes16"
        },
        {
          "internalType": "address",
          "name": "owner",
          "type": "address"
        },
        {
          "internalType": "string",
          "name": "productName",
          "type": "string"
        },
        {
          "internalType": "string",
          "name": "productStatus",
          "type": "string"
        }
      ],
      "stateMutability": "view",
      "type": "function",
      "constant": true
    },
    {
      "inputs": [
        {
          "internalType": "string",
          "name": "_productName",
          "type": "string"
        },
        {
          "internalType": "string",
          "name": "_productStatus",
          "type": "string"
        }
      ],
      "name": "registerProduct",
      "outputs": [],
      "stateMutability": "nonpayable",
      "type": "function"
    },
    {
      "inputs": [
        {
          "internalType": "bytes16",
          "name": "_productId",
          "type": "bytes16"
        },
        {
          "internalType": "string",
          "name": "_productName",
          "type": "string"
        },
        {
          "internalType": "string",
          "name": "_productStatus",
          "type": "string"
        }
      ],
      "name": "updateProduct",
      "outputs": [],
      "stateMutability": "nonpayable",
      "type": "function"
    },
    {
      "inputs": [
        {
          "internalType": "bytes16",
          "name": "_productId",
          "type": "bytes16"
        },
        {
          "internalType": "string",
          "name": "_newDetails",
          "type": "string"
        }
      ],
      "name": "addProductDetails",
      "outputs": [],
      "stateMutability": "nonpayable",
      "type": "function"
    },
    {
      "inputs": [
        {
          "internalType": "bytes16",
          "name": "_productId",
          "type": "bytes16"
        }
      ],
      "name": "findProduct",
      "outputs": [],
      "stateMutability": "nonpayable",
      "type": "function"
    },
    {
      "inputs": [],
      "name": "getAllProducts",
      "outputs": [],
      "stateMutability": "nonpayable",
      "type": "function"
    }
  ],
  "bytecode": "0x608060405234801561001057600080fd5b50336000806101000a81548173ffffffffffffffffffffffffffffffffffffffff021916908373ffffffffffffffffffffffffffffffffffffffff1602179055506116d1806100606000396000f3fe608060405234801561001057600080fd5b506004361061007d5760003560e01c80637e485fcf1161005b5780637e485fcf146100c45780638da5cb5b146100f75780638fbd0dcf14610115578063a7898389146101315761007d565b806302ee3a52146100825780630ca761661461008c57806341600571146100a8575b600080fd5b61008a61014d565b005b6100a660048036038101906100a19190610da2565b610187565b005b6100c260048036038101906100bd9190610d4e565b610473565b005b6100de60048036038101906100d99190610d25565b6105ca565b6040516100ee9493929190611244565b60405180910390f35b6100ff610737565b60405161010c9190611207565b60405180910390f35b61012f600480360381019061012a9190610e21565b61075b565b005b61014b60048036038101906101469190610d25565b610ad6565b005b7fbced1187fad7db4bbb58998ec017815433c91ab1631df47c5427ccf9980a4b11600260405161017d9190611222565b60405180910390a1565b60008054906101000a900473ffffffffffffffffffffffffffffffffffffffff1673ffffffffffffffffffffffffffffffffffffffff163373ffffffffffffffffffffffffffffffffffffffff1614610215576040517f08c379a000000000000000000000000000000000000000000000000000000000815260040161020c9061130c565b60405180910390fd5b600060016000856fffffffffffffffffffffffffffffffff19166fffffffffffffffffffffffffffffffff191681526020019081526020016000206040518060800160405290816000820160009054906101000a900460801b6fffffffffffffffffffffffffffffffff19166fffffffffffffffffffffffffffffffff191681526020016001820160009054906101000a900473ffffffffffffffffffffffffffffffffffffffff1673ffffffffffffffffffffffffffffffffffffffff1673ffffffffffffffffffffffffffffffffffffffff1681526020016002820180546102fe90611500565b80601f016020809104026020016040519081016040528092919081815260200182805461032a90611500565b80156103775780601f1061034c57610100808354040283529160200191610377565b820191906000526020600020905b81548152906001019060200180831161035a57829003601f168201915b5050505050815260200160038201805461039090611500565b80601f01602080910402602001604051908101604052809291908181526020018280546103bc90611500565b80156104095780601f106103de57610100808354040283529160200191610409565b820191906000526020600020905b8154815290600101906020018083116103ec57829003601f168201915b50505050508152505090508281604001819052508181606001819052507f178eba4789a097c6212073261794b838380873631938229e893b358011e9240681600001518260400151836060015160405161046593929190611297565b60405180910390a150505050565b60008054906101000a900473ffffffffffffffffffffffffffffffffffffffff1673ffffffffffffffffffffffffffffffffffffffff163373ffffffffffffffffffffffffffffffffffffffff1614610501576040517f08c379a00000000000000000000000000000000000000000000000000000000081526004016104f89061130c565b60405180910390fd5b8060016000846fffffffffffffffffffffffffffffffff19166fffffffffffffffffffffffffffffffff191681526020019081526020016000206003019080519060200190610551929190610b78565b507fd5e70717d2af1738ee1bde4d5c6fb77a7ebe3ab542d43138166852da4288d1458260016000856fffffffffffffffffffffffffffffffff19166fffffffffffffffffffffffffffffffff191681526020019081526020016000206003016040516105be9291906112dc565b60405180910390a15050565b60016020528060005260406000206000915090508060000160009054906101000a900460801b908060010160009054906101000a900473ffffffffffffffffffffffffffffffffffffffff169080600201805461062690611500565b80601f016020809104026020016040519081016040528092919081815260200182805461065290611500565b801561069f5780601f106106745761010080835404028352916020019161069f565b820191906000526020600020905b81548152906001019060200180831161068257829003601f168201915b5050505050908060030180546106b490611500565b80601f01602080910402602001604051908101604052809291908181526020018280546106e090611500565b801561072d5780601f106107025761010080835404028352916020019161072d565b820191906000526020600020905b81548152906001019060200180831161071057829003601f168201915b5050505050905084565b60008054906101000a900473ffffffffffffffffffffffffffffffffffffffff1681565b60008054906101000a900473ffffffffffffffffffffffffffffffffffffffff1673ffffffffffffffffffffffffffffffffffffffff163373ffffffffffffffffffffffffffffffffffffffff16146107e9576040517f08c379a00000000000000000000000000000000000000000000000000000000081526004016107e09061130c565b60405180910390fd5b60006107f3610b48565b90506040518060800160405280826fffffffffffffffffffffffffffffffff1916815260200160008054906101000a900473ffffffffffffffffffffffffffffffffffffffff1673ffffffffffffffffffffffffffffffffffffffff1681526020018481526020018381525060016000836fffffffffffffffffffffffffffffffff19166fffffffffffffffffffffffffffffffff1916815260200190815260200160002060008201518160000160006101000a8154816fffffffffffffffffffffffffffffffff021916908360801c021790555060208201518160010160006101000a81548173ffffffffffffffffffffffffffffffffffffffff021916908373ffffffffffffffffffffffffffffffffffffffff160217905550604082015181600201908051906020019061092b929190610b78565b506060820151816003019080519060200190610948929190610b78565b50905050600260016000836fffffffffffffffffffffffffffffffff19166fffffffffffffffffffffffffffffffff1916815260200190815260200160002090806001815401808255809150506001900390600052602060002090600402016000909190919091506000820160009054906101000a900460801b8160000160006101000a8154816fffffffffffffffffffffffffffffffff021916908360801c02179055506001820160009054906101000a900473ffffffffffffffffffffffffffffffffffffffff168160010160006101000a81548173ffffffffffffffffffffffffffffffffffffffff021916908373ffffffffffffffffffffffffffffffffffffffff1602179055506002820181600201908054610a6890611500565b610a73929190610bfe565b506003820181600301908054610a8890611500565b610a93929190610bfe565b5050507f7d93e5789c391278861525912f511a46c01f71a94540f4c17aedb936b5c49887818484604051610ac993929190611297565b60405180910390a1505050565b7f459873de682e8bd0e946b88821ddeea9e7349d07616b10d768dd4aa259b3990b60016000836fffffffffffffffffffffffffffffffff19166fffffffffffffffffffffffffffffffff19168152602001908152602001600020604051610b3d919061132c565b60405180910390a150565b60004233604051602001610b5d9291906111db565b60405160208183030381529060405280519060200120905090565b828054610b8490611500565b90600052602060002090601f016020900481019282610ba65760008555610bed565b82601f10610bbf57805160ff1916838001178555610bed565b82800160010185558215610bed579182015b82811115610bec578251825591602001919060010190610bd1565b5b509050610bfa9190610c8b565b5090565b828054610c0a90611500565b90600052602060002090601f016020900481019282610c2c5760008555610c7a565b82601f10610c3d5780548555610c7a565b82800160010185558215610c7a57600052602060002091601f016020900482015b82811115610c79578254825591600101919060010190610c5e565b5b509050610c879190610c8b565b5090565b5b80821115610ca4576000816000905550600101610c8c565b5090565b6000610cbb610cb684611373565b61134e565b905082815260208101848484011115610cd357600080fd5b610cde8482856114be565b509392505050565b600081359050610cf581611684565b92915050565b600082601f830112610d0c57600080fd5b8135610d1c848260208601610ca8565b91505092915050565b600060208284031215610d3757600080fd5b6000610d4584828501610ce6565b91505092915050565b60008060408385031215610d6157600080fd5b6000610d6f85828601610ce6565b925050602083013567ffffffffffffffff811115610d8c57600080fd5b610d9885828601610cfb565b9150509250929050565b600080600060608486031215610db757600080fd5b6000610dc586828701610ce6565b935050602084013567ffffffffffffffff811115610de257600080fd5b610dee86828701610cfb565b925050604084013567ffffffffffffffff811115610e0b57600080fd5b610e1786828701610cfb565b9150509250925092565b60008060408385031215610e3457600080fd5b600083013567ffffffffffffffff811115610e4e57600080fd5b610e5a85828601610cfb565b925050602083013567ffffffffffffffff811115610e7757600080fd5b610e8385828601610cfb565b9150509250929050565b6000610e9983836110c4565b905092915050565b610eaa81611456565b82525050565b610eb981611456565b82525050565b610ed0610ecb82611456565b611597565b82525050565b6000610ee1826113ce565b610eeb81856113f1565b935083602082028501610efd856113a4565b8060005b85811015610f3857848403895281610f198582610e8d565b9450610f24836113e4565b925060208a01995050600181019050610f01565b50829750879550505050505092915050565b610f5381611468565b82525050565b610f6281611468565b82525050565b6000610f73826113d9565b610f7d8185611413565b9350610f8d8185602086016114cd565b610f9681611623565b840191505092915050565b60008154610fae81611500565b610fb88186611402565b94506001821660008114610fd35760018114610fe557611018565b60ff1983168652602086019350611018565b610fee856113b9565b60005b8381101561101057815481890152600182019150602081019050610ff1565b808801955050505b50505092915050565b6000815461102e81611500565b6110388186611413565b94506001821660008114611053576001811461106557611098565b60ff1983168652602086019350611098565b61106e856113b9565b60005b8381101561109057815481890152600182019150602081019050611071565b808801955050505b50505092915050565b60006110ae601483611413565b91506110b98261165b565b602082019050919050565b60006080830160008084015490506110db8161154c565b6110e86000870182610f4a565b50600184015490506110f981611532565b6111066020870182610ea1565b5060028401858303604087015261111d8382610fa1565b9250506003840185830360608701526111368382610fa1565b925050819250505092915050565b600060808301600080840154905061115b8161154c565b6111686000870182610f4a565b506001840154905061117981611532565b6111866020870182610ea1565b5060028401858303604087015261119d8382610fa1565b9250506003840185830360608701526111b68382610fa1565b925050819250505092915050565b6111d56111d0826114b4565b6115bb565b82525050565b60006111e782856111c4565b6020820191506111f78284610ebf565b6014820191508190509392505050565b600060208201905061121c6000830184610eb0565b92915050565b6000602082019050818103600083015261123c8184610ed6565b905092915050565b60006080820190506112596000830187610f59565b6112666020830186610eb0565b81810360408301526112788185610f68565b9050818103606083015261128c8184610f68565b905095945050505050565b60006060820190506112ac6000830186610f59565b81810360208301526112be8185610f68565b905081810360408301526112d28184610f68565b9050949350505050565b60006040820190506112f16000830185610f59565b81810360208301526113038184611021565b90509392505050565b60006020820190508181036000830152611325816110a1565b9050919050565b600060208201905081810360008301526113468184611144565b905092915050565b6000611358611369565b90506113648282611566565b919050565b6000604051905090565b600067ffffffffffffffff82111561138e5761138d6115f4565b5b61139782611623565b9050602081019050919050565b60008190508160005260206000209050919050565b60008190508160005260206000209050919050565b600081549050919050565b600081519050919050565b6000600482019050919050565b600082825260208201905092915050565b600082825260208201905092915050565b600082825260208201905092915050565b600073ffffffffffffffffffffffffffffffffffffffff82169050919050565b600061144f82611634565b9050919050565b600061146182611494565b9050919050565b60007fffffffffffffffffffffffffffffffff0000000000000000000000000000000082169050919050565b600073ffffffffffffffffffffffffffffffffffffffff82169050919050565b6000819050919050565b82818337600083830152505050565b60005b838110156114eb5780820151818401526020810190506114d0565b838111156114fa576000848401525b50505050565b6000600282049050600182168061151857607f821691505b6020821081141561152c5761152b6115c5565b5b50919050565b60006115456115408361164e565b611424565b9050919050565b600061155f61155a8361164e565b611444565b9050919050565b61156f82611623565b810181811067ffffffffffffffff8211171561158e5761158d6115f4565b5b80604052505050565b60006115a2826115a9565b9050919050565b60006115b482611641565b9050919050565b6000819050919050565b7f4e487b7100000000000000000000000000000000000000000000000000000000600052602260045260246000fd5b7f4e487b7100000000000000000000000000000000000000000000000000000000600052604160045260246000fd5b6000601f19601f8301169050919050565b60008160801b9050919050565b60008160601b9050919050565b60008160001c9050919050565b7f4e6f7420746865206d616e756661637475726572000000000000000000000000600082015250565b61168d81611468565b811461169857600080fd5b5056fea26469706673582212203fc92de70b464ccfaafe74fb41cf6f41bf743a5cb0767673143c4bfd29a261a764736f6c63430008020033",
  "immutableReferences": {},
  "source": "// SPDX-License-Identifier: MIT\r\n\r\npragma solidity ^0.8.0;\r\n\r\nimport \"./Types.sol\";\r\n\r\ncontract ProductAction {\r\n    address public owner;\r\n\r\n    event ProductCreated(\r\n        bytes16 productId,\r\n        string productName,\r\n        string productStatus\r\n    );\r\n    event ProductUpdated(\r\n        bytes16 productId,\r\n        string productName,\r\n        string productStatus\r\n    );\r\n    event ProductAccessed(Types.Product product);\r\n    event ProductsReturned(Types.Product[] products);\r\n    event ProductDetailsUpdated(bytes16 productId, string productStatus);\r\n\r\n    mapping(bytes16 => Types.Product) public products;\r\n    Types.Product[] productList;\r\n\r\n    modifier onlyManufacturer() {\r\n        require(msg.sender == owner, \"Not the manufacturer\");\r\n        _;\r\n    }\r\n\r\n    constructor() {\r\n        owner = msg.sender;\r\n    }\r\n\r\n    function registerProduct(\r\n        string memory _productName,\r\n        string memory _productStatus\r\n    ) external onlyManufacturer {\r\n        bytes16 productId = generateUUID();\r\n        products[productId] = Types.Product({\r\n            productId: productId,\r\n            owner: owner,\r\n            productName: _productName,\r\n            productStatus: _productStatus\r\n        });\r\n        productList.push(products[productId]);\r\n        emit ProductCreated(productId, _productName, _productStatus);\r\n    }\r\n\r\n    function updateProduct(\r\n        bytes16 _productId,\r\n        string memory _productName,\r\n        string memory _productStatus\r\n    ) external onlyManufacturer {\r\n        Types.Product memory product = products[_productId];\r\n        product.productName = _productName;\r\n        product.productStatus = _productStatus;\r\n        emit ProductUpdated(\r\n            product.productId,\r\n            product.productName,\r\n            product.productStatus\r\n        );\r\n    }\r\n\r\n    function generateUUID() internal view returns (bytes16) {\r\n        return\r\n            bytes16(keccak256(abi.encodePacked(block.timestamp, msg.sender)));\r\n    }\r\n\r\n    function addProductDetails(\r\n        bytes16 _productId,\r\n        string memory _newDetails\r\n    ) external onlyManufacturer {\r\n        products[_productId].productStatus = _newDetails;\r\n        emit ProductDetailsUpdated(\r\n            _productId,\r\n            products[_productId].productStatus\r\n        );\r\n    }\r\n\r\n    function findProduct(bytes16 _productId) external {\r\n        emit ProductAccessed(products[_productId]);\r\n    }\r\n\r\n    function getAllProducts() public {\r\n        emit ProductsReturned(productList);\r\n    }\r\n}\r\n",
  "sourcePath": "C:\\Users\\User\\Desktop\\Uni Projects\\Bitirme\\Project\\backend\\web3-controller\\contracts\\ProductAction.sol",
  "compiler": {
    "name": "solc",
    "version": "0.8.2+commit.661d1103.Emscripten.clang"
  },
  "schemaVersion": "3.4.16",
  "updatedAt": "2024-03-28T19:20:36.917Z",
  "networkType": "ethereum",
  "devdoc": {
    "kind": "dev",
    "methods": {},
    "version": 1
  },
  "userdoc": {
    "kind": "user",
    "methods": {},
    "version": 1
  }
}