{
  "contractName": "ProductAction",
  "abi": [
    {
      "inputs": [],
      "stateMutability": "nonpayable",
      "type": "constructor"
    },
    {
      "anonymous": false,
      "inputs": [
        {
          "components": [
            {
              "internalType": "bytes16",
              "name": "productId",
              "type": "bytes16"
            },
            {
              "internalType": "address",
              "name": "owner",
              "type": "address"
            },
            {
              "internalType": "string",
              "name": "productName",
              "type": "string"
            },
            {
              "internalType": "string",
              "name": "productionDate",
              "type": "string"
            }
          ],
          "indexed": false,
          "internalType": "struct Types.Product",
          "name": "product",
          "type": "tuple"
        }
      ],
      "name": "ProductAccessed",
      "type": "event"
    },
    {
      "anonymous": false,
      "inputs": [
        {
          "indexed": false,
          "internalType": "bytes16",
          "name": "productId",
          "type": "bytes16"
        },
        {
          "indexed": false,
          "internalType": "string",
          "name": "productName",
          "type": "string"
        },
        {
          "indexed": false,
          "internalType": "string",
          "name": "productionDate",
          "type": "string"
        }
      ],
      "name": "ProductCreated",
      "type": "event"
    },
    {
      "anonymous": false,
      "inputs": [
        {
          "indexed": false,
          "internalType": "bytes16",
          "name": "productId",
          "type": "bytes16"
        }
      ],
      "name": "ProductDetailsUpdated",
      "type": "event"
    },
    {
      "anonymous": false,
      "inputs": [
        {
          "indexed": false,
          "internalType": "bytes16",
          "name": "productId",
          "type": "bytes16"
        },
        {
          "indexed": false,
          "internalType": "string",
          "name": "productName",
          "type": "string"
        }
      ],
      "name": "ProductUpdated",
      "type": "event"
    },
    {
      "anonymous": false,
      "inputs": [
        {
          "components": [
            {
              "internalType": "bytes16",
              "name": "productId",
              "type": "bytes16"
            },
            {
              "internalType": "address",
              "name": "owner",
              "type": "address"
            },
            {
              "internalType": "string",
              "name": "productName",
              "type": "string"
            },
            {
              "internalType": "string",
              "name": "productionDate",
              "type": "string"
            }
          ],
          "indexed": false,
          "internalType": "struct Types.Product[]",
          "name": "products",
          "type": "tuple[]"
        }
      ],
      "name": "ProductsReturned",
      "type": "event"
    },
    {
      "inputs": [],
      "name": "owner",
      "outputs": [
        {
          "internalType": "address",
          "name": "",
          "type": "address"
        }
      ],
      "stateMutability": "view",
      "type": "function",
      "constant": true
    },
    {
      "inputs": [
        {
          "internalType": "bytes16",
          "name": "",
          "type": "bytes16"
        }
      ],
      "name": "products",
      "outputs": [
        {
          "internalType": "bytes16",
          "name": "productId",
          "type": "bytes16"
        },
        {
          "internalType": "address",
          "name": "owner",
          "type": "address"
        },
        {
          "internalType": "string",
          "name": "productName",
          "type": "string"
        },
        {
          "internalType": "string",
          "name": "productionDate",
          "type": "string"
        }
      ],
      "stateMutability": "view",
      "type": "function",
      "constant": true
    },
    {
      "inputs": [
        {
          "internalType": "string",
          "name": "_productName",
          "type": "string"
        },
        {
          "internalType": "string",
          "name": "_date",
          "type": "string"
        }
      ],
      "name": "registerProduct",
      "outputs": [],
      "stateMutability": "nonpayable",
      "type": "function"
    },
    {
      "inputs": [
        {
          "internalType": "bytes16",
          "name": "_productId",
          "type": "bytes16"
        },
        {
          "internalType": "string",
          "name": "_productName",
          "type": "string"
        }
      ],
      "name": "updateProduct",
      "outputs": [],
      "stateMutability": "nonpayable",
      "type": "function"
    },
    {
      "inputs": [
        {
          "internalType": "bytes16",
          "name": "_productId",
          "type": "bytes16"
        }
      ],
      "name": "findProduct",
      "outputs": [],
      "stateMutability": "nonpayable",
      "type": "function"
    },
    {
      "inputs": [],
      "name": "getAllProducts",
      "outputs": [],
      "stateMutability": "nonpayable",
      "type": "function"
    }
  ],
  "bytecode": "0x608060405234801561001057600080fd5b50336000806101000a81548173ffffffffffffffffffffffffffffffffffffffff021916908373ffffffffffffffffffffffffffffffffffffffff160217905550611434806100606000396000f3fe608060405234801561001057600080fd5b50600436106100625760003560e01c806302ee3a521461006757806351871839146100715780637e485fcf1461008d5780638da5cb5b146100c05780638fbd0dcf146100de578063a7898389146100fa575b600080fd5b61006f610116565b005b61008b60048036038101906100869190610bb0565b610150565b005b6100a760048036038101906100a29190610b87565b61042c565b6040516100b79493929190610fa7565b60405180910390f35b6100c8610599565b6040516100d59190610f6a565b60405180910390f35b6100f860048036038101906100f39190610c04565b6105bd565b005b610114600480360381019061010f9190610b87565b610938565b005b7fbced1187fad7db4bbb58998ec017815433c91ab1631df47c5427ccf9980a4b1160026040516101469190610f85565b60405180910390a1565b60008054906101000a900473ffffffffffffffffffffffffffffffffffffffff1673ffffffffffffffffffffffffffffffffffffffff163373ffffffffffffffffffffffffffffffffffffffff16146101de576040517f08c379a00000000000000000000000000000000000000000000000000000000081526004016101d59061106f565b60405180910390fd5b600060016000846fffffffffffffffffffffffffffffffff19166fffffffffffffffffffffffffffffffff191681526020019081526020016000206040518060800160405290816000820160009054906101000a900460801b6fffffffffffffffffffffffffffffffff19166fffffffffffffffffffffffffffffffff191681526020016001820160009054906101000a900473ffffffffffffffffffffffffffffffffffffffff1673ffffffffffffffffffffffffffffffffffffffff1673ffffffffffffffffffffffffffffffffffffffff1681526020016002820180546102c790611263565b80601f01602080910402602001604051908101604052809291908181526020018280546102f390611263565b80156103405780601f1061031557610100808354040283529160200191610340565b820191906000526020600020905b81548152906001019060200180831161032357829003601f168201915b5050505050815260200160038201805461035990611263565b80601f016020809104026020016040519081016040528092919081815260200182805461038590611263565b80156103d25780601f106103a7576101008083540402835291602001916103d2565b820191906000526020600020905b8154815290600101906020018083116103b557829003601f168201915b50505050508152505090508181604001819052507f4972e30ef33d26e2ad18bfde0d410806b5d0d90568ca1b8b3af0ab53744603ca8160000151826040015160405161041f929190610ffa565b60405180910390a1505050565b60016020528060005260406000206000915090508060000160009054906101000a900460801b908060010160009054906101000a900473ffffffffffffffffffffffffffffffffffffffff169080600201805461048890611263565b80601f01602080910402602001604051908101604052809291908181526020018280546104b490611263565b80156105015780601f106104d657610100808354040283529160200191610501565b820191906000526020600020905b8154815290600101906020018083116104e457829003601f168201915b50505050509080600301805461051690611263565b80601f016020809104026020016040519081016040528092919081815260200182805461054290611263565b801561058f5780601f106105645761010080835404028352916020019161058f565b820191906000526020600020905b81548152906001019060200180831161057257829003601f168201915b5050505050905084565b60008054906101000a900473ffffffffffffffffffffffffffffffffffffffff1681565b60008054906101000a900473ffffffffffffffffffffffffffffffffffffffff1673ffffffffffffffffffffffffffffffffffffffff163373ffffffffffffffffffffffffffffffffffffffff161461064b576040517f08c379a00000000000000000000000000000000000000000000000000000000081526004016106429061106f565b60405180910390fd5b60006106556109aa565b90506040518060800160405280826fffffffffffffffffffffffffffffffff1916815260200160008054906101000a900473ffffffffffffffffffffffffffffffffffffffff1673ffffffffffffffffffffffffffffffffffffffff1681526020018481526020018381525060016000836fffffffffffffffffffffffffffffffff19166fffffffffffffffffffffffffffffffff1916815260200190815260200160002060008201518160000160006101000a8154816fffffffffffffffffffffffffffffffff021916908360801c021790555060208201518160010160006101000a81548173ffffffffffffffffffffffffffffffffffffffff021916908373ffffffffffffffffffffffffffffffffffffffff160217905550604082015181600201908051906020019061078d9291906109da565b5060608201518160030190805190602001906107aa9291906109da565b50905050600260016000836fffffffffffffffffffffffffffffffff19166fffffffffffffffffffffffffffffffff1916815260200190815260200160002090806001815401808255809150506001900390600052602060002090600402016000909190919091506000820160009054906101000a900460801b8160000160006101000a8154816fffffffffffffffffffffffffffffffff021916908360801c02179055506001820160009054906101000a900473ffffffffffffffffffffffffffffffffffffffff168160010160006101000a81548173ffffffffffffffffffffffffffffffffffffffff021916908373ffffffffffffffffffffffffffffffffffffffff16021790555060028201816002019080546108ca90611263565b6108d5929190610a60565b5060038201816003019080546108ea90611263565b6108f5929190610a60565b5050507f7d93e5789c391278861525912f511a46c01f71a94540f4c17aedb936b5c4988781848460405161092b9392919061102a565b60405180910390a1505050565b7f459873de682e8bd0e946b88821ddeea9e7349d07616b10d768dd4aa259b3990b60016000836fffffffffffffffffffffffffffffffff19166fffffffffffffffffffffffffffffffff1916815260200190815260200160002060405161099f919061108f565b60405180910390a150565b600042336040516020016109bf929190610f3e565b60405160208183030381529060405280519060200120905090565b8280546109e690611263565b90600052602060002090601f016020900481019282610a085760008555610a4f565b82601f10610a2157805160ff1916838001178555610a4f565b82800160010185558215610a4f579182015b82811115610a4e578251825591602001919060010190610a33565b5b509050610a5c9190610aed565b5090565b828054610a6c90611263565b90600052602060002090601f016020900481019282610a8e5760008555610adc565b82601f10610a9f5780548555610adc565b82800160010185558215610adc57600052602060002091601f016020900482015b82811115610adb578254825591600101919060010190610ac0565b5b509050610ae99190610aed565b5090565b5b80821115610b06576000816000905550600101610aee565b5090565b6000610b1d610b18846110d6565b6110b1565b905082815260208101848484011115610b3557600080fd5b610b40848285611221565b509392505050565b600081359050610b57816113e7565b92915050565b600082601f830112610b6e57600080fd5b8135610b7e848260208601610b0a565b91505092915050565b600060208284031215610b9957600080fd5b6000610ba784828501610b48565b91505092915050565b60008060408385031215610bc357600080fd5b6000610bd185828601610b48565b925050602083013567ffffffffffffffff811115610bee57600080fd5b610bfa85828601610b5d565b9150509250929050565b60008060408385031215610c1757600080fd5b600083013567ffffffffffffffff811115610c3157600080fd5b610c3d85828601610b5d565b925050602083013567ffffffffffffffff811115610c5a57600080fd5b610c6685828601610b5d565b9150509250929050565b6000610c7c8383610e27565b905092915050565b610c8d816111b9565b82525050565b610c9c816111b9565b82525050565b610cb3610cae826111b9565b6112fa565b82525050565b6000610cc482611131565b610cce8185611154565b935083602082028501610ce085611107565b8060005b85811015610d1b57848403895281610cfc8582610c70565b9450610d0783611147565b925060208a01995050600181019050610ce4565b50829750879550505050505092915050565b610d36816111cb565b82525050565b610d45816111cb565b82525050565b6000610d568261113c565b610d608185611176565b9350610d70818560208601611230565b610d7981611386565b840191505092915050565b60008154610d9181611263565b610d9b8186611165565b94506001821660008114610db65760018114610dc857610dfb565b60ff1983168652602086019350610dfb565b610dd18561111c565b60005b83811015610df357815481890152600182019150602081019050610dd4565b808801955050505b50505092915050565b6000610e11601483611176565b9150610e1c826113be565b602082019050919050565b6000608083016000808401549050610e3e816112af565b610e4b6000870182610d2d565b5060018401549050610e5c81611295565b610e696020870182610c84565b50600284018583036040870152610e808382610d84565b925050600384018583036060870152610e998382610d84565b925050819250505092915050565b6000608083016000808401549050610ebe816112af565b610ecb6000870182610d2d565b5060018401549050610edc81611295565b610ee96020870182610c84565b50600284018583036040870152610f008382610d84565b925050600384018583036060870152610f198382610d84565b925050819250505092915050565b610f38610f3382611217565b61131e565b82525050565b6000610f4a8285610f27565b602082019150610f5a8284610ca2565b6014820191508190509392505050565b6000602082019050610f7f6000830184610c93565b92915050565b60006020820190508181036000830152610f9f8184610cb9565b905092915050565b6000608082019050610fbc6000830187610d3c565b610fc96020830186610c93565b8181036040830152610fdb8185610d4b565b90508181036060830152610fef8184610d4b565b905095945050505050565b600060408201905061100f6000830185610d3c565b81810360208301526110218184610d4b565b90509392505050565b600060608201905061103f6000830186610d3c565b81810360208301526110518185610d4b565b905081810360408301526110658184610d4b565b9050949350505050565b6000602082019050818103600083015261108881610e04565b9050919050565b600060208201905081810360008301526110a98184610ea7565b905092915050565b60006110bb6110cc565b90506110c782826112c9565b919050565b6000604051905090565b600067ffffffffffffffff8211156110f1576110f0611357565b5b6110fa82611386565b9050602081019050919050565b60008190508160005260206000209050919050565b60008190508160005260206000209050919050565b600081549050919050565b600081519050919050565b6000600482019050919050565b600082825260208201905092915050565b600082825260208201905092915050565b600082825260208201905092915050565b600073ffffffffffffffffffffffffffffffffffffffff82169050919050565b60006111b282611397565b9050919050565b60006111c4826111f7565b9050919050565b60007fffffffffffffffffffffffffffffffff0000000000000000000000000000000082169050919050565b600073ffffffffffffffffffffffffffffffffffffffff82169050919050565b6000819050919050565b82818337600083830152505050565b60005b8381101561124e578082015181840152602081019050611233565b8381111561125d576000848401525b50505050565b6000600282049050600182168061127b57607f821691505b6020821081141561128f5761128e611328565b5b50919050565b60006112a86112a3836113b1565b611187565b9050919050565b60006112c26112bd836113b1565b6111a7565b9050919050565b6112d282611386565b810181811067ffffffffffffffff821117156112f1576112f0611357565b5b80604052505050565b60006113058261130c565b9050919050565b6000611317826113a4565b9050919050565b6000819050919050565b7f4e487b7100000000000000000000000000000000000000000000000000000000600052602260045260246000fd5b7f4e487b7100000000000000000000000000000000000000000000000000000000600052604160045260246000fd5b6000601f19601f8301169050919050565b60008160801b9050919050565b60008160601b9050919050565b60008160001c9050919050565b7f4e6f7420746865206d616e756661637475726572000000000000000000000000600082015250565b6113f0816111cb565b81146113fb57600080fd5b5056fea2646970667358221220681c7cc973cf876ef406e5c9432ec335ec351fe1ca28ce25d998d68f196141d064736f6c63430008020033",
  "immutableReferences": {},
  "source": "// SPDX-License-Identifier: MIT\n\npragma solidity ^0.8.0;\n\nimport \"./Types.sol\";\n\ncontract ProductAction {\n    address public owner;\n\n    event ProductCreated(\n        bytes16 productId,\n        string productName,\n        string productionDate\n    );\n    event ProductUpdated(bytes16 productId, string productName);\n    event ProductAccessed(Types.Product product);\n    event ProductsReturned(Types.Product[] products);\n    event ProductDetailsUpdated(bytes16 productId);\n\n    mapping(bytes16 => Types.Product) public products;\n    Types.Product[] productList;\n\n    modifier onlyManufacturer() {\n        require(msg.sender == owner, \"Not the manufacturer\");\n        _;\n    }\n\n    constructor() {\n        owner = msg.sender;\n    }\n\n    function registerProduct(\n        string memory _productName,\n        string memory _date\n    ) external onlyManufacturer {\n        bytes16 productId = generateUUID();\n        products[productId] = Types.Product({\n            productId: productId,\n            owner: owner,\n            productName: _productName,\n            productionDate: _date\n        });\n        productList.push(products[productId]);\n        emit ProductCreated(productId, _productName, _date);\n    }\n\n    function updateProduct(\n        bytes16 _productId,\n        string memory _productName\n    ) external onlyManufacturer {\n        Types.Product memory product = products[_productId];\n        product.productName = _productName;\n        emit ProductUpdated(product.productId, product.productName);\n    }\n\n    function generateUUID() internal view returns (bytes16) {\n        return\n            bytes16(keccak256(abi.encodePacked(block.timestamp, msg.sender)));\n    }\n\n    function findProduct(bytes16 _productId) external {\n        emit ProductAccessed(products[_productId]);\n    }\n\n    function getAllProducts() public {\n        emit ProductsReturned(productList);\n    }\n}\n",
  "sourcePath": "/Users/gamzesahin/Fake-Product-Detection-System-5/Project/backend/web3-controller/contracts/ProductAction.sol",
  "compiler": {
    "name": "solc",
    "version": "0.8.2+commit.661d1103.Emscripten.clang"
  },
  "schemaVersion": "3.4.16",
  "updatedAt": "2024-05-19T19:09:18.798Z",
  "networkType": "ethereum",
  "devdoc": {
    "kind": "dev",
    "methods": {},
    "version": 1
  },
  "userdoc": {
    "kind": "user",
    "methods": {},
    "version": 1
  }
}