{
  "contractName": "ProductAction",
  "abi": [
    {
      "inputs": [],
      "stateMutability": "nonpayable",
      "type": "constructor"
    },
    {
      "anonymous": false,
      "inputs": [
        {
          "components": [
            {
              "internalType": "bytes16",
              "name": "productId",
              "type": "bytes16"
            },
            {
              "internalType": "address",
              "name": "owner",
              "type": "address"
            },
            {
              "internalType": "string",
              "name": "productName",
              "type": "string"
            },
            {
              "internalType": "string",
              "name": "productStatus",
              "type": "string"
            },
            {
              "internalType": "uint256",
              "name": "timestamp",
              "type": "uint256"
            }
          ],
          "indexed": false,
          "internalType": "struct Types.Product",
          "name": "product",
          "type": "tuple"
        }
      ],
      "name": "ProductAccessed",
      "type": "event"
    },
    {
      "anonymous": false,
      "inputs": [
        {
          "indexed": false,
          "internalType": "bytes16",
          "name": "productId",
          "type": "bytes16"
        },
        {
          "indexed": false,
          "internalType": "string",
          "name": "productName",
          "type": "string"
        },
        {
          "indexed": false,
          "internalType": "string",
          "name": "productStatus",
          "type": "string"
        }
      ],
      "name": "ProductCreated",
      "type": "event"
    },
    {
      "anonymous": false,
      "inputs": [
        {
          "indexed": false,
          "internalType": "bytes16",
          "name": "productId",
          "type": "bytes16"
        },
        {
          "indexed": false,
          "internalType": "string",
          "name": "productStatus",
          "type": "string"
        }
      ],
      "name": "ProductDetailsUpdated",
      "type": "event"
    },
    {
      "anonymous": false,
      "inputs": [
        {
          "indexed": false,
          "internalType": "bytes16",
          "name": "productId",
          "type": "bytes16"
        },
        {
          "indexed": false,
          "internalType": "string",
          "name": "productName",
          "type": "string"
        },
        {
          "indexed": false,
          "internalType": "string",
          "name": "productStatus",
          "type": "string"
        }
      ],
      "name": "ProductUpdated",
      "type": "event"
    },
    {
      "anonymous": false,
      "inputs": [
        {
          "components": [
            {
              "internalType": "bytes16",
              "name": "productId",
              "type": "bytes16"
            },
            {
              "internalType": "address",
              "name": "owner",
              "type": "address"
            },
            {
              "internalType": "string",
              "name": "productName",
              "type": "string"
            },
            {
              "internalType": "string",
              "name": "productStatus",
              "type": "string"
            },
            {
              "internalType": "uint256",
              "name": "timestamp",
              "type": "uint256"
            }
          ],
          "indexed": false,
          "internalType": "struct Types.Product[]",
          "name": "products",
          "type": "tuple[]"
        }
      ],
      "name": "ProductsReturned",
      "type": "event"
    },
    {
      "inputs": [],
      "name": "owner",
      "outputs": [
        {
          "internalType": "address",
          "name": "",
          "type": "address"
        }
      ],
      "stateMutability": "view",
      "type": "function",
      "constant": true
    },
    {
      "inputs": [
        {
          "internalType": "bytes16",
          "name": "",
          "type": "bytes16"
        }
      ],
      "name": "products",
      "outputs": [
        {
          "internalType": "bytes16",
          "name": "productId",
          "type": "bytes16"
        },
        {
          "internalType": "address",
          "name": "owner",
          "type": "address"
        },
        {
          "internalType": "string",
          "name": "productName",
          "type": "string"
        },
        {
          "internalType": "string",
          "name": "productStatus",
          "type": "string"
        },
        {
          "internalType": "uint256",
          "name": "timestamp",
          "type": "uint256"
        }
      ],
      "stateMutability": "view",
      "type": "function",
      "constant": true
    },
    {
      "inputs": [
        {
          "internalType": "string",
          "name": "_productName",
          "type": "string"
        },
        {
          "internalType": "string",
          "name": "_productStatus",
          "type": "string"
        }
      ],
      "name": "registerProduct",
      "outputs": [],
      "stateMutability": "nonpayable",
      "type": "function"
    },
    {
      "inputs": [
        {
          "internalType": "bytes16",
          "name": "_productId",
          "type": "bytes16"
        },
        {
          "internalType": "string",
          "name": "_productName",
          "type": "string"
        },
        {
          "internalType": "string",
          "name": "_productStatus",
          "type": "string"
        }
      ],
      "name": "updateProduct",
      "outputs": [],
      "stateMutability": "nonpayable",
      "type": "function"
    },
    {
      "inputs": [
        {
          "internalType": "bytes16",
          "name": "_productId",
          "type": "bytes16"
        },
        {
          "internalType": "string",
          "name": "_newDetails",
          "type": "string"
        }
      ],
      "name": "addProductDetails",
      "outputs": [],
      "stateMutability": "nonpayable",
      "type": "function"
    },
    {
      "inputs": [
        {
          "internalType": "bytes16",
          "name": "_productId",
          "type": "bytes16"
        }
      ],
      "name": "findProduct",
      "outputs": [],
      "stateMutability": "nonpayable",
      "type": "function"
    },
    {
      "inputs": [],
      "name": "getAllProducts",
      "outputs": [],
      "stateMutability": "nonpayable",
      "type": "function"
    }
  ],
  "bytecode": "0x608060405234801561001057600080fd5b50336000806101000a81548173ffffffffffffffffffffffffffffffffffffffff021916908373ffffffffffffffffffffffffffffffffffffffff160217905550611788806100606000396000f3fe608060405234801561001057600080fd5b506004361061007d5760003560e01c80637e485fcf1161005b5780637e485fcf146100c45780638da5cb5b146100f85780638fbd0dcf14610116578063a7898389146101325761007d565b806302ee3a52146100825780630ca761661461008c57806341600571146100a8575b600080fd5b61008a61014e565b005b6100a660048036038101906100a19190610dcd565b610188565b005b6100c260048036038101906100bd9190610d79565b61047e565b005b6100de60048036038101906100d99190610d50565b6105d5565b6040516100ef9594939291906112c9565b60405180910390f35b610100610748565b60405161010d919061128c565b60405180910390f35b610130600480360381019061012b9190610e4c565b61076c565b005b61014c60048036038101906101479190610d50565b610b01565b005b7f78261f26c945b3d012c42f5b596d654bd0879aa8d03042c9f105f7cd3f3411d0600260405161017e91906112a7565b60405180910390a1565b60008054906101000a900473ffffffffffffffffffffffffffffffffffffffff1673ffffffffffffffffffffffffffffffffffffffff163373ffffffffffffffffffffffffffffffffffffffff1614610216576040517f08c379a000000000000000000000000000000000000000000000000000000000815260040161020d9061139f565b60405180910390fd5b600060016000856fffffffffffffffffffffffffffffffff19166fffffffffffffffffffffffffffffffff191681526020019081526020016000206040518060a00160405290816000820160009054906101000a900460801b6fffffffffffffffffffffffffffffffff19166fffffffffffffffffffffffffffffffff191681526020016001820160009054906101000a900473ffffffffffffffffffffffffffffffffffffffff1673ffffffffffffffffffffffffffffffffffffffff1673ffffffffffffffffffffffffffffffffffffffff1681526020016002820180546102ff9061159d565b80601f016020809104026020016040519081016040528092919081815260200182805461032b9061159d565b80156103785780601f1061034d57610100808354040283529160200191610378565b820191906000526020600020905b81548152906001019060200180831161035b57829003601f168201915b505050505081526020016003820180546103919061159d565b80601f01602080910402602001604051908101604052809291908181526020018280546103bd9061159d565b801561040a5780601f106103df5761010080835404028352916020019161040a565b820191906000526020600020905b8154815290600101906020018083116103ed57829003601f168201915b5050505050815260200160048201548152505090508281604001819052508181606001819052507f178eba4789a097c6212073261794b838380873631938229e893b358011e924068160000151826040015183606001516040516104709392919061132a565b60405180910390a150505050565b60008054906101000a900473ffffffffffffffffffffffffffffffffffffffff1673ffffffffffffffffffffffffffffffffffffffff163373ffffffffffffffffffffffffffffffffffffffff161461050c576040517f08c379a00000000000000000000000000000000000000000000000000000000081526004016105039061139f565b60405180910390fd5b8060016000846fffffffffffffffffffffffffffffffff19166fffffffffffffffffffffffffffffffff19168152602001908152602001600020600301908051906020019061055c929190610ba3565b507fd5e70717d2af1738ee1bde4d5c6fb77a7ebe3ab542d43138166852da4288d1458260016000856fffffffffffffffffffffffffffffffff19166fffffffffffffffffffffffffffffffff191681526020019081526020016000206003016040516105c992919061136f565b60405180910390a15050565b60016020528060005260406000206000915090508060000160009054906101000a900460801b908060010160009054906101000a900473ffffffffffffffffffffffffffffffffffffffff16908060020180546106319061159d565b80601f016020809104026020016040519081016040528092919081815260200182805461065d9061159d565b80156106aa5780601f1061067f576101008083540402835291602001916106aa565b820191906000526020600020905b81548152906001019060200180831161068d57829003601f168201915b5050505050908060030180546106bf9061159d565b80601f01602080910402602001604051908101604052809291908181526020018280546106eb9061159d565b80156107385780601f1061070d57610100808354040283529160200191610738565b820191906000526020600020905b81548152906001019060200180831161071b57829003601f168201915b5050505050908060040154905085565b60008054906101000a900473ffffffffffffffffffffffffffffffffffffffff1681565b60008054906101000a900473ffffffffffffffffffffffffffffffffffffffff1673ffffffffffffffffffffffffffffffffffffffff163373ffffffffffffffffffffffffffffffffffffffff16146107fa576040517f08c379a00000000000000000000000000000000000000000000000000000000081526004016107f19061139f565b60405180910390fd5b6000610804610b73565b90506040518060a00160405280826fffffffffffffffffffffffffffffffff1916815260200160008054906101000a900473ffffffffffffffffffffffffffffffffffffffff1673ffffffffffffffffffffffffffffffffffffffff1681526020018481526020018381526020014281525060016000836fffffffffffffffffffffffffffffffff19166fffffffffffffffffffffffffffffffff1916815260200190815260200160002060008201518160000160006101000a8154816fffffffffffffffffffffffffffffffff021916908360801c021790555060208201518160010160006101000a81548173ffffffffffffffffffffffffffffffffffffffff021916908373ffffffffffffffffffffffffffffffffffffffff1602179055506040820151816002019080519060200190610942929190610ba3565b50606082015181600301908051906020019061095f929190610ba3565b5060808201518160040155905050600260016000836fffffffffffffffffffffffffffffffff19166fffffffffffffffffffffffffffffffff1916815260200190815260200160002090806001815401808255809150506001900390600052602060002090600502016000909190919091506000820160009054906101000a900460801b8160000160006101000a8154816fffffffffffffffffffffffffffffffff021916908360801c02179055506001820160009054906101000a900473ffffffffffffffffffffffffffffffffffffffff168160010160006101000a81548173ffffffffffffffffffffffffffffffffffffffff021916908373ffffffffffffffffffffffffffffffffffffffff1602179055506002820181600201908054610a899061159d565b610a94929190610c29565b506003820181600301908054610aa99061159d565b610ab4929190610c29565b506004820154816004015550507f7d93e5789c391278861525912f511a46c01f71a94540f4c17aedb936b5c49887818484604051610af49392919061132a565b60405180910390a1505050565b7fcb02ce9c8857ea7f453fe6e4f53fc110ab63ad6f3d3285e5dd5f1fb0307674d560016000836fffffffffffffffffffffffffffffffff19166fffffffffffffffffffffffffffffffff19168152602001908152602001600020604051610b6891906113bf565b60405180910390a150565b60004233604051602001610b88929190611260565b60405160208183030381529060405280519060200120905090565b828054610baf9061159d565b90600052602060002090601f016020900481019282610bd15760008555610c18565b82601f10610bea57805160ff1916838001178555610c18565b82800160010185558215610c18579182015b82811115610c17578251825591602001919060010190610bfc565b5b509050610c259190610cb6565b5090565b828054610c359061159d565b90600052602060002090601f016020900481019282610c575760008555610ca5565b82601f10610c685780548555610ca5565b82800160010185558215610ca557600052602060002091601f016020900482015b82811115610ca4578254825591600101919060010190610c89565b5b509050610cb29190610cb6565b5090565b5b80821115610ccf576000816000905550600101610cb7565b5090565b6000610ce6610ce184611406565b6113e1565b905082815260208101848484011115610cfe57600080fd5b610d0984828561155b565b509392505050565b600081359050610d208161173b565b92915050565b600082601f830112610d3757600080fd5b8135610d47848260208601610cd3565b91505092915050565b600060208284031215610d6257600080fd5b6000610d7084828501610d11565b91505092915050565b60008060408385031215610d8c57600080fd5b6000610d9a85828601610d11565b925050602083013567ffffffffffffffff811115610db757600080fd5b610dc385828601610d26565b9150509250929050565b600080600060608486031215610de257600080fd5b6000610df086828701610d11565b935050602084013567ffffffffffffffff811115610e0d57600080fd5b610e1986828701610d26565b925050604084013567ffffffffffffffff811115610e3657600080fd5b610e4286828701610d26565b9150509250925092565b60008060408385031215610e5f57600080fd5b600083013567ffffffffffffffff811115610e7957600080fd5b610e8585828601610d26565b925050602083013567ffffffffffffffff811115610ea257600080fd5b610eae85828601610d26565b9150509250929050565b6000610ec483836110ef565b905092915050565b610ed5816114f3565b82525050565b610ee4816114f3565b82525050565b610efb610ef6826114f3565b61164e565b82525050565b6000610f0c82611461565b610f168185611484565b935083602082028501610f2885611437565b8060005b85811015610f6357848403895281610f448582610eb8565b9450610f4f83611477565b925060208a01995050600181019050610f2c565b50829750879550505050505092915050565b610f7e81611505565b82525050565b610f8d81611505565b82525050565b6000610f9e8261146c565b610fa881856114a6565b9350610fb881856020860161156a565b610fc1816116da565b840191505092915050565b60008154610fd98161159d565b610fe38186611495565b94506001821660008114610ffe576001811461101057611043565b60ff1983168652602086019350611043565b6110198561144c565b60005b8381101561103b5781548189015260018201915060208101905061101c565b808801955050505b50505092915050565b600081546110598161159d565b61106381866114a6565b9450600182166000811461107e5760018114611090576110c3565b60ff19831686526020860193506110c3565b6110998561144c565b60005b838110156110bb5781548189015260018201915060208101905061109c565b808801955050505b50505092915050565b60006110d96014836114a6565b91506110e482611712565b602082019050919050565b600060a083016000808401549050611106816115e9565b6111136000870182610f75565b5060018401549050611124816115cf565b6111316020870182610ecc565b506002840185830360408701526111488382610fcc565b9250506003840185830360608701526111618382610fcc565b9250506004840154905061117481611603565b611181608087018261122b565b50819250505092915050565b600060a0830160008084015490506111a4816115e9565b6111b16000870182610f75565b50600184015490506111c2816115cf565b6111cf6020870182610ecc565b506002840185830360408701526111e68382610fcc565b9250506003840185830360608701526111ff8382610fcc565b9250506004840154905061121281611603565b61121f608087018261122b565b50819250505092915050565b61123481611551565b82525050565b61124381611551565b82525050565b61125a61125582611551565b611672565b82525050565b600061126c8285611249565b60208201915061127c8284610eea565b6014820191508190509392505050565b60006020820190506112a16000830184610edb565b92915050565b600060208201905081810360008301526112c18184610f01565b905092915050565b600060a0820190506112de6000830188610f84565b6112eb6020830187610edb565b81810360408301526112fd8186610f93565b905081810360608301526113118185610f93565b9050611320608083018461123a565b9695505050505050565b600060608201905061133f6000830186610f84565b81810360208301526113518185610f93565b905081810360408301526113658184610f93565b9050949350505050565b60006040820190506113846000830185610f84565b8181036020830152611396818461104c565b90509392505050565b600060208201905081810360008301526113b8816110cc565b9050919050565b600060208201905081810360008301526113d9818461118d565b905092915050565b60006113eb6113fc565b90506113f7828261161d565b919050565b6000604051905090565b600067ffffffffffffffff821115611421576114206116ab565b5b61142a826116da565b9050602081019050919050565b60008190508160005260206000209050919050565b60008190508160005260206000209050919050565b600081549050919050565b600081519050919050565b6000600582019050919050565b600082825260208201905092915050565b600082825260208201905092915050565b600082825260208201905092915050565b600073ffffffffffffffffffffffffffffffffffffffff82169050919050565b60006114e2826116eb565b9050919050565b6000819050919050565b60006114fe82611531565b9050919050565b60007fffffffffffffffffffffffffffffffff0000000000000000000000000000000082169050919050565b600073ffffffffffffffffffffffffffffffffffffffff82169050919050565b6000819050919050565b82818337600083830152505050565b60005b8381101561158857808201518184015260208101905061156d565b83811115611597576000848401525b50505050565b600060028204905060018216806115b557607f821691505b602082108114156115c9576115c861167c565b5b50919050565b60006115e26115dd83611705565b6114b7565b9050919050565b60006115fc6115f783611705565b6114d7565b9050919050565b600061161661161183611705565b6114e9565b9050919050565b611626826116da565b810181811067ffffffffffffffff82111715611645576116446116ab565b5b80604052505050565b600061165982611660565b9050919050565b600061166b826116f8565b9050919050565b6000819050919050565b7f4e487b7100000000000000000000000000000000000000000000000000000000600052602260045260246000fd5b7f4e487b7100000000000000000000000000000000000000000000000000000000600052604160045260246000fd5b6000601f19601f8301169050919050565b60008160801b9050919050565b60008160601b9050919050565b60008160001c9050919050565b7f4e6f7420746865206d616e756661637475726572000000000000000000000000600082015250565b61174481611505565b811461174f57600080fd5b5056fea264697066735822122076ef4bccafdd13d807a380d6aa6b845a1af75294d8dcc7b843fd081daf9d1f9d64736f6c63430008020033",
  "immutableReferences": {},
  "source": "// SPDX-License-Identifier: MIT\r\n\r\npragma solidity ^0.8.0;\r\n\r\nimport \"./Types.sol\";\r\n\r\ncontract ProductAction {\r\n    address public owner;\r\n\r\n    event ProductCreated(\r\n        bytes16 productId,\r\n        string productName,\r\n        string productStatus\r\n    );\r\n    event ProductUpdated(\r\n        bytes16 productId,\r\n        string productName,\r\n        string productStatus\r\n    );\r\n    event ProductAccessed(Types.Product product);\r\n    event ProductsReturned(Types.Product[] products);\r\n    event ProductDetailsUpdated(bytes16 productId, string productStatus);\r\n\r\n    mapping(bytes16 => Types.Product) public products;\r\n    Types.Product[] productList;\r\n\r\n    modifier onlyManufacturer() {\r\n        require(msg.sender == owner, \"Not the manufacturer\");\r\n        _;\r\n    }\r\n\r\n    constructor() {\r\n        owner = msg.sender;\r\n    }\r\n\r\n    function registerProduct(\r\n        string memory _productName,\r\n        string memory _productStatus\r\n    ) external onlyManufacturer {\r\n        bytes16 productId = generateUUID();\r\n        products[productId] = Types.Product({\r\n            productId: productId,\r\n            owner: owner,\r\n            productName: _productName,\r\n            productStatus: _productStatus,\r\n            timestamp: block.timestamp\r\n        });\r\n        productList.push(products[productId]);\r\n        emit ProductCreated(productId, _productName, _productStatus);\r\n    }\r\n\r\n    function updateProduct(\r\n        bytes16 _productId,\r\n        string memory _productName,\r\n        string memory _productStatus\r\n    ) external onlyManufacturer {\r\n        Types.Product memory product = products[_productId];\r\n        product.productName = _productName;\r\n        product.productStatus = _productStatus;\r\n        emit ProductUpdated(\r\n            product.productId,\r\n            product.productName,\r\n            product.productStatus\r\n        );\r\n    }\r\n\r\n    function generateUUID() internal view returns (bytes16) {\r\n        return\r\n            bytes16(keccak256(abi.encodePacked(block.timestamp, msg.sender)));\r\n    }\r\n\r\n    function addProductDetails(\r\n        bytes16 _productId,\r\n        string memory _newDetails\r\n    ) external onlyManufacturer {\r\n        products[_productId].productStatus = _newDetails;\r\n        emit ProductDetailsUpdated(\r\n            _productId,\r\n            products[_productId].productStatus\r\n        );\r\n    }\r\n\r\n    function findProduct(bytes16 _productId) external {\r\n        emit ProductAccessed(products[_productId]);\r\n    }\r\n\r\n    function getAllProducts() public {\r\n        emit ProductsReturned(productList);\r\n    }\r\n}\r\n",
  "sourcePath": "C:\\Users\\User\\Desktop\\Uni Projects\\Bitirme\\Project\\backend\\web3-controller\\contracts\\ProductAction.sol",
  "compiler": {
    "name": "solc",
    "version": "0.8.2+commit.661d1103.Emscripten.clang"
  },
  "schemaVersion": "3.4.16",
  "updatedAt": "2024-03-28T18:34:25.227Z",
  "networkType": "ethereum",
  "devdoc": {
    "kind": "dev",
    "methods": {},
    "version": 1
  },
  "userdoc": {
    "kind": "user",
    "methods": {},
    "version": 1
  }
}