{
  "contractName": "ProductAction",
  "abi": [
    {
      "inputs": [],
      "stateMutability": "nonpayable",
      "type": "constructor"
    },
    {
      "anonymous": false,
      "inputs": [
        {
          "components": [
            {
              "internalType": "bytes16",
              "name": "productId",
              "type": "bytes16"
            },
            {
              "internalType": "address",
              "name": "owner",
              "type": "address"
            },
            {
              "internalType": "string",
              "name": "productName",
              "type": "string"
            },
            {
              "internalType": "string",
              "name": "productStatus",
              "type": "string"
            },
            {
              "internalType": "uint256",
              "name": "timestamp",
              "type": "uint256"
            }
          ],
          "indexed": false,
          "internalType": "struct Types.Product",
          "name": "product",
          "type": "tuple"
        }
      ],
      "name": "ProductAccessed",
      "type": "event"
    },
    {
      "anonymous": false,
      "inputs": [
        {
          "indexed": false,
          "internalType": "bytes16",
          "name": "productId",
          "type": "bytes16"
        }
      ],
      "name": "ProductCreated",
      "type": "event"
    },
    {
      "anonymous": false,
      "inputs": [
        {
          "indexed": false,
          "internalType": "bytes16",
          "name": "productId",
          "type": "bytes16"
        },
        {
          "indexed": false,
          "internalType": "string",
          "name": "productStatus",
          "type": "string"
        }
      ],
      "name": "ProductDetailsUpdated",
      "type": "event"
    },
    {
      "anonymous": false,
      "inputs": [
        {
          "indexed": false,
          "internalType": "bytes16",
          "name": "productId",
          "type": "bytes16"
        },
        {
          "indexed": false,
          "internalType": "string",
          "name": "productName",
          "type": "string"
        },
        {
          "indexed": false,
          "internalType": "string",
          "name": "productStatus",
          "type": "string"
        }
      ],
      "name": "ProductUpdated",
      "type": "event"
    },
    {
      "inputs": [],
      "name": "owner",
      "outputs": [
        {
          "internalType": "address",
          "name": "",
          "type": "address"
        }
      ],
      "stateMutability": "view",
      "type": "function",
      "constant": true
    },
    {
      "inputs": [
        {
          "internalType": "bytes16",
          "name": "",
          "type": "bytes16"
        }
      ],
      "name": "products",
      "outputs": [
        {
          "internalType": "bytes16",
          "name": "productId",
          "type": "bytes16"
        },
        {
          "internalType": "address",
          "name": "owner",
          "type": "address"
        },
        {
          "internalType": "string",
          "name": "productName",
          "type": "string"
        },
        {
          "internalType": "string",
          "name": "productStatus",
          "type": "string"
        },
        {
          "internalType": "uint256",
          "name": "timestamp",
          "type": "uint256"
        }
      ],
      "stateMutability": "view",
      "type": "function",
      "constant": true
    },
    {
      "inputs": [
        {
          "internalType": "string",
          "name": "_productName",
          "type": "string"
        },
        {
          "internalType": "string",
          "name": "_productStatus",
          "type": "string"
        }
      ],
      "name": "registerProduct",
      "outputs": [],
      "stateMutability": "nonpayable",
      "type": "function"
    },
    {
      "inputs": [
        {
          "internalType": "bytes16",
          "name": "_productId",
          "type": "bytes16"
        },
        {
          "internalType": "string",
          "name": "_productName",
          "type": "string"
        },
        {
          "internalType": "string",
          "name": "_productStatus",
          "type": "string"
        }
      ],
      "name": "updateProduct",
      "outputs": [],
      "stateMutability": "nonpayable",
      "type": "function"
    },
    {
      "inputs": [
        {
          "internalType": "bytes16",
          "name": "_productId",
          "type": "bytes16"
        },
        {
          "internalType": "string",
          "name": "_newDetails",
          "type": "string"
        }
      ],
      "name": "addProductDetails",
      "outputs": [],
      "stateMutability": "nonpayable",
      "type": "function"
    },
    {
      "inputs": [
        {
          "internalType": "bytes16",
          "name": "_productId",
          "type": "bytes16"
        }
      ],
      "name": "findProduct",
      "outputs": [],
      "stateMutability": "nonpayable",
      "type": "function"
    }
  ],
  "bytecode": "0x608060405234801561001057600080fd5b50336000806101000a81548173ffffffffffffffffffffffffffffffffffffffff021916908373ffffffffffffffffffffffffffffffffffffffff1602179055506113d9806100606000396000f3fe608060405234801561001057600080fd5b50600436106100625760003560e01c80630ca761661461006757806341600571146100835780637e485fcf1461009f5780638da5cb5b146100d35780638fbd0dcf146100f1578063a78983891461010d575b600080fd5b610081600480360381019061007c9190610b89565b610129565b005b61009d60048036038101906100989190610b35565b61041f565b005b6100b960048036038101906100b49190610b0c565b610576565b6040516100ca959493929190610f58565b60405180910390f35b6100db6106e9565b6040516100e89190610f22565b60405180910390f35b61010b60048036038101906101069190610c08565b61070d565b005b61012760048036038101906101229190610b0c565b61094a565b005b60008054906101000a900473ffffffffffffffffffffffffffffffffffffffff1673ffffffffffffffffffffffffffffffffffffffff163373ffffffffffffffffffffffffffffffffffffffff16146101b7576040517f08c379a00000000000000000000000000000000000000000000000000000000081526004016101ae9061102e565b60405180910390fd5b600060016000856fffffffffffffffffffffffffffffffff19166fffffffffffffffffffffffffffffffff191681526020019081526020016000206040518060a00160405290816000820160009054906101000a900460801b6fffffffffffffffffffffffffffffffff19166fffffffffffffffffffffffffffffffff191681526020016001820160009054906101000a900473ffffffffffffffffffffffffffffffffffffffff1673ffffffffffffffffffffffffffffffffffffffff1673ffffffffffffffffffffffffffffffffffffffff1681526020016002820180546102a0906111ee565b80601f01602080910402602001604051908101604052809291908181526020018280546102cc906111ee565b80156103195780601f106102ee57610100808354040283529160200191610319565b820191906000526020600020905b8154815290600101906020018083116102fc57829003601f168201915b50505050508152602001600382018054610332906111ee565b80601f016020809104026020016040519081016040528092919081815260200182805461035e906111ee565b80156103ab5780601f10610380576101008083540402835291602001916103ab565b820191906000526020600020905b81548152906001019060200180831161038e57829003601f168201915b5050505050815260200160048201548152505090508281604001819052508181606001819052507f178eba4789a097c6212073261794b838380873631938229e893b358011e9240681600001518260400151836060015160405161041193929190610fb9565b60405180910390a150505050565b60008054906101000a900473ffffffffffffffffffffffffffffffffffffffff1673ffffffffffffffffffffffffffffffffffffffff163373ffffffffffffffffffffffffffffffffffffffff16146104ad576040517f08c379a00000000000000000000000000000000000000000000000000000000081526004016104a49061102e565b60405180910390fd5b8060016000846fffffffffffffffffffffffffffffffff19166fffffffffffffffffffffffffffffffff1916815260200190815260200160002060030190805190602001906104fd9291906109ec565b507fd5e70717d2af1738ee1bde4d5c6fb77a7ebe3ab542d43138166852da4288d1458260016000856fffffffffffffffffffffffffffffffff19166fffffffffffffffffffffffffffffffff1916815260200190815260200160002060030160405161056a929190610ffe565b60405180910390a15050565b60016020528060005260406000206000915090508060000160009054906101000a900460801b908060010160009054906101000a900473ffffffffffffffffffffffffffffffffffffffff16908060020180546105d2906111ee565b80601f01602080910402602001604051908101604052809291908181526020018280546105fe906111ee565b801561064b5780601f106106205761010080835404028352916020019161064b565b820191906000526020600020905b81548152906001019060200180831161062e57829003601f168201915b505050505090806003018054610660906111ee565b80601f016020809104026020016040519081016040528092919081815260200182805461068c906111ee565b80156106d95780601f106106ae576101008083540402835291602001916106d9565b820191906000526020600020905b8154815290600101906020018083116106bc57829003601f168201915b5050505050908060040154905085565b60008054906101000a900473ffffffffffffffffffffffffffffffffffffffff1681565b60008054906101000a900473ffffffffffffffffffffffffffffffffffffffff1673ffffffffffffffffffffffffffffffffffffffff163373ffffffffffffffffffffffffffffffffffffffff161461079b576040517f08c379a00000000000000000000000000000000000000000000000000000000081526004016107929061102e565b60405180910390fd5b60006107a56109bc565b90506040518060a00160405280826fffffffffffffffffffffffffffffffff1916815260200160008054906101000a900473ffffffffffffffffffffffffffffffffffffffff1673ffffffffffffffffffffffffffffffffffffffff1681526020018481526020018381526020014281525060016000836fffffffffffffffffffffffffffffffff19166fffffffffffffffffffffffffffffffff1916815260200190815260200160002060008201518160000160006101000a8154816fffffffffffffffffffffffffffffffff021916908360801c021790555060208201518160010160006101000a81548173ffffffffffffffffffffffffffffffffffffffff021916908373ffffffffffffffffffffffffffffffffffffffff16021790555060408201518160020190805190602001906108e39291906109ec565b5060608201518160030190805190602001906109009291906109ec565b50608082015181600401559050507f8954461e20cdeeaf3688c99e1297d6fcd4592c072511d4372ca462d6bd792b3c8160405161093d9190610f3d565b60405180910390a1505050565b7fcb02ce9c8857ea7f453fe6e4f53fc110ab63ad6f3d3285e5dd5f1fb0307674d560016000836fffffffffffffffffffffffffffffffff19166fffffffffffffffffffffffffffffffff191681526020019081526020016000206040516109b1919061104e565b60405180910390a150565b600042336040516020016109d1929190610ef6565b60405160208183030381529060405280519060200120905090565b8280546109f8906111ee565b90600052602060002090601f016020900481019282610a1a5760008555610a61565b82601f10610a3357805160ff1916838001178555610a61565b82800160010185558215610a61579182015b82811115610a60578251825591602001919060010190610a45565b5b509050610a6e9190610a72565b5090565b5b80821115610a8b576000816000905550600101610a73565b5090565b6000610aa2610a9d84611095565b611070565b905082815260208101848484011115610aba57600080fd5b610ac58482856111ac565b509392505050565b600081359050610adc8161138c565b92915050565b600082601f830112610af357600080fd5b8135610b03848260208601610a8f565b91505092915050565b600060208284031215610b1e57600080fd5b6000610b2c84828501610acd565b91505092915050565b60008060408385031215610b4857600080fd5b6000610b5685828601610acd565b925050602083013567ffffffffffffffff811115610b7357600080fd5b610b7f85828601610ae2565b9150509250929050565b600080600060608486031215610b9e57600080fd5b6000610bac86828701610acd565b935050602084013567ffffffffffffffff811115610bc957600080fd5b610bd586828701610ae2565b925050604084013567ffffffffffffffff811115610bf257600080fd5b610bfe86828701610ae2565b9150509250925092565b60008060408385031215610c1b57600080fd5b600083013567ffffffffffffffff811115610c3557600080fd5b610c4185828601610ae2565b925050602083013567ffffffffffffffff811115610c5e57600080fd5b610c6a85828601610ae2565b9150509250929050565b610c7d81611144565b82525050565b610c8c81611144565b82525050565b610ca3610c9e82611144565b61129f565b82525050565b610cb281611156565b82525050565b610cc181611156565b82525050565b6000610cd2826110db565b610cdc81856110f7565b9350610cec8185602086016111bb565b610cf58161132b565b840191505092915050565b60008154610d0d816111ee565b610d1781866110e6565b94506001821660008114610d325760018114610d4457610d77565b60ff1983168652602086019350610d77565b610d4d856110c6565b60005b83811015610d6f57815481890152600182019150602081019050610d50565b808801955050505b50505092915050565b60008154610d8d816111ee565b610d9781866110f7565b94506001821660008114610db25760018114610dc457610df7565b60ff1983168652602086019350610df7565b610dcd856110c6565b60005b83811015610def57815481890152600182019150602081019050610dd0565b808801955050505b50505092915050565b6000610e0d6014836110f7565b9150610e1882611363565b602082019050919050565b600060a083016000808401549050610e3a8161123a565b610e476000870182610ca9565b5060018401549050610e5881611220565b610e656020870182610c74565b50600284018583036040870152610e7c8382610d00565b925050600384018583036060870152610e958382610d00565b92505060048401549050610ea881611254565b610eb56080870182610ec1565b50819250505092915050565b610eca816111a2565b82525050565b610ed9816111a2565b82525050565b610ef0610eeb826111a2565b6112c3565b82525050565b6000610f028285610edf565b602082019150610f128284610c92565b6014820191508190509392505050565b6000602082019050610f376000830184610c83565b92915050565b6000602082019050610f526000830184610cb8565b92915050565b600060a082019050610f6d6000830188610cb8565b610f7a6020830187610c83565b8181036040830152610f8c8186610cc7565b90508181036060830152610fa08185610cc7565b9050610faf6080830184610ed0565b9695505050505050565b6000606082019050610fce6000830186610cb8565b8181036020830152610fe08185610cc7565b90508181036040830152610ff48184610cc7565b9050949350505050565b60006040820190506110136000830185610cb8565b81810360208301526110258184610d80565b90509392505050565b6000602082019050818103600083015261104781610e00565b9050919050565b600060208201905081810360008301526110688184610e23565b905092915050565b600061107a61108b565b9050611086828261126e565b919050565b6000604051905090565b600067ffffffffffffffff8211156110b0576110af6112fc565b5b6110b98261132b565b9050602081019050919050565b60008190508160005260206000209050919050565b600081519050919050565b600082825260208201905092915050565b600082825260208201905092915050565b600073ffffffffffffffffffffffffffffffffffffffff82169050919050565b60006111338261133c565b9050919050565b6000819050919050565b600061114f82611182565b9050919050565b60007fffffffffffffffffffffffffffffffff0000000000000000000000000000000082169050919050565b600073ffffffffffffffffffffffffffffffffffffffff82169050919050565b6000819050919050565b82818337600083830152505050565b60005b838110156111d95780820151818401526020810190506111be565b838111156111e8576000848401525b50505050565b6000600282049050600182168061120657607f821691505b6020821081141561121a576112196112cd565b5b50919050565b600061123361122e83611356565b611108565b9050919050565b600061124d61124883611356565b611128565b9050919050565b600061126761126283611356565b61113a565b9050919050565b6112778261132b565b810181811067ffffffffffffffff82111715611296576112956112fc565b5b80604052505050565b60006112aa826112b1565b9050919050565b60006112bc82611349565b9050919050565b6000819050919050565b7f4e487b7100000000000000000000000000000000000000000000000000000000600052602260045260246000fd5b7f4e487b7100000000000000000000000000000000000000000000000000000000600052604160045260246000fd5b6000601f19601f8301169050919050565b60008160801b9050919050565b60008160601b9050919050565b60008160001c9050919050565b7f4e6f7420746865206d616e756661637475726572000000000000000000000000600082015250565b61139581611156565b81146113a057600080fd5b5056fea264697066735822122097e6b2bbefa0878c835e7e9361cd44a933e0fe614731e11aea7f9f5659e7468664736f6c63430008020033",
  "immutableReferences": {},
  "source": "// SPDX-License-Identifier: MIT\r\n\r\npragma solidity ^0.8.0;\r\n\r\nimport \"./Types.sol\";\r\n\r\ncontract ProductAction {\r\n    address public owner;\r\n\r\n    event ProductCreated(bytes16 productId);\r\n    event ProductUpdated(\r\n        bytes16 productId,\r\n        string productName,\r\n        string productStatus\r\n    );\r\n    event ProductAccessed(Types.Product product);\r\n    event ProductDetailsUpdated(bytes16 productId, string productStatus);\r\n\r\n    mapping(bytes16 => Types.Product) public products;\r\n\r\n    modifier onlyManufacturer() {\r\n        require(msg.sender == owner, \"Not the manufacturer\");\r\n        _;\r\n    }\r\n\r\n    constructor() {\r\n        owner = msg.sender;\r\n    }\r\n\r\n    function registerProduct(\r\n        string memory _productName,\r\n        string memory _productStatus\r\n    ) external onlyManufacturer {\r\n        bytes16 productId = generateUUID();\r\n        products[productId] = Types.Product({\r\n            productId: productId,\r\n            owner: owner,\r\n            productName: _productName,\r\n            productStatus: _productStatus,\r\n            timestamp: block.timestamp\r\n        });\r\n        emit ProductCreated(productId);\r\n    }\r\n\r\n    function updateProduct(\r\n        bytes16 _productId,\r\n        string memory _productName,\r\n        string memory _productStatus\r\n    ) external onlyManufacturer {\r\n        Types.Product memory product = products[_productId];\r\n        product.productName = _productName;\r\n        product.productStatus = _productStatus;\r\n        emit ProductUpdated(\r\n            product.productId,\r\n            product.productName,\r\n            product.productStatus\r\n        );\r\n    }\r\n\r\n    function generateUUID() internal view returns (bytes16) {\r\n        return\r\n            bytes16(keccak256(abi.encodePacked(block.timestamp, msg.sender)));\r\n    }\r\n\r\n    function addProductDetails(\r\n        bytes16 _productId,\r\n        string memory _newDetails\r\n    ) external onlyManufacturer {\r\n        products[_productId].productStatus = _newDetails;\r\n        emit ProductDetailsUpdated(\r\n            _productId,\r\n            products[_productId].productStatus\r\n        );\r\n    }\r\n\r\n    function findProduct(bytes16 _productId) external {\r\n        emit ProductAccessed(products[_productId]);\r\n    }\r\n}\r\n",
  "sourcePath": "C:\\Users\\User\\Desktop\\Uni Projects\\Bitirme\\Project\\backend\\web3-controller\\contracts\\ProductAction.sol",
  "compiler": {
    "name": "solc",
    "version": "0.8.2+commit.661d1103.Emscripten.clang"
  },
  "schemaVersion": "3.4.16",
  "updatedAt": "2024-03-13T18:16:02.692Z",
  "networkType": "ethereum",
  "devdoc": {
    "kind": "dev",
    "methods": {},
    "version": 1
  },
  "userdoc": {
    "kind": "user",
    "methods": {},
    "version": 1
  }
}