{
  "contractName": "ProductAction",
  "abi": [
    {
      "inputs": [],
      "stateMutability": "nonpayable",
      "type": "constructor"
    },
    {
      "anonymous": false,
      "inputs": [
        {
          "components": [
            {
              "internalType": "bytes16",
              "name": "productId",
              "type": "bytes16"
            },
            {
              "internalType": "address",
              "name": "owner",
              "type": "address"
            },
            {
              "internalType": "string",
              "name": "productName",
              "type": "string"
            }
          ],
          "indexed": false,
          "internalType": "struct Types.Product",
          "name": "product",
          "type": "tuple"
        }
      ],
      "name": "ProductAccessed",
      "type": "event"
    },
    {
      "anonymous": false,
      "inputs": [
        {
          "indexed": false,
          "internalType": "bytes16",
          "name": "productId",
          "type": "bytes16"
        },
        {
          "indexed": false,
          "internalType": "string",
          "name": "productName",
          "type": "string"
        }
      ],
      "name": "ProductCreated",
      "type": "event"
    },
    {
      "anonymous": false,
      "inputs": [
        {
          "indexed": false,
          "internalType": "bytes16",
          "name": "productId",
          "type": "bytes16"
        }
      ],
      "name": "ProductDetailsUpdated",
      "type": "event"
    },
    {
      "anonymous": false,
      "inputs": [
        {
          "indexed": false,
          "internalType": "bytes16",
          "name": "productId",
          "type": "bytes16"
        },
        {
          "indexed": false,
          "internalType": "string",
          "name": "productName",
          "type": "string"
        }
      ],
      "name": "ProductUpdated",
      "type": "event"
    },
    {
      "anonymous": false,
      "inputs": [
        {
          "components": [
            {
              "internalType": "bytes16",
              "name": "productId",
              "type": "bytes16"
            },
            {
              "internalType": "address",
              "name": "owner",
              "type": "address"
            },
            {
              "internalType": "string",
              "name": "productName",
              "type": "string"
            }
          ],
          "indexed": false,
          "internalType": "struct Types.Product[]",
          "name": "products",
          "type": "tuple[]"
        }
      ],
      "name": "ProductsReturned",
      "type": "event"
    },
    {
      "inputs": [],
      "name": "owner",
      "outputs": [
        {
          "internalType": "address",
          "name": "",
          "type": "address"
        }
      ],
      "stateMutability": "view",
      "type": "function",
      "constant": true
    },
    {
      "inputs": [
        {
          "internalType": "bytes16",
          "name": "",
          "type": "bytes16"
        }
      ],
      "name": "products",
      "outputs": [
        {
          "internalType": "bytes16",
          "name": "productId",
          "type": "bytes16"
        },
        {
          "internalType": "address",
          "name": "owner",
          "type": "address"
        },
        {
          "internalType": "string",
          "name": "productName",
          "type": "string"
        }
      ],
      "stateMutability": "view",
      "type": "function",
      "constant": true
    },
    {
      "inputs": [
        {
          "internalType": "string",
          "name": "_productName",
          "type": "string"
        }
      ],
      "name": "registerProduct",
      "outputs": [],
      "stateMutability": "nonpayable",
      "type": "function"
    },
    {
      "inputs": [
        {
          "internalType": "bytes16",
          "name": "_productId",
          "type": "bytes16"
        },
        {
          "internalType": "string",
          "name": "_productName",
          "type": "string"
        }
      ],
      "name": "updateProduct",
      "outputs": [],
      "stateMutability": "nonpayable",
      "type": "function"
    },
    {
      "inputs": [
        {
          "internalType": "bytes16",
          "name": "_productId",
          "type": "bytes16"
        }
      ],
      "name": "findProduct",
      "outputs": [],
      "stateMutability": "nonpayable",
      "type": "function"
    },
    {
      "inputs": [],
      "name": "getAllProducts",
      "outputs": [],
      "stateMutability": "nonpayable",
      "type": "function"
    }
  ],
  "bytecode": "0x608060405234801561001057600080fd5b50336000806101000a81548173ffffffffffffffffffffffffffffffffffffffff021916908373ffffffffffffffffffffffffffffffffffffffff160217905550611216806100606000396000f3fe608060405234801561001057600080fd5b50600436106100625760003560e01c806302ee3a52146100675780635187183914610071578063660930e81461008d5780637e485fcf146100a95780638da5cb5b146100db578063a7898389146100f9575b600080fd5b61006f610115565b005b61008b60048036038101906100869190610a49565b61014f565b005b6100a760048036038101906100a29190610a9d565b610399565b005b6100c360048036038101906100be9190610a20565b6106ce565b6040516100d293929190610de3565b60405180910390f35b6100e36107ad565b6040516100f09190610da6565b60405180910390f35b610113600480360381019061010e9190610a20565b6107d1565b005b7fa5503b7cb3bbf4e410273a15f8a767e0fa70373b3a972a9fb4eebb50223edd5a60026040516101459190610dc1565b60405180910390a1565b60008054906101000a900473ffffffffffffffffffffffffffffffffffffffff1673ffffffffffffffffffffffffffffffffffffffff163373ffffffffffffffffffffffffffffffffffffffff16146101dd576040517f08c379a00000000000000000000000000000000000000000000000000000000081526004016101d490610e51565b60405180910390fd5b600060016000846fffffffffffffffffffffffffffffffff19166fffffffffffffffffffffffffffffffff191681526020019081526020016000206040518060600160405290816000820160009054906101000a900460801b6fffffffffffffffffffffffffffffffff19166fffffffffffffffffffffffffffffffff191681526020016001820160009054906101000a900473ffffffffffffffffffffffffffffffffffffffff1673ffffffffffffffffffffffffffffffffffffffff1673ffffffffffffffffffffffffffffffffffffffff1681526020016002820180546102c690611045565b80601f01602080910402602001604051908101604052809291908181526020018280546102f290611045565b801561033f5780601f106103145761010080835404028352916020019161033f565b820191906000526020600020905b81548152906001019060200180831161032257829003601f168201915b50505050508152505090508181604001819052507f4972e30ef33d26e2ad18bfde0d410806b5d0d90568ca1b8b3af0ab53744603ca8160000151826040015160405161038c929190610e21565b60405180910390a1505050565b60008054906101000a900473ffffffffffffffffffffffffffffffffffffffff1673ffffffffffffffffffffffffffffffffffffffff163373ffffffffffffffffffffffffffffffffffffffff1614610427576040517f08c379a000000000000000000000000000000000000000000000000000000000815260040161041e90610e51565b60405180910390fd5b6000610431610843565b90506040518060600160405280826fffffffffffffffffffffffffffffffff1916815260200160008054906101000a900473ffffffffffffffffffffffffffffffffffffffff1673ffffffffffffffffffffffffffffffffffffffff1681526020018381525060016000836fffffffffffffffffffffffffffffffff19166fffffffffffffffffffffffffffffffff1916815260200190815260200160002060008201518160000160006101000a8154816fffffffffffffffffffffffffffffffff021916908360801c021790555060208201518160010160006101000a81548173ffffffffffffffffffffffffffffffffffffffff021916908373ffffffffffffffffffffffffffffffffffffffff1602179055506040820151816002019080519060200190610563929190610873565b50905050600260016000836fffffffffffffffffffffffffffffffff19166fffffffffffffffffffffffffffffffff1916815260200190815260200160002090806001815401808255809150506001900390600052602060002090600302016000909190919091506000820160009054906101000a900460801b8160000160006101000a8154816fffffffffffffffffffffffffffffffff021916908360801c02179055506001820160009054906101000a900473ffffffffffffffffffffffffffffffffffffffff168160010160006101000a81548173ffffffffffffffffffffffffffffffffffffffff021916908373ffffffffffffffffffffffffffffffffffffffff160217905550600282018160020190805461068390611045565b61068e9291906108f9565b5050507fce1f94ddd2ccbc0f321c25fc57d33cfe8dff7564b1f2ec48e440b080405487a681836040516106c2929190610e21565b60405180910390a15050565b60016020528060005260406000206000915090508060000160009054906101000a900460801b908060010160009054906101000a900473ffffffffffffffffffffffffffffffffffffffff169080600201805461072a90611045565b80601f016020809104026020016040519081016040528092919081815260200182805461075690611045565b80156107a35780601f10610778576101008083540402835291602001916107a3565b820191906000526020600020905b81548152906001019060200180831161078657829003601f168201915b5050505050905083565b60008054906101000a900473ffffffffffffffffffffffffffffffffffffffff1681565b7f79ca3d91161c378dca706cdc128617177eed24e0296f48e6eac022961fb77b6060016000836fffffffffffffffffffffffffffffffff19166fffffffffffffffffffffffffffffffff191681526020019081526020016000206040516108389190610e71565b60405180910390a150565b60004233604051602001610858929190610d7a565b60405160208183030381529060405280519060200120905090565b82805461087f90611045565b90600052602060002090601f0160209004810192826108a157600085556108e8565b82601f106108ba57805160ff19168380011785556108e8565b828001600101855582156108e8579182015b828111156108e75782518255916020019190600101906108cc565b5b5090506108f59190610986565b5090565b82805461090590611045565b90600052602060002090601f0160209004810192826109275760008555610975565b82601f106109385780548555610975565b8280016001018555821561097557600052602060002091601f016020900482015b82811115610974578254825591600101919060010190610959565b5b5090506109829190610986565b5090565b5b8082111561099f576000816000905550600101610987565b5090565b60006109b66109b184610eb8565b610e93565b9050828152602081018484840111156109ce57600080fd5b6109d9848285611003565b509392505050565b6000813590506109f0816111c9565b92915050565b600082601f830112610a0757600080fd5b8135610a178482602086016109a3565b91505092915050565b600060208284031215610a3257600080fd5b6000610a40848285016109e1565b91505092915050565b60008060408385031215610a5c57600080fd5b6000610a6a858286016109e1565b925050602083013567ffffffffffffffff811115610a8757600080fd5b610a93858286016109f6565b9150509250929050565b600060208284031215610aaf57600080fd5b600082013567ffffffffffffffff811115610ac957600080fd5b610ad5848285016109f6565b91505092915050565b6000610aea8383610c95565b905092915050565b610afb81610f9b565b82525050565b610b0a81610f9b565b82525050565b610b21610b1c82610f9b565b6110dc565b82525050565b6000610b3282610f13565b610b3c8185610f36565b935083602082028501610b4e85610ee9565b8060005b85811015610b8957848403895281610b6a8582610ade565b9450610b7583610f29565b925060208a01995050600181019050610b52565b50829750879550505050505092915050565b610ba481610fad565b82525050565b610bb381610fad565b82525050565b6000610bc482610f1e565b610bce8185610f58565b9350610bde818560208601611012565b610be781611168565b840191505092915050565b60008154610bff81611045565b610c098186610f47565b94506001821660008114610c245760018114610c3657610c69565b60ff1983168652602086019350610c69565b610c3f85610efe565b60005b83811015610c6157815481890152600182019150602081019050610c42565b808801955050505b50505092915050565b6000610c7f601483610f58565b9150610c8a826111a0565b602082019050919050565b6000606083016000808401549050610cac81611091565b610cb96000870182610b9b565b5060018401549050610cca81611077565b610cd76020870182610af2565b50600284018583036040870152610cee8382610bf2565b925050819250505092915050565b6000606083016000808401549050610d1381611091565b610d206000870182610b9b565b5060018401549050610d3181611077565b610d3e6020870182610af2565b50600284018583036040870152610d558382610bf2565b925050819250505092915050565b610d74610d6f82610ff9565b611100565b82525050565b6000610d868285610d63565b602082019150610d968284610b10565b6014820191508190509392505050565b6000602082019050610dbb6000830184610b01565b92915050565b60006020820190508181036000830152610ddb8184610b27565b905092915050565b6000606082019050610df86000830186610baa565b610e056020830185610b01565b8181036040830152610e178184610bb9565b9050949350505050565b6000604082019050610e366000830185610baa565b8181036020830152610e488184610bb9565b90509392505050565b60006020820190508181036000830152610e6a81610c72565b9050919050565b60006020820190508181036000830152610e8b8184610cfc565b905092915050565b6000610e9d610eae565b9050610ea982826110ab565b919050565b6000604051905090565b600067ffffffffffffffff821115610ed357610ed2611139565b5b610edc82611168565b9050602081019050919050565b60008190508160005260206000209050919050565b60008190508160005260206000209050919050565b600081549050919050565b600081519050919050565b6000600382019050919050565b600082825260208201905092915050565b600082825260208201905092915050565b600082825260208201905092915050565b600073ffffffffffffffffffffffffffffffffffffffff82169050919050565b6000610f9482611179565b9050919050565b6000610fa682610fd9565b9050919050565b60007fffffffffffffffffffffffffffffffff0000000000000000000000000000000082169050919050565b600073ffffffffffffffffffffffffffffffffffffffff82169050919050565b6000819050919050565b82818337600083830152505050565b60005b83811015611030578082015181840152602081019050611015565b8381111561103f576000848401525b50505050565b6000600282049050600182168061105d57607f821691505b602082108114156110715761107061110a565b5b50919050565b600061108a61108583611193565b610f69565b9050919050565b60006110a461109f83611193565b610f89565b9050919050565b6110b482611168565b810181811067ffffffffffffffff821117156110d3576110d2611139565b5b80604052505050565b60006110e7826110ee565b9050919050565b60006110f982611186565b9050919050565b6000819050919050565b7f4e487b7100000000000000000000000000000000000000000000000000000000600052602260045260246000fd5b7f4e487b7100000000000000000000000000000000000000000000000000000000600052604160045260246000fd5b6000601f19601f8301169050919050565b60008160801b9050919050565b60008160601b9050919050565b60008160001c9050919050565b7f4e6f7420746865206d616e756661637475726572000000000000000000000000600082015250565b6111d281610fad565b81146111dd57600080fd5b5056fea2646970667358221220695ec59fe9f350374188b773f96b1d20c3becdd7afcc9929364d539e1787d20264736f6c63430008020033",
  "immutableReferences": {},
  "source": "// SPDX-License-Identifier: MIT\n\npragma solidity ^0.8.0;\n\nimport \"./Types.sol\";\n\ncontract ProductAction {\n    address public owner;\n\n    event ProductCreated(\n        bytes16 productId,\n        string productName\n    );\n    event ProductUpdated(\n        bytes16 productId,\n        string productName\n    );\n    event ProductAccessed(Types.Product product);\n    event ProductsReturned(Types.Product[] products);\n    event ProductDetailsUpdated(bytes16 productId);\n\n    mapping(bytes16 => Types.Product) public products;\n    Types.Product[] productList;\n\n    modifier onlyManufacturer() {\n        require(msg.sender == owner, \"Not the manufacturer\");\n        _;\n    }\n\n    constructor() {\n        owner = msg.sender;\n    }\n\n    function registerProduct(\n        string memory _productName\n    ) external onlyManufacturer {\n        bytes16 productId = generateUUID();\n        products[productId] = Types.Product({\n            productId: productId,\n            owner: owner,\n            productName: _productName\n        });\n        productList.push(products[productId]);\n        emit ProductCreated(productId, _productName);\n    }\n\n    function updateProduct(\n        bytes16 _productId,\n        string memory _productName\n    ) external onlyManufacturer {\n        Types.Product memory product = products[_productId];\n        product.productName = _productName;\n        emit ProductUpdated(\n            product.productId,\n            product.productName\n        );\n    }\n\n    function generateUUID() internal view returns (bytes16) {\n        return\n            bytes16(keccak256(abi.encodePacked(block.timestamp, msg.sender)));\n    }\n\n    // function addProductDetails(\n    //     bytes16 _productId,\n    //     string memory _newDetails\n    // ) external onlyManufacturer {\n    //    products[_productId].productStatus = _newDetails;\n    //     emit ProductDetailsUpdated(\n    //         _productId\n    //     );\n    // }\n\n    function findProduct(bytes16 _productId) external {\n        emit ProductAccessed(products[_productId]);\n    }\n\n    function getAllProducts() public {\n        emit ProductsReturned(productList);\n    }\n}\n",
  "sourcePath": "/Users/gamzesahin/Fake-Product-Detection-System-5/Project/backend/web3-controller/contracts/ProductAction.sol",
  "compiler": {
    "name": "solc",
    "version": "0.8.2+commit.661d1103.Emscripten.clang"
  },
  "schemaVersion": "3.4.16",
  "updatedAt": "2024-05-04T10:55:24.178Z",
  "networkType": "ethereum",
  "devdoc": {
    "kind": "dev",
    "methods": {},
    "version": 1
  },
  "userdoc": {
    "kind": "user",
    "methods": {},
    "version": 1
  }
}