{
  "contractName": "ProductAction",
  "abi": [
    {
      "inputs": [],
      "stateMutability": "nonpayable",
      "type": "constructor"
    },
    {
      "inputs": [],
      "name": "owner",
      "outputs": [
        {
          "internalType": "address",
          "name": "",
          "type": "address"
        }
      ],
      "stateMutability": "view",
      "type": "function",
      "constant": true
    },
    {
      "inputs": [
        {
          "internalType": "bytes16",
          "name": "",
          "type": "bytes16"
        }
      ],
      "name": "products",
      "outputs": [
        {
          "internalType": "bytes16",
          "name": "productId",
          "type": "bytes16"
        },
        {
          "internalType": "address",
          "name": "owner",
          "type": "address"
        },
        {
          "internalType": "string",
          "name": "productName",
          "type": "string"
        },
        {
          "internalType": "string",
          "name": "productStatus",
          "type": "string"
        },
        {
          "internalType": "uint256",
          "name": "timestamp",
          "type": "uint256"
        }
      ],
      "stateMutability": "view",
      "type": "function",
      "constant": true
    },
    {
      "inputs": [
        {
          "internalType": "string",
          "name": "_productName",
          "type": "string"
        },
        {
          "internalType": "string",
          "name": "_productStatus",
          "type": "string"
        }
      ],
      "name": "registerProduct",
      "outputs": [
        {
          "internalType": "bytes16",
          "name": "",
          "type": "bytes16"
        }
      ],
      "stateMutability": "nonpayable",
      "type": "function"
    },
    {
      "inputs": [
        {
          "internalType": "bytes16",
          "name": "_productId",
          "type": "bytes16"
        },
        {
          "internalType": "string",
          "name": "_productName",
          "type": "string"
        },
        {
          "internalType": "string",
          "name": "_productStatus",
          "type": "string"
        }
      ],
      "name": "updateProduct",
      "outputs": [],
      "stateMutability": "view",
      "type": "function",
      "constant": true
    },
    {
      "inputs": [
        {
          "internalType": "bytes16",
          "name": "_productId",
          "type": "bytes16"
        }
      ],
      "name": "getProductDetails",
      "outputs": [
        {
          "components": [
            {
              "internalType": "bytes16",
              "name": "productId",
              "type": "bytes16"
            },
            {
              "internalType": "address",
              "name": "owner",
              "type": "address"
            },
            {
              "internalType": "string",
              "name": "productName",
              "type": "string"
            },
            {
              "internalType": "string",
              "name": "productStatus",
              "type": "string"
            },
            {
              "internalType": "uint256",
              "name": "timestamp",
              "type": "uint256"
            }
          ],
          "internalType": "struct Types.Product",
          "name": "",
          "type": "tuple"
        }
      ],
      "stateMutability": "view",
      "type": "function",
      "constant": true
    },
    {
      "inputs": [
        {
          "internalType": "bytes16",
          "name": "_productId",
          "type": "bytes16"
        },
        {
          "internalType": "string",
          "name": "_newDetails",
          "type": "string"
        }
      ],
      "name": "addProductDetails",
      "outputs": [
        {
          "internalType": "string",
          "name": "",
          "type": "string"
        }
      ],
      "stateMutability": "nonpayable",
      "type": "function"
    },
    {
      "inputs": [
        {
          "internalType": "bytes16",
          "name": "_productId",
          "type": "bytes16"
        }
      ],
      "name": "findProduct",
      "outputs": [
        {
          "components": [
            {
              "internalType": "bytes16",
              "name": "productId",
              "type": "bytes16"
            },
            {
              "internalType": "address",
              "name": "owner",
              "type": "address"
            },
            {
              "internalType": "string",
              "name": "productName",
              "type": "string"
            },
            {
              "internalType": "string",
              "name": "productStatus",
              "type": "string"
            },
            {
              "internalType": "uint256",
              "name": "timestamp",
              "type": "uint256"
            }
          ],
          "internalType": "struct Types.Product",
          "name": "",
          "type": "tuple"
        }
      ],
      "stateMutability": "view",
      "type": "function",
      "constant": true
    },
    {
      "inputs": [
        {
          "internalType": "address",
          "name": "_owner",
          "type": "address"
        }
      ],
      "name": "setOwner",
      "outputs": [],
      "stateMutability": "nonpayable",
      "type": "function"
    }
  ],
  "bytecode": "0x608060405234801561001057600080fd5b506114c5806100206000396000f3fe608060405234801561001057600080fd5b50600436106100885760003560e01c80638da5cb5b1161005b5780638da5cb5b146101295780638fbd0dcf14610147578063a789838914610177578063d408f8ae146101a757610088565b80630ca761661461008d57806313af4035146100a957806341600571146100c55780637e485fcf146100f5575b600080fd5b6100a760048036038101906100a29190610ebe565b6101d7565b005b6100c360048036038101906100be9190610e18565b6103f8565b005b6100df60048036038101906100da9190610e6a565b61043b565b6040516100ec91906111e3565b60405180910390f35b61010f600480360381019061010a9190610e41565b61051e565b604051610120959493929190611182565b60405180910390f35b610131610691565b60405161013e919061114c565b60405180910390f35b610161600480360381019061015c9190610f3d565b6106b5565b60405161016e9190611167565b60405180910390f35b610191600480360381019061018c9190610e41565b610833565b60405161019e9190611205565b60405180910390f35b6101c160048036038101906101bc9190610e41565b610a47565b6040516101ce9190611205565b60405180910390f35b600060016000856fffffffffffffffffffffffffffffffff19166fffffffffffffffffffffffffffffffff191681526020019081526020016000206040518060a00160405290816000820160009054906101000a900460801b6fffffffffffffffffffffffffffffffff19166fffffffffffffffffffffffffffffffff191681526020016001820160009054906101000a900473ffffffffffffffffffffffffffffffffffffffff1673ffffffffffffffffffffffffffffffffffffffff1673ffffffffffffffffffffffffffffffffffffffff1681526020016002820180546102c090611354565b80601f01602080910402602001604051908101604052809291908181526020018280546102ec90611354565b80156103395780601f1061030e57610100808354040283529160200191610339565b820191906000526020600020905b81548152906001019060200180831161031c57829003601f168201915b5050505050815260200160038201805461035290611354565b80601f016020809104026020016040519081016040528092919081815260200182805461037e90611354565b80156103cb5780601f106103a0576101008083540402835291602001916103cb565b820191906000526020600020905b8154815290600101906020018083116103ae57829003601f168201915b50505050508152602001600482015481525050905082816040018190525081816060018190525050505050565b806000806101000a81548173ffffffffffffffffffffffffffffffffffffffff021916908373ffffffffffffffffffffffffffffffffffffffff16021790555050565b60608160016000856fffffffffffffffffffffffffffffffff19166fffffffffffffffffffffffffffffffff19168152602001908152602001600020600301908051906020019061048d929190610c8b565b805461049890611354565b80601f01602080910402602001604051908101604052809291908181526020018280546104c490611354565b80156105115780601f106104e657610100808354040283529160200191610511565b820191906000526020600020905b8154815290600101906020018083116104f457829003601f168201915b5050505050905092915050565b60016020528060005260406000206000915090508060000160009054906101000a900460801b908060010160009054906101000a900473ffffffffffffffffffffffffffffffffffffffff169080600201805461057a90611354565b80601f01602080910402602001604051908101604052809291908181526020018280546105a690611354565b80156105f35780601f106105c8576101008083540402835291602001916105f3565b820191906000526020600020905b8154815290600101906020018083116105d657829003601f168201915b50505050509080600301805461060890611354565b80601f016020809104026020016040519081016040528092919081815260200182805461063490611354565b80156106815780601f1061065657610100808354040283529160200191610681565b820191906000526020600020905b81548152906001019060200180831161066457829003601f168201915b5050505050908060040154905085565b60008054906101000a900473ffffffffffffffffffffffffffffffffffffffff1681565b6000806106c0610c5b565b90506040518060a00160405280826fffffffffffffffffffffffffffffffff1916815260200160008054906101000a900473ffffffffffffffffffffffffffffffffffffffff1673ffffffffffffffffffffffffffffffffffffffff1681526020018581526020018481526020014281525060016000836fffffffffffffffffffffffffffffffff19166fffffffffffffffffffffffffffffffff1916815260200190815260200160002060008201518160000160006101000a8154816fffffffffffffffffffffffffffffffff021916908360801c021790555060208201518160010160006101000a81548173ffffffffffffffffffffffffffffffffffffffff021916908373ffffffffffffffffffffffffffffffffffffffff16021790555060408201518160020190805190602001906107fe929190610c8b565b50606082015181600301908051906020019061081b929190610c8b565b50608082015181600401559050508091505092915050565b61083b610d11565b60016000836fffffffffffffffffffffffffffffffff19166fffffffffffffffffffffffffffffffff191681526020019081526020016000206040518060a00160405290816000820160009054906101000a900460801b6fffffffffffffffffffffffffffffffff19166fffffffffffffffffffffffffffffffff191681526020016001820160009054906101000a900473ffffffffffffffffffffffffffffffffffffffff1673ffffffffffffffffffffffffffffffffffffffff1673ffffffffffffffffffffffffffffffffffffffff16815260200160028201805461092290611354565b80601f016020809104026020016040519081016040528092919081815260200182805461094e90611354565b801561099b5780601f106109705761010080835404028352916020019161099b565b820191906000526020600020905b81548152906001019060200180831161097e57829003601f168201915b505050505081526020016003820180546109b490611354565b80601f01602080910402602001604051908101604052809291908181526020018280546109e090611354565b8015610a2d5780601f10610a0257610100808354040283529160200191610a2d565b820191906000526020600020905b815481529060010190602001808311610a1057829003601f168201915b505050505081526020016004820154815250509050919050565b610a4f610d11565b60016000836fffffffffffffffffffffffffffffffff19166fffffffffffffffffffffffffffffffff191681526020019081526020016000206040518060a00160405290816000820160009054906101000a900460801b6fffffffffffffffffffffffffffffffff19166fffffffffffffffffffffffffffffffff191681526020016001820160009054906101000a900473ffffffffffffffffffffffffffffffffffffffff1673ffffffffffffffffffffffffffffffffffffffff1673ffffffffffffffffffffffffffffffffffffffff168152602001600282018054610b3690611354565b80601f0160208091040260200160405190810160405280929190818152602001828054610b6290611354565b8015610baf5780601f10610b8457610100808354040283529160200191610baf565b820191906000526020600020905b815481529060010190602001808311610b9257829003601f168201915b50505050508152602001600382018054610bc890611354565b80601f0160208091040260200160405190810160405280929190818152602001828054610bf490611354565b8015610c415780601f10610c1657610100808354040283529160200191610c41565b820191906000526020600020905b815481529060010190602001808311610c2457829003601f168201915b505050505081526020016004820154815250509050919050565b60004233604051602001610c70929190611120565b60405160208183030381529060405280519060200120905090565b828054610c9790611354565b90600052602060002090601f016020900481019282610cb95760008555610d00565b82601f10610cd257805160ff1916838001178555610d00565b82800160010185558215610d00579182015b82811115610cff578251825591602001919060010190610ce4565b5b509050610d0d9190610d69565b5090565b6040518060a0016040528060006fffffffffffffffffffffffffffffffff19168152602001600073ffffffffffffffffffffffffffffffffffffffff1681526020016060815260200160608152602001600081525090565b5b80821115610d82576000816000905550600101610d6a565b5090565b6000610d99610d948461124c565b611227565b905082815260208101848484011115610db157600080fd5b610dbc848285611312565b509392505050565b600081359050610dd381611461565b92915050565b600081359050610de881611478565b92915050565b600082601f830112610dff57600080fd5b8135610e0f848260208601610d86565b91505092915050565b600060208284031215610e2a57600080fd5b6000610e3884828501610dc4565b91505092915050565b600060208284031215610e5357600080fd5b6000610e6184828501610dd9565b91505092915050565b60008060408385031215610e7d57600080fd5b6000610e8b85828601610dd9565b925050602083013567ffffffffffffffff811115610ea857600080fd5b610eb485828601610dee565b9150509250929050565b600080600060608486031215610ed357600080fd5b6000610ee186828701610dd9565b935050602084013567ffffffffffffffff811115610efe57600080fd5b610f0a86828701610dee565b925050604084013567ffffffffffffffff811115610f2757600080fd5b610f3386828701610dee565b9150509250925092565b60008060408385031215610f5057600080fd5b600083013567ffffffffffffffff811115610f6a57600080fd5b610f7685828601610dee565b925050602083013567ffffffffffffffff811115610f9357600080fd5b610f9f85828601610dee565b9150509250929050565b610fb2816112aa565b82525050565b610fc1816112aa565b82525050565b610fd8610fd3826112aa565b6113b7565b82525050565b610fe7816112bc565b82525050565b610ff6816112bc565b82525050565b60006110078261127d565b6110118185611288565b9350611021818560208601611321565b61102a81611443565b840191505092915050565b60006110408261127d565b61104a8185611299565b935061105a818560208601611321565b61106381611443565b840191505092915050565b600060a0830160008301516110866000860182610fde565b5060208301516110996020860182610fa9565b50604083015184820360408601526110b18282610ffc565b915050606083015184820360608601526110cb8282610ffc565b91505060808301516110e060808601826110eb565b508091505092915050565b6110f481611308565b82525050565b61110381611308565b82525050565b61111a61111582611308565b6113db565b82525050565b600061112c8285611109565b60208201915061113c8284610fc7565b6014820191508190509392505050565b60006020820190506111616000830184610fb8565b92915050565b600060208201905061117c6000830184610fed565b92915050565b600060a0820190506111976000830188610fed565b6111a46020830187610fb8565b81810360408301526111b68186611035565b905081810360608301526111ca8185611035565b90506111d960808301846110fa565b9695505050505050565b600060208201905081810360008301526111fd8184611035565b905092915050565b6000602082019050818103600083015261121f818461106e565b905092915050565b6000611231611242565b905061123d8282611386565b919050565b6000604051905090565b600067ffffffffffffffff82111561126757611266611414565b5b61127082611443565b9050602081019050919050565b600081519050919050565b600082825260208201905092915050565b600082825260208201905092915050565b60006112b5826112e8565b9050919050565b60007fffffffffffffffffffffffffffffffff0000000000000000000000000000000082169050919050565b600073ffffffffffffffffffffffffffffffffffffffff82169050919050565b6000819050919050565b82818337600083830152505050565b60005b8381101561133f578082015181840152602081019050611324565b8381111561134e576000848401525b50505050565b6000600282049050600182168061136c57607f821691505b602082108114156113805761137f6113e5565b5b50919050565b61138f82611443565b810181811067ffffffffffffffff821117156113ae576113ad611414565b5b80604052505050565b60006113c2826113c9565b9050919050565b60006113d482611454565b9050919050565b6000819050919050565b7f4e487b7100000000000000000000000000000000000000000000000000000000600052602260045260246000fd5b7f4e487b7100000000000000000000000000000000000000000000000000000000600052604160045260246000fd5b6000601f19601f8301169050919050565b60008160601b9050919050565b61146a816112aa565b811461147557600080fd5b50565b611481816112bc565b811461148c57600080fd5b5056fea264697066735822122076013e7426f38721332895366ed5d00d6c1bbcf51bdb7799622b1c5645ab473664736f6c63430008020033",
  "immutableReferences": {},
  "source": "// SPDX-License-Identifier: MIT\r\n\r\npragma solidity ^0.8.0;\r\n\r\nimport \"./Types.sol\";\r\n\r\ncontract ProductAction {\r\n    address public owner;\r\n\r\n    mapping(bytes16 => Types.Product) public products;\r\n\r\n    constructor() {}\r\n\r\n    function registerProduct(\r\n        string memory _productName,\r\n        string memory _productStatus\r\n    ) external returns (bytes16) {\r\n        bytes16 productId = generateUUID();\r\n        products[productId] = Types.Product({\r\n            productId: productId,\r\n            owner: owner,\r\n            productName: _productName,\r\n            productStatus: _productStatus,\r\n            timestamp: block.timestamp\r\n        });\r\n        return productId;\r\n    }\r\n\r\n    function updateProduct(\r\n        bytes16 _productId,\r\n        string memory _productName,\r\n        string memory _productStatus\r\n    ) external view {\r\n        Types.Product memory product = products[_productId];\r\n        product.productName = _productName;\r\n        product.productStatus = _productStatus;\r\n    }\r\n\r\n    function generateUUID() internal view returns (bytes16) {\r\n        return\r\n            bytes16(keccak256(abi.encodePacked(block.timestamp, msg.sender)));\r\n    }\r\n\r\n    function getProductDetails(\r\n        bytes16 _productId\r\n    ) external view returns (Types.Product memory) {\r\n        return products[_productId];\r\n    }\r\n\r\n    function addProductDetails(\r\n        bytes16 _productId,\r\n        string memory _newDetails\r\n    ) external returns (string memory) {\r\n        return products[_productId].productStatus = _newDetails;\r\n    }\r\n\r\n    function findProduct(\r\n        bytes16 _productId\r\n    ) external view returns (Types.Product memory) {\r\n        return products[_productId];\r\n    }\r\n\r\n    function setOwner(address _owner) public {\r\n        owner = _owner;\r\n    }\r\n}\r\n",
  "sourcePath": "C:\\Users\\User\\Desktop\\Uni Projects\\Bitirme\\Project\\backend\\web3-controller\\contracts\\ProductAction.sol",
  "compiler": {
    "name": "solc",
    "version": "0.8.2+commit.661d1103.Emscripten.clang"
  },
  "schemaVersion": "3.4.16",
  "updatedAt": "2024-03-12T09:46:04.741Z",
  "networkType": "ethereum",
  "devdoc": {
    "kind": "dev",
    "methods": {},
    "version": 1
  },
  "userdoc": {
    "kind": "user",
    "methods": {},
    "version": 1
  }
}