{
  "contractName": "SupplyChain",
  "abi": [
    {
      "inputs": [],
      "stateMutability": "nonpayable",
      "type": "constructor"
    },
    {
      "anonymous": false,
      "inputs": [
        {
          "indexed": false,
          "internalType": "bytes16",
          "name": "productId",
          "type": "bytes16"
        },
        {
          "components": [
            {
              "internalType": "address",
              "name": "sender",
              "type": "address"
            },
            {
              "internalType": "address",
              "name": "receiver",
              "type": "address"
            },
            {
              "internalType": "string",
              "name": "productStatus",
              "type": "string"
            },
            {
              "internalType": "string",
              "name": "transactionDate",
              "type": "string"
            }
          ],
          "indexed": false,
          "internalType": "struct Types.Transaction[]",
          "name": "transactions",
          "type": "tuple[]"
        }
      ],
      "name": "ProductTransactionAccessed",
      "type": "event"
    },
    {
      "anonymous": false,
      "inputs": [
        {
          "indexed": false,
          "internalType": "address",
          "name": "supplier",
          "type": "address"
        }
      ],
      "name": "SupplierAdded",
      "type": "event"
    },
    {
      "anonymous": false,
      "inputs": [
        {
          "indexed": false,
          "internalType": "bytes16",
          "name": "productId",
          "type": "bytes16"
        },
        {
          "indexed": false,
          "internalType": "address",
          "name": "sender",
          "type": "address"
        },
        {
          "indexed": false,
          "internalType": "address",
          "name": "receiver",
          "type": "address"
        },
        {
          "indexed": false,
          "internalType": "string",
          "name": "condition",
          "type": "string"
        }
      ],
      "name": "TransactionCreated",
      "type": "event"
    },
    {
      "inputs": [],
      "name": "owner",
      "outputs": [
        {
          "internalType": "address",
          "name": "",
          "type": "address"
        }
      ],
      "stateMutability": "view",
      "type": "function",
      "constant": true
    },
    {
      "inputs": [
        {
          "internalType": "uint256",
          "name": "",
          "type": "uint256"
        }
      ],
      "name": "suppliers",
      "outputs": [
        {
          "internalType": "address",
          "name": "",
          "type": "address"
        }
      ],
      "stateMutability": "view",
      "type": "function",
      "constant": true
    },
    {
      "inputs": [
        {
          "internalType": "bytes16",
          "name": "",
          "type": "bytes16"
        },
        {
          "internalType": "uint256",
          "name": "",
          "type": "uint256"
        }
      ],
      "name": "transactionHistory",
      "outputs": [
        {
          "internalType": "address",
          "name": "sender",
          "type": "address"
        },
        {
          "internalType": "address",
          "name": "receiver",
          "type": "address"
        },
        {
          "internalType": "string",
          "name": "productStatus",
          "type": "string"
        },
        {
          "internalType": "string",
          "name": "transactionDate",
          "type": "string"
        }
      ],
      "stateMutability": "view",
      "type": "function",
      "constant": true
    },
    {
      "inputs": [
        {
          "internalType": "bytes16",
          "name": "_productId",
          "type": "bytes16"
        },
        {
          "internalType": "address",
          "name": "_receiver",
          "type": "address"
        },
        {
          "internalType": "string",
          "name": "_condition",
          "type": "string"
        },
        {
          "internalType": "string",
          "name": "_date",
          "type": "string"
        }
      ],
      "name": "recordTransaction",
      "outputs": [],
      "stateMutability": "nonpayable",
      "type": "function"
    },
    {
      "inputs": [
        {
          "internalType": "bytes16",
          "name": "_productId",
          "type": "bytes16"
        }
      ],
      "name": "getProductHistory",
      "outputs": [],
      "stateMutability": "nonpayable",
      "type": "function"
    },
    {
      "inputs": [
        {
          "internalType": "address",
          "name": "_supplier",
          "type": "address"
        }
      ],
      "name": "addSupplier",
      "outputs": [],
      "stateMutability": "nonpayable",
      "type": "function"
    }
  ],
  "bytecode": "0x608060405234801561001057600080fd5b50336000806101000a81548173ffffffffffffffffffffffffffffffffffffffff021916908373ffffffffffffffffffffffffffffffffffffffff1602179055506111d7806100606000396000f3fe608060405234801561001057600080fd5b50600436106100625760003560e01c806317df4745146100675780637c9ea338146100835780638da5cb5b146100b6578063bc4fd3a3146100d4578063cea23121146100f0578063f288900114610120575b600080fd5b610081600480360381019061007c91906109d2565b61013c565b005b61009d60048036038101906100989190610ab7565b610267565b6040516100ad9493929190610d48565b60405180910390f35b6100be610404565b6040516100cb9190610d2d565b60405180910390f35b6100ee60048036038101906100e99190610a24565b610428565b005b61010a60048036038101906101059190610af3565b6107d5565b6040516101179190610d2d565b60405180910390f35b61013a600480360381019061013591906109fb565b610814565b005b60008054906101000a900473ffffffffffffffffffffffffffffffffffffffff1673ffffffffffffffffffffffffffffffffffffffff163373ffffffffffffffffffffffffffffffffffffffff16146101ca576040517f08c379a00000000000000000000000000000000000000000000000000000000081526004016101c190610e17565b60405180910390fd5b6002819080600181540180825580915050600190039060005260206000200160009091909190916101000a81548173ffffffffffffffffffffffffffffffffffffffff021916908373ffffffffffffffffffffffffffffffffffffffff1602179055507fa9f13e94f3f7dbf69ac8405e3aa6f43a6f162984687d099c7a5cd9b602552cc28160405161025c9190610d2d565b60405180910390a150565b6001602052816000526040600020818154811061028357600080fd5b9060005260206000209060040201600091509150508060000160009054906101000a900473ffffffffffffffffffffffffffffffffffffffff16908060010160009054906101000a900473ffffffffffffffffffffffffffffffffffffffff16908060020180546102f39061100b565b80601f016020809104026020016040519081016040528092919081815260200182805461031f9061100b565b801561036c5780601f106103415761010080835404028352916020019161036c565b820191906000526020600020905b81548152906001019060200180831161034f57829003601f168201915b5050505050908060030180546103819061100b565b80601f01602080910402602001604051908101604052809291908181526020018280546103ad9061100b565b80156103fa5780601f106103cf576101008083540402835291602001916103fa565b820191906000526020600020905b8154815290600101906020018083116103dd57829003601f168201915b5050505050905084565b60008054906101000a900473ffffffffffffffffffffffffffffffffffffffff1681565b60008054906101000a900473ffffffffffffffffffffffffffffffffffffffff1673ffffffffffffffffffffffffffffffffffffffff163373ffffffffffffffffffffffffffffffffffffffff16146104b6576040517f08c379a00000000000000000000000000000000000000000000000000000000081526004016104ad90610e17565b60405180910390fd5b60008060016000876fffffffffffffffffffffffffffffffff19166fffffffffffffffffffffffffffffffff191681526020019081526020016000208054905014156105245760008054906101000a900473ffffffffffffffffffffffffffffffffffffffff169050610618565b600060016000876fffffffffffffffffffffffffffffffff19166fffffffffffffffffffffffffffffffff1916815260200190815260200160002080549050905060016000876fffffffffffffffffffffffffffffffff19166fffffffffffffffffffffffffffffffff191681526020019081526020016000206001826105ab9190610f0d565b815481106105e2577f4e487b7100000000000000000000000000000000000000000000000000000000600052603260045260246000fd5b906000526020600020906004020160010160009054906101000a900473ffffffffffffffffffffffffffffffffffffffff169150505b60016000866fffffffffffffffffffffffffffffffff19166fffffffffffffffffffffffffffffffff1916815260200190815260200160002060405180608001604052808373ffffffffffffffffffffffffffffffffffffffff1681526020018673ffffffffffffffffffffffffffffffffffffffff16815260200185815260200184815250908060018154018082558091505060019003906000526020600020906004020160009091909190915060008201518160000160006101000a81548173ffffffffffffffffffffffffffffffffffffffff021916908373ffffffffffffffffffffffffffffffffffffffff16021790555060208201518160010160006101000a81548173ffffffffffffffffffffffffffffffffffffffff021916908373ffffffffffffffffffffffffffffffffffffffff1602179055506040820151816002019080519060200190610771929190610888565b50606082015181600301908051906020019061078e929190610888565b5050507fcd72eec5e687f03abed146f776b094b80e0b53b174e3c836d9e823ee0cb4bb33858286866040516107c69493929190610d9b565b60405180910390a15050505050565b600281815481106107e557600080fd5b906000526020600020016000915054906101000a900473ffffffffffffffffffffffffffffffffffffffff1681565b7f5afc8265545c12df047dc9707adf3e6ebc9d75d17ad51d9ecaf3b0436b274ed18160016000846fffffffffffffffffffffffffffffffff19166fffffffffffffffffffffffffffffffff1916815260200190815260200160002060405161087d929190610de7565b60405180910390a150565b8280546108949061100b565b90600052602060002090601f0160209004810192826108b657600085556108fd565b82601f106108cf57805160ff19168380011785556108fd565b828001600101855582156108fd579182015b828111156108fc5782518255916020019190600101906108e1565b5b50905061090a919061090e565b5090565b5b8082111561092757600081600090555060010161090f565b5090565b600061093e61093984610e5c565b610e37565b90508281526020810184848401111561095657600080fd5b610961848285610fc9565b509392505050565b6000813590506109788161115c565b92915050565b60008135905061098d81611173565b92915050565b600082601f8301126109a457600080fd5b81356109b484826020860161092b565b91505092915050565b6000813590506109cc8161118a565b92915050565b6000602082840312156109e457600080fd5b60006109f284828501610969565b91505092915050565b600060208284031215610a0d57600080fd5b6000610a1b8482850161097e565b91505092915050565b60008060008060808587031215610a3a57600080fd5b6000610a488782880161097e565b9450506020610a5987828801610969565b935050604085013567ffffffffffffffff811115610a7657600080fd5b610a8287828801610993565b925050606085013567ffffffffffffffff811115610a9f57600080fd5b610aab87828801610993565b91505092959194509250565b60008060408385031215610aca57600080fd5b6000610ad88582860161097e565b9250506020610ae9858286016109bd565b9150509250929050565b600060208284031215610b0557600080fd5b6000610b13848285016109bd565b91505092915050565b6000610b288383610cad565b905092915050565b610b3981610f61565b82525050565b610b4881610f61565b82525050565b6000610b5982610eb7565b610b638185610eda565b935083602082028501610b7585610e8d565b8060005b85811015610bb057848403895281610b918582610b1c565b9450610b9c83610ecd565b925060208a01995050600181019050610b79565b50829750879550505050505092915050565b610bcb81610f73565b82525050565b6000610bdc82610ec2565b610be68185610efc565b9350610bf6818560208601610fd8565b610bff81611115565b840191505092915050565b60008154610c178161100b565b610c218186610eeb565b94506001821660008114610c3c5760018114610c4e57610c81565b60ff1983168652602086019350610c81565b610c5785610ea2565b60005b83811015610c7957815481890152600182019150602081019050610c5a565b808801955050505b50505092915050565b6000610c97601483610efc565b9150610ca282611133565b602082019050919050565b6000608083016000808401549050610cc48161103d565b610cd16000870182610b30565b5060018401549050610ce28161103d565b610cef6020870182610b30565b50600284018583036040870152610d068382610c0a565b925050600384018583036060870152610d1f8382610c0a565b925050819250505092915050565b6000602082019050610d426000830184610b3f565b92915050565b6000608082019050610d5d6000830187610b3f565b610d6a6020830186610b3f565b8181036040830152610d7c8185610bd1565b90508181036060830152610d908184610bd1565b905095945050505050565b6000608082019050610db06000830187610bc2565b610dbd6020830186610b3f565b610dca6040830185610b3f565b8181036060830152610ddc8184610bd1565b905095945050505050565b6000604082019050610dfc6000830185610bc2565b8181036020830152610e0e8184610b4e565b90509392505050565b60006020820190508181036000830152610e3081610c8a565b9050919050565b6000610e41610e52565b9050610e4d8282611057565b919050565b6000604051905090565b600067ffffffffffffffff821115610e7757610e766110e6565b5b610e8082611115565b9050602081019050919050565b60008190508160005260206000209050919050565b60008190508160005260206000209050919050565b600081549050919050565b600081519050919050565b6000600482019050919050565b600082825260208201905092915050565b600082825260208201905092915050565b600082825260208201905092915050565b6000610f1882610fbf565b9150610f2383610fbf565b925082821015610f3657610f35611088565b5b828203905092915050565b600073ffffffffffffffffffffffffffffffffffffffff82169050919050565b6000610f6c82610f9f565b9050919050565b60007fffffffffffffffffffffffffffffffff0000000000000000000000000000000082169050919050565b600073ffffffffffffffffffffffffffffffffffffffff82169050919050565b6000819050919050565b82818337600083830152505050565b60005b83811015610ff6578082015181840152602081019050610fdb565b83811115611005576000848401525b50505050565b6000600282049050600182168061102357607f821691505b60208210811415611037576110366110b7565b5b50919050565b600061105061104b83611126565b610f41565b9050919050565b61106082611115565b810181811067ffffffffffffffff8211171561107f5761107e6110e6565b5b80604052505050565b7f4e487b7100000000000000000000000000000000000000000000000000000000600052601160045260246000fd5b7f4e487b7100000000000000000000000000000000000000000000000000000000600052602260045260246000fd5b7f4e487b7100000000000000000000000000000000000000000000000000000000600052604160045260246000fd5b6000601f19601f8301169050919050565b60008160001c9050919050565b7f4e6f7420746865206d616e756661637475726572000000000000000000000000600082015250565b61116581610f61565b811461117057600080fd5b50565b61117c81610f73565b811461118757600080fd5b50565b61119381610fbf565b811461119e57600080fd5b5056fea26469706673582212201adf1f4dc025f765d2da8d28b65ee5a92cd3a71139df2e3379d9f1da0ad82aba64736f6c63430008020033",
  "immutableReferences": {},
  "source": "// SPDX-License-Identifier: MIT\n\npragma solidity ^0.8.0;\n\nimport \"./Types.sol\";\nimport \"./ProductAction.sol\";\n\ncontract SupplyChain {\n    address public owner;\n    mapping(bytes16 => Types.Transaction[]) public transactionHistory;\n    address[] public suppliers;\n\n    event ProductTransactionAccessed(\n        bytes16 productId,\n        Types.Transaction[] transactions\n    );\n    event TransactionCreated(\n        bytes16 productId,\n        address sender,\n        address receiver,\n        string condition\n    );\n    event SupplierAdded(address supplier);\n\n    modifier onlyManufacturer() {\n        require(msg.sender == owner, \"Not the manufacturer\");\n        _;\n    }\n\n    modifier onlyAuthorized() {\n        require(\n            (msg.sender == owner) || isSupplier(owner),\n            \"Not the manufacturer\"\n        );\n        _;\n    }\n\n    constructor() {\n        owner = msg.sender;\n    }\n\n    function recordTransaction(\n        bytes16 _productId,\n        address _receiver,\n        string memory _condition,\n        string memory _date\n    ) external onlyManufacturer {\n        address sender;\n        if (transactionHistory[_productId].length == 0) {\n            sender = owner;\n        } else {\n            // Bir nceki gndereni alc olarak kaydediyoruz.\n            uint length = transactionHistory[_productId].length;\n            sender = transactionHistory[_productId][length - 1].receiver;\n        }\n        transactionHistory[_productId].push(\n            Types.Transaction({\n                sender: sender,\n                receiver: _receiver,\n                productStatus: _condition,\n                transactionDate: _date\n            })\n        );\n        emit TransactionCreated(_productId, sender, _receiver, _condition);\n    }\n\n    function getProductHistory(bytes16 _productId) external {\n        emit ProductTransactionAccessed(\n            _productId,\n            transactionHistory[_productId]\n        );\n    }\n\n    function addSupplier(address _supplier) external onlyManufacturer {\n        suppliers.push(_supplier);\n        emit SupplierAdded(_supplier);\n    }\n\n    function isSupplier(address _account) internal view returns (bool) {\n        for (uint i = 0; i < suppliers.length; i++) {\n            if (suppliers[i] == _account) {\n                return true;\n            }\n        }\n        return false;\n    }\n}\n",
  "sourcePath": "/Users/gamzesahin/Fake-Product-Detection-System-5/Project/backend/web3-controller/contracts/SupplyChain.sol",
  "compiler": {
    "name": "solc",
    "version": "0.8.2+commit.661d1103.Emscripten.clang"
  },
  "schemaVersion": "3.4.16",
  "updatedAt": "2024-05-22T17:05:33.839Z",
  "networkType": "ethereum",
  "devdoc": {
    "kind": "dev",
    "methods": {},
    "version": 1
  },
  "userdoc": {
    "kind": "user",
    "methods": {},
    "version": 1
  }
}