{
  "contractName": "SupplyChain",
  "abi": [
    {
      "inputs": [
        {
          "internalType": "address",
          "name": "_owner",
          "type": "address"
        }
      ],
      "stateMutability": "nonpayable",
      "type": "constructor"
    },
    {
      "anonymous": false,
      "inputs": [
        {
          "indexed": true,
          "internalType": "bytes16",
          "name": "productId",
          "type": "bytes16"
        },
        {
          "indexed": true,
          "internalType": "address",
          "name": "sender",
          "type": "address"
        },
        {
          "indexed": true,
          "internalType": "address",
          "name": "receiver",
          "type": "address"
        }
      ],
      "name": "TransactionCreated",
      "type": "event"
    },
    {
      "inputs": [],
      "name": "owner",
      "outputs": [
        {
          "internalType": "address",
          "name": "",
          "type": "address"
        }
      ],
      "stateMutability": "view",
      "type": "function"
    },
    {
      "inputs": [
        {
          "internalType": "uint256",
          "name": "",
          "type": "uint256"
        }
      ],
      "name": "suppliers",
      "outputs": [
        {
          "internalType": "address",
          "name": "",
          "type": "address"
        }
      ],
      "stateMutability": "view",
      "type": "function"
    },
    {
      "inputs": [
        {
          "internalType": "bytes16",
          "name": "",
          "type": "bytes16"
        },
        {
          "internalType": "uint256",
          "name": "",
          "type": "uint256"
        }
      ],
      "name": "transactionHistory",
      "outputs": [
        {
          "internalType": "address",
          "name": "sender",
          "type": "address"
        },
        {
          "internalType": "address",
          "name": "receiver",
          "type": "address"
        }
      ],
      "stateMutability": "view",
      "type": "function"
    },
    {
      "inputs": [
        {
          "internalType": "bytes16",
          "name": "_productId",
          "type": "bytes16"
        },
        {
          "internalType": "address",
          "name": "_receiver",
          "type": "address"
        }
      ],
      "name": "recordTransaction",
      "outputs": [],
      "stateMutability": "nonpayable",
      "type": "function"
    },
    {
      "inputs": [
        {
          "internalType": "bytes16",
          "name": "_productId",
          "type": "bytes16"
        }
      ],
      "name": "getProductHistory",
      "outputs": [
        {
          "components": [
            {
              "internalType": "address",
              "name": "sender",
              "type": "address"
            },
            {
              "internalType": "address",
              "name": "receiver",
              "type": "address"
            }
          ],
          "internalType": "struct Types.Transaction[]",
          "name": "",
          "type": "tuple[]"
        }
      ],
      "stateMutability": "view",
      "type": "function"
    },
    {
      "inputs": [
        {
          "internalType": "address",
          "name": "_supplier",
          "type": "address"
        }
      ],
      "name": "addSupplier",
      "outputs": [],
      "stateMutability": "nonpayable",
      "type": "function"
    },
    {
      "inputs": [
        {
          "internalType": "address",
          "name": "_account",
          "type": "address"
        }
      ],
      "name": "isSupplier",
      "outputs": [
        {
          "internalType": "bool",
          "name": "",
          "type": "bool"
        }
      ],
      "stateMutability": "view",
      "type": "function"
    }
  ],
  "bytecode": "0x608060405234801561001057600080fd5b50604051610d6b380380610d6b8339818101604052810190610032919061008d565b806000806101000a81548173ffffffffffffffffffffffffffffffffffffffff021916908373ffffffffffffffffffffffffffffffffffffffff160217905550506100ff565b600081519050610087816100e8565b92915050565b60006020828403121561009f57600080fd5b60006100ad84828501610078565b91505092915050565b60006100c1826100c8565b9050919050565b600073ffffffffffffffffffffffffffffffffffffffff82169050919050565b6100f1816100b6565b81146100fc57600080fd5b50565b610c5d8061010e6000396000f3fe608060405234801561001057600080fd5b506004361061007d5760003560e01c80637c9ea3381161005b5780637c9ea338146100ea5780638da5cb5b1461011b578063cea2312114610139578063f2889001146101695761007d565b806317df474514610082578063463365421461009e57806360f1a53d146100ce575b600080fd5b61009c60048036038101906100979190610843565b610199565b005b6100b860048036038101906100b39190610843565b6101ff565b6040516100c59190610a6e565b60405180910390f35b6100e860048036038101906100e39190610895565b6102d4565b005b61010460048036038101906100ff91906108d1565b6105dc565b604051610112929190610a23565b60405180910390f35b61012361065d565b6040516101309190610a08565b60405180910390f35b610153600480360381019061014e919061090d565b610681565b6040516101609190610a08565b60405180910390f35b610183600480360381019061017e919061086c565b6106c0565b6040516101909190610a4c565b60405180910390f35b6002819080600181540180825580915050600190039060005260206000200160009091909190916101000a81548173ffffffffffffffffffffffffffffffffffffffff021916908373ffffffffffffffffffffffffffffffffffffffff16021790555050565b600080600090505b6002805490508110156102c9578273ffffffffffffffffffffffffffffffffffffffff1660028281548110610265577f4e487b7100000000000000000000000000000000000000000000000000000000600052603260045260246000fd5b9060005260206000200160009054906101000a900473ffffffffffffffffffffffffffffffffffffffff1673ffffffffffffffffffffffffffffffffffffffff1614156102b65760019150506102cf565b80806102c190610b6a565b915050610207565b50600090505b919050565b60008060016000856fffffffffffffffffffffffffffffffff19166fffffffffffffffffffffffffffffffff191681526020019081526020016000208054905014156103425760008054906101000a900473ffffffffffffffffffffffffffffffffffffffff169050610436565b600060016000856fffffffffffffffffffffffffffffffff19166fffffffffffffffffffffffffffffffff1916815260200190815260200160002080549050905060016000856fffffffffffffffffffffffffffffffff19166fffffffffffffffffffffffffffffffff191681526020019081526020016000206001826103c99190610ac2565b81548110610400577f4e487b7100000000000000000000000000000000000000000000000000000000600052603260045260246000fd5b906000526020600020906002020160010160009054906101000a900473ffffffffffffffffffffffffffffffffffffffff169150505b60016000846fffffffffffffffffffffffffffffffff19166fffffffffffffffffffffffffffffffff1916815260200190815260200160002060405180604001604052808373ffffffffffffffffffffffffffffffffffffffff1681526020018473ffffffffffffffffffffffffffffffffffffffff16815250908060018154018082558091505060019003906000526020600020906002020160009091909190915060008201518160000160006101000a81548173ffffffffffffffffffffffffffffffffffffffff021916908373ffffffffffffffffffffffffffffffffffffffff16021790555060208201518160010160006101000a81548173ffffffffffffffffffffffffffffffffffffffff021916908373ffffffffffffffffffffffffffffffffffffffff16021790555050508173ffffffffffffffffffffffffffffffffffffffff168173ffffffffffffffffffffffffffffffffffffffff16846fffffffffffffffffffffffffffffffff19167f897e60e40c2dae572c8edcc751d666707cce685d34454e53c46ac68ed0befa7460405160405180910390a4505050565b600160205281600052604060002081815481106105f857600080fd5b9060005260206000209060020201600091509150508060000160009054906101000a900473ffffffffffffffffffffffffffffffffffffffff16908060010160009054906101000a900473ffffffffffffffffffffffffffffffffffffffff16905082565b60008054906101000a900473ffffffffffffffffffffffffffffffffffffffff1681565b6002818154811061069157600080fd5b906000526020600020016000915054906101000a900473ffffffffffffffffffffffffffffffffffffffff1681565b606060016000836fffffffffffffffffffffffffffffffff19166fffffffffffffffffffffffffffffffff19168152602001908152602001600020805480602002602001604051908101604052809291908181526020016000905b828210156107f957838290600052602060002090600202016040518060400160405290816000820160009054906101000a900473ffffffffffffffffffffffffffffffffffffffff1673ffffffffffffffffffffffffffffffffffffffff1673ffffffffffffffffffffffffffffffffffffffff1681526020016001820160009054906101000a900473ffffffffffffffffffffffffffffffffffffffff1673ffffffffffffffffffffffffffffffffffffffff1673ffffffffffffffffffffffffffffffffffffffff16815250508152602001906001019061071b565b505050509050919050565b60008135905061081381610be2565b92915050565b60008135905061082881610bf9565b92915050565b60008135905061083d81610c10565b92915050565b60006020828403121561085557600080fd5b600061086384828501610804565b91505092915050565b60006020828403121561087e57600080fd5b600061088c84828501610819565b91505092915050565b600080604083850312156108a857600080fd5b60006108b685828601610819565b92505060206108c785828601610804565b9150509250929050565b600080604083850312156108e457600080fd5b60006108f285828601610819565b92505060206109038582860161082e565b9150509250929050565b60006020828403121561091f57600080fd5b600061092d8482850161082e565b91505092915050565b600061094283836109d9565b60408301905092915050565b61095781610af6565b82525050565b61096681610af6565b82525050565b600061097782610a99565b6109818185610ab1565b935061098c83610a89565b8060005b838110156109bd5781516109a48882610936565b97506109af83610aa4565b925050600181019050610990565b5085935050505092915050565b6109d381610b08565b82525050565b6040820160008201516109ef600085018261094e565b506020820151610a02602085018261094e565b50505050565b6000602082019050610a1d600083018461095d565b92915050565b6000604082019050610a38600083018561095d565b610a45602083018461095d565b9392505050565b60006020820190508181036000830152610a66818461096c565b905092915050565b6000602082019050610a8360008301846109ca565b92915050565b6000819050602082019050919050565b600081519050919050565b6000602082019050919050565b600082825260208201905092915050565b6000610acd82610b60565b9150610ad883610b60565b925082821015610aeb57610aea610bb3565b5b828203905092915050565b6000610b0182610b40565b9050919050565b60008115159050919050565b60007fffffffffffffffffffffffffffffffff0000000000000000000000000000000082169050919050565b600073ffffffffffffffffffffffffffffffffffffffff82169050919050565b6000819050919050565b6000610b7582610b60565b91507fffffffffffffffffffffffffffffffffffffffffffffffffffffffffffffffff821415610ba857610ba7610bb3565b5b600182019050919050565b7f4e487b7100000000000000000000000000000000000000000000000000000000600052601160045260246000fd5b610beb81610af6565b8114610bf657600080fd5b50565b610c0281610b14565b8114610c0d57600080fd5b50565b610c1981610b60565b8114610c2457600080fd5b5056fea2646970667358221220d84fc7122e487814cc9157d364a29b74382132ee4415759837ce39f4accf2a1164736f6c63430008020033",
  "immutableReferences": {},
  "source": "// SPDX-License-Identifier: MIT\r\n\r\npragma solidity ^0.8.0;\r\n\r\nimport \"./Types.sol\";\r\nimport \"./ProductAction.sol\";\r\n\r\ncontract SupplyChain {\r\n    address public owner;\r\n    mapping(bytes16 => Types.Transaction[]) public transactionHistory;\r\n    address[] public suppliers;\r\n\r\n    event TransactionCreated(\r\n        bytes16 indexed productId,\r\n        address indexed sender,\r\n        address indexed receiver\r\n    );\r\n\r\n    constructor(address _owner) {\r\n        owner = _owner;\r\n    }\r\n\r\n    function recordTransaction(bytes16 _productId, address _receiver) external {\r\n        address sender;\r\n        if (transactionHistory[_productId].length == 0) {\r\n            sender = owner;\r\n        } else {\r\n            // Bir nceki gndereni alc olarak kaydediyoruz.\r\n            uint length = transactionHistory[_productId].length;\r\n            sender = transactionHistory[_productId][length - 1].receiver;\r\n        }\r\n        transactionHistory[_productId].push(\r\n            Types.Transaction({sender: sender, receiver: _receiver})\r\n        );\r\n        emit TransactionCreated(_productId, sender, _receiver);\r\n    }\r\n\r\n    function getProductHistory(\r\n        bytes16 _productId\r\n    ) external view returns (Types.Transaction[] memory) {\r\n        return transactionHistory[_productId];\r\n    }\r\n\r\n    function addSupplier(address _supplier) external {\r\n        suppliers.push(_supplier);\r\n    }\r\n\r\n    function isSupplier(address _account) external view returns (bool) {\r\n        for (uint i = 0; i < suppliers.length; i++) {\r\n            if (suppliers[i] == _account) {\r\n                return true;\r\n            }\r\n        }\r\n        return false;\r\n    }\r\n}\r\n",
  "sourcePath": "C:\\Users\\User\\Desktop\\Uni Projects\\Bitirme\\Project\\backend\\web3-controller\\contracts\\SupplyChain.sol",
  "compiler": {
    "name": "solc",
    "version": "0.8.2+commit.661d1103.Emscripten.clang"
  },
  "schemaVersion": "3.4.16",
  "updatedAt": "2024-03-05T09:22:42.027Z",
  "devdoc": {
    "kind": "dev",
    "methods": {},
    "version": 1
  },
  "userdoc": {
    "kind": "user",
    "methods": {},
    "version": 1
  }
}