{
  "contractName": "SupplyChain",
  "abi": [
    {
      "inputs": [],
      "stateMutability": "nonpayable",
      "type": "constructor"
    },
    {
      "anonymous": false,
      "inputs": [
        {
          "indexed": false,
          "internalType": "bytes16",
          "name": "productId",
          "type": "bytes16"
        },
        {
          "components": [
            {
              "internalType": "address",
              "name": "sender",
              "type": "address"
            },
            {
              "internalType": "address",
              "name": "receiver",
              "type": "address"
            }
          ],
          "indexed": false,
          "internalType": "struct Types.Transaction[]",
          "name": "transactions",
          "type": "tuple[]"
        }
      ],
      "name": "ProductTransactionAccessed",
      "type": "event"
    },
    {
      "anonymous": false,
      "inputs": [
        {
          "indexed": false,
          "internalType": "address",
          "name": "supplier",
          "type": "address"
        }
      ],
      "name": "SupplierAdded",
      "type": "event"
    },
    {
      "anonymous": false,
      "inputs": [
        {
          "indexed": true,
          "internalType": "bytes16",
          "name": "productId",
          "type": "bytes16"
        },
        {
          "indexed": true,
          "internalType": "address",
          "name": "sender",
          "type": "address"
        },
        {
          "indexed": true,
          "internalType": "address",
          "name": "receiver",
          "type": "address"
        }
      ],
      "name": "TransactionCreated",
      "type": "event"
    },
    {
      "inputs": [],
      "name": "owner",
      "outputs": [
        {
          "internalType": "address",
          "name": "",
          "type": "address"
        }
      ],
      "stateMutability": "view",
      "type": "function",
      "constant": true
    },
    {
      "inputs": [
        {
          "internalType": "uint256",
          "name": "",
          "type": "uint256"
        }
      ],
      "name": "suppliers",
      "outputs": [
        {
          "internalType": "address",
          "name": "",
          "type": "address"
        }
      ],
      "stateMutability": "view",
      "type": "function",
      "constant": true
    },
    {
      "inputs": [
        {
          "internalType": "bytes16",
          "name": "",
          "type": "bytes16"
        },
        {
          "internalType": "uint256",
          "name": "",
          "type": "uint256"
        }
      ],
      "name": "transactionHistory",
      "outputs": [
        {
          "internalType": "address",
          "name": "sender",
          "type": "address"
        },
        {
          "internalType": "address",
          "name": "receiver",
          "type": "address"
        }
      ],
      "stateMutability": "view",
      "type": "function",
      "constant": true
    },
    {
      "inputs": [
        {
          "internalType": "bytes16",
          "name": "_productId",
          "type": "bytes16"
        },
        {
          "internalType": "address",
          "name": "_receiver",
          "type": "address"
        }
      ],
      "name": "recordTransaction",
      "outputs": [],
      "stateMutability": "nonpayable",
      "type": "function"
    },
    {
      "inputs": [
        {
          "internalType": "bytes16",
          "name": "_productId",
          "type": "bytes16"
        }
      ],
      "name": "getProductHistory",
      "outputs": [],
      "stateMutability": "nonpayable",
      "type": "function"
    },
    {
      "inputs": [
        {
          "internalType": "address",
          "name": "_supplier",
          "type": "address"
        }
      ],
      "name": "addSupplier",
      "outputs": [],
      "stateMutability": "nonpayable",
      "type": "function"
    }
  ],
  "bytecode": "0x608060405234801561001057600080fd5b50336000806101000a81548173ffffffffffffffffffffffffffffffffffffffff021916908373ffffffffffffffffffffffffffffffffffffffff160217905550610c2a806100606000396000f3fe608060405234801561001057600080fd5b50600436106100625760003560e01c806317df47451461006757806360f1a53d146100835780637c9ea3381461009f5780638da5cb5b146100d0578063cea23121146100ee578063f28890011461011e575b600080fd5b610081600480360381019061007c9190610792565b61013a565b005b61009d600480360381019061009891906107e4565b610265565b005b6100b960048036038101906100b49190610820565b6105fb565b6040516100c79291906109ac565b60405180910390f35b6100d861067c565b6040516100e59190610991565b60405180910390f35b6101086004803603810190610103919061085c565b6106a0565b6040516101159190610991565b60405180910390f35b610138600480360381019061013391906107bb565b6106df565b005b60008054906101000a900473ffffffffffffffffffffffffffffffffffffffff1673ffffffffffffffffffffffffffffffffffffffff163373ffffffffffffffffffffffffffffffffffffffff16146101c8576040517f08c379a00000000000000000000000000000000000000000000000000000000081526004016101bf90610a05565b60405180910390fd5b6002819080600181540180825580915050600190039060005260206000200160009091909190916101000a81548173ffffffffffffffffffffffffffffffffffffffff021916908373ffffffffffffffffffffffffffffffffffffffff1602179055507fa9f13e94f3f7dbf69ac8405e3aa6f43a6f162984687d099c7a5cd9b602552cc28160405161025a9190610991565b60405180910390a150565b60008054906101000a900473ffffffffffffffffffffffffffffffffffffffff1673ffffffffffffffffffffffffffffffffffffffff163373ffffffffffffffffffffffffffffffffffffffff16146102f3576040517f08c379a00000000000000000000000000000000000000000000000000000000081526004016102ea90610a05565b60405180910390fd5b60008060016000856fffffffffffffffffffffffffffffffff19166fffffffffffffffffffffffffffffffff191681526020019081526020016000208054905014156103615760008054906101000a900473ffffffffffffffffffffffffffffffffffffffff169050610455565b600060016000856fffffffffffffffffffffffffffffffff19166fffffffffffffffffffffffffffffffff1916815260200190815260200160002080549050905060016000856fffffffffffffffffffffffffffffffff19166fffffffffffffffffffffffffffffffff191681526020019081526020016000206001826103e89190610a74565b8154811061041f577f4e487b7100000000000000000000000000000000000000000000000000000000600052603260045260246000fd5b906000526020600020906002020160010160009054906101000a900473ffffffffffffffffffffffffffffffffffffffff169150505b60016000846fffffffffffffffffffffffffffffffff19166fffffffffffffffffffffffffffffffff1916815260200190815260200160002060405180604001604052808373ffffffffffffffffffffffffffffffffffffffff1681526020018473ffffffffffffffffffffffffffffffffffffffff16815250908060018154018082558091505060019003906000526020600020906002020160009091909190915060008201518160000160006101000a81548173ffffffffffffffffffffffffffffffffffffffff021916908373ffffffffffffffffffffffffffffffffffffffff16021790555060208201518160010160006101000a81548173ffffffffffffffffffffffffffffffffffffffff021916908373ffffffffffffffffffffffffffffffffffffffff16021790555050508173ffffffffffffffffffffffffffffffffffffffff168173ffffffffffffffffffffffffffffffffffffffff16846fffffffffffffffffffffffffffffffff19167f897e60e40c2dae572c8edcc751d666707cce685d34454e53c46ac68ed0befa7460405160405180910390a4505050565b6001602052816000526040600020818154811061061757600080fd5b9060005260206000209060020201600091509150508060000160009054906101000a900473ffffffffffffffffffffffffffffffffffffffff16908060010160009054906101000a900473ffffffffffffffffffffffffffffffffffffffff16905082565b60008054906101000a900473ffffffffffffffffffffffffffffffffffffffff1681565b600281815481106106b057600080fd5b906000526020600020016000915054906101000a900473ffffffffffffffffffffffffffffffffffffffff1681565b7fe3e815355f69f04bfd75d6bc1c251e2aa04e34c9311babf8561a3f3c5cef54728160016000846fffffffffffffffffffffffffffffffff19166fffffffffffffffffffffffffffffffff191681526020019081526020016000206040516107489291906109d5565b60405180910390a150565b60008135905061076281610baf565b92915050565b60008135905061077781610bc6565b92915050565b60008135905061078c81610bdd565b92915050565b6000602082840312156107a457600080fd5b60006107b284828501610753565b91505092915050565b6000602082840312156107cd57600080fd5b60006107db84828501610768565b91505092915050565b600080604083850312156107f757600080fd5b600061080585828601610768565b925050602061081685828601610753565b9150509250929050565b6000806040838503121561083357600080fd5b600061084185828601610768565b92505060206108528582860161077d565b9150509250929050565b60006020828403121561086e57600080fd5b600061087c8482850161077d565b91505092915050565b6000610891838361094a565b60408301905092915050565b6108a681610ac8565b82525050565b6108b581610ac8565b82525050565b60006108c682610a3a565b6108d08185610a52565b93506108db83610a25565b8060005b8381101561090b57816108f28882610885565b97506108fd83610a45565b9250506001810190506108df565b5085935050505092915050565b61092181610ada565b82525050565b6000610934601483610a63565b915061093f82610b86565b602082019050919050565b60408201600080830154905061095f81610b30565b61096c600086018261089d565b506001830154905061097d81610b30565b61098a602086018261089d565b5050505050565b60006020820190506109a660008301846108ac565b92915050565b60006040820190506109c160008301856108ac565b6109ce60208301846108ac565b9392505050565b60006040820190506109ea6000830185610918565b81810360208301526109fc81846108bb565b90509392505050565b60006020820190508181036000830152610a1e81610927565b9050919050565b60008190508160005260206000209050919050565b600081549050919050565b6000600282019050919050565b600082825260208201905092915050565b600082825260208201905092915050565b6000610a7f82610b26565b9150610a8a83610b26565b925082821015610a9d57610a9c610b4a565b5b828203905092915050565b600073ffffffffffffffffffffffffffffffffffffffff82169050919050565b6000610ad382610b06565b9050919050565b60007fffffffffffffffffffffffffffffffff0000000000000000000000000000000082169050919050565b600073ffffffffffffffffffffffffffffffffffffffff82169050919050565b6000819050919050565b6000610b43610b3e83610b79565b610aa8565b9050919050565b7f4e487b7100000000000000000000000000000000000000000000000000000000600052601160045260246000fd5b60008160001c9050919050565b7f4e6f7420746865206d616e756661637475726572000000000000000000000000600082015250565b610bb881610ac8565b8114610bc357600080fd5b50565b610bcf81610ada565b8114610bda57600080fd5b50565b610be681610b26565b8114610bf157600080fd5b5056fea2646970667358221220ec11ac63bbd15aecae5e6cfddec9226159c9d9ddd4b79fc474d8eefd0f181a3b64736f6c63430008020033",
  "immutableReferences": {},
  "source": "// SPDX-License-Identifier: MIT\r\n\r\npragma solidity ^0.8.0;\r\n\r\nimport \"./Types.sol\";\r\nimport \"./ProductAction.sol\";\r\n\r\ncontract SupplyChain {\r\n    address public owner;\r\n    mapping(bytes16 => Types.Transaction[]) public transactionHistory;\r\n    address[] public suppliers;\r\n\r\n    event ProductTransactionAccessed(\r\n        bytes16 productId,\r\n        Types.Transaction[] transactions\r\n    );\r\n    event TransactionCreated(\r\n        bytes16 indexed productId,\r\n        address indexed sender,\r\n        address indexed receiver\r\n    );\r\n    event SupplierAdded(address supplier);\r\n\r\n    modifier onlyManufacturer() {\r\n        require(msg.sender == owner, \"Not the manufacturer\");\r\n        _;\r\n    }\r\n\r\n    modifier onlyAuthorized() {\r\n        require(\r\n            (msg.sender == owner) || isSupplier(owner),\r\n            \"Not the manufacturer\"\r\n        );\r\n        _;\r\n    }\r\n\r\n    constructor() {\r\n        owner = msg.sender;\r\n    }\r\n\r\n    function recordTransaction(\r\n        bytes16 _productId,\r\n        address _receiver\r\n    ) external onlyManufacturer {\r\n        address sender;\r\n        if (transactionHistory[_productId].length == 0) {\r\n            sender = owner;\r\n        } else {\r\n            // Bir nceki gndereni alc olarak kaydediyoruz.\r\n            uint length = transactionHistory[_productId].length;\r\n            sender = transactionHistory[_productId][length - 1].receiver;\r\n        }\r\n        transactionHistory[_productId].push(\r\n            Types.Transaction({sender: sender, receiver: _receiver})\r\n        );\r\n        emit TransactionCreated(_productId, sender, _receiver);\r\n    }\r\n\r\n    function getProductHistory(bytes16 _productId) external {\r\n        emit ProductTransactionAccessed(\r\n            _productId,\r\n            transactionHistory[_productId]\r\n        );\r\n    }\r\n\r\n    function addSupplier(address _supplier) external onlyManufacturer {\r\n        suppliers.push(_supplier);\r\n        emit SupplierAdded(_supplier);\r\n    }\r\n\r\n    function isSupplier(address _account) internal view returns (bool) {\r\n        for (uint i = 0; i < suppliers.length; i++) {\r\n            if (suppliers[i] == _account) {\r\n                return true;\r\n            }\r\n        }\r\n        return false;\r\n    }\r\n}\r\n",
  "sourcePath": "C:\\Users\\User\\Desktop\\Uni Projects\\Bitirme\\Project\\backend\\web3-controller\\contracts\\SupplyChain.sol",
  "compiler": {
    "name": "solc",
    "version": "0.8.2+commit.661d1103.Emscripten.clang"
  },
  "schemaVersion": "3.4.16",
  "updatedAt": "2024-03-18T08:53:02.624Z",
  "networkType": "ethereum",
  "devdoc": {
    "kind": "dev",
    "methods": {},
    "version": 1
  },
  "userdoc": {
    "kind": "user",
    "methods": {},
    "version": 1
  }
}