{
  "contractName": "SupplyChain",
  "abi": [
    {
      "inputs": [],
      "stateMutability": "nonpayable",
      "type": "constructor"
    },
    {
      "anonymous": false,
      "inputs": [
        {
          "indexed": false,
          "internalType": "bytes16",
          "name": "productId",
          "type": "bytes16"
        },
        {
          "components": [
            {
              "internalType": "address",
              "name": "sender",
              "type": "address"
            },
            {
              "internalType": "address",
              "name": "receiver",
              "type": "address"
            },
            {
              "internalType": "string",
              "name": "productStatus",
              "type": "string"
            }
          ],
          "indexed": false,
          "internalType": "struct Types.Transaction[]",
          "name": "transactions",
          "type": "tuple[]"
        }
      ],
      "name": "ProductTransactionAccessed",
      "type": "event"
    },
    {
      "anonymous": false,
      "inputs": [
        {
          "indexed": false,
          "internalType": "address",
          "name": "supplier",
          "type": "address"
        }
      ],
      "name": "SupplierAdded",
      "type": "event"
    },
    {
      "anonymous": false,
      "inputs": [
        {
          "indexed": false,
          "internalType": "bytes16",
          "name": "productId",
          "type": "bytes16"
        },
        {
          "indexed": false,
          "internalType": "address",
          "name": "sender",
          "type": "address"
        },
        {
          "indexed": false,
          "internalType": "address",
          "name": "receiver",
          "type": "address"
        },
        {
          "indexed": false,
          "internalType": "string",
          "name": "condition",
          "type": "string"
        }
      ],
      "name": "TransactionCreated",
      "type": "event"
    },
    {
      "inputs": [],
      "name": "owner",
      "outputs": [
        {
          "internalType": "address",
          "name": "",
          "type": "address"
        }
      ],
      "stateMutability": "view",
      "type": "function",
      "constant": true
    },
    {
      "inputs": [
        {
          "internalType": "uint256",
          "name": "",
          "type": "uint256"
        }
      ],
      "name": "suppliers",
      "outputs": [
        {
          "internalType": "address",
          "name": "",
          "type": "address"
        }
      ],
      "stateMutability": "view",
      "type": "function",
      "constant": true
    },
    {
      "inputs": [
        {
          "internalType": "bytes16",
          "name": "",
          "type": "bytes16"
        },
        {
          "internalType": "uint256",
          "name": "",
          "type": "uint256"
        }
      ],
      "name": "transactionHistory",
      "outputs": [
        {
          "internalType": "address",
          "name": "sender",
          "type": "address"
        },
        {
          "internalType": "address",
          "name": "receiver",
          "type": "address"
        },
        {
          "internalType": "string",
          "name": "productStatus",
          "type": "string"
        }
      ],
      "stateMutability": "view",
      "type": "function",
      "constant": true
    },
    {
      "inputs": [
        {
          "internalType": "bytes16",
          "name": "_productId",
          "type": "bytes16"
        },
        {
          "internalType": "address",
          "name": "_receiver",
          "type": "address"
        },
        {
          "internalType": "string",
          "name": "_condition",
          "type": "string"
        }
      ],
      "name": "recordTransaction",
      "outputs": [],
      "stateMutability": "nonpayable",
      "type": "function"
    },
    {
      "inputs": [
        {
          "internalType": "bytes16",
          "name": "_productId",
          "type": "bytes16"
        }
      ],
      "name": "getProductHistory",
      "outputs": [],
      "stateMutability": "nonpayable",
      "type": "function"
    },
    {
      "inputs": [
        {
          "internalType": "address",
          "name": "_supplier",
          "type": "address"
        }
      ],
      "name": "addSupplier",
      "outputs": [],
      "stateMutability": "nonpayable",
      "type": "function"
    }
  ],
  "bytecode": "0x608060405234801561001057600080fd5b50336000806101000a81548173ffffffffffffffffffffffffffffffffffffffff021916908373ffffffffffffffffffffffffffffffffffffffff1602179055506110ca806100606000396000f3fe608060405234801561001057600080fd5b50600436106100625760003560e01c8063084a712f1461006757806317df4745146100835780637c9ea3381461009f5780638da5cb5b146100d1578063cea23121146100ef578063f28890011461011f575b600080fd5b610081600480360381019061007c9190610971565b61013b565b005b61009d6004803603810190610098919061091f565b6104c4565b005b6100b960048036038101906100b491906109d8565b6105ef565b6040516100c893929190610c50565b60405180910390f35b6100d96106fe565b6040516100e69190610c35565b60405180910390f35b61010960048036038101906101049190610a14565b610722565b6040516101169190610c35565b60405180910390f35b61013960048036038101906101349190610948565b610761565b005b60008054906101000a900473ffffffffffffffffffffffffffffffffffffffff1673ffffffffffffffffffffffffffffffffffffffff163373ffffffffffffffffffffffffffffffffffffffff16146101c9576040517f08c379a00000000000000000000000000000000000000000000000000000000081526004016101c090610d0a565b60405180910390fd5b60008060016000866fffffffffffffffffffffffffffffffff19166fffffffffffffffffffffffffffffffff191681526020019081526020016000208054905014156102375760008054906101000a900473ffffffffffffffffffffffffffffffffffffffff16905061032b565b600060016000866fffffffffffffffffffffffffffffffff19166fffffffffffffffffffffffffffffffff1916815260200190815260200160002080549050905060016000866fffffffffffffffffffffffffffffffff19166fffffffffffffffffffffffffffffffff191681526020019081526020016000206001826102be9190610e00565b815481106102f5577f4e487b7100000000000000000000000000000000000000000000000000000000600052603260045260246000fd5b906000526020600020906003020160010160009054906101000a900473ffffffffffffffffffffffffffffffffffffffff169150505b60016000856fffffffffffffffffffffffffffffffff19166fffffffffffffffffffffffffffffffff1916815260200190815260200160002060405180606001604052808373ffffffffffffffffffffffffffffffffffffffff1681526020018573ffffffffffffffffffffffffffffffffffffffff16815260200184815250908060018154018082558091505060019003906000526020600020906003020160009091909190915060008201518160000160006101000a81548173ffffffffffffffffffffffffffffffffffffffff021916908373ffffffffffffffffffffffffffffffffffffffff16021790555060208201518160010160006101000a81548173ffffffffffffffffffffffffffffffffffffffff021916908373ffffffffffffffffffffffffffffffffffffffff160217905550604082015181600201908051906020019061047e9291906107d5565b5050507fcd72eec5e687f03abed146f776b094b80e0b53b174e3c836d9e823ee0cb4bb33848285856040516104b69493929190610c8e565b60405180910390a150505050565b60008054906101000a900473ffffffffffffffffffffffffffffffffffffffff1673ffffffffffffffffffffffffffffffffffffffff163373ffffffffffffffffffffffffffffffffffffffff1614610552576040517f08c379a000000000000000000000000000000000000000000000000000000000815260040161054990610d0a565b60405180910390fd5b6002819080600181540180825580915050600190039060005260206000200160009091909190916101000a81548173ffffffffffffffffffffffffffffffffffffffff021916908373ffffffffffffffffffffffffffffffffffffffff1602179055507fa9f13e94f3f7dbf69ac8405e3aa6f43a6f162984687d099c7a5cd9b602552cc2816040516105e49190610c35565b60405180910390a150565b6001602052816000526040600020818154811061060b57600080fd5b9060005260206000209060030201600091509150508060000160009054906101000a900473ffffffffffffffffffffffffffffffffffffffff16908060010160009054906101000a900473ffffffffffffffffffffffffffffffffffffffff169080600201805461067b90610efe565b80601f01602080910402602001604051908101604052809291908181526020018280546106a790610efe565b80156106f45780601f106106c9576101008083540402835291602001916106f4565b820191906000526020600020905b8154815290600101906020018083116106d757829003601f168201915b5050505050905083565b60008054906101000a900473ffffffffffffffffffffffffffffffffffffffff1681565b6002818154811061073257600080fd5b906000526020600020016000915054906101000a900473ffffffffffffffffffffffffffffffffffffffff1681565b7fa3802b4c77c93b5d09a55f4b3e5ec9f67dc2b0ffe7c1014d9119759b62ea3f3b8160016000846fffffffffffffffffffffffffffffffff19166fffffffffffffffffffffffffffffffff191681526020019081526020016000206040516107ca929190610cda565b60405180910390a150565b8280546107e190610efe565b90600052602060002090601f016020900481019282610803576000855561084a565b82601f1061081c57805160ff191683800117855561084a565b8280016001018555821561084a579182015b8281111561084957825182559160200191906001019061082e565b5b509050610857919061085b565b5090565b5b8082111561087457600081600090555060010161085c565b5090565b600061088b61088684610d4f565b610d2a565b9050828152602081018484840111156108a357600080fd5b6108ae848285610ebc565b509392505050565b6000813590506108c58161104f565b92915050565b6000813590506108da81611066565b92915050565b600082601f8301126108f157600080fd5b8135610901848260208601610878565b91505092915050565b6000813590506109198161107d565b92915050565b60006020828403121561093157600080fd5b600061093f848285016108b6565b91505092915050565b60006020828403121561095a57600080fd5b6000610968848285016108cb565b91505092915050565b60008060006060848603121561098657600080fd5b6000610994868287016108cb565b93505060206109a5868287016108b6565b925050604084013567ffffffffffffffff8111156109c257600080fd5b6109ce868287016108e0565b9150509250925092565b600080604083850312156109eb57600080fd5b60006109f9858286016108cb565b9250506020610a0a8582860161090a565b9150509250929050565b600060208284031215610a2657600080fd5b6000610a348482850161090a565b91505092915050565b6000610a498383610bce565b905092915050565b610a5a81610e54565b82525050565b610a6981610e54565b82525050565b6000610a7a82610daa565b610a848185610dcd565b935083602082028501610a9685610d80565b8060005b85811015610ad157848403895281610ab28582610a3d565b9450610abd83610dc0565b925060208a01995050600181019050610a9a565b50829750879550505050505092915050565b610aec81610e66565b82525050565b6000610afd82610db5565b610b078185610def565b9350610b17818560208601610ecb565b610b2081611008565b840191505092915050565b60008154610b3881610efe565b610b428186610dde565b94506001821660008114610b5d5760018114610b6f57610ba2565b60ff1983168652602086019350610ba2565b610b7885610d95565b60005b83811015610b9a57815481890152600182019150602081019050610b7b565b808801955050505b50505092915050565b6000610bb8601483610def565b9150610bc382611026565b602082019050919050565b6000606083016000808401549050610be581610f30565b610bf26000870182610a51565b5060018401549050610c0381610f30565b610c106020870182610a51565b50600284018583036040870152610c278382610b2b565b925050819250505092915050565b6000602082019050610c4a6000830184610a60565b92915050565b6000606082019050610c656000830186610a60565b610c726020830185610a60565b8181036040830152610c848184610af2565b9050949350505050565b6000608082019050610ca36000830187610ae3565b610cb06020830186610a60565b610cbd6040830185610a60565b8181036060830152610ccf8184610af2565b905095945050505050565b6000604082019050610cef6000830185610ae3565b8181036020830152610d018184610a6f565b90509392505050565b60006020820190508181036000830152610d2381610bab565b9050919050565b6000610d34610d45565b9050610d408282610f4a565b919050565b6000604051905090565b600067ffffffffffffffff821115610d6a57610d69610fd9565b5b610d7382611008565b9050602081019050919050565b60008190508160005260206000209050919050565b60008190508160005260206000209050919050565b600081549050919050565b600081519050919050565b6000600382019050919050565b600082825260208201905092915050565b600082825260208201905092915050565b600082825260208201905092915050565b6000610e0b82610eb2565b9150610e1683610eb2565b925082821015610e2957610e28610f7b565b5b828203905092915050565b600073ffffffffffffffffffffffffffffffffffffffff82169050919050565b6000610e5f82610e92565b9050919050565b60007fffffffffffffffffffffffffffffffff0000000000000000000000000000000082169050919050565b600073ffffffffffffffffffffffffffffffffffffffff82169050919050565b6000819050919050565b82818337600083830152505050565b60005b83811015610ee9578082015181840152602081019050610ece565b83811115610ef8576000848401525b50505050565b60006002820490506001821680610f1657607f821691505b60208210811415610f2a57610f29610faa565b5b50919050565b6000610f43610f3e83611019565b610e34565b9050919050565b610f5382611008565b810181811067ffffffffffffffff82111715610f7257610f71610fd9565b5b80604052505050565b7f4e487b7100000000000000000000000000000000000000000000000000000000600052601160045260246000fd5b7f4e487b7100000000000000000000000000000000000000000000000000000000600052602260045260246000fd5b7f4e487b7100000000000000000000000000000000000000000000000000000000600052604160045260246000fd5b6000601f19601f8301169050919050565b60008160001c9050919050565b7f4e6f7420746865206d616e756661637475726572000000000000000000000000600082015250565b61105881610e54565b811461106357600080fd5b50565b61106f81610e66565b811461107a57600080fd5b50565b61108681610eb2565b811461109157600080fd5b5056fea264697066735822122069a7520f26929b236dc2fba9733a78f73650d4d31f26c9b4ae320340a6d7c4ae64736f6c63430008020033",
  "immutableReferences": {},
  "source": "// SPDX-License-Identifier: MIT\n\npragma solidity ^0.8.0;\n\nimport \"./Types.sol\";\nimport \"./ProductAction.sol\";\n\ncontract SupplyChain {\n    address public owner;\n    mapping(bytes16 => Types.Transaction[]) public transactionHistory;\n    address[] public suppliers;\n\n    event ProductTransactionAccessed(\n        bytes16 productId,\n        Types.Transaction[] transactions\n    );\n    event TransactionCreated(\n        bytes16 productId,\n        address sender,\n        address receiver,\n        string condition\n    );\n    event SupplierAdded(address supplier);\n\n    modifier onlyManufacturer() {\n        require(msg.sender == owner, \"Not the manufacturer\");\n        _;\n    }\n\n    modifier onlyAuthorized() {\n        require(\n            (msg.sender == owner) || isSupplier(owner),\n            \"Not the manufacturer\"\n        );\n        _;\n    }\n\n    constructor() {\n        owner = msg.sender;\n    }\n\n    function recordTransaction(\n        bytes16 _productId,\n        address _receiver,\n        string memory _condition\n    ) external onlyManufacturer {\n        address sender;\n        if (transactionHistory[_productId].length == 0) {\n            sender = owner;\n        } else {\n            // Bir nceki gndereni alc olarak kaydediyoruz.\n            uint length = transactionHistory[_productId].length;\n            sender = transactionHistory[_productId][length - 1].receiver;\n        }\n        transactionHistory[_productId].push(\n            Types.Transaction({\n                sender: sender,\n                receiver: _receiver,\n                productStatus: _condition\n            })\n        );\n        emit TransactionCreated(_productId, sender, _receiver, _condition);\n    }\n\n    function getProductHistory(bytes16 _productId) external {\n        emit ProductTransactionAccessed(\n            _productId,\n            transactionHistory[_productId]\n        );\n    }\n\n    function addSupplier(address _supplier) external onlyManufacturer {\n        suppliers.push(_supplier);\n        emit SupplierAdded(_supplier);\n    }\n\n    function isSupplier(address _account) internal view returns (bool) {\n        for (uint i = 0; i < suppliers.length; i++) {\n            if (suppliers[i] == _account) {\n                return true;\n            }\n        }\n        return false;\n    }\n}\n",
  "sourcePath": "/Users/gamzesahin/Fake-Product-Detection-System-5/Project/backend/web3-controller/contracts/SupplyChain.sol",
  "compiler": {
    "name": "solc",
    "version": "0.8.2+commit.661d1103.Emscripten.clang"
  },
  "schemaVersion": "3.4.16",
  "updatedAt": "2024-05-04T10:55:24.187Z",
  "networkType": "ethereum",
  "devdoc": {
    "kind": "dev",
    "methods": {},
    "version": 1
  },
  "userdoc": {
    "kind": "user",
    "methods": {},
    "version": 1
  }
}