{
  "contractName": "SupplyChain",
  "abi": [
    {
      "inputs": [
        {
          "internalType": "address",
          "name": "_owner",
          "type": "address"
        }
      ],
      "stateMutability": "nonpayable",
      "type": "constructor"
    },
    {
      "anonymous": false,
      "inputs": [
        {
          "indexed": true,
          "internalType": "bytes16",
          "name": "productId",
          "type": "bytes16"
        },
        {
          "indexed": true,
          "internalType": "address",
          "name": "sender",
          "type": "address"
        },
        {
          "indexed": true,
          "internalType": "address",
          "name": "receiver",
          "type": "address"
        }
      ],
      "name": "TransactionCreated",
      "type": "event"
    },
    {
      "inputs": [],
      "name": "owner",
      "outputs": [
        {
          "internalType": "address",
          "name": "",
          "type": "address"
        }
      ],
      "stateMutability": "view",
      "type": "function"
    },
    {
      "inputs": [
        {
          "internalType": "uint256",
          "name": "",
          "type": "uint256"
        }
      ],
      "name": "suppliers",
      "outputs": [
        {
          "internalType": "address",
          "name": "",
          "type": "address"
        }
      ],
      "stateMutability": "view",
      "type": "function"
    },
    {
      "inputs": [
        {
          "internalType": "bytes16",
          "name": "",
          "type": "bytes16"
        },
        {
          "internalType": "uint256",
          "name": "",
          "type": "uint256"
        }
      ],
      "name": "transactionHistory",
      "outputs": [
        {
          "internalType": "address",
          "name": "sender",
          "type": "address"
        },
        {
          "internalType": "address",
          "name": "receiver",
          "type": "address"
        }
      ],
      "stateMutability": "view",
      "type": "function"
    },
    {
      "inputs": [
        {
          "internalType": "bytes16",
          "name": "_productId",
          "type": "bytes16"
        },
        {
          "internalType": "address",
          "name": "_receiver",
          "type": "address"
        }
      ],
      "name": "recordTransaction",
      "outputs": [],
      "stateMutability": "nonpayable",
      "type": "function"
    },
    {
      "inputs": [
        {
          "internalType": "bytes16",
          "name": "_productId",
          "type": "bytes16"
        }
      ],
      "name": "getProductHistory",
      "outputs": [
        {
          "components": [
            {
              "internalType": "address",
              "name": "sender",
              "type": "address"
            },
            {
              "internalType": "address",
              "name": "receiver",
              "type": "address"
            }
          ],
          "internalType": "struct Types.Transaction[]",
          "name": "",
          "type": "tuple[]"
        }
      ],
      "stateMutability": "view",
      "type": "function"
    },
    {
      "inputs": [
        {
          "internalType": "address",
          "name": "_supplier",
          "type": "address"
        }
      ],
      "name": "addSupplier",
      "outputs": [],
      "stateMutability": "nonpayable",
      "type": "function"
    },
    {
      "inputs": [
        {
          "internalType": "address",
          "name": "_account",
          "type": "address"
        }
      ],
      "name": "isSupplier",
      "outputs": [
        {
          "internalType": "bool",
          "name": "",
          "type": "bool"
        }
      ],
      "stateMutability": "view",
      "type": "function"
    }
  ],
  "bytecode": "0x608060405234801561000f575f80fd5b50604051610cb1380380610cb1833981810160405281019061003191906100d4565b805f806101000a81548173ffffffffffffffffffffffffffffffffffffffff021916908373ffffffffffffffffffffffffffffffffffffffff160217905550506100ff565b5f80fd5b5f73ffffffffffffffffffffffffffffffffffffffff82169050919050565b5f6100a38261007a565b9050919050565b6100b381610099565b81146100bd575f80fd5b50565b5f815190506100ce816100aa565b92915050565b5f602082840312156100e9576100e8610076565b5b5f6100f6848285016100c0565b91505092915050565b610ba58061010c5f395ff3fe608060405234801561000f575f80fd5b506004361061007b575f3560e01c80637c9ea338116100595780637c9ea338146100e75780638da5cb5b14610118578063cea2312114610136578063f2889001146101665761007b565b806317df47451461007f578063463365421461009b57806360f1a53d146100cb575b5f80fd5b610099600480360381019061009491906107d7565b610196565b005b6100b560048036038101906100b091906107d7565b6101f9565b6040516100c2919061081c565b60405180910390f35b6100e560048036038101906100e0919061088a565b61029b565b005b61010160048036038101906100fc91906108fb565b610567565b60405161010f929190610948565b60405180910390f35b6101206105df565b60405161012d919061096f565b60405180910390f35b610150600480360381019061014b9190610988565b610602565b60405161015d919061096f565b60405180910390f35b610180600480360381019061017b91906109b3565b61063d565b60405161018d9190610ac2565b60405180910390f35b600281908060018154018082558091505060019003905f5260205f20015f9091909190916101000a81548173ffffffffffffffffffffffffffffffffffffffff021916908373ffffffffffffffffffffffffffffffffffffffff16021790555050565b5f805f90505b600280549050811015610291578273ffffffffffffffffffffffffffffffffffffffff166002828154811061023757610236610ae2565b5b905f5260205f20015f9054906101000a900473ffffffffffffffffffffffffffffffffffffffff1673ffffffffffffffffffffffffffffffffffffffff1603610284576001915050610296565b80806001019150506101ff565b505f90505b919050565b5f8060015f856fffffffffffffffffffffffffffffffff19166fffffffffffffffffffffffffffffffff191681526020019081526020015f208054905003610304575f8054906101000a900473ffffffffffffffffffffffffffffffffffffffff1690506103ca565b5f60015f856fffffffffffffffffffffffffffffffff19166fffffffffffffffffffffffffffffffff191681526020019081526020015f2080549050905060015f856fffffffffffffffffffffffffffffffff19166fffffffffffffffffffffffffffffffff191681526020019081526020015f206001826103869190610b3c565b8154811061039757610396610ae2565b5b905f5260205f2090600202016001015f9054906101000a900473ffffffffffffffffffffffffffffffffffffffff169150505b60015f846fffffffffffffffffffffffffffffffff19166fffffffffffffffffffffffffffffffff191681526020019081526020015f2060405180604001604052808373ffffffffffffffffffffffffffffffffffffffff1681526020018473ffffffffffffffffffffffffffffffffffffffff16815250908060018154018082558091505060019003905f5260205f2090600202015f909190919091505f820151815f015f6101000a81548173ffffffffffffffffffffffffffffffffffffffff021916908373ffffffffffffffffffffffffffffffffffffffff1602179055506020820151816001015f6101000a81548173ffffffffffffffffffffffffffffffffffffffff021916908373ffffffffffffffffffffffffffffffffffffffff16021790555050508173ffffffffffffffffffffffffffffffffffffffff168173ffffffffffffffffffffffffffffffffffffffff16846fffffffffffffffffffffffffffffffff19167f897e60e40c2dae572c8edcc751d666707cce685d34454e53c46ac68ed0befa7460405160405180910390a4505050565b6001602052815f5260405f208181548110610580575f80fd5b905f5260205f2090600202015f9150915050805f015f9054906101000a900473ffffffffffffffffffffffffffffffffffffffff1690806001015f9054906101000a900473ffffffffffffffffffffffffffffffffffffffff16905082565b5f8054906101000a900473ffffffffffffffffffffffffffffffffffffffff1681565b60028181548110610611575f80fd5b905f5260205f20015f915054906101000a900473ffffffffffffffffffffffffffffffffffffffff1681565b606060015f836fffffffffffffffffffffffffffffffff19166fffffffffffffffffffffffffffffffff191681526020019081526020015f20805480602002602001604051908101604052809291908181526020015f905b8282101561076e578382905f5260205f2090600202016040518060400160405290815f82015f9054906101000a900473ffffffffffffffffffffffffffffffffffffffff1673ffffffffffffffffffffffffffffffffffffffff1673ffffffffffffffffffffffffffffffffffffffff168152602001600182015f9054906101000a900473ffffffffffffffffffffffffffffffffffffffff1673ffffffffffffffffffffffffffffffffffffffff1673ffffffffffffffffffffffffffffffffffffffff168152505081526020019060010190610695565b505050509050919050565b5f80fd5b5f73ffffffffffffffffffffffffffffffffffffffff82169050919050565b5f6107a68261077d565b9050919050565b6107b68161079c565b81146107c0575f80fd5b50565b5f813590506107d1816107ad565b92915050565b5f602082840312156107ec576107eb610779565b5b5f6107f9848285016107c3565b91505092915050565b5f8115159050919050565b61081681610802565b82525050565b5f60208201905061082f5f83018461080d565b92915050565b5f7fffffffffffffffffffffffffffffffff0000000000000000000000000000000082169050919050565b61086981610835565b8114610873575f80fd5b50565b5f8135905061088481610860565b92915050565b5f80604083850312156108a05761089f610779565b5b5f6108ad85828601610876565b92505060206108be858286016107c3565b9150509250929050565b5f819050919050565b6108da816108c8565b81146108e4575f80fd5b50565b5f813590506108f5816108d1565b92915050565b5f806040838503121561091157610910610779565b5b5f61091e85828601610876565b925050602061092f858286016108e7565b9150509250929050565b6109428161079c565b82525050565b5f60408201905061095b5f830185610939565b6109686020830184610939565b9392505050565b5f6020820190506109825f830184610939565b92915050565b5f6020828403121561099d5761099c610779565b5b5f6109aa848285016108e7565b91505092915050565b5f602082840312156109c8576109c7610779565b5b5f6109d584828501610876565b91505092915050565b5f81519050919050565b5f82825260208201905092915050565b5f819050602082019050919050565b610a108161079c565b82525050565b604082015f820151610a2a5f850182610a07565b506020820151610a3d6020850182610a07565b50505050565b5f610a4e8383610a16565b60408301905092915050565b5f602082019050919050565b5f610a70826109de565b610a7a81856109e8565b9350610a85836109f8565b805f5b83811015610ab5578151610a9c8882610a43565b9750610aa783610a5a565b925050600181019050610a88565b5085935050505092915050565b5f6020820190508181035f830152610ada8184610a66565b905092915050565b7f4e487b71000000000000000000000000000000000000000000000000000000005f52603260045260245ffd5b7f4e487b71000000000000000000000000000000000000000000000000000000005f52601160045260245ffd5b5f610b46826108c8565b9150610b51836108c8565b9250828203905081811115610b6957610b68610b0f565b5b9291505056fea26469706673582212208643823b2ffa2aff640349aaccdf35706a9f33091e3037c3e0ddf81677ec3aef64736f6c63430008180033",
  "immutableReferences": {},
  "source": "// SPDX-License-Identifier: MIT\r\n\r\npragma solidity ^0.8.0;\r\n\r\nimport \"./Types.sol\";\r\nimport \"./ProductAction.sol\";\r\n\r\ncontract SupplyChain {\r\n    address public owner;\r\n    mapping(bytes16 => Types.Transaction[]) public transactionHistory;\r\n    address[] public suppliers;\r\n\r\n    event TransactionCreated(\r\n        bytes16 indexed productId,\r\n        address indexed sender,\r\n        address indexed receiver\r\n    );\r\n\r\n    constructor(address _owner) {\r\n        owner = _owner;\r\n    }\r\n\r\n    function recordTransaction(bytes16 _productId, address _receiver) external {\r\n        address sender;\r\n        if (transactionHistory[_productId].length == 0) {\r\n            sender = owner;\r\n        } else {\r\n            // Bir nceki gndereni alc olarak kaydediyoruz.\r\n            uint length = transactionHistory[_productId].length;\r\n            sender = transactionHistory[_productId][length - 1].receiver;\r\n        }\r\n        transactionHistory[_productId].push(\r\n            Types.Transaction({sender: sender, receiver: _receiver})\r\n        );\r\n        emit TransactionCreated(_productId, sender, _receiver);\r\n    }\r\n\r\n    function getProductHistory(\r\n        bytes16 _productId\r\n    ) external view returns (Types.Transaction[] memory) {\r\n        return transactionHistory[_productId];\r\n    }\r\n\r\n    function addSupplier(address _supplier) external {\r\n        suppliers.push(_supplier);\r\n    }\r\n\r\n    function isSupplier(address _account) external view returns (bool) {\r\n        for (uint i = 0; i < suppliers.length; i++) {\r\n            if (suppliers[i] == _account) {\r\n                return true;\r\n            }\r\n        }\r\n        return false;\r\n    }\r\n}\r\n",
  "sourcePath": "C:\\Users\\User\\Desktop\\Uni Projects\\Bitirme\\Project\\backend\\web3-controller\\contracts\\SupplyChain.sol",
  "compiler": {
    "name": "solc",
    "version": "0.8.24+commit.e11b9ed9.Emscripten.clang"
  },
  "schemaVersion": "3.4.16",
  "updatedAt": "2024-02-28T18:14:44.661Z",
  "devdoc": {
    "kind": "dev",
    "methods": {},
    "version": 1
  },
  "userdoc": {
    "kind": "user",
    "methods": {},
    "version": 1
  }
}