{
  "contractName": "SupplyChain",
  "abi": [
    {
      "inputs": [],
      "stateMutability": "nonpayable",
      "type": "constructor"
    },
    {
      "anonymous": false,
      "inputs": [
        {
          "indexed": true,
          "internalType": "bytes16",
          "name": "productId",
          "type": "bytes16"
        },
        {
          "indexed": true,
          "internalType": "address",
          "name": "sender",
          "type": "address"
        },
        {
          "indexed": true,
          "internalType": "address",
          "name": "receiver",
          "type": "address"
        }
      ],
      "name": "TransactionCreated",
      "type": "event"
    },
    {
      "inputs": [],
      "name": "owner",
      "outputs": [
        {
          "internalType": "address",
          "name": "",
          "type": "address"
        }
      ],
      "stateMutability": "view",
      "type": "function",
      "constant": true
    },
    {
      "inputs": [
        {
          "internalType": "uint256",
          "name": "",
          "type": "uint256"
        }
      ],
      "name": "suppliers",
      "outputs": [
        {
          "internalType": "address",
          "name": "",
          "type": "address"
        }
      ],
      "stateMutability": "view",
      "type": "function",
      "constant": true
    },
    {
      "inputs": [
        {
          "internalType": "bytes16",
          "name": "",
          "type": "bytes16"
        },
        {
          "internalType": "uint256",
          "name": "",
          "type": "uint256"
        }
      ],
      "name": "transactionHistory",
      "outputs": [
        {
          "internalType": "address",
          "name": "sender",
          "type": "address"
        },
        {
          "internalType": "address",
          "name": "receiver",
          "type": "address"
        }
      ],
      "stateMutability": "view",
      "type": "function",
      "constant": true
    },
    {
      "inputs": [
        {
          "internalType": "bytes16",
          "name": "_productId",
          "type": "bytes16"
        },
        {
          "internalType": "address",
          "name": "_receiver",
          "type": "address"
        }
      ],
      "name": "recordTransaction",
      "outputs": [],
      "stateMutability": "nonpayable",
      "type": "function"
    },
    {
      "inputs": [
        {
          "internalType": "bytes16",
          "name": "_productId",
          "type": "bytes16"
        }
      ],
      "name": "getProductHistory",
      "outputs": [
        {
          "components": [
            {
              "internalType": "address",
              "name": "sender",
              "type": "address"
            },
            {
              "internalType": "address",
              "name": "receiver",
              "type": "address"
            }
          ],
          "internalType": "struct Types.Transaction[]",
          "name": "",
          "type": "tuple[]"
        }
      ],
      "stateMutability": "view",
      "type": "function",
      "constant": true
    },
    {
      "inputs": [
        {
          "internalType": "address",
          "name": "_supplier",
          "type": "address"
        }
      ],
      "name": "addSupplier",
      "outputs": [],
      "stateMutability": "nonpayable",
      "type": "function"
    },
    {
      "inputs": [
        {
          "internalType": "address",
          "name": "_account",
          "type": "address"
        }
      ],
      "name": "isSupplier",
      "outputs": [
        {
          "internalType": "bool",
          "name": "",
          "type": "bool"
        }
      ],
      "stateMutability": "view",
      "type": "function",
      "constant": true
    },
    {
      "inputs": [
        {
          "internalType": "address",
          "name": "_owner",
          "type": "address"
        }
      ],
      "name": "setOwner",
      "outputs": [],
      "stateMutability": "nonpayable",
      "type": "function"
    }
  ],
  "bytecode": "0x608060405234801561001057600080fd5b50610cc7806100206000396000f3fe608060405234801561001057600080fd5b50600436106100885760003560e01c80637c9ea3381161005b5780637c9ea338146101115780638da5cb5b14610142578063cea2312114610160578063f28890011461019057610088565b806313af40351461008d57806317df4745146100a957806346336542146100c557806360f1a53d146100f5575b600080fd5b6100a760048036038101906100a291906108ad565b6101c0565b005b6100c360048036038101906100be91906108ad565b610203565b005b6100df60048036038101906100da91906108ad565b610269565b6040516100ec9190610ad8565b60405180910390f35b61010f600480360381019061010a91906108ff565b61033e565b005b61012b6004803603810190610126919061093b565b610646565b604051610139929190610a8d565b60405180910390f35b61014a6106c7565b6040516101579190610a72565b60405180910390f35b61017a60048036038101906101759190610977565b6106eb565b6040516101879190610a72565b60405180910390f35b6101aa60048036038101906101a591906108d6565b61072a565b6040516101b79190610ab6565b60405180910390f35b806000806101000a81548173ffffffffffffffffffffffffffffffffffffffff021916908373ffffffffffffffffffffffffffffffffffffffff16021790555050565b6002819080600181540180825580915050600190039060005260206000200160009091909190916101000a81548173ffffffffffffffffffffffffffffffffffffffff021916908373ffffffffffffffffffffffffffffffffffffffff16021790555050565b600080600090505b600280549050811015610333578273ffffffffffffffffffffffffffffffffffffffff16600282815481106102cf577f4e487b7100000000000000000000000000000000000000000000000000000000600052603260045260246000fd5b9060005260206000200160009054906101000a900473ffffffffffffffffffffffffffffffffffffffff1673ffffffffffffffffffffffffffffffffffffffff161415610320576001915050610339565b808061032b90610bd4565b915050610271565b50600090505b919050565b60008060016000856fffffffffffffffffffffffffffffffff19166fffffffffffffffffffffffffffffffff191681526020019081526020016000208054905014156103ac5760008054906101000a900473ffffffffffffffffffffffffffffffffffffffff1690506104a0565b600060016000856fffffffffffffffffffffffffffffffff19166fffffffffffffffffffffffffffffffff1916815260200190815260200160002080549050905060016000856fffffffffffffffffffffffffffffffff19166fffffffffffffffffffffffffffffffff191681526020019081526020016000206001826104339190610b2c565b8154811061046a577f4e487b7100000000000000000000000000000000000000000000000000000000600052603260045260246000fd5b906000526020600020906002020160010160009054906101000a900473ffffffffffffffffffffffffffffffffffffffff169150505b60016000846fffffffffffffffffffffffffffffffff19166fffffffffffffffffffffffffffffffff1916815260200190815260200160002060405180604001604052808373ffffffffffffffffffffffffffffffffffffffff1681526020018473ffffffffffffffffffffffffffffffffffffffff16815250908060018154018082558091505060019003906000526020600020906002020160009091909190915060008201518160000160006101000a81548173ffffffffffffffffffffffffffffffffffffffff021916908373ffffffffffffffffffffffffffffffffffffffff16021790555060208201518160010160006101000a81548173ffffffffffffffffffffffffffffffffffffffff021916908373ffffffffffffffffffffffffffffffffffffffff16021790555050508173ffffffffffffffffffffffffffffffffffffffff168173ffffffffffffffffffffffffffffffffffffffff16846fffffffffffffffffffffffffffffffff19167f897e60e40c2dae572c8edcc751d666707cce685d34454e53c46ac68ed0befa7460405160405180910390a4505050565b6001602052816000526040600020818154811061066257600080fd5b9060005260206000209060020201600091509150508060000160009054906101000a900473ffffffffffffffffffffffffffffffffffffffff16908060010160009054906101000a900473ffffffffffffffffffffffffffffffffffffffff16905082565b60008054906101000a900473ffffffffffffffffffffffffffffffffffffffff1681565b600281815481106106fb57600080fd5b906000526020600020016000915054906101000a900473ffffffffffffffffffffffffffffffffffffffff1681565b606060016000836fffffffffffffffffffffffffffffffff19166fffffffffffffffffffffffffffffffff19168152602001908152602001600020805480602002602001604051908101604052809291908181526020016000905b8282101561086357838290600052602060002090600202016040518060400160405290816000820160009054906101000a900473ffffffffffffffffffffffffffffffffffffffff1673ffffffffffffffffffffffffffffffffffffffff1673ffffffffffffffffffffffffffffffffffffffff1681526020016001820160009054906101000a900473ffffffffffffffffffffffffffffffffffffffff1673ffffffffffffffffffffffffffffffffffffffff1673ffffffffffffffffffffffffffffffffffffffff168152505081526020019060010190610785565b505050509050919050565b60008135905061087d81610c4c565b92915050565b60008135905061089281610c63565b92915050565b6000813590506108a781610c7a565b92915050565b6000602082840312156108bf57600080fd5b60006108cd8482850161086e565b91505092915050565b6000602082840312156108e857600080fd5b60006108f684828501610883565b91505092915050565b6000806040838503121561091257600080fd5b600061092085828601610883565b92505060206109318582860161086e565b9150509250929050565b6000806040838503121561094e57600080fd5b600061095c85828601610883565b925050602061096d85828601610898565b9150509250929050565b60006020828403121561098957600080fd5b600061099784828501610898565b91505092915050565b60006109ac8383610a43565b60408301905092915050565b6109c181610b60565b82525050565b6109d081610b60565b82525050565b60006109e182610b03565b6109eb8185610b1b565b93506109f683610af3565b8060005b83811015610a27578151610a0e88826109a0565b9750610a1983610b0e565b9250506001810190506109fa565b5085935050505092915050565b610a3d81610b72565b82525050565b604082016000820151610a5960008501826109b8565b506020820151610a6c60208501826109b8565b50505050565b6000602082019050610a8760008301846109c7565b92915050565b6000604082019050610aa260008301856109c7565b610aaf60208301846109c7565b9392505050565b60006020820190508181036000830152610ad081846109d6565b905092915050565b6000602082019050610aed6000830184610a34565b92915050565b6000819050602082019050919050565b600081519050919050565b6000602082019050919050565b600082825260208201905092915050565b6000610b3782610bca565b9150610b4283610bca565b925082821015610b5557610b54610c1d565b5b828203905092915050565b6000610b6b82610baa565b9050919050565b60008115159050919050565b60007fffffffffffffffffffffffffffffffff0000000000000000000000000000000082169050919050565b600073ffffffffffffffffffffffffffffffffffffffff82169050919050565b6000819050919050565b6000610bdf82610bca565b91507fffffffffffffffffffffffffffffffffffffffffffffffffffffffffffffffff821415610c1257610c11610c1d565b5b600182019050919050565b7f4e487b7100000000000000000000000000000000000000000000000000000000600052601160045260246000fd5b610c5581610b60565b8114610c6057600080fd5b50565b610c6c81610b7e565b8114610c7757600080fd5b50565b610c8381610bca565b8114610c8e57600080fd5b5056fea2646970667358221220c6efbe5121708d0c0fa1f76eb2022a90ac1014b45eb53b6ef8f79098a195f63364736f6c63430008020033",
  "immutableReferences": {},
  "source": "// SPDX-License-Identifier: MIT\r\n\r\npragma solidity ^0.8.0;\r\n\r\nimport \"./Types.sol\";\r\nimport \"./ProductAction.sol\";\r\n\r\ncontract SupplyChain {\r\n    address public owner;\r\n    mapping(bytes16 => Types.Transaction[]) public transactionHistory;\r\n    address[] public suppliers;\r\n\r\n    event TransactionCreated(\r\n        bytes16 indexed productId,\r\n        address indexed sender,\r\n        address indexed receiver\r\n    );\r\n\r\n    constructor() {}\r\n\r\n    function recordTransaction(bytes16 _productId, address _receiver) external {\r\n        address sender;\r\n        if (transactionHistory[_productId].length == 0) {\r\n            sender = owner;\r\n        } else {\r\n            // Bir nceki gndereni alc olarak kaydediyoruz.\r\n            uint length = transactionHistory[_productId].length;\r\n            sender = transactionHistory[_productId][length - 1].receiver;\r\n        }\r\n        transactionHistory[_productId].push(\r\n            Types.Transaction({sender: sender, receiver: _receiver})\r\n        );\r\n        emit TransactionCreated(_productId, sender, _receiver);\r\n    }\r\n\r\n    function getProductHistory(\r\n        bytes16 _productId\r\n    ) external view returns (Types.Transaction[] memory) {\r\n        return transactionHistory[_productId];\r\n    }\r\n\r\n    function addSupplier(address _supplier) external {\r\n        suppliers.push(_supplier);\r\n    }\r\n\r\n    function isSupplier(address _account) external view returns (bool) {\r\n        for (uint i = 0; i < suppliers.length; i++) {\r\n            if (suppliers[i] == _account) {\r\n                return true;\r\n            }\r\n        }\r\n        return false;\r\n    }\r\n\r\n    function setOwner(address _owner) public {\r\n        owner = _owner;\r\n    }\r\n}\r\n",
  "sourcePath": "C:\\Users\\User\\Desktop\\Uni Projects\\Bitirme\\Project\\backend\\web3-controller\\contracts\\SupplyChain.sol",
  "compiler": {
    "name": "solc",
    "version": "0.8.2+commit.661d1103.Emscripten.clang"
  },
  "schemaVersion": "3.4.16",
  "updatedAt": "2024-03-06T17:49:38.490Z",
  "networkType": "ethereum",
  "devdoc": {
    "kind": "dev",
    "methods": {},
    "version": 1
  },
  "userdoc": {
    "kind": "user",
    "methods": {},
    "version": 1
  }
}