{
  "contractName": "SupplyChain",
  "abi": [
    {
      "inputs": [],
      "stateMutability": "nonpayable",
      "type": "constructor"
    },
    {
      "anonymous": false,
      "inputs": [
        {
          "indexed": false,
          "internalType": "bytes16",
          "name": "productId",
          "type": "bytes16"
        },
        {
          "components": [
            {
              "internalType": "address",
              "name": "sender",
              "type": "address"
            },
            {
              "internalType": "address",
              "name": "receiver",
              "type": "address"
            }
          ],
          "indexed": false,
          "internalType": "struct Types.Transaction[]",
          "name": "transactions",
          "type": "tuple[]"
        }
      ],
      "name": "ProductTransactionAccessed",
      "type": "event"
    },
    {
      "anonymous": false,
      "inputs": [
        {
          "indexed": false,
          "internalType": "address",
          "name": "supplier",
          "type": "address"
        }
      ],
      "name": "SupplierAdded",
      "type": "event"
    },
    {
      "anonymous": false,
      "inputs": [
        {
          "indexed": false,
          "internalType": "bytes16",
          "name": "productId",
          "type": "bytes16"
        },
        {
          "indexed": false,
          "internalType": "address",
          "name": "sender",
          "type": "address"
        },
        {
          "indexed": false,
          "internalType": "address",
          "name": "receiver",
          "type": "address"
        }
      ],
      "name": "TransactionCreated",
      "type": "event"
    },
    {
      "inputs": [],
      "name": "owner",
      "outputs": [
        {
          "internalType": "address",
          "name": "",
          "type": "address"
        }
      ],
      "stateMutability": "view",
      "type": "function",
      "constant": true
    },
    {
      "inputs": [
        {
          "internalType": "uint256",
          "name": "",
          "type": "uint256"
        }
      ],
      "name": "suppliers",
      "outputs": [
        {
          "internalType": "address",
          "name": "",
          "type": "address"
        }
      ],
      "stateMutability": "view",
      "type": "function",
      "constant": true
    },
    {
      "inputs": [
        {
          "internalType": "bytes16",
          "name": "",
          "type": "bytes16"
        },
        {
          "internalType": "uint256",
          "name": "",
          "type": "uint256"
        }
      ],
      "name": "transactionHistory",
      "outputs": [
        {
          "internalType": "address",
          "name": "sender",
          "type": "address"
        },
        {
          "internalType": "address",
          "name": "receiver",
          "type": "address"
        }
      ],
      "stateMutability": "view",
      "type": "function",
      "constant": true
    },
    {
      "inputs": [
        {
          "internalType": "bytes16",
          "name": "_productId",
          "type": "bytes16"
        },
        {
          "internalType": "address",
          "name": "_receiver",
          "type": "address"
        }
      ],
      "name": "recordTransaction",
      "outputs": [],
      "stateMutability": "nonpayable",
      "type": "function"
    },
    {
      "inputs": [
        {
          "internalType": "bytes16",
          "name": "_productId",
          "type": "bytes16"
        }
      ],
      "name": "getProductHistory",
      "outputs": [],
      "stateMutability": "nonpayable",
      "type": "function"
    },
    {
      "inputs": [
        {
          "internalType": "address",
          "name": "_supplier",
          "type": "address"
        }
      ],
      "name": "addSupplier",
      "outputs": [],
      "stateMutability": "nonpayable",
      "type": "function"
    }
  ],
  "bytecode": "0x608060405234801561001057600080fd5b50336000806101000a81548173ffffffffffffffffffffffffffffffffffffffff021916908373ffffffffffffffffffffffffffffffffffffffff160217905550610c2e806100606000396000f3fe608060405234801561001057600080fd5b50600436106100625760003560e01c806317df47451461006757806360f1a53d146100835780637c9ea3381461009f5780638da5cb5b146100d0578063cea23121146100ee578063f28890011461011e575b600080fd5b610081600480360381019061007c919061075f565b61013a565b005b61009d600480360381019061009891906107b1565b610265565b005b6100b960048036038101906100b491906107ed565b6105c8565b6040516100c7929190610979565b60405180910390f35b6100d8610649565b6040516100e5919061095e565b60405180910390f35b61010860048036038101906101039190610829565b61066d565b604051610115919061095e565b60405180910390f35b61013860048036038101906101339190610788565b6106ac565b005b60008054906101000a900473ffffffffffffffffffffffffffffffffffffffff1673ffffffffffffffffffffffffffffffffffffffff163373ffffffffffffffffffffffffffffffffffffffff16146101c8576040517f08c379a00000000000000000000000000000000000000000000000000000000081526004016101bf90610a09565b60405180910390fd5b6002819080600181540180825580915050600190039060005260206000200160009091909190916101000a81548173ffffffffffffffffffffffffffffffffffffffff021916908373ffffffffffffffffffffffffffffffffffffffff1602179055507fa9f13e94f3f7dbf69ac8405e3aa6f43a6f162984687d099c7a5cd9b602552cc28160405161025a919061095e565b60405180910390a150565b60008054906101000a900473ffffffffffffffffffffffffffffffffffffffff1673ffffffffffffffffffffffffffffffffffffffff163373ffffffffffffffffffffffffffffffffffffffff16146102f3576040517f08c379a00000000000000000000000000000000000000000000000000000000081526004016102ea90610a09565b60405180910390fd5b60008060016000856fffffffffffffffffffffffffffffffff19166fffffffffffffffffffffffffffffffff191681526020019081526020016000208054905014156103615760008054906101000a900473ffffffffffffffffffffffffffffffffffffffff169050610455565b600060016000856fffffffffffffffffffffffffffffffff19166fffffffffffffffffffffffffffffffff1916815260200190815260200160002080549050905060016000856fffffffffffffffffffffffffffffffff19166fffffffffffffffffffffffffffffffff191681526020019081526020016000206001826103e89190610a78565b8154811061041f577f4e487b7100000000000000000000000000000000000000000000000000000000600052603260045260246000fd5b906000526020600020906002020160010160009054906101000a900473ffffffffffffffffffffffffffffffffffffffff169150505b60016000846fffffffffffffffffffffffffffffffff19166fffffffffffffffffffffffffffffffff1916815260200190815260200160002060405180604001604052808373ffffffffffffffffffffffffffffffffffffffff1681526020018473ffffffffffffffffffffffffffffffffffffffff16815250908060018154018082558091505060019003906000526020600020906002020160009091909190915060008201518160000160006101000a81548173ffffffffffffffffffffffffffffffffffffffff021916908373ffffffffffffffffffffffffffffffffffffffff16021790555060208201518160010160006101000a81548173ffffffffffffffffffffffffffffffffffffffff021916908373ffffffffffffffffffffffffffffffffffffffff16021790555050507f897e60e40c2dae572c8edcc751d666707cce685d34454e53c46ac68ed0befa748382846040516105bb939291906109a2565b60405180910390a1505050565b600160205281600052604060002081815481106105e457600080fd5b9060005260206000209060020201600091509150508060000160009054906101000a900473ffffffffffffffffffffffffffffffffffffffff16908060010160009054906101000a900473ffffffffffffffffffffffffffffffffffffffff16905082565b60008054906101000a900473ffffffffffffffffffffffffffffffffffffffff1681565b6002818154811061067d57600080fd5b906000526020600020016000915054906101000a900473ffffffffffffffffffffffffffffffffffffffff1681565b7fe3e815355f69f04bfd75d6bc1c251e2aa04e34c9311babf8561a3f3c5cef54728160016000846fffffffffffffffffffffffffffffffff19166fffffffffffffffffffffffffffffffff191681526020019081526020016000206040516107159291906109d9565b60405180910390a150565b60008135905061072f81610bb3565b92915050565b60008135905061074481610bca565b92915050565b60008135905061075981610be1565b92915050565b60006020828403121561077157600080fd5b600061077f84828501610720565b91505092915050565b60006020828403121561079a57600080fd5b60006107a884828501610735565b91505092915050565b600080604083850312156107c457600080fd5b60006107d285828601610735565b92505060206107e385828601610720565b9150509250929050565b6000806040838503121561080057600080fd5b600061080e85828601610735565b925050602061081f8582860161074a565b9150509250929050565b60006020828403121561083b57600080fd5b60006108498482850161074a565b91505092915050565b600061085e8383610917565b60408301905092915050565b61087381610acc565b82525050565b61088281610acc565b82525050565b600061089382610a3e565b61089d8185610a56565b93506108a883610a29565b8060005b838110156108d857816108bf8882610852565b97506108ca83610a49565b9250506001810190506108ac565b5085935050505092915050565b6108ee81610ade565b82525050565b6000610901601483610a67565b915061090c82610b8a565b602082019050919050565b60408201600080830154905061092c81610b34565b610939600086018261086a565b506001830154905061094a81610b34565b610957602086018261086a565b5050505050565b60006020820190506109736000830184610879565b92915050565b600060408201905061098e6000830185610879565b61099b6020830184610879565b9392505050565b60006060820190506109b760008301866108e5565b6109c46020830185610879565b6109d16040830184610879565b949350505050565b60006040820190506109ee60008301856108e5565b8181036020830152610a008184610888565b90509392505050565b60006020820190508181036000830152610a22816108f4565b9050919050565b60008190508160005260206000209050919050565b600081549050919050565b6000600282019050919050565b600082825260208201905092915050565b600082825260208201905092915050565b6000610a8382610b2a565b9150610a8e83610b2a565b925082821015610aa157610aa0610b4e565b5b828203905092915050565b600073ffffffffffffffffffffffffffffffffffffffff82169050919050565b6000610ad782610b0a565b9050919050565b60007fffffffffffffffffffffffffffffffff0000000000000000000000000000000082169050919050565b600073ffffffffffffffffffffffffffffffffffffffff82169050919050565b6000819050919050565b6000610b47610b4283610b7d565b610aac565b9050919050565b7f4e487b7100000000000000000000000000000000000000000000000000000000600052601160045260246000fd5b60008160001c9050919050565b7f4e6f7420746865206d616e756661637475726572000000000000000000000000600082015250565b610bbc81610acc565b8114610bc757600080fd5b50565b610bd381610ade565b8114610bde57600080fd5b50565b610bea81610b2a565b8114610bf557600080fd5b5056fea2646970667358221220fa8757d235f7a4d5fa2b19bd3947aa635c162f2c65537d55ce7213c535c1d11c64736f6c63430008020033",
  "immutableReferences": {},
  "source": "// SPDX-License-Identifier: MIT\r\n\r\npragma solidity ^0.8.0;\r\n\r\nimport \"./Types.sol\";\r\nimport \"./ProductAction.sol\";\r\n\r\ncontract SupplyChain {\r\n    address public owner;\r\n    mapping(bytes16 => Types.Transaction[]) public transactionHistory;\r\n    address[] public suppliers;\r\n\r\n    event ProductTransactionAccessed(\r\n        bytes16 productId,\r\n        Types.Transaction[] transactions\r\n    );\r\n    event TransactionCreated(\r\n        bytes16 productId,\r\n        address sender,\r\n        address receiver\r\n    );\r\n    event SupplierAdded(address supplier);\r\n\r\n    modifier onlyManufacturer() {\r\n        require(msg.sender == owner, \"Not the manufacturer\");\r\n        _;\r\n    }\r\n\r\n    modifier onlyAuthorized() {\r\n        require(\r\n            (msg.sender == owner) || isSupplier(owner),\r\n            \"Not the manufacturer\"\r\n        );\r\n        _;\r\n    }\r\n\r\n    constructor() {\r\n        owner = msg.sender;\r\n    }\r\n\r\n    function recordTransaction(\r\n        bytes16 _productId,\r\n        address _receiver\r\n    ) external onlyManufacturer {\r\n        address sender;\r\n        if (transactionHistory[_productId].length == 0) {\r\n            sender = owner;\r\n        } else {\r\n            // Bir nceki gndereni alc olarak kaydediyoruz.\r\n            uint length = transactionHistory[_productId].length;\r\n            sender = transactionHistory[_productId][length - 1].receiver;\r\n        }\r\n        transactionHistory[_productId].push(\r\n            Types.Transaction({sender: sender, receiver: _receiver})\r\n        );\r\n        emit TransactionCreated(_productId, sender, _receiver);\r\n    }\r\n\r\n    function getProductHistory(bytes16 _productId) external {\r\n        emit ProductTransactionAccessed(\r\n            _productId,\r\n            transactionHistory[_productId]\r\n        );\r\n    }\r\n\r\n    function addSupplier(address _supplier) external onlyManufacturer {\r\n        suppliers.push(_supplier);\r\n        emit SupplierAdded(_supplier);\r\n    }\r\n\r\n    function isSupplier(address _account) internal view returns (bool) {\r\n        for (uint i = 0; i < suppliers.length; i++) {\r\n            if (suppliers[i] == _account) {\r\n                return true;\r\n            }\r\n        }\r\n        return false;\r\n    }\r\n}\r\n",
  "sourcePath": "C:\\Users\\User\\Desktop\\Uni Projects\\Bitirme\\Project\\backend\\web3-controller\\contracts\\SupplyChain.sol",
  "compiler": {
    "name": "solc",
    "version": "0.8.2+commit.661d1103.Emscripten.clang"
  },
  "schemaVersion": "3.4.16",
  "updatedAt": "2024-03-26T09:50:29.670Z",
  "networkType": "ethereum",
  "devdoc": {
    "kind": "dev",
    "methods": {},
    "version": 1
  },
  "userdoc": {
    "kind": "user",
    "methods": {},
    "version": 1
  }
}