{
	"Project/backend/web3-controller/contracts/ProductAction.sol": {
		"ProductAction": {
			"abi": [
				{
					"inputs": [
						{
							"internalType": "address",
							"name": "_owner",
							"type": "address"
						}
					],
					"stateMutability": "nonpayable",
					"type": "constructor"
				},
				{
					"inputs": [
						{
							"internalType": "bytes16",
							"name": "_productId",
							"type": "bytes16"
						},
						{
							"internalType": "string",
							"name": "_newDetails",
							"type": "string"
						}
					],
					"name": "addProductDetails",
					"outputs": [
						{
							"internalType": "string",
							"name": "",
							"type": "string"
						}
					],
					"stateMutability": "nonpayable",
					"type": "function"
				},
				{
					"inputs": [
						{
							"internalType": "bytes16",
							"name": "_productId",
							"type": "bytes16"
						}
					],
					"name": "findProduct",
					"outputs": [
						{
							"components": [
								{
									"internalType": "bytes16",
									"name": "productId",
									"type": "bytes16"
								},
								{
									"internalType": "address",
									"name": "owner",
									"type": "address"
								},
								{
									"internalType": "string",
									"name": "productName",
									"type": "string"
								},
								{
									"internalType": "string",
									"name": "productStatus",
									"type": "string"
								},
								{
									"internalType": "uint256",
									"name": "timestamp",
									"type": "uint256"
								}
							],
							"internalType": "struct Types.Product",
							"name": "",
							"type": "tuple"
						}
					],
					"stateMutability": "view",
					"type": "function"
				},
				{
					"inputs": [
						{
							"internalType": "bytes16",
							"name": "_productId",
							"type": "bytes16"
						}
					],
					"name": "getProductDetails",
					"outputs": [
						{
							"components": [
								{
									"internalType": "bytes16",
									"name": "productId",
									"type": "bytes16"
								},
								{
									"internalType": "address",
									"name": "owner",
									"type": "address"
								},
								{
									"internalType": "string",
									"name": "productName",
									"type": "string"
								},
								{
									"internalType": "string",
									"name": "productStatus",
									"type": "string"
								},
								{
									"internalType": "uint256",
									"name": "timestamp",
									"type": "uint256"
								}
							],
							"internalType": "struct Types.Product",
							"name": "",
							"type": "tuple"
						}
					],
					"stateMutability": "view",
					"type": "function"
				},
				{
					"inputs": [],
					"name": "owner",
					"outputs": [
						{
							"internalType": "address",
							"name": "",
							"type": "address"
						}
					],
					"stateMutability": "view",
					"type": "function"
				},
				{
					"inputs": [
						{
							"internalType": "bytes16",
							"name": "",
							"type": "bytes16"
						}
					],
					"name": "products",
					"outputs": [
						{
							"internalType": "bytes16",
							"name": "productId",
							"type": "bytes16"
						},
						{
							"internalType": "address",
							"name": "owner",
							"type": "address"
						},
						{
							"internalType": "string",
							"name": "productName",
							"type": "string"
						},
						{
							"internalType": "string",
							"name": "productStatus",
							"type": "string"
						},
						{
							"internalType": "uint256",
							"name": "timestamp",
							"type": "uint256"
						}
					],
					"stateMutability": "view",
					"type": "function"
				},
				{
					"inputs": [
						{
							"internalType": "string",
							"name": "_productName",
							"type": "string"
						},
						{
							"internalType": "string",
							"name": "_productStatus",
							"type": "string"
						}
					],
					"name": "registerProduct",
					"outputs": [],
					"stateMutability": "nonpayable",
					"type": "function"
				},
				{
					"inputs": [
						{
							"internalType": "bytes16",
							"name": "_productId",
							"type": "bytes16"
						},
						{
							"internalType": "string",
							"name": "_productName",
							"type": "string"
						},
						{
							"internalType": "string",
							"name": "_productStatus",
							"type": "string"
						}
					],
					"name": "updateProduct",
					"outputs": [],
					"stateMutability": "view",
					"type": "function"
				}
			],
			"devdoc": {
				"kind": "dev",
				"methods": {},
				"version": 1
			},
			"evm": {
				"assembly": "    /* \"Project/backend/web3-controller/contracts/ProductAction.sol\":87:1931  contract ProductAction {... */\n  mstore(0x40, 0x80)\n    /* \"Project/backend/web3-controller/contracts/ProductAction.sol\":422:483  constructor(address _owner) {... */\n  callvalue\n  dup1\n  iszero\n  tag_1\n  jumpi\n  0x00\n  dup1\n  revert\ntag_1:\n  pop\n  mload(0x40)\n  sub(codesize, bytecodeSize)\n  dup1\n  bytecodeSize\n  dup4\n  codecopy\n  dup2\n  dup2\n  add\n  0x40\n  mstore\n  dup2\n  add\n  swap1\n  tag_2\n  swap2\n  swap1\n  tag_3\n  jump\t// in\ntag_2:\n    /* \"Project/backend/web3-controller/contracts/ProductAction.sol\":469:475  _owner */\n  dup1\n    /* \"Project/backend/web3-controller/contracts/ProductAction.sol\":461:466  owner */\n  0x00\n  dup1\n    /* \"Project/backend/web3-controller/contracts/ProductAction.sol\":461:475  owner = _owner */\n  0x0100\n  exp\n  dup2\n  sload\n  dup2\n  0xffffffffffffffffffffffffffffffffffffffff\n  mul\n  not\n  and\n  swap1\n  dup4\n  0xffffffffffffffffffffffffffffffffffffffff\n  and\n  mul\n  or\n  swap1\n  sstore\n  pop\n    /* \"Project/backend/web3-controller/contracts/ProductAction.sol\":422:483  constructor(address _owner) {... */\n  pop\n    /* \"Project/backend/web3-controller/contracts/ProductAction.sol\":87:1931  contract ProductAction {... */\n  jump(tag_6)\n    /* \"#utility.yul\":88:205   */\ntag_8:\n    /* \"#utility.yul\":197:198   */\n  0x00\n    /* \"#utility.yul\":194:195   */\n  dup1\n    /* \"#utility.yul\":187:199   */\n  revert\n    /* \"#utility.yul\":334:460   */\ntag_10:\n    /* \"#utility.yul\":371:378   */\n  0x00\n    /* \"#utility.yul\":411:453   */\n  0xffffffffffffffffffffffffffffffffffffffff\n    /* \"#utility.yul\":404:409   */\n  dup3\n    /* \"#utility.yul\":400:454   */\n  and\n    /* \"#utility.yul\":389:454   */\n  swap1\n  pop\n    /* \"#utility.yul\":334:460   */\n  swap2\n  swap1\n  pop\n  jump\t// out\n    /* \"#utility.yul\":466:562   */\ntag_11:\n    /* \"#utility.yul\":503:510   */\n  0x00\n    /* \"#utility.yul\":532:556   */\n  tag_20\n    /* \"#utility.yul\":550:555   */\n  dup3\n    /* \"#utility.yul\":532:556   */\n  tag_10\n  jump\t// in\ntag_20:\n    /* \"#utility.yul\":521:556   */\n  swap1\n  pop\n    /* \"#utility.yul\":466:562   */\n  swap2\n  swap1\n  pop\n  jump\t// out\n    /* \"#utility.yul\":568:690   */\ntag_12:\n    /* \"#utility.yul\":641:665   */\n  tag_22\n    /* \"#utility.yul\":659:664   */\n  dup2\n    /* \"#utility.yul\":641:665   */\n  tag_11\n  jump\t// in\ntag_22:\n    /* \"#utility.yul\":634:639   */\n  dup2\n    /* \"#utility.yul\":631:666   */\n  eq\n    /* \"#utility.yul\":621:684   */\n  tag_23\n  jumpi\n    /* \"#utility.yul\":680:681   */\n  0x00\n    /* \"#utility.yul\":677:678   */\n  dup1\n    /* \"#utility.yul\":670:682   */\n  revert\n    /* \"#utility.yul\":621:684   */\ntag_23:\n    /* \"#utility.yul\":568:690   */\n  pop\n  jump\t// out\n    /* \"#utility.yul\":696:839   */\ntag_13:\n    /* \"#utility.yul\":753:758   */\n  0x00\n    /* \"#utility.yul\":784:790   */\n  dup2\n    /* \"#utility.yul\":778:791   */\n  mload\n    /* \"#utility.yul\":769:791   */\n  swap1\n  pop\n    /* \"#utility.yul\":800:833   */\n  tag_25\n    /* \"#utility.yul\":827:832   */\n  dup2\n    /* \"#utility.yul\":800:833   */\n  tag_12\n  jump\t// in\ntag_25:\n    /* \"#utility.yul\":696:839   */\n  swap3\n  swap2\n  pop\n  pop\n  jump\t// out\n    /* \"#utility.yul\":845:1196   */\ntag_3:\n    /* \"#utility.yul\":915:921   */\n  0x00\n    /* \"#utility.yul\":964:966   */\n  0x20\n    /* \"#utility.yul\":952:961   */\n  dup3\n    /* \"#utility.yul\":943:950   */\n  dup5\n    /* \"#utility.yul\":939:962   */\n  sub\n    /* \"#utility.yul\":935:967   */\n  slt\n    /* \"#utility.yul\":932:1051   */\n  iszero\n  tag_27\n  jumpi\n    /* \"#utility.yul\":970:1049   */\n  tag_28\n  tag_8\n  jump\t// in\ntag_28:\n    /* \"#utility.yul\":932:1051   */\ntag_27:\n    /* \"#utility.yul\":1090:1091   */\n  0x00\n    /* \"#utility.yul\":1115:1179   */\n  tag_29\n    /* \"#utility.yul\":1171:1178   */\n  dup5\n    /* \"#utility.yul\":1162:1168   */\n  dup3\n    /* \"#utility.yul\":1151:1160   */\n  dup6\n    /* \"#utility.yul\":1147:1169   */\n  add\n    /* \"#utility.yul\":1115:1179   */\n  tag_13\n  jump\t// in\ntag_29:\n    /* \"#utility.yul\":1105:1179   */\n  swap2\n  pop\n    /* \"#utility.yul\":1061:1189   */\n  pop\n    /* \"#utility.yul\":845:1196   */\n  swap3\n  swap2\n  pop\n  pop\n  jump\t// out\n    /* \"Project/backend/web3-controller/contracts/ProductAction.sol\":87:1931  contract ProductAction {... */\ntag_6:\n  dataSize(sub_0)\n  dup1\n  dataOffset(sub_0)\n  0x00\n  codecopy\n  0x00\n  return\nstop\n\nsub_0: assembly {\n        /* \"Project/backend/web3-controller/contracts/ProductAction.sol\":87:1931  contract ProductAction {... */\n      mstore(0x40, 0x80)\n      callvalue\n      dup1\n      iszero\n      tag_1\n      jumpi\n      0x00\n      dup1\n      revert\n    tag_1:\n      pop\n      jumpi(tag_2, lt(calldatasize, 0x04))\n      shr(0xe0, calldataload(0x00))\n      dup1\n      0x8da5cb5b\n      gt\n      tag_10\n      jumpi\n      dup1\n      0x8da5cb5b\n      eq\n      tag_6\n      jumpi\n      dup1\n      0x8fbd0dcf\n      eq\n      tag_7\n      jumpi\n      dup1\n      0xa7898389\n      eq\n      tag_8\n      jumpi\n      dup1\n      0xd408f8ae\n      eq\n      tag_9\n      jumpi\n      jump(tag_2)\n    tag_10:\n      dup1\n      0x0ca76166\n      eq\n      tag_3\n      jumpi\n      dup1\n      0x41600571\n      eq\n      tag_4\n      jumpi\n      dup1\n      0x7e485fcf\n      eq\n      tag_5\n      jumpi\n    tag_2:\n      0x00\n      dup1\n      revert\n        /* \"Project/backend/web3-controller/contracts/ProductAction.sol\":915:1228  function updateProduct(... */\n    tag_3:\n      tag_11\n      0x04\n      dup1\n      calldatasize\n      sub\n      dup2\n      add\n      swap1\n      tag_12\n      swap2\n      swap1\n      tag_13\n      jump\t// in\n    tag_12:\n      tag_14\n      jump\t// in\n    tag_11:\n      stop\n        /* \"Project/backend/web3-controller/contracts/ProductAction.sol\":1566:1772  function addProductDetails(... */\n    tag_4:\n      tag_15\n      0x04\n      dup1\n      calldatasize\n      sub\n      dup2\n      add\n      swap1\n      tag_16\n      swap2\n      swap1\n      tag_17\n      jump\t// in\n    tag_16:\n      tag_18\n      jump\t// in\n    tag_15:\n      mload(0x40)\n      tag_19\n      swap2\n      swap1\n      tag_20\n      jump\t// in\n    tag_19:\n      mload(0x40)\n      dup1\n      swap2\n      sub\n      swap1\n      return\n        /* \"Project/backend/web3-controller/contracts/ProductAction.sol\":146:195  mapping(bytes16 => Types.Product) public products */\n    tag_5:\n      tag_21\n      0x04\n      dup1\n      calldatasize\n      sub\n      dup2\n      add\n      swap1\n      tag_22\n      swap2\n      swap1\n      tag_23\n      jump\t// in\n    tag_22:\n      tag_24\n      jump\t// in\n    tag_21:\n      mload(0x40)\n      tag_25\n      swap6\n      swap5\n      swap4\n      swap3\n      swap2\n      swap1\n      tag_26\n      jump\t// in\n    tag_25:\n      mload(0x40)\n      dup1\n      swap2\n      sub\n      swap1\n      return\n        /* \"Project/backend/web3-controller/contracts/ProductAction.sol\":117:137  address public owner */\n    tag_6:\n      tag_27\n      tag_28\n      jump\t// in\n    tag_27:\n      mload(0x40)\n      tag_29\n      swap2\n      swap1\n      tag_30\n      jump\t// in\n    tag_29:\n      mload(0x40)\n      dup1\n      swap2\n      sub\n      swap1\n      return\n        /* \"Project/backend/web3-controller/contracts/ProductAction.sol\":491:907  function registerProduct(... */\n    tag_7:\n      tag_31\n      0x04\n      dup1\n      calldatasize\n      sub\n      dup2\n      add\n      swap1\n      tag_32\n      swap2\n      swap1\n      tag_33\n      jump\t// in\n    tag_32:\n      tag_34\n      jump\t// in\n    tag_31:\n      stop\n        /* \"Project/backend/web3-controller/contracts/ProductAction.sol\":1780:1928  function findProduct(... */\n    tag_8:\n      tag_35\n      0x04\n      dup1\n      calldatasize\n      sub\n      dup2\n      add\n      swap1\n      tag_36\n      swap2\n      swap1\n      tag_23\n      jump\t// in\n    tag_36:\n      tag_37\n      jump\t// in\n    tag_35:\n      mload(0x40)\n      tag_38\n      swap2\n      swap1\n      tag_39\n      jump\t// in\n    tag_38:\n      mload(0x40)\n      dup1\n      swap2\n      sub\n      swap1\n      return\n        /* \"Project/backend/web3-controller/contracts/ProductAction.sol\":1404:1558  function getProductDetails(... */\n    tag_9:\n      tag_40\n      0x04\n      dup1\n      calldatasize\n      sub\n      dup2\n      add\n      swap1\n      tag_41\n      swap2\n      swap1\n      tag_23\n      jump\t// in\n    tag_41:\n      tag_42\n      jump\t// in\n    tag_40:\n      mload(0x40)\n      tag_43\n      swap2\n      swap1\n      tag_39\n      jump\t// in\n    tag_43:\n      mload(0x40)\n      dup1\n      swap2\n      sub\n      swap1\n      return\n        /* \"Project/backend/web3-controller/contracts/ProductAction.sol\":915:1228  function updateProduct(... */\n    tag_14:\n        /* \"Project/backend/web3-controller/contracts/ProductAction.sol\":1075:1103  Types.Product memory product */\n      0x00\n        /* \"Project/backend/web3-controller/contracts/ProductAction.sol\":1106:1114  products */\n      0x01\n        /* \"Project/backend/web3-controller/contracts/ProductAction.sol\":1106:1126  products[_productId] */\n      0x00\n        /* \"Project/backend/web3-controller/contracts/ProductAction.sol\":1115:1125  _productId */\n      dup6\n        /* \"Project/backend/web3-controller/contracts/ProductAction.sol\":1106:1126  products[_productId] */\n      not(0xffffffffffffffffffffffffffffffff)\n      and\n      not(0xffffffffffffffffffffffffffffffff)\n      and\n      dup2\n      mstore\n      0x20\n      add\n      swap1\n      dup2\n      mstore\n      0x20\n      add\n      0x00\n      keccak256\n        /* \"Project/backend/web3-controller/contracts/ProductAction.sol\":1075:1126  Types.Product memory product = products[_productId] */\n      mload(0x40)\n      dup1\n      0xa0\n      add\n      0x40\n      mstore\n      swap1\n      dup2\n      0x00\n      dup3\n      add\n      0x00\n      swap1\n      sload\n      swap1\n      0x0100\n      exp\n      swap1\n      div\n      0x80\n      shl\n      not(0xffffffffffffffffffffffffffffffff)\n      and\n      not(0xffffffffffffffffffffffffffffffff)\n      and\n      dup2\n      mstore\n      0x20\n      add\n      0x01\n      dup3\n      add\n      0x00\n      swap1\n      sload\n      swap1\n      0x0100\n      exp\n      swap1\n      div\n      0xffffffffffffffffffffffffffffffffffffffff\n      and\n      0xffffffffffffffffffffffffffffffffffffffff\n      and\n      0xffffffffffffffffffffffffffffffffffffffff\n      and\n      dup2\n      mstore\n      0x20\n      add\n      0x02\n      dup3\n      add\n      dup1\n      sload\n      tag_45\n      swap1\n      tag_46\n      jump\t// in\n    tag_45:\n      dup1\n      0x1f\n      add\n      0x20\n      dup1\n      swap2\n      div\n      mul\n      0x20\n      add\n      mload(0x40)\n      swap1\n      dup2\n      add\n      0x40\n      mstore\n      dup1\n      swap3\n      swap2\n      swap1\n      dup2\n      dup2\n      mstore\n      0x20\n      add\n      dup3\n      dup1\n      sload\n      tag_47\n      swap1\n      tag_46\n      jump\t// in\n    tag_47:\n      dup1\n      iszero\n      tag_48\n      jumpi\n      dup1\n      0x1f\n      lt\n      tag_49\n      jumpi\n      0x0100\n      dup1\n      dup4\n      sload\n      div\n      mul\n      dup4\n      mstore\n      swap2\n      0x20\n      add\n      swap2\n      jump(tag_48)\n    tag_49:\n      dup3\n      add\n      swap2\n      swap1\n      0x00\n      mstore\n      keccak256(0x00, 0x20)\n      swap1\n    tag_50:\n      dup2\n      sload\n      dup2\n      mstore\n      swap1\n      0x01\n      add\n      swap1\n      0x20\n      add\n      dup1\n      dup4\n      gt\n      tag_50\n      jumpi\n      dup3\n      swap1\n      sub\n      0x1f\n      and\n      dup3\n      add\n      swap2\n    tag_48:\n      pop\n      pop\n      pop\n      pop\n      pop\n      dup2\n      mstore\n      0x20\n      add\n      0x03\n      dup3\n      add\n      dup1\n      sload\n      tag_51\n      swap1\n      tag_46\n      jump\t// in\n    tag_51:\n      dup1\n      0x1f\n      add\n      0x20\n      dup1\n      swap2\n      div\n      mul\n      0x20\n      add\n      mload(0x40)\n      swap1\n      dup2\n      add\n      0x40\n      mstore\n      dup1\n      swap3\n      swap2\n      swap1\n      dup2\n      dup2\n      mstore\n      0x20\n      add\n      dup3\n      dup1\n      sload\n      tag_52\n      swap1\n      tag_46\n      jump\t// in\n    tag_52:\n      dup1\n      iszero\n      tag_53\n      jumpi\n      dup1\n      0x1f\n      lt\n      tag_54\n      jumpi\n      0x0100\n      dup1\n      dup4\n      sload\n      div\n      mul\n      dup4\n      mstore\n      swap2\n      0x20\n      add\n      swap2\n      jump(tag_53)\n    tag_54:\n      dup3\n      add\n      swap2\n      swap1\n      0x00\n      mstore\n      keccak256(0x00, 0x20)\n      swap1\n    tag_55:\n      dup2\n      sload\n      dup2\n      mstore\n      swap1\n      0x01\n      add\n      swap1\n      0x20\n      add\n      dup1\n      dup4\n      gt\n      tag_55\n      jumpi\n      dup3\n      swap1\n      sub\n      0x1f\n      and\n      dup3\n      add\n      swap2\n    tag_53:\n      pop\n      pop\n      pop\n      pop\n      pop\n      dup2\n      mstore\n      0x20\n      add\n      0x04\n      dup3\n      add\n      sload\n      dup2\n      mstore\n      pop\n      pop\n      swap1\n      pop\n        /* \"Project/backend/web3-controller/contracts/ProductAction.sol\":1159:1171  _productName */\n      dup3\n        /* \"Project/backend/web3-controller/contracts/ProductAction.sol\":1137:1144  product */\n      dup2\n        /* \"Project/backend/web3-controller/contracts/ProductAction.sol\":1137:1156  product.productName */\n      0x40\n      add\n        /* \"Project/backend/web3-controller/contracts/ProductAction.sol\":1137:1171  product.productName = _productName */\n      dup2\n      swap1\n      mstore\n      pop\n        /* \"Project/backend/web3-controller/contracts/ProductAction.sol\":1206:1220  _productStatus */\n      dup2\n        /* \"Project/backend/web3-controller/contracts/ProductAction.sol\":1182:1189  product */\n      dup2\n        /* \"Project/backend/web3-controller/contracts/ProductAction.sol\":1182:1203  product.productStatus */\n      0x60\n      add\n        /* \"Project/backend/web3-controller/contracts/ProductAction.sol\":1182:1220  product.productStatus = _productStatus */\n      dup2\n      swap1\n      mstore\n      pop\n        /* \"Project/backend/web3-controller/contracts/ProductAction.sol\":1064:1228  {... */\n      pop\n        /* \"Project/backend/web3-controller/contracts/ProductAction.sol\":915:1228  function updateProduct(... */\n      pop\n      pop\n      pop\n      jump\t// out\n        /* \"Project/backend/web3-controller/contracts/ProductAction.sol\":1566:1772  function addProductDetails(... */\n    tag_18:\n        /* \"Project/backend/web3-controller/contracts/ProductAction.sol\":1683:1696  string memory */\n      0x60\n        /* \"Project/backend/web3-controller/contracts/ProductAction.sol\":1753:1764  _newDetails */\n      dup2\n        /* \"Project/backend/web3-controller/contracts/ProductAction.sol\":1716:1724  products */\n      0x01\n        /* \"Project/backend/web3-controller/contracts/ProductAction.sol\":1716:1736  products[_productId] */\n      0x00\n        /* \"Project/backend/web3-controller/contracts/ProductAction.sol\":1725:1735  _productId */\n      dup6\n        /* \"Project/backend/web3-controller/contracts/ProductAction.sol\":1716:1736  products[_productId] */\n      not(0xffffffffffffffffffffffffffffffff)\n      and\n      not(0xffffffffffffffffffffffffffffffff)\n      and\n      dup2\n      mstore\n      0x20\n      add\n      swap1\n      dup2\n      mstore\n      0x20\n      add\n      0x00\n      keccak256\n        /* \"Project/backend/web3-controller/contracts/ProductAction.sol\":1716:1750  products[_productId].productStatus */\n      0x03\n      add\n        /* \"Project/backend/web3-controller/contracts/ProductAction.sol\":1716:1764  products[_productId].productStatus = _newDetails */\n      swap1\n      dup2\n      tag_57\n      swap2\n      swap1\n      tag_58\n      jump\t// in\n    tag_57:\n        /* \"Project/backend/web3-controller/contracts/ProductAction.sol\":1709:1764  return products[_productId].productStatus = _newDetails */\n      dup1\n      sload\n      tag_59\n      swap1\n      tag_46\n      jump\t// in\n    tag_59:\n      dup1\n      0x1f\n      add\n      0x20\n      dup1\n      swap2\n      div\n      mul\n      0x20\n      add\n      mload(0x40)\n      swap1\n      dup2\n      add\n      0x40\n      mstore\n      dup1\n      swap3\n      swap2\n      swap1\n      dup2\n      dup2\n      mstore\n      0x20\n      add\n      dup3\n      dup1\n      sload\n      tag_60\n      swap1\n      tag_46\n      jump\t// in\n    tag_60:\n      dup1\n      iszero\n      tag_61\n      jumpi\n      dup1\n      0x1f\n      lt\n      tag_62\n      jumpi\n      0x0100\n      dup1\n      dup4\n      sload\n      div\n      mul\n      dup4\n      mstore\n      swap2\n      0x20\n      add\n      swap2\n      jump(tag_61)\n    tag_62:\n      dup3\n      add\n      swap2\n      swap1\n      0x00\n      mstore\n      keccak256(0x00, 0x20)\n      swap1\n    tag_63:\n      dup2\n      sload\n      dup2\n      mstore\n      swap1\n      0x01\n      add\n      swap1\n      0x20\n      add\n      dup1\n      dup4\n      gt\n      tag_63\n      jumpi\n      dup3\n      swap1\n      sub\n      0x1f\n      and\n      dup3\n      add\n      swap2\n    tag_61:\n      pop\n      pop\n      pop\n      pop\n      pop\n      swap1\n      pop\n        /* \"Project/backend/web3-controller/contracts/ProductAction.sol\":1566:1772  function addProductDetails(... */\n      swap3\n      swap2\n      pop\n      pop\n      jump\t// out\n        /* \"Project/backend/web3-controller/contracts/ProductAction.sol\":146:195  mapping(bytes16 => Types.Product) public products */\n    tag_24:\n      mstore(0x20, 0x01)\n      dup1\n      0x00\n      mstore\n      keccak256(0x00, 0x40)\n      0x00\n      swap2\n      pop\n      swap1\n      pop\n      dup1\n      0x00\n      add\n      0x00\n      swap1\n      sload\n      swap1\n      0x0100\n      exp\n      swap1\n      div\n      0x80\n      shl\n      swap1\n      dup1\n      0x01\n      add\n      0x00\n      swap1\n      sload\n      swap1\n      0x0100\n      exp\n      swap1\n      div\n      0xffffffffffffffffffffffffffffffffffffffff\n      and\n      swap1\n      dup1\n      0x02\n      add\n      dup1\n      sload\n      tag_64\n      swap1\n      tag_46\n      jump\t// in\n    tag_64:\n      dup1\n      0x1f\n      add\n      0x20\n      dup1\n      swap2\n      div\n      mul\n      0x20\n      add\n      mload(0x40)\n      swap1\n      dup2\n      add\n      0x40\n      mstore\n      dup1\n      swap3\n      swap2\n      swap1\n      dup2\n      dup2\n      mstore\n      0x20\n      add\n      dup3\n      dup1\n      sload\n      tag_65\n      swap1\n      tag_46\n      jump\t// in\n    tag_65:\n      dup1\n      iszero\n      tag_66\n      jumpi\n      dup1\n      0x1f\n      lt\n      tag_67\n      jumpi\n      0x0100\n      dup1\n      dup4\n      sload\n      div\n      mul\n      dup4\n      mstore\n      swap2\n      0x20\n      add\n      swap2\n      jump(tag_66)\n    tag_67:\n      dup3\n      add\n      swap2\n      swap1\n      0x00\n      mstore\n      keccak256(0x00, 0x20)\n      swap1\n    tag_68:\n      dup2\n      sload\n      dup2\n      mstore\n      swap1\n      0x01\n      add\n      swap1\n      0x20\n      add\n      dup1\n      dup4\n      gt\n      tag_68\n      jumpi\n      dup3\n      swap1\n      sub\n      0x1f\n      and\n      dup3\n      add\n      swap2\n    tag_66:\n      pop\n      pop\n      pop\n      pop\n      pop\n      swap1\n      dup1\n      0x03\n      add\n      dup1\n      sload\n      tag_69\n      swap1\n      tag_46\n      jump\t// in\n    tag_69:\n      dup1\n      0x1f\n      add\n      0x20\n      dup1\n      swap2\n      div\n      mul\n      0x20\n      add\n      mload(0x40)\n      swap1\n      dup2\n      add\n      0x40\n      mstore\n      dup1\n      swap3\n      swap2\n      swap1\n      dup2\n      dup2\n      mstore\n      0x20\n      add\n      dup3\n      dup1\n      sload\n      tag_70\n      swap1\n      tag_46\n      jump\t// in\n    tag_70:\n      dup1\n      iszero\n      tag_71\n      jumpi\n      dup1\n      0x1f\n      lt\n      tag_72\n      jumpi\n      0x0100\n      dup1\n      dup4\n      sload\n      div\n      mul\n      dup4\n      mstore\n      swap2\n      0x20\n      add\n      swap2\n      jump(tag_71)\n    tag_72:\n      dup3\n      add\n      swap2\n      swap1\n      0x00\n      mstore\n      keccak256(0x00, 0x20)\n      swap1\n    tag_73:\n      dup2\n      sload\n      dup2\n      mstore\n      swap1\n      0x01\n      add\n      swap1\n      0x20\n      add\n      dup1\n      dup4\n      gt\n      tag_73\n      jumpi\n      dup3\n      swap1\n      sub\n      0x1f\n      and\n      dup3\n      add\n      swap2\n    tag_71:\n      pop\n      pop\n      pop\n      pop\n      pop\n      swap1\n      dup1\n      0x04\n      add\n      sload\n      swap1\n      pop\n      dup6\n      jump\t// out\n        /* \"Project/backend/web3-controller/contracts/ProductAction.sol\":117:137  address public owner */\n    tag_28:\n      0x00\n      dup1\n      sload\n      swap1\n      0x0100\n      exp\n      swap1\n      div\n      0xffffffffffffffffffffffffffffffffffffffff\n      and\n      dup2\n      jump\t// out\n        /* \"Project/backend/web3-controller/contracts/ProductAction.sol\":491:907  function registerProduct(... */\n    tag_34:\n        /* \"Project/backend/web3-controller/contracts/ProductAction.sol\":619:636  bytes16 productId */\n      0x00\n        /* \"Project/backend/web3-controller/contracts/ProductAction.sol\":639:653  generateUUID() */\n      tag_75\n        /* \"Project/backend/web3-controller/contracts/ProductAction.sol\":639:651  generateUUID */\n      tag_76\n        /* \"Project/backend/web3-controller/contracts/ProductAction.sol\":639:653  generateUUID() */\n      jump\t// in\n    tag_75:\n        /* \"Project/backend/web3-controller/contracts/ProductAction.sol\":619:653  bytes16 productId = generateUUID() */\n      swap1\n      pop\n        /* \"Project/backend/web3-controller/contracts/ProductAction.sol\":686:899  Types.Product({... */\n      mload(0x40)\n      dup1\n      0xa0\n      add\n      0x40\n      mstore\n      dup1\n        /* \"Project/backend/web3-controller/contracts/ProductAction.sol\":726:735  productId */\n      dup3\n        /* \"Project/backend/web3-controller/contracts/ProductAction.sol\":686:899  Types.Product({... */\n      not(0xffffffffffffffffffffffffffffffff)\n      and\n      dup2\n      mstore\n      0x20\n      add\n        /* \"Project/backend/web3-controller/contracts/ProductAction.sol\":757:762  owner */\n      0x00\n      dup1\n      sload\n      swap1\n      0x0100\n      exp\n      swap1\n      div\n      0xffffffffffffffffffffffffffffffffffffffff\n      and\n        /* \"Project/backend/web3-controller/contracts/ProductAction.sol\":686:899  Types.Product({... */\n      0xffffffffffffffffffffffffffffffffffffffff\n      and\n      dup2\n      mstore\n      0x20\n      add\n        /* \"Project/backend/web3-controller/contracts/ProductAction.sol\":790:802  _productName */\n      dup5\n        /* \"Project/backend/web3-controller/contracts/ProductAction.sol\":686:899  Types.Product({... */\n      dup2\n      mstore\n      0x20\n      add\n        /* \"Project/backend/web3-controller/contracts/ProductAction.sol\":832:846  _productStatus */\n      dup4\n        /* \"Project/backend/web3-controller/contracts/ProductAction.sol\":686:899  Types.Product({... */\n      dup2\n      mstore\n      0x20\n      add\n        /* \"Project/backend/web3-controller/contracts/ProductAction.sol\":872:887  block.timestamp */\n      timestamp\n        /* \"Project/backend/web3-controller/contracts/ProductAction.sol\":686:899  Types.Product({... */\n      dup2\n      mstore\n      pop\n        /* \"Project/backend/web3-controller/contracts/ProductAction.sol\":664:672  products */\n      0x01\n        /* \"Project/backend/web3-controller/contracts/ProductAction.sol\":664:683  products[productId] */\n      0x00\n        /* \"Project/backend/web3-controller/contracts/ProductAction.sol\":673:682  productId */\n      dup4\n        /* \"Project/backend/web3-controller/contracts/ProductAction.sol\":664:683  products[productId] */\n      not(0xffffffffffffffffffffffffffffffff)\n      and\n      not(0xffffffffffffffffffffffffffffffff)\n      and\n      dup2\n      mstore\n      0x20\n      add\n      swap1\n      dup2\n      mstore\n      0x20\n      add\n      0x00\n      keccak256\n        /* \"Project/backend/web3-controller/contracts/ProductAction.sol\":664:899  products[productId] = Types.Product({... */\n      0x00\n      dup3\n      add\n      mload\n      dup2\n      0x00\n      add\n      exp(0x0100, 0x00)\n      dup2\n      sload\n      dup2\n      0xffffffffffffffffffffffffffffffff\n      mul\n      not\n      and\n      swap1\n      dup4\n      0x80\n      shr\n      mul\n      or\n      swap1\n      sstore\n      pop\n      0x20\n      dup3\n      add\n      mload\n      dup2\n      0x01\n      add\n      exp(0x0100, 0x00)\n      dup2\n      sload\n      dup2\n      0xffffffffffffffffffffffffffffffffffffffff\n      mul\n      not\n      and\n      swap1\n      dup4\n      0xffffffffffffffffffffffffffffffffffffffff\n      and\n      mul\n      or\n      swap1\n      sstore\n      pop\n      0x40\n      dup3\n      add\n      mload\n      dup2\n      0x02\n      add\n      swap1\n      dup2\n      tag_77\n      swap2\n      swap1\n      tag_58\n      jump\t// in\n    tag_77:\n      pop\n      0x60\n      dup3\n      add\n      mload\n      dup2\n      0x03\n      add\n      swap1\n      dup2\n      tag_78\n      swap2\n      swap1\n      tag_58\n      jump\t// in\n    tag_78:\n      pop\n      0x80\n      dup3\n      add\n      mload\n      dup2\n      0x04\n      add\n      sstore\n      swap1\n      pop\n      pop\n        /* \"Project/backend/web3-controller/contracts/ProductAction.sol\":608:907  {... */\n      pop\n        /* \"Project/backend/web3-controller/contracts/ProductAction.sol\":491:907  function registerProduct(... */\n      pop\n      pop\n      jump\t// out\n        /* \"Project/backend/web3-controller/contracts/ProductAction.sol\":1780:1928  function findProduct(... */\n    tag_37:\n        /* \"Project/backend/web3-controller/contracts/ProductAction.sol\":1860:1880  Types.Product memory */\n      tag_79\n      tag_80\n      jump\t// in\n    tag_79:\n        /* \"Project/backend/web3-controller/contracts/ProductAction.sol\":1900:1908  products */\n      0x01\n        /* \"Project/backend/web3-controller/contracts/ProductAction.sol\":1900:1920  products[_productId] */\n      0x00\n        /* \"Project/backend/web3-controller/contracts/ProductAction.sol\":1909:1919  _productId */\n      dup4\n        /* \"Project/backend/web3-controller/contracts/ProductAction.sol\":1900:1920  products[_productId] */\n      not(0xffffffffffffffffffffffffffffffff)\n      and\n      not(0xffffffffffffffffffffffffffffffff)\n      and\n      dup2\n      mstore\n      0x20\n      add\n      swap1\n      dup2\n      mstore\n      0x20\n      add\n      0x00\n      keccak256\n        /* \"Project/backend/web3-controller/contracts/ProductAction.sol\":1893:1920  return products[_productId] */\n      mload(0x40)\n      dup1\n      0xa0\n      add\n      0x40\n      mstore\n      swap1\n      dup2\n      0x00\n      dup3\n      add\n      0x00\n      swap1\n      sload\n      swap1\n      0x0100\n      exp\n      swap1\n      div\n      0x80\n      shl\n      not(0xffffffffffffffffffffffffffffffff)\n      and\n      not(0xffffffffffffffffffffffffffffffff)\n      and\n      dup2\n      mstore\n      0x20\n      add\n      0x01\n      dup3\n      add\n      0x00\n      swap1\n      sload\n      swap1\n      0x0100\n      exp\n      swap1\n      div\n      0xffffffffffffffffffffffffffffffffffffffff\n      and\n      0xffffffffffffffffffffffffffffffffffffffff\n      and\n      0xffffffffffffffffffffffffffffffffffffffff\n      and\n      dup2\n      mstore\n      0x20\n      add\n      0x02\n      dup3\n      add\n      dup1\n      sload\n      tag_82\n      swap1\n      tag_46\n      jump\t// in\n    tag_82:\n      dup1\n      0x1f\n      add\n      0x20\n      dup1\n      swap2\n      div\n      mul\n      0x20\n      add\n      mload(0x40)\n      swap1\n      dup2\n      add\n      0x40\n      mstore\n      dup1\n      swap3\n      swap2\n      swap1\n      dup2\n      dup2\n      mstore\n      0x20\n      add\n      dup3\n      dup1\n      sload\n      tag_83\n      swap1\n      tag_46\n      jump\t// in\n    tag_83:\n      dup1\n      iszero\n      tag_84\n      jumpi\n      dup1\n      0x1f\n      lt\n      tag_85\n      jumpi\n      0x0100\n      dup1\n      dup4\n      sload\n      div\n      mul\n      dup4\n      mstore\n      swap2\n      0x20\n      add\n      swap2\n      jump(tag_84)\n    tag_85:\n      dup3\n      add\n      swap2\n      swap1\n      0x00\n      mstore\n      keccak256(0x00, 0x20)\n      swap1\n    tag_86:\n      dup2\n      sload\n      dup2\n      mstore\n      swap1\n      0x01\n      add\n      swap1\n      0x20\n      add\n      dup1\n      dup4\n      gt\n      tag_86\n      jumpi\n      dup3\n      swap1\n      sub\n      0x1f\n      and\n      dup3\n      add\n      swap2\n    tag_84:\n      pop\n      pop\n      pop\n      pop\n      pop\n      dup2\n      mstore\n      0x20\n      add\n      0x03\n      dup3\n      add\n      dup1\n      sload\n      tag_87\n      swap1\n      tag_46\n      jump\t// in\n    tag_87:\n      dup1\n      0x1f\n      add\n      0x20\n      dup1\n      swap2\n      div\n      mul\n      0x20\n      add\n      mload(0x40)\n      swap1\n      dup2\n      add\n      0x40\n      mstore\n      dup1\n      swap3\n      swap2\n      swap1\n      dup2\n      dup2\n      mstore\n      0x20\n      add\n      dup3\n      dup1\n      sload\n      tag_88\n      swap1\n      tag_46\n      jump\t// in\n    tag_88:\n      dup1\n      iszero\n      tag_89\n      jumpi\n      dup1\n      0x1f\n      lt\n      tag_90\n      jumpi\n      0x0100\n      dup1\n      dup4\n      sload\n      div\n      mul\n      dup4\n      mstore\n      swap2\n      0x20\n      add\n      swap2\n      jump(tag_89)\n    tag_90:\n      dup3\n      add\n      swap2\n      swap1\n      0x00\n      mstore\n      keccak256(0x00, 0x20)\n      swap1\n    tag_91:\n      dup2\n      sload\n      dup2\n      mstore\n      swap1\n      0x01\n      add\n      swap1\n      0x20\n      add\n      dup1\n      dup4\n      gt\n      tag_91\n      jumpi\n      dup3\n      swap1\n      sub\n      0x1f\n      and\n      dup3\n      add\n      swap2\n    tag_89:\n      pop\n      pop\n      pop\n      pop\n      pop\n      dup2\n      mstore\n      0x20\n      add\n      0x04\n      dup3\n      add\n      sload\n      dup2\n      mstore\n      pop\n      pop\n      swap1\n      pop\n        /* \"Project/backend/web3-controller/contracts/ProductAction.sol\":1780:1928  function findProduct(... */\n      swap2\n      swap1\n      pop\n      jump\t// out\n        /* \"Project/backend/web3-controller/contracts/ProductAction.sol\":1404:1558  function getProductDetails(... */\n    tag_42:\n        /* \"Project/backend/web3-controller/contracts/ProductAction.sol\":1490:1510  Types.Product memory */\n      tag_92\n      tag_80\n      jump\t// in\n    tag_92:\n        /* \"Project/backend/web3-controller/contracts/ProductAction.sol\":1530:1538  products */\n      0x01\n        /* \"Project/backend/web3-controller/contracts/ProductAction.sol\":1530:1550  products[_productId] */\n      0x00\n        /* \"Project/backend/web3-controller/contracts/ProductAction.sol\":1539:1549  _productId */\n      dup4\n        /* \"Project/backend/web3-controller/contracts/ProductAction.sol\":1530:1550  products[_productId] */\n      not(0xffffffffffffffffffffffffffffffff)\n      and\n      not(0xffffffffffffffffffffffffffffffff)\n      and\n      dup2\n      mstore\n      0x20\n      add\n      swap1\n      dup2\n      mstore\n      0x20\n      add\n      0x00\n      keccak256\n        /* \"Project/backend/web3-controller/contracts/ProductAction.sol\":1523:1550  return products[_productId] */\n      mload(0x40)\n      dup1\n      0xa0\n      add\n      0x40\n      mstore\n      swap1\n      dup2\n      0x00\n      dup3\n      add\n      0x00\n      swap1\n      sload\n      swap1\n      0x0100\n      exp\n      swap1\n      div\n      0x80\n      shl\n      not(0xffffffffffffffffffffffffffffffff)\n      and\n      not(0xffffffffffffffffffffffffffffffff)\n      and\n      dup2\n      mstore\n      0x20\n      add\n      0x01\n      dup3\n      add\n      0x00\n      swap1\n      sload\n      swap1\n      0x0100\n      exp\n      swap1\n      div\n      0xffffffffffffffffffffffffffffffffffffffff\n      and\n      0xffffffffffffffffffffffffffffffffffffffff\n      and\n      0xffffffffffffffffffffffffffffffffffffffff\n      and\n      dup2\n      mstore\n      0x20\n      add\n      0x02\n      dup3\n      add\n      dup1\n      sload\n      tag_94\n      swap1\n      tag_46\n      jump\t// in\n    tag_94:\n      dup1\n      0x1f\n      add\n      0x20\n      dup1\n      swap2\n      div\n      mul\n      0x20\n      add\n      mload(0x40)\n      swap1\n      dup2\n      add\n      0x40\n      mstore\n      dup1\n      swap3\n      swap2\n      swap1\n      dup2\n      dup2\n      mstore\n      0x20\n      add\n      dup3\n      dup1\n      sload\n      tag_95\n      swap1\n      tag_46\n      jump\t// in\n    tag_95:\n      dup1\n      iszero\n      tag_96\n      jumpi\n      dup1\n      0x1f\n      lt\n      tag_97\n      jumpi\n      0x0100\n      dup1\n      dup4\n      sload\n      div\n      mul\n      dup4\n      mstore\n      swap2\n      0x20\n      add\n      swap2\n      jump(tag_96)\n    tag_97:\n      dup3\n      add\n      swap2\n      swap1\n      0x00\n      mstore\n      keccak256(0x00, 0x20)\n      swap1\n    tag_98:\n      dup2\n      sload\n      dup2\n      mstore\n      swap1\n      0x01\n      add\n      swap1\n      0x20\n      add\n      dup1\n      dup4\n      gt\n      tag_98\n      jumpi\n      dup3\n      swap1\n      sub\n      0x1f\n      and\n      dup3\n      add\n      swap2\n    tag_96:\n      pop\n      pop\n      pop\n      pop\n      pop\n      dup2\n      mstore\n      0x20\n      add\n      0x03\n      dup3\n      add\n      dup1\n      sload\n      tag_99\n      swap1\n      tag_46\n      jump\t// in\n    tag_99:\n      dup1\n      0x1f\n      add\n      0x20\n      dup1\n      swap2\n      div\n      mul\n      0x20\n      add\n      mload(0x40)\n      swap1\n      dup2\n      add\n      0x40\n      mstore\n      dup1\n      swap3\n      swap2\n      swap1\n      dup2\n      dup2\n      mstore\n      0x20\n      add\n      dup3\n      dup1\n      sload\n      tag_100\n      swap1\n      tag_46\n      jump\t// in\n    tag_100:\n      dup1\n      iszero\n      tag_101\n      jumpi\n      dup1\n      0x1f\n      lt\n      tag_102\n      jumpi\n      0x0100\n      dup1\n      dup4\n      sload\n      div\n      mul\n      dup4\n      mstore\n      swap2\n      0x20\n      add\n      swap2\n      jump(tag_101)\n    tag_102:\n      dup3\n      add\n      swap2\n      swap1\n      0x00\n      mstore\n      keccak256(0x00, 0x20)\n      swap1\n    tag_103:\n      dup2\n      sload\n      dup2\n      mstore\n      swap1\n      0x01\n      add\n      swap1\n      0x20\n      add\n      dup1\n      dup4\n      gt\n      tag_103\n      jumpi\n      dup3\n      swap1\n      sub\n      0x1f\n      and\n      dup3\n      add\n      swap2\n    tag_101:\n      pop\n      pop\n      pop\n      pop\n      pop\n      dup2\n      mstore\n      0x20\n      add\n      0x04\n      dup3\n      add\n      sload\n      dup2\n      mstore\n      pop\n      pop\n      swap1\n      pop\n        /* \"Project/backend/web3-controller/contracts/ProductAction.sol\":1404:1558  function getProductDetails(... */\n      swap2\n      swap1\n      pop\n      jump\t// out\n        /* \"Project/backend/web3-controller/contracts/ProductAction.sol\":1236:1396  function generateUUID() internal view returns (bytes16) {... */\n    tag_76:\n        /* \"Project/backend/web3-controller/contracts/ProductAction.sol\":1283:1290  bytes16 */\n      0x00\n        /* \"Project/backend/web3-controller/contracts/ProductAction.sol\":1358:1373  block.timestamp */\n      timestamp\n        /* \"Project/backend/web3-controller/contracts/ProductAction.sol\":1375:1385  msg.sender */\n      caller\n        /* \"Project/backend/web3-controller/contracts/ProductAction.sol\":1341:1386  abi.encodePacked(block.timestamp, msg.sender) */\n      add(0x20, mload(0x40))\n      tag_105\n      swap3\n      swap2\n      swap1\n      tag_106\n      jump\t// in\n    tag_105:\n      mload(0x40)\n      0x20\n      dup2\n      dup4\n      sub\n      sub\n      dup2\n      mstore\n      swap1\n      0x40\n      mstore\n        /* \"Project/backend/web3-controller/contracts/ProductAction.sol\":1331:1387  keccak256(abi.encodePacked(block.timestamp, msg.sender)) */\n      dup1\n      mload\n      swap1\n      0x20\n      add\n      keccak256\n        /* \"Project/backend/web3-controller/contracts/ProductAction.sol\":1303:1388  return... */\n      swap1\n      pop\n        /* \"Project/backend/web3-controller/contracts/ProductAction.sol\":1236:1396  function generateUUID() internal view returns (bytes16) {... */\n      swap1\n      jump\t// out\n    tag_80:\n      mload(0x40)\n      dup1\n      0xa0\n      add\n      0x40\n      mstore\n      dup1\n      and(not(0xffffffffffffffffffffffffffffffff), 0x00)\n      dup2\n      mstore\n      0x20\n      add\n      and(0xffffffffffffffffffffffffffffffffffffffff, 0x00)\n      dup2\n      mstore\n      0x20\n      add\n      0x60\n      dup2\n      mstore\n      0x20\n      add\n      0x60\n      dup2\n      mstore\n      0x20\n      add\n      0x00\n      dup2\n      mstore\n      pop\n      swap1\n      jump\t// out\n        /* \"#utility.yul\":7:82   */\n    tag_107:\n        /* \"#utility.yul\":40:46   */\n      0x00\n        /* \"#utility.yul\":73:75   */\n      0x40\n        /* \"#utility.yul\":67:76   */\n      mload\n        /* \"#utility.yul\":57:76   */\n      swap1\n      pop\n        /* \"#utility.yul\":7:82   */\n      swap1\n      jump\t// out\n        /* \"#utility.yul\":88:205   */\n    tag_108:\n        /* \"#utility.yul\":197:198   */\n      0x00\n        /* \"#utility.yul\":194:195   */\n      dup1\n        /* \"#utility.yul\":187:199   */\n      revert\n        /* \"#utility.yul\":211:328   */\n    tag_109:\n        /* \"#utility.yul\":320:321   */\n      0x00\n        /* \"#utility.yul\":317:318   */\n      dup1\n        /* \"#utility.yul\":310:322   */\n      revert\n        /* \"#utility.yul\":334:484   */\n    tag_110:\n        /* \"#utility.yul\":371:378   */\n      0x00\n        /* \"#utility.yul\":411:477   */\n      0xffffffffffffffffffffffffffffffff00000000000000000000000000000000\n        /* \"#utility.yul\":404:409   */\n      dup3\n        /* \"#utility.yul\":400:478   */\n      and\n        /* \"#utility.yul\":389:478   */\n      swap1\n      pop\n        /* \"#utility.yul\":334:484   */\n      swap2\n      swap1\n      pop\n      jump\t// out\n        /* \"#utility.yul\":490:612   */\n    tag_111:\n        /* \"#utility.yul\":563:587   */\n      tag_167\n        /* \"#utility.yul\":581:586   */\n      dup2\n        /* \"#utility.yul\":563:587   */\n      tag_110\n      jump\t// in\n    tag_167:\n        /* \"#utility.yul\":556:561   */\n      dup2\n        /* \"#utility.yul\":553:588   */\n      eq\n        /* \"#utility.yul\":543:606   */\n      tag_168\n      jumpi\n        /* \"#utility.yul\":602:603   */\n      0x00\n        /* \"#utility.yul\":599:600   */\n      dup1\n        /* \"#utility.yul\":592:604   */\n      revert\n        /* \"#utility.yul\":543:606   */\n    tag_168:\n        /* \"#utility.yul\":490:612   */\n      pop\n      jump\t// out\n        /* \"#utility.yul\":618:757   */\n    tag_112:\n        /* \"#utility.yul\":664:669   */\n      0x00\n        /* \"#utility.yul\":702:708   */\n      dup2\n        /* \"#utility.yul\":689:709   */\n      calldataload\n        /* \"#utility.yul\":680:709   */\n      swap1\n      pop\n        /* \"#utility.yul\":718:751   */\n      tag_170\n        /* \"#utility.yul\":745:750   */\n      dup2\n        /* \"#utility.yul\":718:751   */\n      tag_111\n      jump\t// in\n    tag_170:\n        /* \"#utility.yul\":618:757   */\n      swap3\n      swap2\n      pop\n      pop\n      jump\t// out\n        /* \"#utility.yul\":763:880   */\n    tag_113:\n        /* \"#utility.yul\":872:873   */\n      0x00\n        /* \"#utility.yul\":869:870   */\n      dup1\n        /* \"#utility.yul\":862:874   */\n      revert\n        /* \"#utility.yul\":886:1003   */\n    tag_114:\n        /* \"#utility.yul\":995:996   */\n      0x00\n        /* \"#utility.yul\":992:993   */\n      dup1\n        /* \"#utility.yul\":985:997   */\n      revert\n        /* \"#utility.yul\":1009:1111   */\n    tag_115:\n        /* \"#utility.yul\":1050:1056   */\n      0x00\n        /* \"#utility.yul\":1101:1103   */\n      0x1f\n        /* \"#utility.yul\":1097:1104   */\n      not\n        /* \"#utility.yul\":1092:1094   */\n      0x1f\n        /* \"#utility.yul\":1085:1090   */\n      dup4\n        /* \"#utility.yul\":1081:1095   */\n      add\n        /* \"#utility.yul\":1077:1105   */\n      and\n        /* \"#utility.yul\":1067:1105   */\n      swap1\n      pop\n        /* \"#utility.yul\":1009:1111   */\n      swap2\n      swap1\n      pop\n      jump\t// out\n        /* \"#utility.yul\":1117:1297   */\n    tag_116:\n        /* \"#utility.yul\":1165:1242   */\n      0x4e487b7100000000000000000000000000000000000000000000000000000000\n        /* \"#utility.yul\":1162:1163   */\n      0x00\n        /* \"#utility.yul\":1155:1243   */\n      mstore\n        /* \"#utility.yul\":1262:1266   */\n      0x41\n        /* \"#utility.yul\":1259:1260   */\n      0x04\n        /* \"#utility.yul\":1252:1267   */\n      mstore\n        /* \"#utility.yul\":1286:1290   */\n      0x24\n        /* \"#utility.yul\":1283:1284   */\n      0x00\n        /* \"#utility.yul\":1276:1291   */\n      revert\n        /* \"#utility.yul\":1303:1584   */\n    tag_117:\n        /* \"#utility.yul\":1386:1413   */\n      tag_176\n        /* \"#utility.yul\":1408:1412   */\n      dup3\n        /* \"#utility.yul\":1386:1413   */\n      tag_115\n      jump\t// in\n    tag_176:\n        /* \"#utility.yul\":1378:1384   */\n      dup2\n        /* \"#utility.yul\":1374:1414   */\n      add\n        /* \"#utility.yul\":1516:1522   */\n      dup2\n        /* \"#utility.yul\":1504:1514   */\n      dup2\n        /* \"#utility.yul\":1501:1523   */\n      lt\n        /* \"#utility.yul\":1480:1498   */\n      0xffffffffffffffff\n        /* \"#utility.yul\":1468:1478   */\n      dup3\n        /* \"#utility.yul\":1465:1499   */\n      gt\n        /* \"#utility.yul\":1462:1524   */\n      or\n        /* \"#utility.yul\":1459:1547   */\n      iszero\n      tag_177\n      jumpi\n        /* \"#utility.yul\":1527:1545   */\n      tag_178\n      tag_116\n      jump\t// in\n    tag_178:\n        /* \"#utility.yul\":1459:1547   */\n    tag_177:\n        /* \"#utility.yul\":1567:1577   */\n      dup1\n        /* \"#utility.yul\":1563:1565   */\n      0x40\n        /* \"#utility.yul\":1556:1578   */\n      mstore\n        /* \"#utility.yul\":1346:1584   */\n      pop\n        /* \"#utility.yul\":1303:1584   */\n      pop\n      pop\n      jump\t// out\n        /* \"#utility.yul\":1590:1719   */\n    tag_118:\n        /* \"#utility.yul\":1624:1630   */\n      0x00\n        /* \"#utility.yul\":1651:1671   */\n      tag_180\n      tag_107\n      jump\t// in\n    tag_180:\n        /* \"#utility.yul\":1641:1671   */\n      swap1\n      pop\n        /* \"#utility.yul\":1680:1713   */\n      tag_181\n        /* \"#utility.yul\":1708:1712   */\n      dup3\n        /* \"#utility.yul\":1700:1706   */\n      dup3\n        /* \"#utility.yul\":1680:1713   */\n      tag_117\n      jump\t// in\n    tag_181:\n        /* \"#utility.yul\":1590:1719   */\n      swap2\n      swap1\n      pop\n      jump\t// out\n        /* \"#utility.yul\":1725:2033   */\n    tag_119:\n        /* \"#utility.yul\":1787:1791   */\n      0x00\n        /* \"#utility.yul\":1877:1895   */\n      0xffffffffffffffff\n        /* \"#utility.yul\":1869:1875   */\n      dup3\n        /* \"#utility.yul\":1866:1896   */\n      gt\n        /* \"#utility.yul\":1863:1919   */\n      iszero\n      tag_183\n      jumpi\n        /* \"#utility.yul\":1899:1917   */\n      tag_184\n      tag_116\n      jump\t// in\n    tag_184:\n        /* \"#utility.yul\":1863:1919   */\n    tag_183:\n        /* \"#utility.yul\":1937:1966   */\n      tag_185\n        /* \"#utility.yul\":1959:1965   */\n      dup3\n        /* \"#utility.yul\":1937:1966   */\n      tag_115\n      jump\t// in\n    tag_185:\n        /* \"#utility.yul\":1929:1966   */\n      swap1\n      pop\n        /* \"#utility.yul\":2021:2025   */\n      0x20\n        /* \"#utility.yul\":2015:2019   */\n      dup2\n        /* \"#utility.yul\":2011:2026   */\n      add\n        /* \"#utility.yul\":2003:2026   */\n      swap1\n      pop\n        /* \"#utility.yul\":1725:2033   */\n      swap2\n      swap1\n      pop\n      jump\t// out\n        /* \"#utility.yul\":2039:2185   */\n    tag_120:\n        /* \"#utility.yul\":2136:2142   */\n      dup3\n        /* \"#utility.yul\":2131:2134   */\n      dup2\n        /* \"#utility.yul\":2126:2129   */\n      dup4\n        /* \"#utility.yul\":2113:2143   */\n      calldatacopy\n        /* \"#utility.yul\":2177:2178   */\n      0x00\n        /* \"#utility.yul\":2168:2174   */\n      dup4\n        /* \"#utility.yul\":2163:2166   */\n      dup4\n        /* \"#utility.yul\":2159:2175   */\n      add\n        /* \"#utility.yul\":2152:2179   */\n      mstore\n        /* \"#utility.yul\":2039:2185   */\n      pop\n      pop\n      pop\n      jump\t// out\n        /* \"#utility.yul\":2191:2616   */\n    tag_121:\n        /* \"#utility.yul\":2269:2274   */\n      0x00\n        /* \"#utility.yul\":2294:2360   */\n      tag_188\n        /* \"#utility.yul\":2310:2359   */\n      tag_189\n        /* \"#utility.yul\":2352:2358   */\n      dup5\n        /* \"#utility.yul\":2310:2359   */\n      tag_119\n      jump\t// in\n    tag_189:\n        /* \"#utility.yul\":2294:2360   */\n      tag_118\n      jump\t// in\n    tag_188:\n        /* \"#utility.yul\":2285:2360   */\n      swap1\n      pop\n        /* \"#utility.yul\":2383:2389   */\n      dup3\n        /* \"#utility.yul\":2376:2381   */\n      dup2\n        /* \"#utility.yul\":2369:2390   */\n      mstore\n        /* \"#utility.yul\":2421:2425   */\n      0x20\n        /* \"#utility.yul\":2414:2419   */\n      dup2\n        /* \"#utility.yul\":2410:2426   */\n      add\n        /* \"#utility.yul\":2459:2462   */\n      dup5\n        /* \"#utility.yul\":2450:2456   */\n      dup5\n        /* \"#utility.yul\":2445:2448   */\n      dup5\n        /* \"#utility.yul\":2441:2457   */\n      add\n        /* \"#utility.yul\":2438:2463   */\n      gt\n        /* \"#utility.yul\":2435:2547   */\n      iszero\n      tag_190\n      jumpi\n        /* \"#utility.yul\":2466:2545   */\n      tag_191\n      tag_114\n      jump\t// in\n    tag_191:\n        /* \"#utility.yul\":2435:2547   */\n    tag_190:\n        /* \"#utility.yul\":2556:2610   */\n      tag_192\n        /* \"#utility.yul\":2603:2609   */\n      dup5\n        /* \"#utility.yul\":2598:2601   */\n      dup3\n        /* \"#utility.yul\":2593:2596   */\n      dup6\n        /* \"#utility.yul\":2556:2610   */\n      tag_120\n      jump\t// in\n    tag_192:\n        /* \"#utility.yul\":2275:2616   */\n      pop\n        /* \"#utility.yul\":2191:2616   */\n      swap4\n      swap3\n      pop\n      pop\n      pop\n      jump\t// out\n        /* \"#utility.yul\":2636:2976   */\n    tag_122:\n        /* \"#utility.yul\":2692:2697   */\n      0x00\n        /* \"#utility.yul\":2741:2744   */\n      dup3\n        /* \"#utility.yul\":2734:2738   */\n      0x1f\n        /* \"#utility.yul\":2726:2732   */\n      dup4\n        /* \"#utility.yul\":2722:2739   */\n      add\n        /* \"#utility.yul\":2718:2745   */\n      slt\n        /* \"#utility.yul\":2708:2830   */\n      tag_194\n      jumpi\n        /* \"#utility.yul\":2749:2828   */\n      tag_195\n      tag_113\n      jump\t// in\n    tag_195:\n        /* \"#utility.yul\":2708:2830   */\n    tag_194:\n        /* \"#utility.yul\":2866:2872   */\n      dup2\n        /* \"#utility.yul\":2853:2873   */\n      calldataload\n        /* \"#utility.yul\":2891:2970   */\n      tag_196\n        /* \"#utility.yul\":2966:2969   */\n      dup5\n        /* \"#utility.yul\":2958:2964   */\n      dup3\n        /* \"#utility.yul\":2951:2955   */\n      0x20\n        /* \"#utility.yul\":2943:2949   */\n      dup7\n        /* \"#utility.yul\":2939:2956   */\n      add\n        /* \"#utility.yul\":2891:2970   */\n      tag_121\n      jump\t// in\n    tag_196:\n        /* \"#utility.yul\":2882:2970   */\n      swap2\n      pop\n        /* \"#utility.yul\":2698:2976   */\n      pop\n        /* \"#utility.yul\":2636:2976   */\n      swap3\n      swap2\n      pop\n      pop\n      jump\t// out\n        /* \"#utility.yul\":2982:3961   */\n    tag_13:\n        /* \"#utility.yul\":3079:3085   */\n      0x00\n        /* \"#utility.yul\":3087:3093   */\n      dup1\n        /* \"#utility.yul\":3095:3101   */\n      0x00\n        /* \"#utility.yul\":3144:3146   */\n      0x60\n        /* \"#utility.yul\":3132:3141   */\n      dup5\n        /* \"#utility.yul\":3123:3130   */\n      dup7\n        /* \"#utility.yul\":3119:3142   */\n      sub\n        /* \"#utility.yul\":3115:3147   */\n      slt\n        /* \"#utility.yul\":3112:3231   */\n      iszero\n      tag_198\n      jumpi\n        /* \"#utility.yul\":3150:3229   */\n      tag_199\n      tag_108\n      jump\t// in\n    tag_199:\n        /* \"#utility.yul\":3112:3231   */\n    tag_198:\n        /* \"#utility.yul\":3270:3271   */\n      0x00\n        /* \"#utility.yul\":3295:3348   */\n      tag_200\n        /* \"#utility.yul\":3340:3347   */\n      dup7\n        /* \"#utility.yul\":3331:3337   */\n      dup3\n        /* \"#utility.yul\":3320:3329   */\n      dup8\n        /* \"#utility.yul\":3316:3338   */\n      add\n        /* \"#utility.yul\":3295:3348   */\n      tag_112\n      jump\t// in\n    tag_200:\n        /* \"#utility.yul\":3285:3348   */\n      swap4\n      pop\n        /* \"#utility.yul\":3241:3358   */\n      pop\n        /* \"#utility.yul\":3425:3427   */\n      0x20\n        /* \"#utility.yul\":3414:3423   */\n      dup5\n        /* \"#utility.yul\":3410:3428   */\n      add\n        /* \"#utility.yul\":3397:3429   */\n      calldataload\n        /* \"#utility.yul\":3456:3474   */\n      0xffffffffffffffff\n        /* \"#utility.yul\":3448:3454   */\n      dup2\n        /* \"#utility.yul\":3445:3475   */\n      gt\n        /* \"#utility.yul\":3442:3559   */\n      iszero\n      tag_201\n      jumpi\n        /* \"#utility.yul\":3478:3557   */\n      tag_202\n      tag_109\n      jump\t// in\n    tag_202:\n        /* \"#utility.yul\":3442:3559   */\n    tag_201:\n        /* \"#utility.yul\":3583:3646   */\n      tag_203\n        /* \"#utility.yul\":3638:3645   */\n      dup7\n        /* \"#utility.yul\":3629:3635   */\n      dup3\n        /* \"#utility.yul\":3618:3627   */\n      dup8\n        /* \"#utility.yul\":3614:3636   */\n      add\n        /* \"#utility.yul\":3583:3646   */\n      tag_122\n      jump\t// in\n    tag_203:\n        /* \"#utility.yul\":3573:3646   */\n      swap3\n      pop\n        /* \"#utility.yul\":3368:3656   */\n      pop\n        /* \"#utility.yul\":3723:3725   */\n      0x40\n        /* \"#utility.yul\":3712:3721   */\n      dup5\n        /* \"#utility.yul\":3708:3726   */\n      add\n        /* \"#utility.yul\":3695:3727   */\n      calldataload\n        /* \"#utility.yul\":3754:3772   */\n      0xffffffffffffffff\n        /* \"#utility.yul\":3746:3752   */\n      dup2\n        /* \"#utility.yul\":3743:3773   */\n      gt\n        /* \"#utility.yul\":3740:3857   */\n      iszero\n      tag_204\n      jumpi\n        /* \"#utility.yul\":3776:3855   */\n      tag_205\n      tag_109\n      jump\t// in\n    tag_205:\n        /* \"#utility.yul\":3740:3857   */\n    tag_204:\n        /* \"#utility.yul\":3881:3944   */\n      tag_206\n        /* \"#utility.yul\":3936:3943   */\n      dup7\n        /* \"#utility.yul\":3927:3933   */\n      dup3\n        /* \"#utility.yul\":3916:3925   */\n      dup8\n        /* \"#utility.yul\":3912:3934   */\n      add\n        /* \"#utility.yul\":3881:3944   */\n      tag_122\n      jump\t// in\n    tag_206:\n        /* \"#utility.yul\":3871:3944   */\n      swap2\n      pop\n        /* \"#utility.yul\":3666:3954   */\n      pop\n        /* \"#utility.yul\":2982:3961   */\n      swap3\n      pop\n      swap3\n      pop\n      swap3\n      jump\t// out\n        /* \"#utility.yul\":3967:4621   */\n    tag_17:\n        /* \"#utility.yul\":4045:4051   */\n      0x00\n        /* \"#utility.yul\":4053:4059   */\n      dup1\n        /* \"#utility.yul\":4102:4104   */\n      0x40\n        /* \"#utility.yul\":4090:4099   */\n      dup4\n        /* \"#utility.yul\":4081:4088   */\n      dup6\n        /* \"#utility.yul\":4077:4100   */\n      sub\n        /* \"#utility.yul\":4073:4105   */\n      slt\n        /* \"#utility.yul\":4070:4189   */\n      iszero\n      tag_208\n      jumpi\n        /* \"#utility.yul\":4108:4187   */\n      tag_209\n      tag_108\n      jump\t// in\n    tag_209:\n        /* \"#utility.yul\":4070:4189   */\n    tag_208:\n        /* \"#utility.yul\":4228:4229   */\n      0x00\n        /* \"#utility.yul\":4253:4306   */\n      tag_210\n        /* \"#utility.yul\":4298:4305   */\n      dup6\n        /* \"#utility.yul\":4289:4295   */\n      dup3\n        /* \"#utility.yul\":4278:4287   */\n      dup7\n        /* \"#utility.yul\":4274:4296   */\n      add\n        /* \"#utility.yul\":4253:4306   */\n      tag_112\n      jump\t// in\n    tag_210:\n        /* \"#utility.yul\":4243:4306   */\n      swap3\n      pop\n        /* \"#utility.yul\":4199:4316   */\n      pop\n        /* \"#utility.yul\":4383:4385   */\n      0x20\n        /* \"#utility.yul\":4372:4381   */\n      dup4\n        /* \"#utility.yul\":4368:4386   */\n      add\n        /* \"#utility.yul\":4355:4387   */\n      calldataload\n        /* \"#utility.yul\":4414:4432   */\n      0xffffffffffffffff\n        /* \"#utility.yul\":4406:4412   */\n      dup2\n        /* \"#utility.yul\":4403:4433   */\n      gt\n        /* \"#utility.yul\":4400:4517   */\n      iszero\n      tag_211\n      jumpi\n        /* \"#utility.yul\":4436:4515   */\n      tag_212\n      tag_109\n      jump\t// in\n    tag_212:\n        /* \"#utility.yul\":4400:4517   */\n    tag_211:\n        /* \"#utility.yul\":4541:4604   */\n      tag_213\n        /* \"#utility.yul\":4596:4603   */\n      dup6\n        /* \"#utility.yul\":4587:4593   */\n      dup3\n        /* \"#utility.yul\":4576:4585   */\n      dup7\n        /* \"#utility.yul\":4572:4594   */\n      add\n        /* \"#utility.yul\":4541:4604   */\n      tag_122\n      jump\t// in\n    tag_213:\n        /* \"#utility.yul\":4531:4604   */\n      swap2\n      pop\n        /* \"#utility.yul\":4326:4614   */\n      pop\n        /* \"#utility.yul\":3967:4621   */\n      swap3\n      pop\n      swap3\n      swap1\n      pop\n      jump\t// out\n        /* \"#utility.yul\":4627:4726   */\n    tag_123:\n        /* \"#utility.yul\":4679:4685   */\n      0x00\n        /* \"#utility.yul\":4713:4718   */\n      dup2\n        /* \"#utility.yul\":4707:4719   */\n      mload\n        /* \"#utility.yul\":4697:4719   */\n      swap1\n      pop\n        /* \"#utility.yul\":4627:4726   */\n      swap2\n      swap1\n      pop\n      jump\t// out\n        /* \"#utility.yul\":4732:4901   */\n    tag_124:\n        /* \"#utility.yul\":4816:4827   */\n      0x00\n        /* \"#utility.yul\":4850:4856   */\n      dup3\n        /* \"#utility.yul\":4845:4848   */\n      dup3\n        /* \"#utility.yul\":4838:4857   */\n      mstore\n        /* \"#utility.yul\":4890:4894   */\n      0x20\n        /* \"#utility.yul\":4885:4888   */\n      dup3\n        /* \"#utility.yul\":4881:4895   */\n      add\n        /* \"#utility.yul\":4866:4895   */\n      swap1\n      pop\n        /* \"#utility.yul\":4732:4901   */\n      swap3\n      swap2\n      pop\n      pop\n      jump\t// out\n        /* \"#utility.yul\":4907:5153   */\n    tag_125:\n        /* \"#utility.yul\":4988:4989   */\n      0x00\n        /* \"#utility.yul\":4998:5111   */\n    tag_217:\n        /* \"#utility.yul\":5012:5018   */\n      dup4\n        /* \"#utility.yul\":5009:5010   */\n      dup2\n        /* \"#utility.yul\":5006:5019   */\n      lt\n        /* \"#utility.yul\":4998:5111   */\n      iszero\n      tag_219\n      jumpi\n        /* \"#utility.yul\":5097:5098   */\n      dup1\n        /* \"#utility.yul\":5092:5095   */\n      dup3\n        /* \"#utility.yul\":5088:5099   */\n      add\n        /* \"#utility.yul\":5082:5100   */\n      mload\n        /* \"#utility.yul\":5078:5079   */\n      dup2\n        /* \"#utility.yul\":5073:5076   */\n      dup5\n        /* \"#utility.yul\":5069:5080   */\n      add\n        /* \"#utility.yul\":5062:5101   */\n      mstore\n        /* \"#utility.yul\":5034:5036   */\n      0x20\n        /* \"#utility.yul\":5031:5032   */\n      dup2\n        /* \"#utility.yul\":5027:5037   */\n      add\n        /* \"#utility.yul\":5022:5037   */\n      swap1\n      pop\n        /* \"#utility.yul\":4998:5111   */\n      jump(tag_217)\n    tag_219:\n        /* \"#utility.yul\":5145:5146   */\n      0x00\n        /* \"#utility.yul\":5136:5142   */\n      dup5\n        /* \"#utility.yul\":5131:5134   */\n      dup5\n        /* \"#utility.yul\":5127:5143   */\n      add\n        /* \"#utility.yul\":5120:5147   */\n      mstore\n        /* \"#utility.yul\":4969:5153   */\n      pop\n        /* \"#utility.yul\":4907:5153   */\n      pop\n      pop\n      pop\n      jump\t// out\n        /* \"#utility.yul\":5159:5536   */\n    tag_126:\n        /* \"#utility.yul\":5247:5250   */\n      0x00\n        /* \"#utility.yul\":5275:5314   */\n      tag_221\n        /* \"#utility.yul\":5308:5313   */\n      dup3\n        /* \"#utility.yul\":5275:5314   */\n      tag_123\n      jump\t// in\n    tag_221:\n        /* \"#utility.yul\":5330:5401   */\n      tag_222\n        /* \"#utility.yul\":5394:5400   */\n      dup2\n        /* \"#utility.yul\":5389:5392   */\n      dup6\n        /* \"#utility.yul\":5330:5401   */\n      tag_124\n      jump\t// in\n    tag_222:\n        /* \"#utility.yul\":5323:5401   */\n      swap4\n      pop\n        /* \"#utility.yul\":5410:5475   */\n      tag_223\n        /* \"#utility.yul\":5468:5474   */\n      dup2\n        /* \"#utility.yul\":5463:5466   */\n      dup6\n        /* \"#utility.yul\":5456:5460   */\n      0x20\n        /* \"#utility.yul\":5449:5454   */\n      dup7\n        /* \"#utility.yul\":5445:5461   */\n      add\n        /* \"#utility.yul\":5410:5475   */\n      tag_125\n      jump\t// in\n    tag_223:\n        /* \"#utility.yul\":5500:5529   */\n      tag_224\n        /* \"#utility.yul\":5522:5528   */\n      dup2\n        /* \"#utility.yul\":5500:5529   */\n      tag_115\n      jump\t// in\n    tag_224:\n        /* \"#utility.yul\":5495:5498   */\n      dup5\n        /* \"#utility.yul\":5491:5530   */\n      add\n        /* \"#utility.yul\":5484:5530   */\n      swap2\n      pop\n        /* \"#utility.yul\":5251:5536   */\n      pop\n        /* \"#utility.yul\":5159:5536   */\n      swap3\n      swap2\n      pop\n      pop\n      jump\t// out\n        /* \"#utility.yul\":5542:5855   */\n    tag_20:\n        /* \"#utility.yul\":5655:5659   */\n      0x00\n        /* \"#utility.yul\":5693:5695   */\n      0x20\n        /* \"#utility.yul\":5682:5691   */\n      dup3\n        /* \"#utility.yul\":5678:5696   */\n      add\n        /* \"#utility.yul\":5670:5696   */\n      swap1\n      pop\n        /* \"#utility.yul\":5742:5751   */\n      dup2\n        /* \"#utility.yul\":5736:5740   */\n      dup2\n        /* \"#utility.yul\":5732:5752   */\n      sub\n        /* \"#utility.yul\":5728:5729   */\n      0x00\n        /* \"#utility.yul\":5717:5726   */\n      dup4\n        /* \"#utility.yul\":5713:5730   */\n      add\n        /* \"#utility.yul\":5706:5753   */\n      mstore\n        /* \"#utility.yul\":5770:5848   */\n      tag_226\n        /* \"#utility.yul\":5843:5847   */\n      dup2\n        /* \"#utility.yul\":5834:5840   */\n      dup5\n        /* \"#utility.yul\":5770:5848   */\n      tag_126\n      jump\t// in\n    tag_226:\n        /* \"#utility.yul\":5762:5848   */\n      swap1\n      pop\n        /* \"#utility.yul\":5542:5855   */\n      swap3\n      swap2\n      pop\n      pop\n      jump\t// out\n        /* \"#utility.yul\":5861:6190   */\n    tag_23:\n        /* \"#utility.yul\":5920:5926   */\n      0x00\n        /* \"#utility.yul\":5969:5971   */\n      0x20\n        /* \"#utility.yul\":5957:5966   */\n      dup3\n        /* \"#utility.yul\":5948:5955   */\n      dup5\n        /* \"#utility.yul\":5944:5967   */\n      sub\n        /* \"#utility.yul\":5940:5972   */\n      slt\n        /* \"#utility.yul\":5937:6056   */\n      iszero\n      tag_228\n      jumpi\n        /* \"#utility.yul\":5975:6054   */\n      tag_229\n      tag_108\n      jump\t// in\n    tag_229:\n        /* \"#utility.yul\":5937:6056   */\n    tag_228:\n        /* \"#utility.yul\":6095:6096   */\n      0x00\n        /* \"#utility.yul\":6120:6173   */\n      tag_230\n        /* \"#utility.yul\":6165:6172   */\n      dup5\n        /* \"#utility.yul\":6156:6162   */\n      dup3\n        /* \"#utility.yul\":6145:6154   */\n      dup6\n        /* \"#utility.yul\":6141:6163   */\n      add\n        /* \"#utility.yul\":6120:6173   */\n      tag_112\n      jump\t// in\n    tag_230:\n        /* \"#utility.yul\":6110:6173   */\n      swap2\n      pop\n        /* \"#utility.yul\":6066:6183   */\n      pop\n        /* \"#utility.yul\":5861:6190   */\n      swap3\n      swap2\n      pop\n      pop\n      jump\t// out\n        /* \"#utility.yul\":6196:6314   */\n    tag_127:\n        /* \"#utility.yul\":6283:6307   */\n      tag_232\n        /* \"#utility.yul\":6301:6306   */\n      dup2\n        /* \"#utility.yul\":6283:6307   */\n      tag_110\n      jump\t// in\n    tag_232:\n        /* \"#utility.yul\":6278:6281   */\n      dup3\n        /* \"#utility.yul\":6271:6308   */\n      mstore\n        /* \"#utility.yul\":6196:6314   */\n      pop\n      pop\n      jump\t// out\n        /* \"#utility.yul\":6320:6446   */\n    tag_128:\n        /* \"#utility.yul\":6357:6364   */\n      0x00\n        /* \"#utility.yul\":6397:6439   */\n      0xffffffffffffffffffffffffffffffffffffffff\n        /* \"#utility.yul\":6390:6395   */\n      dup3\n        /* \"#utility.yul\":6386:6440   */\n      and\n        /* \"#utility.yul\":6375:6440   */\n      swap1\n      pop\n        /* \"#utility.yul\":6320:6446   */\n      swap2\n      swap1\n      pop\n      jump\t// out\n        /* \"#utility.yul\":6452:6548   */\n    tag_129:\n        /* \"#utility.yul\":6489:6496   */\n      0x00\n        /* \"#utility.yul\":6518:6542   */\n      tag_235\n        /* \"#utility.yul\":6536:6541   */\n      dup3\n        /* \"#utility.yul\":6518:6542   */\n      tag_128\n      jump\t// in\n    tag_235:\n        /* \"#utility.yul\":6507:6542   */\n      swap1\n      pop\n        /* \"#utility.yul\":6452:6548   */\n      swap2\n      swap1\n      pop\n      jump\t// out\n        /* \"#utility.yul\":6554:6672   */\n    tag_130:\n        /* \"#utility.yul\":6641:6665   */\n      tag_237\n        /* \"#utility.yul\":6659:6664   */\n      dup2\n        /* \"#utility.yul\":6641:6665   */\n      tag_129\n      jump\t// in\n    tag_237:\n        /* \"#utility.yul\":6636:6639   */\n      dup3\n        /* \"#utility.yul\":6629:6666   */\n      mstore\n        /* \"#utility.yul\":6554:6672   */\n      pop\n      pop\n      jump\t// out\n        /* \"#utility.yul\":6678:6755   */\n    tag_131:\n        /* \"#utility.yul\":6715:6722   */\n      0x00\n        /* \"#utility.yul\":6744:6749   */\n      dup2\n        /* \"#utility.yul\":6733:6749   */\n      swap1\n      pop\n        /* \"#utility.yul\":6678:6755   */\n      swap2\n      swap1\n      pop\n      jump\t// out\n        /* \"#utility.yul\":6761:6879   */\n    tag_132:\n        /* \"#utility.yul\":6848:6872   */\n      tag_240\n        /* \"#utility.yul\":6866:6871   */\n      dup2\n        /* \"#utility.yul\":6848:6872   */\n      tag_131\n      jump\t// in\n    tag_240:\n        /* \"#utility.yul\":6843:6846   */\n      dup3\n        /* \"#utility.yul\":6836:6873   */\n      mstore\n        /* \"#utility.yul\":6761:6879   */\n      pop\n      pop\n      jump\t// out\n        /* \"#utility.yul\":6885:7731   */\n    tag_26:\n        /* \"#utility.yul\":7130:7134   */\n      0x00\n        /* \"#utility.yul\":7168:7171   */\n      0xa0\n        /* \"#utility.yul\":7157:7166   */\n      dup3\n        /* \"#utility.yul\":7153:7172   */\n      add\n        /* \"#utility.yul\":7145:7172   */\n      swap1\n      pop\n        /* \"#utility.yul\":7182:7253   */\n      tag_242\n        /* \"#utility.yul\":7250:7251   */\n      0x00\n        /* \"#utility.yul\":7239:7248   */\n      dup4\n        /* \"#utility.yul\":7235:7252   */\n      add\n        /* \"#utility.yul\":7226:7232   */\n      dup9\n        /* \"#utility.yul\":7182:7253   */\n      tag_127\n      jump\t// in\n    tag_242:\n        /* \"#utility.yul\":7263:7335   */\n      tag_243\n        /* \"#utility.yul\":7331:7333   */\n      0x20\n        /* \"#utility.yul\":7320:7329   */\n      dup4\n        /* \"#utility.yul\":7316:7334   */\n      add\n        /* \"#utility.yul\":7307:7313   */\n      dup8\n        /* \"#utility.yul\":7263:7335   */\n      tag_130\n      jump\t// in\n    tag_243:\n        /* \"#utility.yul\":7382:7391   */\n      dup2\n        /* \"#utility.yul\":7376:7380   */\n      dup2\n        /* \"#utility.yul\":7372:7392   */\n      sub\n        /* \"#utility.yul\":7367:7369   */\n      0x40\n        /* \"#utility.yul\":7356:7365   */\n      dup4\n        /* \"#utility.yul\":7352:7370   */\n      add\n        /* \"#utility.yul\":7345:7393   */\n      mstore\n        /* \"#utility.yul\":7410:7488   */\n      tag_244\n        /* \"#utility.yul\":7483:7487   */\n      dup2\n        /* \"#utility.yul\":7474:7480   */\n      dup7\n        /* \"#utility.yul\":7410:7488   */\n      tag_126\n      jump\t// in\n    tag_244:\n        /* \"#utility.yul\":7402:7488   */\n      swap1\n      pop\n        /* \"#utility.yul\":7535:7544   */\n      dup2\n        /* \"#utility.yul\":7529:7533   */\n      dup2\n        /* \"#utility.yul\":7525:7545   */\n      sub\n        /* \"#utility.yul\":7520:7522   */\n      0x60\n        /* \"#utility.yul\":7509:7518   */\n      dup4\n        /* \"#utility.yul\":7505:7523   */\n      add\n        /* \"#utility.yul\":7498:7546   */\n      mstore\n        /* \"#utility.yul\":7563:7641   */\n      tag_245\n        /* \"#utility.yul\":7636:7640   */\n      dup2\n        /* \"#utility.yul\":7627:7633   */\n      dup6\n        /* \"#utility.yul\":7563:7641   */\n      tag_126\n      jump\t// in\n    tag_245:\n        /* \"#utility.yul\":7555:7641   */\n      swap1\n      pop\n        /* \"#utility.yul\":7651:7724   */\n      tag_246\n        /* \"#utility.yul\":7719:7722   */\n      0x80\n        /* \"#utility.yul\":7708:7717   */\n      dup4\n        /* \"#utility.yul\":7704:7723   */\n      add\n        /* \"#utility.yul\":7695:7701   */\n      dup5\n        /* \"#utility.yul\":7651:7724   */\n      tag_132\n      jump\t// in\n    tag_246:\n        /* \"#utility.yul\":6885:7731   */\n      swap7\n      swap6\n      pop\n      pop\n      pop\n      pop\n      pop\n      pop\n      jump\t// out\n        /* \"#utility.yul\":7737:7959   */\n    tag_30:\n        /* \"#utility.yul\":7830:7834   */\n      0x00\n        /* \"#utility.yul\":7868:7870   */\n      0x20\n        /* \"#utility.yul\":7857:7866   */\n      dup3\n        /* \"#utility.yul\":7853:7871   */\n      add\n        /* \"#utility.yul\":7845:7871   */\n      swap1\n      pop\n        /* \"#utility.yul\":7881:7952   */\n      tag_248\n        /* \"#utility.yul\":7949:7950   */\n      0x00\n        /* \"#utility.yul\":7938:7947   */\n      dup4\n        /* \"#utility.yul\":7934:7951   */\n      add\n        /* \"#utility.yul\":7925:7931   */\n      dup5\n        /* \"#utility.yul\":7881:7952   */\n      tag_130\n      jump\t// in\n    tag_248:\n        /* \"#utility.yul\":7737:7959   */\n      swap3\n      swap2\n      pop\n      pop\n      jump\t// out\n        /* \"#utility.yul\":7965:8799   */\n    tag_33:\n        /* \"#utility.yul\":8053:8059   */\n      0x00\n        /* \"#utility.yul\":8061:8067   */\n      dup1\n        /* \"#utility.yul\":8110:8112   */\n      0x40\n        /* \"#utility.yul\":8098:8107   */\n      dup4\n        /* \"#utility.yul\":8089:8096   */\n      dup6\n        /* \"#utility.yul\":8085:8108   */\n      sub\n        /* \"#utility.yul\":8081:8113   */\n      slt\n        /* \"#utility.yul\":8078:8197   */\n      iszero\n      tag_250\n      jumpi\n        /* \"#utility.yul\":8116:8195   */\n      tag_251\n      tag_108\n      jump\t// in\n    tag_251:\n        /* \"#utility.yul\":8078:8197   */\n    tag_250:\n        /* \"#utility.yul\":8264:8265   */\n      0x00\n        /* \"#utility.yul\":8253:8262   */\n      dup4\n        /* \"#utility.yul\":8249:8266   */\n      add\n        /* \"#utility.yul\":8236:8267   */\n      calldataload\n        /* \"#utility.yul\":8294:8312   */\n      0xffffffffffffffff\n        /* \"#utility.yul\":8286:8292   */\n      dup2\n        /* \"#utility.yul\":8283:8313   */\n      gt\n        /* \"#utility.yul\":8280:8397   */\n      iszero\n      tag_252\n      jumpi\n        /* \"#utility.yul\":8316:8395   */\n      tag_253\n      tag_109\n      jump\t// in\n    tag_253:\n        /* \"#utility.yul\":8280:8397   */\n    tag_252:\n        /* \"#utility.yul\":8421:8484   */\n      tag_254\n        /* \"#utility.yul\":8476:8483   */\n      dup6\n        /* \"#utility.yul\":8467:8473   */\n      dup3\n        /* \"#utility.yul\":8456:8465   */\n      dup7\n        /* \"#utility.yul\":8452:8474   */\n      add\n        /* \"#utility.yul\":8421:8484   */\n      tag_122\n      jump\t// in\n    tag_254:\n        /* \"#utility.yul\":8411:8484   */\n      swap3\n      pop\n        /* \"#utility.yul\":8207:8494   */\n      pop\n        /* \"#utility.yul\":8561:8563   */\n      0x20\n        /* \"#utility.yul\":8550:8559   */\n      dup4\n        /* \"#utility.yul\":8546:8564   */\n      add\n        /* \"#utility.yul\":8533:8565   */\n      calldataload\n        /* \"#utility.yul\":8592:8610   */\n      0xffffffffffffffff\n        /* \"#utility.yul\":8584:8590   */\n      dup2\n        /* \"#utility.yul\":8581:8611   */\n      gt\n        /* \"#utility.yul\":8578:8695   */\n      iszero\n      tag_255\n      jumpi\n        /* \"#utility.yul\":8614:8693   */\n      tag_256\n      tag_109\n      jump\t// in\n    tag_256:\n        /* \"#utility.yul\":8578:8695   */\n    tag_255:\n        /* \"#utility.yul\":8719:8782   */\n      tag_257\n        /* \"#utility.yul\":8774:8781   */\n      dup6\n        /* \"#utility.yul\":8765:8771   */\n      dup3\n        /* \"#utility.yul\":8754:8763   */\n      dup7\n        /* \"#utility.yul\":8750:8772   */\n      add\n        /* \"#utility.yul\":8719:8782   */\n      tag_122\n      jump\t// in\n    tag_257:\n        /* \"#utility.yul\":8709:8782   */\n      swap2\n      pop\n        /* \"#utility.yul\":8504:8792   */\n      pop\n        /* \"#utility.yul\":7965:8799   */\n      swap3\n      pop\n      swap3\n      swap1\n      pop\n      jump\t// out\n        /* \"#utility.yul\":8805:8913   */\n    tag_133:\n        /* \"#utility.yul\":8882:8906   */\n      tag_259\n        /* \"#utility.yul\":8900:8905   */\n      dup2\n        /* \"#utility.yul\":8882:8906   */\n      tag_110\n      jump\t// in\n    tag_259:\n        /* \"#utility.yul\":8877:8880   */\n      dup3\n        /* \"#utility.yul\":8870:8907   */\n      mstore\n        /* \"#utility.yul\":8805:8913   */\n      pop\n      pop\n      jump\t// out\n        /* \"#utility.yul\":8919:9027   */\n    tag_134:\n        /* \"#utility.yul\":8996:9020   */\n      tag_261\n        /* \"#utility.yul\":9014:9019   */\n      dup2\n        /* \"#utility.yul\":8996:9020   */\n      tag_129\n      jump\t// in\n    tag_261:\n        /* \"#utility.yul\":8991:8994   */\n      dup3\n        /* \"#utility.yul\":8984:9021   */\n      mstore\n        /* \"#utility.yul\":8919:9027   */\n      pop\n      pop\n      jump\t// out\n        /* \"#utility.yul\":9033:9192   */\n    tag_135:\n        /* \"#utility.yul\":9107:9118   */\n      0x00\n        /* \"#utility.yul\":9141:9147   */\n      dup3\n        /* \"#utility.yul\":9136:9139   */\n      dup3\n        /* \"#utility.yul\":9129:9148   */\n      mstore\n        /* \"#utility.yul\":9181:9185   */\n      0x20\n        /* \"#utility.yul\":9176:9179   */\n      dup3\n        /* \"#utility.yul\":9172:9186   */\n      add\n        /* \"#utility.yul\":9157:9186   */\n      swap1\n      pop\n        /* \"#utility.yul\":9033:9192   */\n      swap3\n      swap2\n      pop\n      pop\n      jump\t// out\n        /* \"#utility.yul\":9198:9555   */\n    tag_136:\n        /* \"#utility.yul\":9276:9279   */\n      0x00\n        /* \"#utility.yul\":9304:9343   */\n      tag_264\n        /* \"#utility.yul\":9337:9342   */\n      dup3\n        /* \"#utility.yul\":9304:9343   */\n      tag_123\n      jump\t// in\n    tag_264:\n        /* \"#utility.yul\":9359:9420   */\n      tag_265\n        /* \"#utility.yul\":9413:9419   */\n      dup2\n        /* \"#utility.yul\":9408:9411   */\n      dup6\n        /* \"#utility.yul\":9359:9420   */\n      tag_135\n      jump\t// in\n    tag_265:\n        /* \"#utility.yul\":9352:9420   */\n      swap4\n      pop\n        /* \"#utility.yul\":9429:9494   */\n      tag_266\n        /* \"#utility.yul\":9487:9493   */\n      dup2\n        /* \"#utility.yul\":9482:9485   */\n      dup6\n        /* \"#utility.yul\":9475:9479   */\n      0x20\n        /* \"#utility.yul\":9468:9473   */\n      dup7\n        /* \"#utility.yul\":9464:9480   */\n      add\n        /* \"#utility.yul\":9429:9494   */\n      tag_125\n      jump\t// in\n    tag_266:\n        /* \"#utility.yul\":9519:9548   */\n      tag_267\n        /* \"#utility.yul\":9541:9547   */\n      dup2\n        /* \"#utility.yul\":9519:9548   */\n      tag_115\n      jump\t// in\n    tag_267:\n        /* \"#utility.yul\":9514:9517   */\n      dup5\n        /* \"#utility.yul\":9510:9549   */\n      add\n        /* \"#utility.yul\":9503:9549   */\n      swap2\n      pop\n        /* \"#utility.yul\":9280:9555   */\n      pop\n        /* \"#utility.yul\":9198:9555   */\n      swap3\n      swap2\n      pop\n      pop\n      jump\t// out\n        /* \"#utility.yul\":9561:9669   */\n    tag_137:\n        /* \"#utility.yul\":9638:9662   */\n      tag_269\n        /* \"#utility.yul\":9656:9661   */\n      dup2\n        /* \"#utility.yul\":9638:9662   */\n      tag_131\n      jump\t// in\n    tag_269:\n        /* \"#utility.yul\":9633:9636   */\n      dup3\n        /* \"#utility.yul\":9626:9663   */\n      mstore\n        /* \"#utility.yul\":9561:9669   */\n      pop\n      pop\n      jump\t// out\n        /* \"#utility.yul\":9727:10951   */\n    tag_138:\n        /* \"#utility.yul\":9844:9847   */\n      0x00\n        /* \"#utility.yul\":9880:9884   */\n      0xa0\n        /* \"#utility.yul\":9875:9878   */\n      dup4\n        /* \"#utility.yul\":9871:9885   */\n      add\n        /* \"#utility.yul\":9972:9976   */\n      0x00\n        /* \"#utility.yul\":9965:9970   */\n      dup4\n        /* \"#utility.yul\":9961:9977   */\n      add\n        /* \"#utility.yul\":9955:9978   */\n      mload\n        /* \"#utility.yul\":9991:10054   */\n      tag_271\n        /* \"#utility.yul\":10048:10052   */\n      0x00\n        /* \"#utility.yul\":10043:10046   */\n      dup7\n        /* \"#utility.yul\":10039:10053   */\n      add\n        /* \"#utility.yul\":10025:10037   */\n      dup3\n        /* \"#utility.yul\":9991:10054   */\n      tag_133\n      jump\t// in\n    tag_271:\n        /* \"#utility.yul\":9895:10064   */\n      pop\n        /* \"#utility.yul\":10147:10151   */\n      0x20\n        /* \"#utility.yul\":10140:10145   */\n      dup4\n        /* \"#utility.yul\":10136:10152   */\n      add\n        /* \"#utility.yul\":10130:10153   */\n      mload\n        /* \"#utility.yul\":10166:10229   */\n      tag_272\n        /* \"#utility.yul\":10223:10227   */\n      0x20\n        /* \"#utility.yul\":10218:10221   */\n      dup7\n        /* \"#utility.yul\":10214:10228   */\n      add\n        /* \"#utility.yul\":10200:10212   */\n      dup3\n        /* \"#utility.yul\":10166:10229   */\n      tag_134\n      jump\t// in\n    tag_272:\n        /* \"#utility.yul\":10074:10239   */\n      pop\n        /* \"#utility.yul\":10328:10332   */\n      0x40\n        /* \"#utility.yul\":10321:10326   */\n      dup4\n        /* \"#utility.yul\":10317:10333   */\n      add\n        /* \"#utility.yul\":10311:10334   */\n      mload\n        /* \"#utility.yul\":10381:10384   */\n      dup5\n        /* \"#utility.yul\":10375:10379   */\n      dup3\n        /* \"#utility.yul\":10371:10385   */\n      sub\n        /* \"#utility.yul\":10364:10368   */\n      0x40\n        /* \"#utility.yul\":10359:10362   */\n      dup7\n        /* \"#utility.yul\":10355:10369   */\n      add\n        /* \"#utility.yul\":10348:10386   */\n      mstore\n        /* \"#utility.yul\":10407:10480   */\n      tag_273\n        /* \"#utility.yul\":10475:10479   */\n      dup3\n        /* \"#utility.yul\":10461:10473   */\n      dup3\n        /* \"#utility.yul\":10407:10480   */\n      tag_136\n      jump\t// in\n    tag_273:\n        /* \"#utility.yul\":10399:10480   */\n      swap2\n      pop\n        /* \"#utility.yul\":10249:10491   */\n      pop\n        /* \"#utility.yul\":10582:10586   */\n      0x60\n        /* \"#utility.yul\":10575:10580   */\n      dup4\n        /* \"#utility.yul\":10571:10587   */\n      add\n        /* \"#utility.yul\":10565:10588   */\n      mload\n        /* \"#utility.yul\":10635:10638   */\n      dup5\n        /* \"#utility.yul\":10629:10633   */\n      dup3\n        /* \"#utility.yul\":10625:10639   */\n      sub\n        /* \"#utility.yul\":10618:10622   */\n      0x60\n        /* \"#utility.yul\":10613:10616   */\n      dup7\n        /* \"#utility.yul\":10609:10623   */\n      add\n        /* \"#utility.yul\":10602:10640   */\n      mstore\n        /* \"#utility.yul\":10661:10734   */\n      tag_274\n        /* \"#utility.yul\":10729:10733   */\n      dup3\n        /* \"#utility.yul\":10715:10727   */\n      dup3\n        /* \"#utility.yul\":10661:10734   */\n      tag_136\n      jump\t// in\n    tag_274:\n        /* \"#utility.yul\":10653:10734   */\n      swap2\n      pop\n        /* \"#utility.yul\":10501:10745   */\n      pop\n        /* \"#utility.yul\":10832:10836   */\n      0x80\n        /* \"#utility.yul\":10825:10830   */\n      dup4\n        /* \"#utility.yul\":10821:10837   */\n      add\n        /* \"#utility.yul\":10815:10838   */\n      mload\n        /* \"#utility.yul\":10851:10914   */\n      tag_275\n        /* \"#utility.yul\":10908:10912   */\n      0x80\n        /* \"#utility.yul\":10903:10906   */\n      dup7\n        /* \"#utility.yul\":10899:10913   */\n      add\n        /* \"#utility.yul\":10885:10897   */\n      dup3\n        /* \"#utility.yul\":10851:10914   */\n      tag_137\n      jump\t// in\n    tag_275:\n        /* \"#utility.yul\":10755:10924   */\n      pop\n        /* \"#utility.yul\":10941:10945   */\n      dup1\n        /* \"#utility.yul\":10934:10945   */\n      swap2\n      pop\n        /* \"#utility.yul\":9849:10951   */\n      pop\n        /* \"#utility.yul\":9727:10951   */\n      swap3\n      swap2\n      pop\n      pop\n      jump\t// out\n        /* \"#utility.yul\":10957:11326   */\n    tag_39:\n        /* \"#utility.yul\":11098:11102   */\n      0x00\n        /* \"#utility.yul\":11136:11138   */\n      0x20\n        /* \"#utility.yul\":11125:11134   */\n      dup3\n        /* \"#utility.yul\":11121:11139   */\n      add\n        /* \"#utility.yul\":11113:11139   */\n      swap1\n      pop\n        /* \"#utility.yul\":11185:11194   */\n      dup2\n        /* \"#utility.yul\":11179:11183   */\n      dup2\n        /* \"#utility.yul\":11175:11195   */\n      sub\n        /* \"#utility.yul\":11171:11172   */\n      0x00\n        /* \"#utility.yul\":11160:11169   */\n      dup4\n        /* \"#utility.yul\":11156:11173   */\n      add\n        /* \"#utility.yul\":11149:11196   */\n      mstore\n        /* \"#utility.yul\":11213:11319   */\n      tag_277\n        /* \"#utility.yul\":11314:11318   */\n      dup2\n        /* \"#utility.yul\":11305:11311   */\n      dup5\n        /* \"#utility.yul\":11213:11319   */\n      tag_138\n      jump\t// in\n    tag_277:\n        /* \"#utility.yul\":11205:11319   */\n      swap1\n      pop\n        /* \"#utility.yul\":10957:11326   */\n      swap3\n      swap2\n      pop\n      pop\n      jump\t// out\n        /* \"#utility.yul\":11332:11512   */\n    tag_139:\n        /* \"#utility.yul\":11380:11457   */\n      0x4e487b7100000000000000000000000000000000000000000000000000000000\n        /* \"#utility.yul\":11377:11378   */\n      0x00\n        /* \"#utility.yul\":11370:11458   */\n      mstore\n        /* \"#utility.yul\":11477:11481   */\n      0x22\n        /* \"#utility.yul\":11474:11475   */\n      0x04\n        /* \"#utility.yul\":11467:11482   */\n      mstore\n        /* \"#utility.yul\":11501:11505   */\n      0x24\n        /* \"#utility.yul\":11498:11499   */\n      0x00\n        /* \"#utility.yul\":11491:11506   */\n      revert\n        /* \"#utility.yul\":11518:11838   */\n    tag_46:\n        /* \"#utility.yul\":11562:11568   */\n      0x00\n        /* \"#utility.yul\":11599:11600   */\n      0x02\n        /* \"#utility.yul\":11593:11597   */\n      dup3\n        /* \"#utility.yul\":11589:11601   */\n      div\n        /* \"#utility.yul\":11579:11601   */\n      swap1\n      pop\n        /* \"#utility.yul\":11646:11647   */\n      0x01\n        /* \"#utility.yul\":11640:11644   */\n      dup3\n        /* \"#utility.yul\":11636:11648   */\n      and\n        /* \"#utility.yul\":11667:11685   */\n      dup1\n        /* \"#utility.yul\":11657:11738   */\n      tag_280\n      jumpi\n        /* \"#utility.yul\":11723:11727   */\n      0x7f\n        /* \"#utility.yul\":11715:11721   */\n      dup3\n        /* \"#utility.yul\":11711:11728   */\n      and\n        /* \"#utility.yul\":11701:11728   */\n      swap2\n      pop\n        /* \"#utility.yul\":11657:11738   */\n    tag_280:\n        /* \"#utility.yul\":11785:11787   */\n      0x20\n        /* \"#utility.yul\":11777:11783   */\n      dup3\n        /* \"#utility.yul\":11774:11788   */\n      lt\n        /* \"#utility.yul\":11754:11772   */\n      dup2\n        /* \"#utility.yul\":11751:11789   */\n      sub\n        /* \"#utility.yul\":11748:11832   */\n      tag_281\n      jumpi\n        /* \"#utility.yul\":11804:11822   */\n      tag_282\n      tag_139\n      jump\t// in\n    tag_282:\n        /* \"#utility.yul\":11748:11832   */\n    tag_281:\n        /* \"#utility.yul\":11569:11838   */\n      pop\n        /* \"#utility.yul\":11518:11838   */\n      swap2\n      swap1\n      pop\n      jump\t// out\n        /* \"#utility.yul\":11844:11985   */\n    tag_140:\n        /* \"#utility.yul\":11893:11897   */\n      0x00\n        /* \"#utility.yul\":11916:11919   */\n      dup2\n        /* \"#utility.yul\":11908:11919   */\n      swap1\n      pop\n        /* \"#utility.yul\":11939:11942   */\n      dup2\n        /* \"#utility.yul\":11936:11937   */\n      0x00\n        /* \"#utility.yul\":11929:11943   */\n      mstore\n        /* \"#utility.yul\":11973:11977   */\n      0x20\n        /* \"#utility.yul\":11970:11971   */\n      0x00\n        /* \"#utility.yul\":11960:11978   */\n      keccak256\n        /* \"#utility.yul\":11952:11978   */\n      swap1\n      pop\n        /* \"#utility.yul\":11844:11985   */\n      swap2\n      swap1\n      pop\n      jump\t// out\n        /* \"#utility.yul\":11991:12084   */\n    tag_141:\n        /* \"#utility.yul\":12028:12034   */\n      0x00\n        /* \"#utility.yul\":12075:12077   */\n      0x20\n        /* \"#utility.yul\":12070:12072   */\n      0x1f\n        /* \"#utility.yul\":12063:12068   */\n      dup4\n        /* \"#utility.yul\":12059:12073   */\n      add\n        /* \"#utility.yul\":12055:12078   */\n      div\n        /* \"#utility.yul\":12045:12078   */\n      swap1\n      pop\n        /* \"#utility.yul\":11991:12084   */\n      swap2\n      swap1\n      pop\n      jump\t// out\n        /* \"#utility.yul\":12090:12197   */\n    tag_142:\n        /* \"#utility.yul\":12134:12142   */\n      0x00\n        /* \"#utility.yul\":12184:12189   */\n      dup3\n        /* \"#utility.yul\":12178:12182   */\n      dup3\n        /* \"#utility.yul\":12174:12190   */\n      shl\n        /* \"#utility.yul\":12153:12190   */\n      swap1\n      pop\n        /* \"#utility.yul\":12090:12197   */\n      swap3\n      swap2\n      pop\n      pop\n      jump\t// out\n        /* \"#utility.yul\":12203:12596   */\n    tag_143:\n        /* \"#utility.yul\":12272:12278   */\n      0x00\n        /* \"#utility.yul\":12322:12323   */\n      0x08\n        /* \"#utility.yul\":12310:12320   */\n      dup4\n        /* \"#utility.yul\":12306:12324   */\n      mul\n        /* \"#utility.yul\":12345:12442   */\n      tag_287\n        /* \"#utility.yul\":12375:12441   */\n      0xffffffffffffffffffffffffffffffffffffffffffffffffffffffffffffffff\n        /* \"#utility.yul\":12364:12373   */\n      dup3\n        /* \"#utility.yul\":12345:12442   */\n      tag_142\n      jump\t// in\n    tag_287:\n        /* \"#utility.yul\":12463:12502   */\n      tag_288\n        /* \"#utility.yul\":12493:12501   */\n      dup7\n        /* \"#utility.yul\":12482:12491   */\n      dup4\n        /* \"#utility.yul\":12463:12502   */\n      tag_142\n      jump\t// in\n    tag_288:\n        /* \"#utility.yul\":12451:12502   */\n      swap6\n      pop\n        /* \"#utility.yul\":12535:12539   */\n      dup1\n        /* \"#utility.yul\":12531:12540   */\n      not\n        /* \"#utility.yul\":12524:12529   */\n      dup5\n        /* \"#utility.yul\":12520:12541   */\n      and\n        /* \"#utility.yul\":12511:12541   */\n      swap4\n      pop\n        /* \"#utility.yul\":12584:12588   */\n      dup1\n        /* \"#utility.yul\":12574:12582   */\n      dup7\n        /* \"#utility.yul\":12570:12589   */\n      and\n        /* \"#utility.yul\":12563:12568   */\n      dup5\n        /* \"#utility.yul\":12560:12590   */\n      or\n        /* \"#utility.yul\":12550:12590   */\n      swap3\n      pop\n        /* \"#utility.yul\":12279:12596   */\n      pop\n      pop\n        /* \"#utility.yul\":12203:12596   */\n      swap4\n      swap3\n      pop\n      pop\n      pop\n      jump\t// out\n        /* \"#utility.yul\":12602:12662   */\n    tag_144:\n        /* \"#utility.yul\":12630:12633   */\n      0x00\n        /* \"#utility.yul\":12651:12656   */\n      dup2\n        /* \"#utility.yul\":12644:12656   */\n      swap1\n      pop\n        /* \"#utility.yul\":12602:12662   */\n      swap2\n      swap1\n      pop\n      jump\t// out\n        /* \"#utility.yul\":12668:12810   */\n    tag_145:\n        /* \"#utility.yul\":12718:12727   */\n      0x00\n        /* \"#utility.yul\":12751:12804   */\n      tag_291\n        /* \"#utility.yul\":12769:12803   */\n      tag_292\n        /* \"#utility.yul\":12778:12802   */\n      tag_293\n        /* \"#utility.yul\":12796:12801   */\n      dup5\n        /* \"#utility.yul\":12778:12802   */\n      tag_131\n      jump\t// in\n    tag_293:\n        /* \"#utility.yul\":12769:12803   */\n      tag_144\n      jump\t// in\n    tag_292:\n        /* \"#utility.yul\":12751:12804   */\n      tag_131\n      jump\t// in\n    tag_291:\n        /* \"#utility.yul\":12738:12804   */\n      swap1\n      pop\n        /* \"#utility.yul\":12668:12810   */\n      swap2\n      swap1\n      pop\n      jump\t// out\n        /* \"#utility.yul\":12816:12891   */\n    tag_146:\n        /* \"#utility.yul\":12859:12862   */\n      0x00\n        /* \"#utility.yul\":12880:12885   */\n      dup2\n        /* \"#utility.yul\":12873:12885   */\n      swap1\n      pop\n        /* \"#utility.yul\":12816:12891   */\n      swap2\n      swap1\n      pop\n      jump\t// out\n        /* \"#utility.yul\":12897:13166   */\n    tag_147:\n        /* \"#utility.yul\":13007:13046   */\n      tag_296\n        /* \"#utility.yul\":13038:13045   */\n      dup4\n        /* \"#utility.yul\":13007:13046   */\n      tag_145\n      jump\t// in\n    tag_296:\n        /* \"#utility.yul\":13068:13159   */\n      tag_297\n        /* \"#utility.yul\":13117:13158   */\n      tag_298\n        /* \"#utility.yul\":13141:13157   */\n      dup3\n        /* \"#utility.yul\":13117:13158   */\n      tag_146\n      jump\t// in\n    tag_298:\n        /* \"#utility.yul\":13109:13115   */\n      dup5\n        /* \"#utility.yul\":13102:13106   */\n      dup5\n        /* \"#utility.yul\":13096:13107   */\n      sload\n        /* \"#utility.yul\":13068:13159   */\n      tag_143\n      jump\t// in\n    tag_297:\n        /* \"#utility.yul\":13062:13066   */\n      dup3\n        /* \"#utility.yul\":13055:13160   */\n      sstore\n        /* \"#utility.yul\":12973:13166   */\n      pop\n        /* \"#utility.yul\":12897:13166   */\n      pop\n      pop\n      pop\n      jump\t// out\n        /* \"#utility.yul\":13172:13245   */\n    tag_148:\n        /* \"#utility.yul\":13217:13220   */\n      0x00\n        /* \"#utility.yul\":13172:13245   */\n      swap1\n      jump\t// out\n        /* \"#utility.yul\":13251:13440   */\n    tag_149:\n        /* \"#utility.yul\":13328:13360   */\n      tag_301\n      tag_148\n      jump\t// in\n    tag_301:\n        /* \"#utility.yul\":13369:13434   */\n      tag_302\n        /* \"#utility.yul\":13427:13433   */\n      dup2\n        /* \"#utility.yul\":13419:13425   */\n      dup5\n        /* \"#utility.yul\":13413:13417   */\n      dup5\n        /* \"#utility.yul\":13369:13434   */\n      tag_147\n      jump\t// in\n    tag_302:\n        /* \"#utility.yul\":13304:13440   */\n      pop\n        /* \"#utility.yul\":13251:13440   */\n      pop\n      pop\n      jump\t// out\n        /* \"#utility.yul\":13446:13632   */\n    tag_150:\n        /* \"#utility.yul\":13506:13626   */\n    tag_304:\n        /* \"#utility.yul\":13523:13526   */\n      dup2\n        /* \"#utility.yul\":13516:13521   */\n      dup2\n        /* \"#utility.yul\":13513:13527   */\n      lt\n        /* \"#utility.yul\":13506:13626   */\n      iszero\n      tag_306\n      jumpi\n        /* \"#utility.yul\":13577:13616   */\n      tag_307\n        /* \"#utility.yul\":13614:13615   */\n      0x00\n        /* \"#utility.yul\":13607:13612   */\n      dup3\n        /* \"#utility.yul\":13577:13616   */\n      tag_149\n      jump\t// in\n    tag_307:\n        /* \"#utility.yul\":13550:13551   */\n      0x01\n        /* \"#utility.yul\":13543:13548   */\n      dup2\n        /* \"#utility.yul\":13539:13552   */\n      add\n        /* \"#utility.yul\":13530:13552   */\n      swap1\n      pop\n        /* \"#utility.yul\":13506:13626   */\n      jump(tag_304)\n    tag_306:\n        /* \"#utility.yul\":13446:13632   */\n      pop\n      pop\n      jump\t// out\n        /* \"#utility.yul\":13638:14181   */\n    tag_151:\n        /* \"#utility.yul\":13739:13741   */\n      0x1f\n        /* \"#utility.yul\":13734:13737   */\n      dup3\n        /* \"#utility.yul\":13731:13742   */\n      gt\n        /* \"#utility.yul\":13728:14174   */\n      iszero\n      tag_309\n      jumpi\n        /* \"#utility.yul\":13773:13811   */\n      tag_310\n        /* \"#utility.yul\":13805:13810   */\n      dup2\n        /* \"#utility.yul\":13773:13811   */\n      tag_140\n      jump\t// in\n    tag_310:\n        /* \"#utility.yul\":13857:13886   */\n      tag_311\n        /* \"#utility.yul\":13875:13885   */\n      dup5\n        /* \"#utility.yul\":13857:13886   */\n      tag_141\n      jump\t// in\n    tag_311:\n        /* \"#utility.yul\":13847:13855   */\n      dup2\n        /* \"#utility.yul\":13843:13887   */\n      add\n        /* \"#utility.yul\":14040:14042   */\n      0x20\n        /* \"#utility.yul\":14028:14038   */\n      dup6\n        /* \"#utility.yul\":14025:14043   */\n      lt\n        /* \"#utility.yul\":14022:14071   */\n      iszero\n      tag_312\n      jumpi\n        /* \"#utility.yul\":14061:14069   */\n      dup2\n        /* \"#utility.yul\":14046:14069   */\n      swap1\n      pop\n        /* \"#utility.yul\":14022:14071   */\n    tag_312:\n        /* \"#utility.yul\":14084:14164   */\n      tag_313\n        /* \"#utility.yul\":14140:14162   */\n      tag_314\n        /* \"#utility.yul\":14158:14161   */\n      dup6\n        /* \"#utility.yul\":14140:14162   */\n      tag_141\n      jump\t// in\n    tag_314:\n        /* \"#utility.yul\":14130:14138   */\n      dup4\n        /* \"#utility.yul\":14126:14163   */\n      add\n        /* \"#utility.yul\":14113:14124   */\n      dup3\n        /* \"#utility.yul\":14084:14164   */\n      tag_150\n      jump\t// in\n    tag_313:\n        /* \"#utility.yul\":13743:14174   */\n      pop\n      pop\n        /* \"#utility.yul\":13728:14174   */\n    tag_309:\n        /* \"#utility.yul\":13638:14181   */\n      pop\n      pop\n      pop\n      jump\t// out\n        /* \"#utility.yul\":14187:14304   */\n    tag_152:\n        /* \"#utility.yul\":14241:14249   */\n      0x00\n        /* \"#utility.yul\":14291:14296   */\n      dup3\n        /* \"#utility.yul\":14285:14289   */\n      dup3\n        /* \"#utility.yul\":14281:14297   */\n      shr\n        /* \"#utility.yul\":14260:14297   */\n      swap1\n      pop\n        /* \"#utility.yul\":14187:14304   */\n      swap3\n      swap2\n      pop\n      pop\n      jump\t// out\n        /* \"#utility.yul\":14310:14479   */\n    tag_153:\n        /* \"#utility.yul\":14354:14360   */\n      0x00\n        /* \"#utility.yul\":14387:14438   */\n      tag_317\n        /* \"#utility.yul\":14435:14436   */\n      0x00\n        /* \"#utility.yul\":14431:14437   */\n      not\n        /* \"#utility.yul\":14423:14428   */\n      dup5\n        /* \"#utility.yul\":14420:14421   */\n      0x08\n        /* \"#utility.yul\":14416:14429   */\n      mul\n        /* \"#utility.yul\":14387:14438   */\n      tag_152\n      jump\t// in\n    tag_317:\n        /* \"#utility.yul\":14383:14439   */\n      not\n        /* \"#utility.yul\":14468:14472   */\n      dup1\n        /* \"#utility.yul\":14462:14466   */\n      dup4\n        /* \"#utility.yul\":14458:14473   */\n      and\n        /* \"#utility.yul\":14448:14473   */\n      swap2\n      pop\n        /* \"#utility.yul\":14361:14479   */\n      pop\n        /* \"#utility.yul\":14310:14479   */\n      swap3\n      swap2\n      pop\n      pop\n      jump\t// out\n        /* \"#utility.yul\":14484:14779   */\n    tag_154:\n        /* \"#utility.yul\":14560:14564   */\n      0x00\n        /* \"#utility.yul\":14706:14735   */\n      tag_319\n        /* \"#utility.yul\":14731:14734   */\n      dup4\n        /* \"#utility.yul\":14725:14729   */\n      dup4\n        /* \"#utility.yul\":14706:14735   */\n      tag_153\n      jump\t// in\n    tag_319:\n        /* \"#utility.yul\":14698:14735   */\n      swap2\n      pop\n        /* \"#utility.yul\":14768:14771   */\n      dup3\n        /* \"#utility.yul\":14765:14766   */\n      0x02\n        /* \"#utility.yul\":14761:14772   */\n      mul\n        /* \"#utility.yul\":14755:14759   */\n      dup3\n        /* \"#utility.yul\":14752:14773   */\n      or\n        /* \"#utility.yul\":14744:14773   */\n      swap1\n      pop\n        /* \"#utility.yul\":14484:14779   */\n      swap3\n      swap2\n      pop\n      pop\n      jump\t// out\n        /* \"#utility.yul\":14784:16179   */\n    tag_58:\n        /* \"#utility.yul\":14901:14938   */\n      tag_321\n        /* \"#utility.yul\":14934:14937   */\n      dup3\n        /* \"#utility.yul\":14901:14938   */\n      tag_123\n      jump\t// in\n    tag_321:\n        /* \"#utility.yul\":15003:15021   */\n      0xffffffffffffffff\n        /* \"#utility.yul\":14995:15001   */\n      dup2\n        /* \"#utility.yul\":14992:15022   */\n      gt\n        /* \"#utility.yul\":14989:15045   */\n      iszero\n      tag_322\n      jumpi\n        /* \"#utility.yul\":15025:15043   */\n      tag_323\n      tag_116\n      jump\t// in\n    tag_323:\n        /* \"#utility.yul\":14989:15045   */\n    tag_322:\n        /* \"#utility.yul\":15069:15107   */\n      tag_324\n        /* \"#utility.yul\":15101:15105   */\n      dup3\n        /* \"#utility.yul\":15095:15106   */\n      sload\n        /* \"#utility.yul\":15069:15107   */\n      tag_46\n      jump\t// in\n    tag_324:\n        /* \"#utility.yul\":15154:15221   */\n      tag_325\n        /* \"#utility.yul\":15214:15220   */\n      dup3\n        /* \"#utility.yul\":15206:15212   */\n      dup3\n        /* \"#utility.yul\":15200:15204   */\n      dup6\n        /* \"#utility.yul\":15154:15221   */\n      tag_151\n      jump\t// in\n    tag_325:\n        /* \"#utility.yul\":15248:15249   */\n      0x00\n        /* \"#utility.yul\":15272:15276   */\n      0x20\n        /* \"#utility.yul\":15259:15276   */\n      swap1\n      pop\n        /* \"#utility.yul\":15304:15306   */\n      0x1f\n        /* \"#utility.yul\":15296:15302   */\n      dup4\n        /* \"#utility.yul\":15293:15307   */\n      gt\n        /* \"#utility.yul\":15321:15322   */\n      0x01\n        /* \"#utility.yul\":15316:15934   */\n      dup2\n      eq\n      tag_327\n      jumpi\n        /* \"#utility.yul\":15978:15979   */\n      0x00\n        /* \"#utility.yul\":15995:16001   */\n      dup5\n        /* \"#utility.yul\":15992:16069   */\n      iszero\n      tag_328\n      jumpi\n        /* \"#utility.yul\":16044:16053   */\n      dup3\n        /* \"#utility.yul\":16039:16042   */\n      dup8\n        /* \"#utility.yul\":16035:16054   */\n      add\n        /* \"#utility.yul\":16029:16055   */\n      mload\n        /* \"#utility.yul\":16020:16055   */\n      swap1\n      pop\n        /* \"#utility.yul\":15992:16069   */\n    tag_328:\n        /* \"#utility.yul\":16095:16162   */\n      tag_329\n        /* \"#utility.yul\":16155:16161   */\n      dup6\n        /* \"#utility.yul\":16148:16153   */\n      dup3\n        /* \"#utility.yul\":16095:16162   */\n      tag_154\n      jump\t// in\n    tag_329:\n        /* \"#utility.yul\":16089:16093   */\n      dup7\n        /* \"#utility.yul\":16082:16163   */\n      sstore\n        /* \"#utility.yul\":15951:16173   */\n      pop\n        /* \"#utility.yul\":15286:16173   */\n      jump(tag_326)\n        /* \"#utility.yul\":15316:15934   */\n    tag_327:\n        /* \"#utility.yul\":15368:15372   */\n      0x1f\n        /* \"#utility.yul\":15364:15373   */\n      not\n        /* \"#utility.yul\":15356:15362   */\n      dup5\n        /* \"#utility.yul\":15352:15374   */\n      and\n        /* \"#utility.yul\":15402:15439   */\n      tag_330\n        /* \"#utility.yul\":15434:15438   */\n      dup7\n        /* \"#utility.yul\":15402:15439   */\n      tag_140\n      jump\t// in\n    tag_330:\n        /* \"#utility.yul\":15461:15462   */\n      0x00\n        /* \"#utility.yul\":15475:15683   */\n    tag_331:\n        /* \"#utility.yul\":15489:15496   */\n      dup3\n        /* \"#utility.yul\":15486:15487   */\n      dup2\n        /* \"#utility.yul\":15483:15497   */\n      lt\n        /* \"#utility.yul\":15475:15683   */\n      iszero\n      tag_333\n      jumpi\n        /* \"#utility.yul\":15568:15577   */\n      dup5\n        /* \"#utility.yul\":15563:15566   */\n      dup10\n        /* \"#utility.yul\":15559:15578   */\n      add\n        /* \"#utility.yul\":15553:15579   */\n      mload\n        /* \"#utility.yul\":15545:15551   */\n      dup3\n        /* \"#utility.yul\":15538:15580   */\n      sstore\n        /* \"#utility.yul\":15619:15620   */\n      0x01\n        /* \"#utility.yul\":15611:15617   */\n      dup3\n        /* \"#utility.yul\":15607:15621   */\n      add\n        /* \"#utility.yul\":15597:15621   */\n      swap2\n      pop\n        /* \"#utility.yul\":15666:15668   */\n      0x20\n        /* \"#utility.yul\":15655:15664   */\n      dup6\n        /* \"#utility.yul\":15651:15669   */\n      add\n        /* \"#utility.yul\":15638:15669   */\n      swap5\n      pop\n        /* \"#utility.yul\":15512:15516   */\n      0x20\n        /* \"#utility.yul\":15509:15510   */\n      dup2\n        /* \"#utility.yul\":15505:15517   */\n      add\n        /* \"#utility.yul\":15500:15517   */\n      swap1\n      pop\n        /* \"#utility.yul\":15475:15683   */\n      jump(tag_331)\n    tag_333:\n        /* \"#utility.yul\":15711:15717   */\n      dup7\n        /* \"#utility.yul\":15702:15709   */\n      dup4\n        /* \"#utility.yul\":15699:15718   */\n      lt\n        /* \"#utility.yul\":15696:15875   */\n      iszero\n      tag_334\n      jumpi\n        /* \"#utility.yul\":15769:15778   */\n      dup5\n        /* \"#utility.yul\":15764:15767   */\n      dup10\n        /* \"#utility.yul\":15760:15779   */\n      add\n        /* \"#utility.yul\":15754:15780   */\n      mload\n        /* \"#utility.yul\":15812:15860   */\n      tag_335\n        /* \"#utility.yul\":15854:15858   */\n      0x1f\n        /* \"#utility.yul\":15846:15852   */\n      dup10\n        /* \"#utility.yul\":15842:15859   */\n      and\n        /* \"#utility.yul\":15831:15840   */\n      dup3\n        /* \"#utility.yul\":15812:15860   */\n      tag_153\n      jump\t// in\n    tag_335:\n        /* \"#utility.yul\":15804:15810   */\n      dup4\n        /* \"#utility.yul\":15797:15861   */\n      sstore\n        /* \"#utility.yul\":15719:15875   */\n      pop\n        /* \"#utility.yul\":15696:15875   */\n    tag_334:\n        /* \"#utility.yul\":15921:15922   */\n      0x01\n        /* \"#utility.yul\":15917:15918   */\n      0x02\n        /* \"#utility.yul\":15909:15915   */\n      dup9\n        /* \"#utility.yul\":15905:15919   */\n      mul\n        /* \"#utility.yul\":15901:15923   */\n      add\n        /* \"#utility.yul\":15895:15899   */\n      dup9\n        /* \"#utility.yul\":15888:15924   */\n      sstore\n        /* \"#utility.yul\":15323:15934   */\n      pop\n      pop\n      pop\n        /* \"#utility.yul\":15286:16173   */\n    tag_326:\n      pop\n        /* \"#utility.yul\":14876:16179   */\n      pop\n      pop\n      pop\n        /* \"#utility.yul\":14784:16179   */\n      pop\n      pop\n      jump\t// out\n        /* \"#utility.yul\":16185:16264   */\n    tag_155:\n        /* \"#utility.yul\":16224:16231   */\n      0x00\n        /* \"#utility.yul\":16253:16258   */\n      dup2\n        /* \"#utility.yul\":16242:16258   */\n      swap1\n      pop\n        /* \"#utility.yul\":16185:16264   */\n      swap2\n      swap1\n      pop\n      jump\t// out\n        /* \"#utility.yul\":16270:16427   */\n    tag_156:\n        /* \"#utility.yul\":16375:16420   */\n      tag_338\n        /* \"#utility.yul\":16395:16419   */\n      tag_339\n        /* \"#utility.yul\":16413:16418   */\n      dup3\n        /* \"#utility.yul\":16395:16419   */\n      tag_131\n      jump\t// in\n    tag_339:\n        /* \"#utility.yul\":16375:16420   */\n      tag_155\n      jump\t// in\n    tag_338:\n        /* \"#utility.yul\":16370:16373   */\n      dup3\n        /* \"#utility.yul\":16363:16421   */\n      mstore\n        /* \"#utility.yul\":16270:16427   */\n      pop\n      pop\n      jump\t// out\n        /* \"#utility.yul\":16433:16527   */\n    tag_157:\n        /* \"#utility.yul\":16466:16474   */\n      0x00\n        /* \"#utility.yul\":16514:16519   */\n      dup2\n        /* \"#utility.yul\":16510:16512   */\n      0x60\n        /* \"#utility.yul\":16506:16520   */\n      shl\n        /* \"#utility.yul\":16485:16520   */\n      swap1\n      pop\n        /* \"#utility.yul\":16433:16527   */\n      swap2\n      swap1\n      pop\n      jump\t// out\n        /* \"#utility.yul\":16533:16627   */\n    tag_158:\n        /* \"#utility.yul\":16572:16579   */\n      0x00\n        /* \"#utility.yul\":16601:16621   */\n      tag_342\n        /* \"#utility.yul\":16615:16620   */\n      dup3\n        /* \"#utility.yul\":16601:16621   */\n      tag_157\n      jump\t// in\n    tag_342:\n        /* \"#utility.yul\":16590:16621   */\n      swap1\n      pop\n        /* \"#utility.yul\":16533:16627   */\n      swap2\n      swap1\n      pop\n      jump\t// out\n        /* \"#utility.yul\":16633:16733   */\n    tag_159:\n        /* \"#utility.yul\":16672:16679   */\n      0x00\n        /* \"#utility.yul\":16701:16727   */\n      tag_344\n        /* \"#utility.yul\":16721:16726   */\n      dup3\n        /* \"#utility.yul\":16701:16727   */\n      tag_158\n      jump\t// in\n    tag_344:\n        /* \"#utility.yul\":16690:16727   */\n      swap1\n      pop\n        /* \"#utility.yul\":16633:16733   */\n      swap2\n      swap1\n      pop\n      jump\t// out\n        /* \"#utility.yul\":16739:16896   */\n    tag_160:\n        /* \"#utility.yul\":16844:16889   */\n      tag_346\n        /* \"#utility.yul\":16864:16888   */\n      tag_347\n        /* \"#utility.yul\":16882:16887   */\n      dup3\n        /* \"#utility.yul\":16864:16888   */\n      tag_129\n      jump\t// in\n    tag_347:\n        /* \"#utility.yul\":16844:16889   */\n      tag_159\n      jump\t// in\n    tag_346:\n        /* \"#utility.yul\":16839:16842   */\n      dup3\n        /* \"#utility.yul\":16832:16890   */\n      mstore\n        /* \"#utility.yul\":16739:16896   */\n      pop\n      pop\n      jump\t// out\n        /* \"#utility.yul\":16902:17299   */\n    tag_106:\n        /* \"#utility.yul\":17042:17045   */\n      0x00\n        /* \"#utility.yul\":17057:17132   */\n      tag_349\n        /* \"#utility.yul\":17128:17131   */\n      dup3\n        /* \"#utility.yul\":17119:17125   */\n      dup6\n        /* \"#utility.yul\":17057:17132   */\n      tag_156\n      jump\t// in\n    tag_349:\n        /* \"#utility.yul\":17157:17159   */\n      0x20\n        /* \"#utility.yul\":17152:17155   */\n      dup3\n        /* \"#utility.yul\":17148:17160   */\n      add\n        /* \"#utility.yul\":17141:17160   */\n      swap2\n      pop\n        /* \"#utility.yul\":17170:17245   */\n      tag_350\n        /* \"#utility.yul\":17241:17244   */\n      dup3\n        /* \"#utility.yul\":17232:17238   */\n      dup5\n        /* \"#utility.yul\":17170:17245   */\n      tag_160\n      jump\t// in\n    tag_350:\n        /* \"#utility.yul\":17270:17272   */\n      0x14\n        /* \"#utility.yul\":17265:17268   */\n      dup3\n        /* \"#utility.yul\":17261:17273   */\n      add\n        /* \"#utility.yul\":17254:17273   */\n      swap2\n      pop\n        /* \"#utility.yul\":17290:17293   */\n      dup2\n        /* \"#utility.yul\":17283:17293   */\n      swap1\n      pop\n        /* \"#utility.yul\":16902:17299   */\n      swap4\n      swap3\n      pop\n      pop\n      pop\n      jump\t// out\n\n    auxdata: 0xa264697066735822122054d38c108f461064441a670c82441030b65b341511e430dd439546278c40c37164736f6c63430008160033\n}\n",
				"bytecode": {
					"linkReferences": {},
					"object": "608060405234801562000010575f80fd5b506040516200166a3803806200166a8339818101604052810190620000369190620000e1565b805f806101000a81548173ffffffffffffffffffffffffffffffffffffffff021916908373ffffffffffffffffffffffffffffffffffffffff1602179055505062000111565b5f80fd5b5f73ffffffffffffffffffffffffffffffffffffffff82169050919050565b5f620000ab8262000080565b9050919050565b620000bd816200009f565b8114620000c8575f80fd5b50565b5f81519050620000db81620000b2565b92915050565b5f60208284031215620000f957620000f86200007c565b5b5f6200010884828501620000cb565b91505092915050565b61154b806200011f5f395ff3fe608060405234801561000f575f80fd5b506004361061007b575f3560e01c80638da5cb5b116100595780638da5cb5b146100ff5780638fbd0dcf1461011d578063a789838914610139578063d408f8ae146101695761007b565b80630ca761661461007f578063416005711461009b5780637e485fcf146100cb575b5f80fd5b61009960048036038101906100949190610db2565b610199565b005b6100b560048036038101906100b09190610e3a565b6103b0565b6040516100c29190610f0e565b60405180910390f35b6100e560048036038101906100e09190610f2e565b610488565b6040516100f6959493929190610fbf565b60405180910390f35b6101076105f1565b604051610114919061101e565b60405180910390f35b61013760048036038101906101329190611037565b610614565b005b610153600480360381019061014e9190610f2e565b610776565b604051610160919061119c565b60405180910390f35b610183600480360381019061017e9190610f2e565b610981565b604051610190919061119c565b60405180910390f35b5f60015f856fffffffffffffffffffffffffffffffff19166fffffffffffffffffffffffffffffffff191681526020019081526020015f206040518060a00160405290815f82015f9054906101000a900460801b6fffffffffffffffffffffffffffffffff19166fffffffffffffffffffffffffffffffff19168152602001600182015f9054906101000a900473ffffffffffffffffffffffffffffffffffffffff1673ffffffffffffffffffffffffffffffffffffffff1673ffffffffffffffffffffffffffffffffffffffff16815260200160028201805461027c906111e9565b80601f01602080910402602001604051908101604052809291908181526020018280546102a8906111e9565b80156102f35780601f106102ca576101008083540402835291602001916102f3565b820191905f5260205f20905b8154815290600101906020018083116102d657829003601f168201915b5050505050815260200160038201805461030c906111e9565b80601f0160208091040260200160405190810160405280929190818152602001828054610338906111e9565b80156103835780601f1061035a57610100808354040283529160200191610383565b820191905f5260205f20905b81548152906001019060200180831161036657829003601f168201915b50505050508152602001600482015481525050905082816040018190525081816060018190525050505050565b60608160015f856fffffffffffffffffffffffffffffffff19166fffffffffffffffffffffffffffffffff191681526020019081526020015f2060030190816103f991906113b6565b8054610404906111e9565b80601f0160208091040260200160405190810160405280929190818152602001828054610430906111e9565b801561047b5780601f106104525761010080835404028352916020019161047b565b820191905f5260205f20905b81548152906001019060200180831161045e57829003601f168201915b5050505050905092915050565b6001602052805f5260405f205f91509050805f015f9054906101000a900460801b90806001015f9054906101000a900473ffffffffffffffffffffffffffffffffffffffff16908060020180546104de906111e9565b80601f016020809104026020016040519081016040528092919081815260200182805461050a906111e9565b80156105555780601f1061052c57610100808354040283529160200191610555565b820191905f5260205f20905b81548152906001019060200180831161053857829003601f168201915b50505050509080600301805461056a906111e9565b80601f0160208091040260200160405190810160405280929190818152602001828054610596906111e9565b80156105e15780601f106105b8576101008083540402835291602001916105e1565b820191905f5260205f20905b8154815290600101906020018083116105c457829003601f168201915b5050505050908060040154905085565b5f8054906101000a900473ffffffffffffffffffffffffffffffffffffffff1681565b5f61061d610b8c565b90506040518060a00160405280826fffffffffffffffffffffffffffffffff191681526020015f8054906101000a900473ffffffffffffffffffffffffffffffffffffffff1673ffffffffffffffffffffffffffffffffffffffff1681526020018481526020018381526020014281525060015f836fffffffffffffffffffffffffffffffff19166fffffffffffffffffffffffffffffffff191681526020019081526020015f205f820151815f015f6101000a8154816fffffffffffffffffffffffffffffffff021916908360801c02179055506020820151816001015f6101000a81548173ffffffffffffffffffffffffffffffffffffffff021916908373ffffffffffffffffffffffffffffffffffffffff160217905550604082015181600201908161074d91906113b6565b50606082015181600301908161076391906113b6565b5060808201518160040155905050505050565b61077e610bbb565b60015f836fffffffffffffffffffffffffffffffff19166fffffffffffffffffffffffffffffffff191681526020019081526020015f206040518060a00160405290815f82015f9054906101000a900460801b6fffffffffffffffffffffffffffffffff19166fffffffffffffffffffffffffffffffff19168152602001600182015f9054906101000a900473ffffffffffffffffffffffffffffffffffffffff1673ffffffffffffffffffffffffffffffffffffffff1673ffffffffffffffffffffffffffffffffffffffff168152602001600282018054610860906111e9565b80601f016020809104026020016040519081016040528092919081815260200182805461088c906111e9565b80156108d75780601f106108ae576101008083540402835291602001916108d7565b820191905f5260205f20905b8154815290600101906020018083116108ba57829003601f168201915b505050505081526020016003820180546108f0906111e9565b80601f016020809104026020016040519081016040528092919081815260200182805461091c906111e9565b80156109675780601f1061093e57610100808354040283529160200191610967565b820191905f5260205f20905b81548152906001019060200180831161094a57829003601f168201915b505050505081526020016004820154815250509050919050565b610989610bbb565b60015f836fffffffffffffffffffffffffffffffff19166fffffffffffffffffffffffffffffffff191681526020019081526020015f206040518060a00160405290815f82015f9054906101000a900460801b6fffffffffffffffffffffffffffffffff19166fffffffffffffffffffffffffffffffff19168152602001600182015f9054906101000a900473ffffffffffffffffffffffffffffffffffffffff1673ffffffffffffffffffffffffffffffffffffffff1673ffffffffffffffffffffffffffffffffffffffff168152602001600282018054610a6b906111e9565b80601f0160208091040260200160405190810160405280929190818152602001828054610a97906111e9565b8015610ae25780601f10610ab957610100808354040283529160200191610ae2565b820191905f5260205f20905b815481529060010190602001808311610ac557829003601f168201915b50505050508152602001600382018054610afb906111e9565b80601f0160208091040260200160405190810160405280929190818152602001828054610b27906111e9565b8015610b725780601f10610b4957610100808354040283529160200191610b72565b820191905f5260205f20905b815481529060010190602001808311610b5557829003601f168201915b505050505081526020016004820154815250509050919050565b5f4233604051602001610ba09291906114ea565b60405160208183030381529060405280519060200120905090565b6040518060a001604052805f6fffffffffffffffffffffffffffffffff191681526020015f73ffffffffffffffffffffffffffffffffffffffff16815260200160608152602001606081526020015f81525090565b5f604051905090565b5f80fd5b5f80fd5b5f7fffffffffffffffffffffffffffffffff0000000000000000000000000000000082169050919050565b610c5581610c21565b8114610c5f575f80fd5b50565b5f81359050610c7081610c4c565b92915050565b5f80fd5b5f80fd5b5f601f19601f8301169050919050565b7f4e487b71000000000000000000000000000000000000000000000000000000005f52604160045260245ffd5b610cc482610c7e565b810181811067ffffffffffffffff82111715610ce357610ce2610c8e565b5b80604052505050565b5f610cf5610c10565b9050610d018282610cbb565b919050565b5f67ffffffffffffffff821115610d2057610d1f610c8e565b5b610d2982610c7e565b9050602081019050919050565b828183375f83830152505050565b5f610d56610d5184610d06565b610cec565b905082815260208101848484011115610d7257610d71610c7a565b5b610d7d848285610d36565b509392505050565b5f82601f830112610d9957610d98610c76565b5b8135610da9848260208601610d44565b91505092915050565b5f805f60608486031215610dc957610dc8610c19565b5b5f610dd686828701610c62565b935050602084013567ffffffffffffffff811115610df757610df6610c1d565b5b610e0386828701610d85565b925050604084013567ffffffffffffffff811115610e2457610e23610c1d565b5b610e3086828701610d85565b9150509250925092565b5f8060408385031215610e5057610e4f610c19565b5b5f610e5d85828601610c62565b925050602083013567ffffffffffffffff811115610e7e57610e7d610c1d565b5b610e8a85828601610d85565b9150509250929050565b5f81519050919050565b5f82825260208201905092915050565b5f5b83811015610ecb578082015181840152602081019050610eb0565b5f8484015250505050565b5f610ee082610e94565b610eea8185610e9e565b9350610efa818560208601610eae565b610f0381610c7e565b840191505092915050565b5f6020820190508181035f830152610f268184610ed6565b905092915050565b5f60208284031215610f4357610f42610c19565b5b5f610f5084828501610c62565b91505092915050565b610f6281610c21565b82525050565b5f73ffffffffffffffffffffffffffffffffffffffff82169050919050565b5f610f9182610f68565b9050919050565b610fa181610f87565b82525050565b5f819050919050565b610fb981610fa7565b82525050565b5f60a082019050610fd25f830188610f59565b610fdf6020830187610f98565b8181036040830152610ff18186610ed6565b905081810360608301526110058185610ed6565b90506110146080830184610fb0565b9695505050505050565b5f6020820190506110315f830184610f98565b92915050565b5f806040838503121561104d5761104c610c19565b5b5f83013567ffffffffffffffff81111561106a57611069610c1d565b5b61107685828601610d85565b925050602083013567ffffffffffffffff81111561109757611096610c1d565b5b6110a385828601610d85565b9150509250929050565b6110b681610c21565b82525050565b6110c581610f87565b82525050565b5f82825260208201905092915050565b5f6110e582610e94565b6110ef81856110cb565b93506110ff818560208601610eae565b61110881610c7e565b840191505092915050565b61111c81610fa7565b82525050565b5f60a083015f8301516111375f8601826110ad565b50602083015161114a60208601826110bc565b506040830151848203604086015261116282826110db565b9150506060830151848203606086015261117c82826110db565b91505060808301516111916080860182611113565b508091505092915050565b5f6020820190508181035f8301526111b48184611122565b905092915050565b7f4e487b71000000000000000000000000000000000000000000000000000000005f52602260045260245ffd5b5f600282049050600182168061120057607f821691505b602082108103611213576112126111bc565b5b50919050565b5f819050815f5260205f209050919050565b5f6020601f8301049050919050565b5f82821b905092915050565b5f600883026112757fffffffffffffffffffffffffffffffffffffffffffffffffffffffffffffffff8261123a565b61127f868361123a565b95508019841693508086168417925050509392505050565b5f819050919050565b5f6112ba6112b56112b084610fa7565b611297565b610fa7565b9050919050565b5f819050919050565b6112d3836112a0565b6112e76112df826112c1565b848454611246565b825550505050565b5f90565b6112fb6112ef565b6113068184846112ca565b505050565b5b818110156113295761131e5f826112f3565b60018101905061130c565b5050565b601f82111561136e5761133f81611219565b6113488461122b565b81016020851015611357578190505b61136b6113638561122b565b83018261130b565b50505b505050565b5f82821c905092915050565b5f61138e5f1984600802611373565b1980831691505092915050565b5f6113a6838361137f565b9150826002028217905092915050565b6113bf82610e94565b67ffffffffffffffff8111156113d8576113d7610c8e565b5b6113e282546111e9565b6113ed82828561132d565b5f60209050601f83116001811461141e575f841561140c578287015190505b611416858261139b565b86555061147d565b601f19841661142c86611219565b5f5b828110156114535784890151825560018201915060208501945060208101905061142e565b86831015611470578489015161146c601f89168261137f565b8355505b6001600288020188555050505b505050505050565b5f819050919050565b61149f61149a82610fa7565b611485565b82525050565b5f8160601b9050919050565b5f6114bb826114a5565b9050919050565b5f6114cc826114b1565b9050919050565b6114e46114df82610f87565b6114c2565b82525050565b5f6114f5828561148e565b60208201915061150582846114d3565b601482019150819050939250505056fea264697066735822122054d38c108f461064441a670c82441030b65b341511e430dd439546278c40c37164736f6c63430008160033",
					"opcodes": "PUSH1 0x80 PUSH1 0x40 MSTORE CALLVALUE DUP1 ISZERO PUSH3 0x10 JUMPI PUSH0 DUP1 REVERT JUMPDEST POP PUSH1 0x40 MLOAD PUSH3 0x166A CODESIZE SUB DUP1 PUSH3 0x166A DUP4 CODECOPY DUP2 DUP2 ADD PUSH1 0x40 MSTORE DUP2 ADD SWAP1 PUSH3 0x36 SWAP2 SWAP1 PUSH3 0xE1 JUMP JUMPDEST DUP1 PUSH0 DUP1 PUSH2 0x100 EXP DUP2 SLOAD DUP2 PUSH20 0xFFFFFFFFFFFFFFFFFFFFFFFFFFFFFFFFFFFFFFFF MUL NOT AND SWAP1 DUP4 PUSH20 0xFFFFFFFFFFFFFFFFFFFFFFFFFFFFFFFFFFFFFFFF AND MUL OR SWAP1 SSTORE POP POP PUSH3 0x111 JUMP JUMPDEST PUSH0 DUP1 REVERT JUMPDEST PUSH0 PUSH20 0xFFFFFFFFFFFFFFFFFFFFFFFFFFFFFFFFFFFFFFFF DUP3 AND SWAP1 POP SWAP2 SWAP1 POP JUMP JUMPDEST PUSH0 PUSH3 0xAB DUP3 PUSH3 0x80 JUMP JUMPDEST SWAP1 POP SWAP2 SWAP1 POP JUMP JUMPDEST PUSH3 0xBD DUP2 PUSH3 0x9F JUMP JUMPDEST DUP2 EQ PUSH3 0xC8 JUMPI PUSH0 DUP1 REVERT JUMPDEST POP JUMP JUMPDEST PUSH0 DUP2 MLOAD SWAP1 POP PUSH3 0xDB DUP2 PUSH3 0xB2 JUMP JUMPDEST SWAP3 SWAP2 POP POP JUMP JUMPDEST PUSH0 PUSH1 0x20 DUP3 DUP5 SUB SLT ISZERO PUSH3 0xF9 JUMPI PUSH3 0xF8 PUSH3 0x7C JUMP JUMPDEST JUMPDEST PUSH0 PUSH3 0x108 DUP5 DUP3 DUP6 ADD PUSH3 0xCB JUMP JUMPDEST SWAP2 POP POP SWAP3 SWAP2 POP POP JUMP JUMPDEST PUSH2 0x154B DUP1 PUSH3 0x11F PUSH0 CODECOPY PUSH0 RETURN INVALID PUSH1 0x80 PUSH1 0x40 MSTORE CALLVALUE DUP1 ISZERO PUSH2 0xF JUMPI PUSH0 DUP1 REVERT JUMPDEST POP PUSH1 0x4 CALLDATASIZE LT PUSH2 0x7B JUMPI PUSH0 CALLDATALOAD PUSH1 0xE0 SHR DUP1 PUSH4 0x8DA5CB5B GT PUSH2 0x59 JUMPI DUP1 PUSH4 0x8DA5CB5B EQ PUSH2 0xFF JUMPI DUP1 PUSH4 0x8FBD0DCF EQ PUSH2 0x11D JUMPI DUP1 PUSH4 0xA7898389 EQ PUSH2 0x139 JUMPI DUP1 PUSH4 0xD408F8AE EQ PUSH2 0x169 JUMPI PUSH2 0x7B JUMP JUMPDEST DUP1 PUSH4 0xCA76166 EQ PUSH2 0x7F JUMPI DUP1 PUSH4 0x41600571 EQ PUSH2 0x9B JUMPI DUP1 PUSH4 0x7E485FCF EQ PUSH2 0xCB JUMPI JUMPDEST PUSH0 DUP1 REVERT JUMPDEST PUSH2 0x99 PUSH1 0x4 DUP1 CALLDATASIZE SUB DUP2 ADD SWAP1 PUSH2 0x94 SWAP2 SWAP1 PUSH2 0xDB2 JUMP JUMPDEST PUSH2 0x199 JUMP JUMPDEST STOP JUMPDEST PUSH2 0xB5 PUSH1 0x4 DUP1 CALLDATASIZE SUB DUP2 ADD SWAP1 PUSH2 0xB0 SWAP2 SWAP1 PUSH2 0xE3A JUMP JUMPDEST PUSH2 0x3B0 JUMP JUMPDEST PUSH1 0x40 MLOAD PUSH2 0xC2 SWAP2 SWAP1 PUSH2 0xF0E JUMP JUMPDEST PUSH1 0x40 MLOAD DUP1 SWAP2 SUB SWAP1 RETURN JUMPDEST PUSH2 0xE5 PUSH1 0x4 DUP1 CALLDATASIZE SUB DUP2 ADD SWAP1 PUSH2 0xE0 SWAP2 SWAP1 PUSH2 0xF2E JUMP JUMPDEST PUSH2 0x488 JUMP JUMPDEST PUSH1 0x40 MLOAD PUSH2 0xF6 SWAP6 SWAP5 SWAP4 SWAP3 SWAP2 SWAP1 PUSH2 0xFBF JUMP JUMPDEST PUSH1 0x40 MLOAD DUP1 SWAP2 SUB SWAP1 RETURN JUMPDEST PUSH2 0x107 PUSH2 0x5F1 JUMP JUMPDEST PUSH1 0x40 MLOAD PUSH2 0x114 SWAP2 SWAP1 PUSH2 0x101E JUMP JUMPDEST PUSH1 0x40 MLOAD DUP1 SWAP2 SUB SWAP1 RETURN JUMPDEST PUSH2 0x137 PUSH1 0x4 DUP1 CALLDATASIZE SUB DUP2 ADD SWAP1 PUSH2 0x132 SWAP2 SWAP1 PUSH2 0x1037 JUMP JUMPDEST PUSH2 0x614 JUMP JUMPDEST STOP JUMPDEST PUSH2 0x153 PUSH1 0x4 DUP1 CALLDATASIZE SUB DUP2 ADD SWAP1 PUSH2 0x14E SWAP2 SWAP1 PUSH2 0xF2E JUMP JUMPDEST PUSH2 0x776 JUMP JUMPDEST PUSH1 0x40 MLOAD PUSH2 0x160 SWAP2 SWAP1 PUSH2 0x119C JUMP JUMPDEST PUSH1 0x40 MLOAD DUP1 SWAP2 SUB SWAP1 RETURN JUMPDEST PUSH2 0x183 PUSH1 0x4 DUP1 CALLDATASIZE SUB DUP2 ADD SWAP1 PUSH2 0x17E SWAP2 SWAP1 PUSH2 0xF2E JUMP JUMPDEST PUSH2 0x981 JUMP JUMPDEST PUSH1 0x40 MLOAD PUSH2 0x190 SWAP2 SWAP1 PUSH2 0x119C JUMP JUMPDEST PUSH1 0x40 MLOAD DUP1 SWAP2 SUB SWAP1 RETURN JUMPDEST PUSH0 PUSH1 0x1 PUSH0 DUP6 PUSH16 0xFFFFFFFFFFFFFFFFFFFFFFFFFFFFFFFF NOT AND PUSH16 0xFFFFFFFFFFFFFFFFFFFFFFFFFFFFFFFF NOT AND DUP2 MSTORE PUSH1 0x20 ADD SWAP1 DUP2 MSTORE PUSH1 0x20 ADD PUSH0 KECCAK256 PUSH1 0x40 MLOAD DUP1 PUSH1 0xA0 ADD PUSH1 0x40 MSTORE SWAP1 DUP2 PUSH0 DUP3 ADD PUSH0 SWAP1 SLOAD SWAP1 PUSH2 0x100 EXP SWAP1 DIV PUSH1 0x80 SHL PUSH16 0xFFFFFFFFFFFFFFFFFFFFFFFFFFFFFFFF NOT AND PUSH16 0xFFFFFFFFFFFFFFFFFFFFFFFFFFFFFFFF NOT AND DUP2 MSTORE PUSH1 0x20 ADD PUSH1 0x1 DUP3 ADD PUSH0 SWAP1 SLOAD SWAP1 PUSH2 0x100 EXP SWAP1 DIV PUSH20 0xFFFFFFFFFFFFFFFFFFFFFFFFFFFFFFFFFFFFFFFF AND PUSH20 0xFFFFFFFFFFFFFFFFFFFFFFFFFFFFFFFFFFFFFFFF AND PUSH20 0xFFFFFFFFFFFFFFFFFFFFFFFFFFFFFFFFFFFFFFFF AND DUP2 MSTORE PUSH1 0x20 ADD PUSH1 0x2 DUP3 ADD DUP1 SLOAD PUSH2 0x27C SWAP1 PUSH2 0x11E9 JUMP JUMPDEST DUP1 PUSH1 0x1F ADD PUSH1 0x20 DUP1 SWAP2 DIV MUL PUSH1 0x20 ADD PUSH1 0x40 MLOAD SWAP1 DUP2 ADD PUSH1 0x40 MSTORE DUP1 SWAP3 SWAP2 SWAP1 DUP2 DUP2 MSTORE PUSH1 0x20 ADD DUP3 DUP1 SLOAD PUSH2 0x2A8 SWAP1 PUSH2 0x11E9 JUMP JUMPDEST DUP1 ISZERO PUSH2 0x2F3 JUMPI DUP1 PUSH1 0x1F LT PUSH2 0x2CA JUMPI PUSH2 0x100 DUP1 DUP4 SLOAD DIV MUL DUP4 MSTORE SWAP2 PUSH1 0x20 ADD SWAP2 PUSH2 0x2F3 JUMP JUMPDEST DUP3 ADD SWAP2 SWAP1 PUSH0 MSTORE PUSH1 0x20 PUSH0 KECCAK256 SWAP1 JUMPDEST DUP2 SLOAD DUP2 MSTORE SWAP1 PUSH1 0x1 ADD SWAP1 PUSH1 0x20 ADD DUP1 DUP4 GT PUSH2 0x2D6 JUMPI DUP3 SWAP1 SUB PUSH1 0x1F AND DUP3 ADD SWAP2 JUMPDEST POP POP POP POP POP DUP2 MSTORE PUSH1 0x20 ADD PUSH1 0x3 DUP3 ADD DUP1 SLOAD PUSH2 0x30C SWAP1 PUSH2 0x11E9 JUMP JUMPDEST DUP1 PUSH1 0x1F ADD PUSH1 0x20 DUP1 SWAP2 DIV MUL PUSH1 0x20 ADD PUSH1 0x40 MLOAD SWAP1 DUP2 ADD PUSH1 0x40 MSTORE DUP1 SWAP3 SWAP2 SWAP1 DUP2 DUP2 MSTORE PUSH1 0x20 ADD DUP3 DUP1 SLOAD PUSH2 0x338 SWAP1 PUSH2 0x11E9 JUMP JUMPDEST DUP1 ISZERO PUSH2 0x383 JUMPI DUP1 PUSH1 0x1F LT PUSH2 0x35A JUMPI PUSH2 0x100 DUP1 DUP4 SLOAD DIV MUL DUP4 MSTORE SWAP2 PUSH1 0x20 ADD SWAP2 PUSH2 0x383 JUMP JUMPDEST DUP3 ADD SWAP2 SWAP1 PUSH0 MSTORE PUSH1 0x20 PUSH0 KECCAK256 SWAP1 JUMPDEST DUP2 SLOAD DUP2 MSTORE SWAP1 PUSH1 0x1 ADD SWAP1 PUSH1 0x20 ADD DUP1 DUP4 GT PUSH2 0x366 JUMPI DUP3 SWAP1 SUB PUSH1 0x1F AND DUP3 ADD SWAP2 JUMPDEST POP POP POP POP POP DUP2 MSTORE PUSH1 0x20 ADD PUSH1 0x4 DUP3 ADD SLOAD DUP2 MSTORE POP POP SWAP1 POP DUP3 DUP2 PUSH1 0x40 ADD DUP2 SWAP1 MSTORE POP DUP2 DUP2 PUSH1 0x60 ADD DUP2 SWAP1 MSTORE POP POP POP POP POP JUMP JUMPDEST PUSH1 0x60 DUP2 PUSH1 0x1 PUSH0 DUP6 PUSH16 0xFFFFFFFFFFFFFFFFFFFFFFFFFFFFFFFF NOT AND PUSH16 0xFFFFFFFFFFFFFFFFFFFFFFFFFFFFFFFF NOT AND DUP2 MSTORE PUSH1 0x20 ADD SWAP1 DUP2 MSTORE PUSH1 0x20 ADD PUSH0 KECCAK256 PUSH1 0x3 ADD SWAP1 DUP2 PUSH2 0x3F9 SWAP2 SWAP1 PUSH2 0x13B6 JUMP JUMPDEST DUP1 SLOAD PUSH2 0x404 SWAP1 PUSH2 0x11E9 JUMP JUMPDEST DUP1 PUSH1 0x1F ADD PUSH1 0x20 DUP1 SWAP2 DIV MUL PUSH1 0x20 ADD PUSH1 0x40 MLOAD SWAP1 DUP2 ADD PUSH1 0x40 MSTORE DUP1 SWAP3 SWAP2 SWAP1 DUP2 DUP2 MSTORE PUSH1 0x20 ADD DUP3 DUP1 SLOAD PUSH2 0x430 SWAP1 PUSH2 0x11E9 JUMP JUMPDEST DUP1 ISZERO PUSH2 0x47B JUMPI DUP1 PUSH1 0x1F LT PUSH2 0x452 JUMPI PUSH2 0x100 DUP1 DUP4 SLOAD DIV MUL DUP4 MSTORE SWAP2 PUSH1 0x20 ADD SWAP2 PUSH2 0x47B JUMP JUMPDEST DUP3 ADD SWAP2 SWAP1 PUSH0 MSTORE PUSH1 0x20 PUSH0 KECCAK256 SWAP1 JUMPDEST DUP2 SLOAD DUP2 MSTORE SWAP1 PUSH1 0x1 ADD SWAP1 PUSH1 0x20 ADD DUP1 DUP4 GT PUSH2 0x45E JUMPI DUP3 SWAP1 SUB PUSH1 0x1F AND DUP3 ADD SWAP2 JUMPDEST POP POP POP POP POP SWAP1 POP SWAP3 SWAP2 POP POP JUMP JUMPDEST PUSH1 0x1 PUSH1 0x20 MSTORE DUP1 PUSH0 MSTORE PUSH1 0x40 PUSH0 KECCAK256 PUSH0 SWAP2 POP SWAP1 POP DUP1 PUSH0 ADD PUSH0 SWAP1 SLOAD SWAP1 PUSH2 0x100 EXP SWAP1 DIV PUSH1 0x80 SHL SWAP1 DUP1 PUSH1 0x1 ADD PUSH0 SWAP1 SLOAD SWAP1 PUSH2 0x100 EXP SWAP1 DIV PUSH20 0xFFFFFFFFFFFFFFFFFFFFFFFFFFFFFFFFFFFFFFFF AND SWAP1 DUP1 PUSH1 0x2 ADD DUP1 SLOAD PUSH2 0x4DE SWAP1 PUSH2 0x11E9 JUMP JUMPDEST DUP1 PUSH1 0x1F ADD PUSH1 0x20 DUP1 SWAP2 DIV MUL PUSH1 0x20 ADD PUSH1 0x40 MLOAD SWAP1 DUP2 ADD PUSH1 0x40 MSTORE DUP1 SWAP3 SWAP2 SWAP1 DUP2 DUP2 MSTORE PUSH1 0x20 ADD DUP3 DUP1 SLOAD PUSH2 0x50A SWAP1 PUSH2 0x11E9 JUMP JUMPDEST DUP1 ISZERO PUSH2 0x555 JUMPI DUP1 PUSH1 0x1F LT PUSH2 0x52C JUMPI PUSH2 0x100 DUP1 DUP4 SLOAD DIV MUL DUP4 MSTORE SWAP2 PUSH1 0x20 ADD SWAP2 PUSH2 0x555 JUMP JUMPDEST DUP3 ADD SWAP2 SWAP1 PUSH0 MSTORE PUSH1 0x20 PUSH0 KECCAK256 SWAP1 JUMPDEST DUP2 SLOAD DUP2 MSTORE SWAP1 PUSH1 0x1 ADD SWAP1 PUSH1 0x20 ADD DUP1 DUP4 GT PUSH2 0x538 JUMPI DUP3 SWAP1 SUB PUSH1 0x1F AND DUP3 ADD SWAP2 JUMPDEST POP POP POP POP POP SWAP1 DUP1 PUSH1 0x3 ADD DUP1 SLOAD PUSH2 0x56A SWAP1 PUSH2 0x11E9 JUMP JUMPDEST DUP1 PUSH1 0x1F ADD PUSH1 0x20 DUP1 SWAP2 DIV MUL PUSH1 0x20 ADD PUSH1 0x40 MLOAD SWAP1 DUP2 ADD PUSH1 0x40 MSTORE DUP1 SWAP3 SWAP2 SWAP1 DUP2 DUP2 MSTORE PUSH1 0x20 ADD DUP3 DUP1 SLOAD PUSH2 0x596 SWAP1 PUSH2 0x11E9 JUMP JUMPDEST DUP1 ISZERO PUSH2 0x5E1 JUMPI DUP1 PUSH1 0x1F LT PUSH2 0x5B8 JUMPI PUSH2 0x100 DUP1 DUP4 SLOAD DIV MUL DUP4 MSTORE SWAP2 PUSH1 0x20 ADD SWAP2 PUSH2 0x5E1 JUMP JUMPDEST DUP3 ADD SWAP2 SWAP1 PUSH0 MSTORE PUSH1 0x20 PUSH0 KECCAK256 SWAP1 JUMPDEST DUP2 SLOAD DUP2 MSTORE SWAP1 PUSH1 0x1 ADD SWAP1 PUSH1 0x20 ADD DUP1 DUP4 GT PUSH2 0x5C4 JUMPI DUP3 SWAP1 SUB PUSH1 0x1F AND DUP3 ADD SWAP2 JUMPDEST POP POP POP POP POP SWAP1 DUP1 PUSH1 0x4 ADD SLOAD SWAP1 POP DUP6 JUMP JUMPDEST PUSH0 DUP1 SLOAD SWAP1 PUSH2 0x100 EXP SWAP1 DIV PUSH20 0xFFFFFFFFFFFFFFFFFFFFFFFFFFFFFFFFFFFFFFFF AND DUP2 JUMP JUMPDEST PUSH0 PUSH2 0x61D PUSH2 0xB8C JUMP JUMPDEST SWAP1 POP PUSH1 0x40 MLOAD DUP1 PUSH1 0xA0 ADD PUSH1 0x40 MSTORE DUP1 DUP3 PUSH16 0xFFFFFFFFFFFFFFFFFFFFFFFFFFFFFFFF NOT AND DUP2 MSTORE PUSH1 0x20 ADD PUSH0 DUP1 SLOAD SWAP1 PUSH2 0x100 EXP SWAP1 DIV PUSH20 0xFFFFFFFFFFFFFFFFFFFFFFFFFFFFFFFFFFFFFFFF AND PUSH20 0xFFFFFFFFFFFFFFFFFFFFFFFFFFFFFFFFFFFFFFFF AND DUP2 MSTORE PUSH1 0x20 ADD DUP5 DUP2 MSTORE PUSH1 0x20 ADD DUP4 DUP2 MSTORE PUSH1 0x20 ADD TIMESTAMP DUP2 MSTORE POP PUSH1 0x1 PUSH0 DUP4 PUSH16 0xFFFFFFFFFFFFFFFFFFFFFFFFFFFFFFFF NOT AND PUSH16 0xFFFFFFFFFFFFFFFFFFFFFFFFFFFFFFFF NOT AND DUP2 MSTORE PUSH1 0x20 ADD SWAP1 DUP2 MSTORE PUSH1 0x20 ADD PUSH0 KECCAK256 PUSH0 DUP3 ADD MLOAD DUP2 PUSH0 ADD PUSH0 PUSH2 0x100 EXP DUP2 SLOAD DUP2 PUSH16 0xFFFFFFFFFFFFFFFFFFFFFFFFFFFFFFFF MUL NOT AND SWAP1 DUP4 PUSH1 0x80 SHR MUL OR SWAP1 SSTORE POP PUSH1 0x20 DUP3 ADD MLOAD DUP2 PUSH1 0x1 ADD PUSH0 PUSH2 0x100 EXP DUP2 SLOAD DUP2 PUSH20 0xFFFFFFFFFFFFFFFFFFFFFFFFFFFFFFFFFFFFFFFF MUL NOT AND SWAP1 DUP4 PUSH20 0xFFFFFFFFFFFFFFFFFFFFFFFFFFFFFFFFFFFFFFFF AND MUL OR SWAP1 SSTORE POP PUSH1 0x40 DUP3 ADD MLOAD DUP2 PUSH1 0x2 ADD SWAP1 DUP2 PUSH2 0x74D SWAP2 SWAP1 PUSH2 0x13B6 JUMP JUMPDEST POP PUSH1 0x60 DUP3 ADD MLOAD DUP2 PUSH1 0x3 ADD SWAP1 DUP2 PUSH2 0x763 SWAP2 SWAP1 PUSH2 0x13B6 JUMP JUMPDEST POP PUSH1 0x80 DUP3 ADD MLOAD DUP2 PUSH1 0x4 ADD SSTORE SWAP1 POP POP POP POP POP JUMP JUMPDEST PUSH2 0x77E PUSH2 0xBBB JUMP JUMPDEST PUSH1 0x1 PUSH0 DUP4 PUSH16 0xFFFFFFFFFFFFFFFFFFFFFFFFFFFFFFFF NOT AND PUSH16 0xFFFFFFFFFFFFFFFFFFFFFFFFFFFFFFFF NOT AND DUP2 MSTORE PUSH1 0x20 ADD SWAP1 DUP2 MSTORE PUSH1 0x20 ADD PUSH0 KECCAK256 PUSH1 0x40 MLOAD DUP1 PUSH1 0xA0 ADD PUSH1 0x40 MSTORE SWAP1 DUP2 PUSH0 DUP3 ADD PUSH0 SWAP1 SLOAD SWAP1 PUSH2 0x100 EXP SWAP1 DIV PUSH1 0x80 SHL PUSH16 0xFFFFFFFFFFFFFFFFFFFFFFFFFFFFFFFF NOT AND PUSH16 0xFFFFFFFFFFFFFFFFFFFFFFFFFFFFFFFF NOT AND DUP2 MSTORE PUSH1 0x20 ADD PUSH1 0x1 DUP3 ADD PUSH0 SWAP1 SLOAD SWAP1 PUSH2 0x100 EXP SWAP1 DIV PUSH20 0xFFFFFFFFFFFFFFFFFFFFFFFFFFFFFFFFFFFFFFFF AND PUSH20 0xFFFFFFFFFFFFFFFFFFFFFFFFFFFFFFFFFFFFFFFF AND PUSH20 0xFFFFFFFFFFFFFFFFFFFFFFFFFFFFFFFFFFFFFFFF AND DUP2 MSTORE PUSH1 0x20 ADD PUSH1 0x2 DUP3 ADD DUP1 SLOAD PUSH2 0x860 SWAP1 PUSH2 0x11E9 JUMP JUMPDEST DUP1 PUSH1 0x1F ADD PUSH1 0x20 DUP1 SWAP2 DIV MUL PUSH1 0x20 ADD PUSH1 0x40 MLOAD SWAP1 DUP2 ADD PUSH1 0x40 MSTORE DUP1 SWAP3 SWAP2 SWAP1 DUP2 DUP2 MSTORE PUSH1 0x20 ADD DUP3 DUP1 SLOAD PUSH2 0x88C SWAP1 PUSH2 0x11E9 JUMP JUMPDEST DUP1 ISZERO PUSH2 0x8D7 JUMPI DUP1 PUSH1 0x1F LT PUSH2 0x8AE JUMPI PUSH2 0x100 DUP1 DUP4 SLOAD DIV MUL DUP4 MSTORE SWAP2 PUSH1 0x20 ADD SWAP2 PUSH2 0x8D7 JUMP JUMPDEST DUP3 ADD SWAP2 SWAP1 PUSH0 MSTORE PUSH1 0x20 PUSH0 KECCAK256 SWAP1 JUMPDEST DUP2 SLOAD DUP2 MSTORE SWAP1 PUSH1 0x1 ADD SWAP1 PUSH1 0x20 ADD DUP1 DUP4 GT PUSH2 0x8BA JUMPI DUP3 SWAP1 SUB PUSH1 0x1F AND DUP3 ADD SWAP2 JUMPDEST POP POP POP POP POP DUP2 MSTORE PUSH1 0x20 ADD PUSH1 0x3 DUP3 ADD DUP1 SLOAD PUSH2 0x8F0 SWAP1 PUSH2 0x11E9 JUMP JUMPDEST DUP1 PUSH1 0x1F ADD PUSH1 0x20 DUP1 SWAP2 DIV MUL PUSH1 0x20 ADD PUSH1 0x40 MLOAD SWAP1 DUP2 ADD PUSH1 0x40 MSTORE DUP1 SWAP3 SWAP2 SWAP1 DUP2 DUP2 MSTORE PUSH1 0x20 ADD DUP3 DUP1 SLOAD PUSH2 0x91C SWAP1 PUSH2 0x11E9 JUMP JUMPDEST DUP1 ISZERO PUSH2 0x967 JUMPI DUP1 PUSH1 0x1F LT PUSH2 0x93E JUMPI PUSH2 0x100 DUP1 DUP4 SLOAD DIV MUL DUP4 MSTORE SWAP2 PUSH1 0x20 ADD SWAP2 PUSH2 0x967 JUMP JUMPDEST DUP3 ADD SWAP2 SWAP1 PUSH0 MSTORE PUSH1 0x20 PUSH0 KECCAK256 SWAP1 JUMPDEST DUP2 SLOAD DUP2 MSTORE SWAP1 PUSH1 0x1 ADD SWAP1 PUSH1 0x20 ADD DUP1 DUP4 GT PUSH2 0x94A JUMPI DUP3 SWAP1 SUB PUSH1 0x1F AND DUP3 ADD SWAP2 JUMPDEST POP POP POP POP POP DUP2 MSTORE PUSH1 0x20 ADD PUSH1 0x4 DUP3 ADD SLOAD DUP2 MSTORE POP POP SWAP1 POP SWAP2 SWAP1 POP JUMP JUMPDEST PUSH2 0x989 PUSH2 0xBBB JUMP JUMPDEST PUSH1 0x1 PUSH0 DUP4 PUSH16 0xFFFFFFFFFFFFFFFFFFFFFFFFFFFFFFFF NOT AND PUSH16 0xFFFFFFFFFFFFFFFFFFFFFFFFFFFFFFFF NOT AND DUP2 MSTORE PUSH1 0x20 ADD SWAP1 DUP2 MSTORE PUSH1 0x20 ADD PUSH0 KECCAK256 PUSH1 0x40 MLOAD DUP1 PUSH1 0xA0 ADD PUSH1 0x40 MSTORE SWAP1 DUP2 PUSH0 DUP3 ADD PUSH0 SWAP1 SLOAD SWAP1 PUSH2 0x100 EXP SWAP1 DIV PUSH1 0x80 SHL PUSH16 0xFFFFFFFFFFFFFFFFFFFFFFFFFFFFFFFF NOT AND PUSH16 0xFFFFFFFFFFFFFFFFFFFFFFFFFFFFFFFF NOT AND DUP2 MSTORE PUSH1 0x20 ADD PUSH1 0x1 DUP3 ADD PUSH0 SWAP1 SLOAD SWAP1 PUSH2 0x100 EXP SWAP1 DIV PUSH20 0xFFFFFFFFFFFFFFFFFFFFFFFFFFFFFFFFFFFFFFFF AND PUSH20 0xFFFFFFFFFFFFFFFFFFFFFFFFFFFFFFFFFFFFFFFF AND PUSH20 0xFFFFFFFFFFFFFFFFFFFFFFFFFFFFFFFFFFFFFFFF AND DUP2 MSTORE PUSH1 0x20 ADD PUSH1 0x2 DUP3 ADD DUP1 SLOAD PUSH2 0xA6B SWAP1 PUSH2 0x11E9 JUMP JUMPDEST DUP1 PUSH1 0x1F ADD PUSH1 0x20 DUP1 SWAP2 DIV MUL PUSH1 0x20 ADD PUSH1 0x40 MLOAD SWAP1 DUP2 ADD PUSH1 0x40 MSTORE DUP1 SWAP3 SWAP2 SWAP1 DUP2 DUP2 MSTORE PUSH1 0x20 ADD DUP3 DUP1 SLOAD PUSH2 0xA97 SWAP1 PUSH2 0x11E9 JUMP JUMPDEST DUP1 ISZERO PUSH2 0xAE2 JUMPI DUP1 PUSH1 0x1F LT PUSH2 0xAB9 JUMPI PUSH2 0x100 DUP1 DUP4 SLOAD DIV MUL DUP4 MSTORE SWAP2 PUSH1 0x20 ADD SWAP2 PUSH2 0xAE2 JUMP JUMPDEST DUP3 ADD SWAP2 SWAP1 PUSH0 MSTORE PUSH1 0x20 PUSH0 KECCAK256 SWAP1 JUMPDEST DUP2 SLOAD DUP2 MSTORE SWAP1 PUSH1 0x1 ADD SWAP1 PUSH1 0x20 ADD DUP1 DUP4 GT PUSH2 0xAC5 JUMPI DUP3 SWAP1 SUB PUSH1 0x1F AND DUP3 ADD SWAP2 JUMPDEST POP POP POP POP POP DUP2 MSTORE PUSH1 0x20 ADD PUSH1 0x3 DUP3 ADD DUP1 SLOAD PUSH2 0xAFB SWAP1 PUSH2 0x11E9 JUMP JUMPDEST DUP1 PUSH1 0x1F ADD PUSH1 0x20 DUP1 SWAP2 DIV MUL PUSH1 0x20 ADD PUSH1 0x40 MLOAD SWAP1 DUP2 ADD PUSH1 0x40 MSTORE DUP1 SWAP3 SWAP2 SWAP1 DUP2 DUP2 MSTORE PUSH1 0x20 ADD DUP3 DUP1 SLOAD PUSH2 0xB27 SWAP1 PUSH2 0x11E9 JUMP JUMPDEST DUP1 ISZERO PUSH2 0xB72 JUMPI DUP1 PUSH1 0x1F LT PUSH2 0xB49 JUMPI PUSH2 0x100 DUP1 DUP4 SLOAD DIV MUL DUP4 MSTORE SWAP2 PUSH1 0x20 ADD SWAP2 PUSH2 0xB72 JUMP JUMPDEST DUP3 ADD SWAP2 SWAP1 PUSH0 MSTORE PUSH1 0x20 PUSH0 KECCAK256 SWAP1 JUMPDEST DUP2 SLOAD DUP2 MSTORE SWAP1 PUSH1 0x1 ADD SWAP1 PUSH1 0x20 ADD DUP1 DUP4 GT PUSH2 0xB55 JUMPI DUP3 SWAP1 SUB PUSH1 0x1F AND DUP3 ADD SWAP2 JUMPDEST POP POP POP POP POP DUP2 MSTORE PUSH1 0x20 ADD PUSH1 0x4 DUP3 ADD SLOAD DUP2 MSTORE POP POP SWAP1 POP SWAP2 SWAP1 POP JUMP JUMPDEST PUSH0 TIMESTAMP CALLER PUSH1 0x40 MLOAD PUSH1 0x20 ADD PUSH2 0xBA0 SWAP3 SWAP2 SWAP1 PUSH2 0x14EA JUMP JUMPDEST PUSH1 0x40 MLOAD PUSH1 0x20 DUP2 DUP4 SUB SUB DUP2 MSTORE SWAP1 PUSH1 0x40 MSTORE DUP1 MLOAD SWAP1 PUSH1 0x20 ADD KECCAK256 SWAP1 POP SWAP1 JUMP JUMPDEST PUSH1 0x40 MLOAD DUP1 PUSH1 0xA0 ADD PUSH1 0x40 MSTORE DUP1 PUSH0 PUSH16 0xFFFFFFFFFFFFFFFFFFFFFFFFFFFFFFFF NOT AND DUP2 MSTORE PUSH1 0x20 ADD PUSH0 PUSH20 0xFFFFFFFFFFFFFFFFFFFFFFFFFFFFFFFFFFFFFFFF AND DUP2 MSTORE PUSH1 0x20 ADD PUSH1 0x60 DUP2 MSTORE PUSH1 0x20 ADD PUSH1 0x60 DUP2 MSTORE PUSH1 0x20 ADD PUSH0 DUP2 MSTORE POP SWAP1 JUMP JUMPDEST PUSH0 PUSH1 0x40 MLOAD SWAP1 POP SWAP1 JUMP JUMPDEST PUSH0 DUP1 REVERT JUMPDEST PUSH0 DUP1 REVERT JUMPDEST PUSH0 PUSH32 0xFFFFFFFFFFFFFFFFFFFFFFFFFFFFFFFF00000000000000000000000000000000 DUP3 AND SWAP1 POP SWAP2 SWAP1 POP JUMP JUMPDEST PUSH2 0xC55 DUP2 PUSH2 0xC21 JUMP JUMPDEST DUP2 EQ PUSH2 0xC5F JUMPI PUSH0 DUP1 REVERT JUMPDEST POP JUMP JUMPDEST PUSH0 DUP2 CALLDATALOAD SWAP1 POP PUSH2 0xC70 DUP2 PUSH2 0xC4C JUMP JUMPDEST SWAP3 SWAP2 POP POP JUMP JUMPDEST PUSH0 DUP1 REVERT JUMPDEST PUSH0 DUP1 REVERT JUMPDEST PUSH0 PUSH1 0x1F NOT PUSH1 0x1F DUP4 ADD AND SWAP1 POP SWAP2 SWAP1 POP JUMP JUMPDEST PUSH32 0x4E487B7100000000000000000000000000000000000000000000000000000000 PUSH0 MSTORE PUSH1 0x41 PUSH1 0x4 MSTORE PUSH1 0x24 PUSH0 REVERT JUMPDEST PUSH2 0xCC4 DUP3 PUSH2 0xC7E JUMP JUMPDEST DUP2 ADD DUP2 DUP2 LT PUSH8 0xFFFFFFFFFFFFFFFF DUP3 GT OR ISZERO PUSH2 0xCE3 JUMPI PUSH2 0xCE2 PUSH2 0xC8E JUMP JUMPDEST JUMPDEST DUP1 PUSH1 0x40 MSTORE POP POP POP JUMP JUMPDEST PUSH0 PUSH2 0xCF5 PUSH2 0xC10 JUMP JUMPDEST SWAP1 POP PUSH2 0xD01 DUP3 DUP3 PUSH2 0xCBB JUMP JUMPDEST SWAP2 SWAP1 POP JUMP JUMPDEST PUSH0 PUSH8 0xFFFFFFFFFFFFFFFF DUP3 GT ISZERO PUSH2 0xD20 JUMPI PUSH2 0xD1F PUSH2 0xC8E JUMP JUMPDEST JUMPDEST PUSH2 0xD29 DUP3 PUSH2 0xC7E JUMP JUMPDEST SWAP1 POP PUSH1 0x20 DUP2 ADD SWAP1 POP SWAP2 SWAP1 POP JUMP JUMPDEST DUP3 DUP2 DUP4 CALLDATACOPY PUSH0 DUP4 DUP4 ADD MSTORE POP POP POP JUMP JUMPDEST PUSH0 PUSH2 0xD56 PUSH2 0xD51 DUP5 PUSH2 0xD06 JUMP JUMPDEST PUSH2 0xCEC JUMP JUMPDEST SWAP1 POP DUP3 DUP2 MSTORE PUSH1 0x20 DUP2 ADD DUP5 DUP5 DUP5 ADD GT ISZERO PUSH2 0xD72 JUMPI PUSH2 0xD71 PUSH2 0xC7A JUMP JUMPDEST JUMPDEST PUSH2 0xD7D DUP5 DUP3 DUP6 PUSH2 0xD36 JUMP JUMPDEST POP SWAP4 SWAP3 POP POP POP JUMP JUMPDEST PUSH0 DUP3 PUSH1 0x1F DUP4 ADD SLT PUSH2 0xD99 JUMPI PUSH2 0xD98 PUSH2 0xC76 JUMP JUMPDEST JUMPDEST DUP2 CALLDATALOAD PUSH2 0xDA9 DUP5 DUP3 PUSH1 0x20 DUP7 ADD PUSH2 0xD44 JUMP JUMPDEST SWAP2 POP POP SWAP3 SWAP2 POP POP JUMP JUMPDEST PUSH0 DUP1 PUSH0 PUSH1 0x60 DUP5 DUP7 SUB SLT ISZERO PUSH2 0xDC9 JUMPI PUSH2 0xDC8 PUSH2 0xC19 JUMP JUMPDEST JUMPDEST PUSH0 PUSH2 0xDD6 DUP7 DUP3 DUP8 ADD PUSH2 0xC62 JUMP JUMPDEST SWAP4 POP POP PUSH1 0x20 DUP5 ADD CALLDATALOAD PUSH8 0xFFFFFFFFFFFFFFFF DUP2 GT ISZERO PUSH2 0xDF7 JUMPI PUSH2 0xDF6 PUSH2 0xC1D JUMP JUMPDEST JUMPDEST PUSH2 0xE03 DUP7 DUP3 DUP8 ADD PUSH2 0xD85 JUMP JUMPDEST SWAP3 POP POP PUSH1 0x40 DUP5 ADD CALLDATALOAD PUSH8 0xFFFFFFFFFFFFFFFF DUP2 GT ISZERO PUSH2 0xE24 JUMPI PUSH2 0xE23 PUSH2 0xC1D JUMP JUMPDEST JUMPDEST PUSH2 0xE30 DUP7 DUP3 DUP8 ADD PUSH2 0xD85 JUMP JUMPDEST SWAP2 POP POP SWAP3 POP SWAP3 POP SWAP3 JUMP JUMPDEST PUSH0 DUP1 PUSH1 0x40 DUP4 DUP6 SUB SLT ISZERO PUSH2 0xE50 JUMPI PUSH2 0xE4F PUSH2 0xC19 JUMP JUMPDEST JUMPDEST PUSH0 PUSH2 0xE5D DUP6 DUP3 DUP7 ADD PUSH2 0xC62 JUMP JUMPDEST SWAP3 POP POP PUSH1 0x20 DUP4 ADD CALLDATALOAD PUSH8 0xFFFFFFFFFFFFFFFF DUP2 GT ISZERO PUSH2 0xE7E JUMPI PUSH2 0xE7D PUSH2 0xC1D JUMP JUMPDEST JUMPDEST PUSH2 0xE8A DUP6 DUP3 DUP7 ADD PUSH2 0xD85 JUMP JUMPDEST SWAP2 POP POP SWAP3 POP SWAP3 SWAP1 POP JUMP JUMPDEST PUSH0 DUP2 MLOAD SWAP1 POP SWAP2 SWAP1 POP JUMP JUMPDEST PUSH0 DUP3 DUP3 MSTORE PUSH1 0x20 DUP3 ADD SWAP1 POP SWAP3 SWAP2 POP POP JUMP JUMPDEST PUSH0 JUMPDEST DUP4 DUP2 LT ISZERO PUSH2 0xECB JUMPI DUP1 DUP3 ADD MLOAD DUP2 DUP5 ADD MSTORE PUSH1 0x20 DUP2 ADD SWAP1 POP PUSH2 0xEB0 JUMP JUMPDEST PUSH0 DUP5 DUP5 ADD MSTORE POP POP POP POP JUMP JUMPDEST PUSH0 PUSH2 0xEE0 DUP3 PUSH2 0xE94 JUMP JUMPDEST PUSH2 0xEEA DUP2 DUP6 PUSH2 0xE9E JUMP JUMPDEST SWAP4 POP PUSH2 0xEFA DUP2 DUP6 PUSH1 0x20 DUP7 ADD PUSH2 0xEAE JUMP JUMPDEST PUSH2 0xF03 DUP2 PUSH2 0xC7E JUMP JUMPDEST DUP5 ADD SWAP2 POP POP SWAP3 SWAP2 POP POP JUMP JUMPDEST PUSH0 PUSH1 0x20 DUP3 ADD SWAP1 POP DUP2 DUP2 SUB PUSH0 DUP4 ADD MSTORE PUSH2 0xF26 DUP2 DUP5 PUSH2 0xED6 JUMP JUMPDEST SWAP1 POP SWAP3 SWAP2 POP POP JUMP JUMPDEST PUSH0 PUSH1 0x20 DUP3 DUP5 SUB SLT ISZERO PUSH2 0xF43 JUMPI PUSH2 0xF42 PUSH2 0xC19 JUMP JUMPDEST JUMPDEST PUSH0 PUSH2 0xF50 DUP5 DUP3 DUP6 ADD PUSH2 0xC62 JUMP JUMPDEST SWAP2 POP POP SWAP3 SWAP2 POP POP JUMP JUMPDEST PUSH2 0xF62 DUP2 PUSH2 0xC21 JUMP JUMPDEST DUP3 MSTORE POP POP JUMP JUMPDEST PUSH0 PUSH20 0xFFFFFFFFFFFFFFFFFFFFFFFFFFFFFFFFFFFFFFFF DUP3 AND SWAP1 POP SWAP2 SWAP1 POP JUMP JUMPDEST PUSH0 PUSH2 0xF91 DUP3 PUSH2 0xF68 JUMP JUMPDEST SWAP1 POP SWAP2 SWAP1 POP JUMP JUMPDEST PUSH2 0xFA1 DUP2 PUSH2 0xF87 JUMP JUMPDEST DUP3 MSTORE POP POP JUMP JUMPDEST PUSH0 DUP2 SWAP1 POP SWAP2 SWAP1 POP JUMP JUMPDEST PUSH2 0xFB9 DUP2 PUSH2 0xFA7 JUMP JUMPDEST DUP3 MSTORE POP POP JUMP JUMPDEST PUSH0 PUSH1 0xA0 DUP3 ADD SWAP1 POP PUSH2 0xFD2 PUSH0 DUP4 ADD DUP9 PUSH2 0xF59 JUMP JUMPDEST PUSH2 0xFDF PUSH1 0x20 DUP4 ADD DUP8 PUSH2 0xF98 JUMP JUMPDEST DUP2 DUP2 SUB PUSH1 0x40 DUP4 ADD MSTORE PUSH2 0xFF1 DUP2 DUP7 PUSH2 0xED6 JUMP JUMPDEST SWAP1 POP DUP2 DUP2 SUB PUSH1 0x60 DUP4 ADD MSTORE PUSH2 0x1005 DUP2 DUP6 PUSH2 0xED6 JUMP JUMPDEST SWAP1 POP PUSH2 0x1014 PUSH1 0x80 DUP4 ADD DUP5 PUSH2 0xFB0 JUMP JUMPDEST SWAP7 SWAP6 POP POP POP POP POP POP JUMP JUMPDEST PUSH0 PUSH1 0x20 DUP3 ADD SWAP1 POP PUSH2 0x1031 PUSH0 DUP4 ADD DUP5 PUSH2 0xF98 JUMP JUMPDEST SWAP3 SWAP2 POP POP JUMP JUMPDEST PUSH0 DUP1 PUSH1 0x40 DUP4 DUP6 SUB SLT ISZERO PUSH2 0x104D JUMPI PUSH2 0x104C PUSH2 0xC19 JUMP JUMPDEST JUMPDEST PUSH0 DUP4 ADD CALLDATALOAD PUSH8 0xFFFFFFFFFFFFFFFF DUP2 GT ISZERO PUSH2 0x106A JUMPI PUSH2 0x1069 PUSH2 0xC1D JUMP JUMPDEST JUMPDEST PUSH2 0x1076 DUP6 DUP3 DUP7 ADD PUSH2 0xD85 JUMP JUMPDEST SWAP3 POP POP PUSH1 0x20 DUP4 ADD CALLDATALOAD PUSH8 0xFFFFFFFFFFFFFFFF DUP2 GT ISZERO PUSH2 0x1097 JUMPI PUSH2 0x1096 PUSH2 0xC1D JUMP JUMPDEST JUMPDEST PUSH2 0x10A3 DUP6 DUP3 DUP7 ADD PUSH2 0xD85 JUMP JUMPDEST SWAP2 POP POP SWAP3 POP SWAP3 SWAP1 POP JUMP JUMPDEST PUSH2 0x10B6 DUP2 PUSH2 0xC21 JUMP JUMPDEST DUP3 MSTORE POP POP JUMP JUMPDEST PUSH2 0x10C5 DUP2 PUSH2 0xF87 JUMP JUMPDEST DUP3 MSTORE POP POP JUMP JUMPDEST PUSH0 DUP3 DUP3 MSTORE PUSH1 0x20 DUP3 ADD SWAP1 POP SWAP3 SWAP2 POP POP JUMP JUMPDEST PUSH0 PUSH2 0x10E5 DUP3 PUSH2 0xE94 JUMP JUMPDEST PUSH2 0x10EF DUP2 DUP6 PUSH2 0x10CB JUMP JUMPDEST SWAP4 POP PUSH2 0x10FF DUP2 DUP6 PUSH1 0x20 DUP7 ADD PUSH2 0xEAE JUMP JUMPDEST PUSH2 0x1108 DUP2 PUSH2 0xC7E JUMP JUMPDEST DUP5 ADD SWAP2 POP POP SWAP3 SWAP2 POP POP JUMP JUMPDEST PUSH2 0x111C DUP2 PUSH2 0xFA7 JUMP JUMPDEST DUP3 MSTORE POP POP JUMP JUMPDEST PUSH0 PUSH1 0xA0 DUP4 ADD PUSH0 DUP4 ADD MLOAD PUSH2 0x1137 PUSH0 DUP7 ADD DUP3 PUSH2 0x10AD JUMP JUMPDEST POP PUSH1 0x20 DUP4 ADD MLOAD PUSH2 0x114A PUSH1 0x20 DUP7 ADD DUP3 PUSH2 0x10BC JUMP JUMPDEST POP PUSH1 0x40 DUP4 ADD MLOAD DUP5 DUP3 SUB PUSH1 0x40 DUP7 ADD MSTORE PUSH2 0x1162 DUP3 DUP3 PUSH2 0x10DB JUMP JUMPDEST SWAP2 POP POP PUSH1 0x60 DUP4 ADD MLOAD DUP5 DUP3 SUB PUSH1 0x60 DUP7 ADD MSTORE PUSH2 0x117C DUP3 DUP3 PUSH2 0x10DB JUMP JUMPDEST SWAP2 POP POP PUSH1 0x80 DUP4 ADD MLOAD PUSH2 0x1191 PUSH1 0x80 DUP7 ADD DUP3 PUSH2 0x1113 JUMP JUMPDEST POP DUP1 SWAP2 POP POP SWAP3 SWAP2 POP POP JUMP JUMPDEST PUSH0 PUSH1 0x20 DUP3 ADD SWAP1 POP DUP2 DUP2 SUB PUSH0 DUP4 ADD MSTORE PUSH2 0x11B4 DUP2 DUP5 PUSH2 0x1122 JUMP JUMPDEST SWAP1 POP SWAP3 SWAP2 POP POP JUMP JUMPDEST PUSH32 0x4E487B7100000000000000000000000000000000000000000000000000000000 PUSH0 MSTORE PUSH1 0x22 PUSH1 0x4 MSTORE PUSH1 0x24 PUSH0 REVERT JUMPDEST PUSH0 PUSH1 0x2 DUP3 DIV SWAP1 POP PUSH1 0x1 DUP3 AND DUP1 PUSH2 0x1200 JUMPI PUSH1 0x7F DUP3 AND SWAP2 POP JUMPDEST PUSH1 0x20 DUP3 LT DUP2 SUB PUSH2 0x1213 JUMPI PUSH2 0x1212 PUSH2 0x11BC JUMP JUMPDEST JUMPDEST POP SWAP2 SWAP1 POP JUMP JUMPDEST PUSH0 DUP2 SWAP1 POP DUP2 PUSH0 MSTORE PUSH1 0x20 PUSH0 KECCAK256 SWAP1 POP SWAP2 SWAP1 POP JUMP JUMPDEST PUSH0 PUSH1 0x20 PUSH1 0x1F DUP4 ADD DIV SWAP1 POP SWAP2 SWAP1 POP JUMP JUMPDEST PUSH0 DUP3 DUP3 SHL SWAP1 POP SWAP3 SWAP2 POP POP JUMP JUMPDEST PUSH0 PUSH1 0x8 DUP4 MUL PUSH2 0x1275 PUSH32 0xFFFFFFFFFFFFFFFFFFFFFFFFFFFFFFFFFFFFFFFFFFFFFFFFFFFFFFFFFFFFFFFF DUP3 PUSH2 0x123A JUMP JUMPDEST PUSH2 0x127F DUP7 DUP4 PUSH2 0x123A JUMP JUMPDEST SWAP6 POP DUP1 NOT DUP5 AND SWAP4 POP DUP1 DUP7 AND DUP5 OR SWAP3 POP POP POP SWAP4 SWAP3 POP POP POP JUMP JUMPDEST PUSH0 DUP2 SWAP1 POP SWAP2 SWAP1 POP JUMP JUMPDEST PUSH0 PUSH2 0x12BA PUSH2 0x12B5 PUSH2 0x12B0 DUP5 PUSH2 0xFA7 JUMP JUMPDEST PUSH2 0x1297 JUMP JUMPDEST PUSH2 0xFA7 JUMP JUMPDEST SWAP1 POP SWAP2 SWAP1 POP JUMP JUMPDEST PUSH0 DUP2 SWAP1 POP SWAP2 SWAP1 POP JUMP JUMPDEST PUSH2 0x12D3 DUP4 PUSH2 0x12A0 JUMP JUMPDEST PUSH2 0x12E7 PUSH2 0x12DF DUP3 PUSH2 0x12C1 JUMP JUMPDEST DUP5 DUP5 SLOAD PUSH2 0x1246 JUMP JUMPDEST DUP3 SSTORE POP POP POP POP JUMP JUMPDEST PUSH0 SWAP1 JUMP JUMPDEST PUSH2 0x12FB PUSH2 0x12EF JUMP JUMPDEST PUSH2 0x1306 DUP2 DUP5 DUP5 PUSH2 0x12CA JUMP JUMPDEST POP POP POP JUMP JUMPDEST JUMPDEST DUP2 DUP2 LT ISZERO PUSH2 0x1329 JUMPI PUSH2 0x131E PUSH0 DUP3 PUSH2 0x12F3 JUMP JUMPDEST PUSH1 0x1 DUP2 ADD SWAP1 POP PUSH2 0x130C JUMP JUMPDEST POP POP JUMP JUMPDEST PUSH1 0x1F DUP3 GT ISZERO PUSH2 0x136E JUMPI PUSH2 0x133F DUP2 PUSH2 0x1219 JUMP JUMPDEST PUSH2 0x1348 DUP5 PUSH2 0x122B JUMP JUMPDEST DUP2 ADD PUSH1 0x20 DUP6 LT ISZERO PUSH2 0x1357 JUMPI DUP2 SWAP1 POP JUMPDEST PUSH2 0x136B PUSH2 0x1363 DUP6 PUSH2 0x122B JUMP JUMPDEST DUP4 ADD DUP3 PUSH2 0x130B JUMP JUMPDEST POP POP JUMPDEST POP POP POP JUMP JUMPDEST PUSH0 DUP3 DUP3 SHR SWAP1 POP SWAP3 SWAP2 POP POP JUMP JUMPDEST PUSH0 PUSH2 0x138E PUSH0 NOT DUP5 PUSH1 0x8 MUL PUSH2 0x1373 JUMP JUMPDEST NOT DUP1 DUP4 AND SWAP2 POP POP SWAP3 SWAP2 POP POP JUMP JUMPDEST PUSH0 PUSH2 0x13A6 DUP4 DUP4 PUSH2 0x137F JUMP JUMPDEST SWAP2 POP DUP3 PUSH1 0x2 MUL DUP3 OR SWAP1 POP SWAP3 SWAP2 POP POP JUMP JUMPDEST PUSH2 0x13BF DUP3 PUSH2 0xE94 JUMP JUMPDEST PUSH8 0xFFFFFFFFFFFFFFFF DUP2 GT ISZERO PUSH2 0x13D8 JUMPI PUSH2 0x13D7 PUSH2 0xC8E JUMP JUMPDEST JUMPDEST PUSH2 0x13E2 DUP3 SLOAD PUSH2 0x11E9 JUMP JUMPDEST PUSH2 0x13ED DUP3 DUP3 DUP6 PUSH2 0x132D JUMP JUMPDEST PUSH0 PUSH1 0x20 SWAP1 POP PUSH1 0x1F DUP4 GT PUSH1 0x1 DUP2 EQ PUSH2 0x141E JUMPI PUSH0 DUP5 ISZERO PUSH2 0x140C JUMPI DUP3 DUP8 ADD MLOAD SWAP1 POP JUMPDEST PUSH2 0x1416 DUP6 DUP3 PUSH2 0x139B JUMP JUMPDEST DUP7 SSTORE POP PUSH2 0x147D JUMP JUMPDEST PUSH1 0x1F NOT DUP5 AND PUSH2 0x142C DUP7 PUSH2 0x1219 JUMP JUMPDEST PUSH0 JUMPDEST DUP3 DUP2 LT ISZERO PUSH2 0x1453 JUMPI DUP5 DUP10 ADD MLOAD DUP3 SSTORE PUSH1 0x1 DUP3 ADD SWAP2 POP PUSH1 0x20 DUP6 ADD SWAP5 POP PUSH1 0x20 DUP2 ADD SWAP1 POP PUSH2 0x142E JUMP JUMPDEST DUP7 DUP4 LT ISZERO PUSH2 0x1470 JUMPI DUP5 DUP10 ADD MLOAD PUSH2 0x146C PUSH1 0x1F DUP10 AND DUP3 PUSH2 0x137F JUMP JUMPDEST DUP4 SSTORE POP JUMPDEST PUSH1 0x1 PUSH1 0x2 DUP9 MUL ADD DUP9 SSTORE POP POP POP JUMPDEST POP POP POP POP POP POP JUMP JUMPDEST PUSH0 DUP2 SWAP1 POP SWAP2 SWAP1 POP JUMP JUMPDEST PUSH2 0x149F PUSH2 0x149A DUP3 PUSH2 0xFA7 JUMP JUMPDEST PUSH2 0x1485 JUMP JUMPDEST DUP3 MSTORE POP POP JUMP JUMPDEST PUSH0 DUP2 PUSH1 0x60 SHL SWAP1 POP SWAP2 SWAP1 POP JUMP JUMPDEST PUSH0 PUSH2 0x14BB DUP3 PUSH2 0x14A5 JUMP JUMPDEST SWAP1 POP SWAP2 SWAP1 POP JUMP JUMPDEST PUSH0 PUSH2 0x14CC DUP3 PUSH2 0x14B1 JUMP JUMPDEST SWAP1 POP SWAP2 SWAP1 POP JUMP JUMPDEST PUSH2 0x14E4 PUSH2 0x14DF DUP3 PUSH2 0xF87 JUMP JUMPDEST PUSH2 0x14C2 JUMP JUMPDEST DUP3 MSTORE POP POP JUMP JUMPDEST PUSH0 PUSH2 0x14F5 DUP3 DUP6 PUSH2 0x148E JUMP JUMPDEST PUSH1 0x20 DUP3 ADD SWAP2 POP PUSH2 0x1505 DUP3 DUP5 PUSH2 0x14D3 JUMP JUMPDEST PUSH1 0x14 DUP3 ADD SWAP2 POP DUP2 SWAP1 POP SWAP4 SWAP3 POP POP POP JUMP INVALID LOG2 PUSH5 0x6970667358 0x22 SLT KECCAK256 SLOAD 0xD3 DUP13 LT DUP16 CHAINID LT PUSH5 0x441A670C82 PREVRANDAO LT ADDRESS 0xB6 JUMPDEST CALLVALUE ISZERO GT 0xE4 ADDRESS 0xDD NUMBER SWAP6 CHAINID 0x27 DUP13 BLOCKHASH 0xC3 PUSH18 0x64736F6C6343000816003300000000000000 "
				},
				"gasEstimates": {
					"creation": {
						"codeDepositCost": "1090200",
						"executionCost": "infinite",
						"totalCost": "infinite"
					},
					"external": {
						"addProductDetails(bytes16,string)": "infinite",
						"findProduct(bytes16)": "infinite",
						"getProductDetails(bytes16)": "infinite",
						"owner()": "2505",
						"products(bytes16)": "infinite",
						"registerProduct(string,string)": "infinite",
						"updateProduct(bytes16,string,string)": "infinite"
					},
					"internal": {
						"generateUUID()": "infinite"
					}
				},
				"methodIdentifiers": {
					"addProductDetails(bytes16,string)": "41600571",
					"findProduct(bytes16)": "a7898389",
					"getProductDetails(bytes16)": "d408f8ae",
					"owner()": "8da5cb5b",
					"products(bytes16)": "7e485fcf",
					"registerProduct(string,string)": "8fbd0dcf",
					"updateProduct(bytes16,string,string)": "0ca76166"
				}
			},
			"storageLayout": {
				"storage": [
					{
						"astId": 4,
						"contract": "Project/backend/web3-controller/contracts/ProductAction.sol:ProductAction",
						"label": "owner",
						"offset": 0,
						"slot": "0",
						"type": "t_address"
					},
					{
						"astId": 9,
						"contract": "Project/backend/web3-controller/contracts/ProductAction.sol:ProductAction",
						"label": "products",
						"offset": 0,
						"slot": "1",
						"type": "t_mapping(t_bytes16,t_struct(Product)153_storage)"
					}
				],
				"types": {
					"t_address": {
						"encoding": "inplace",
						"label": "address",
						"numberOfBytes": "20"
					},
					"t_bytes16": {
						"encoding": "inplace",
						"label": "bytes16",
						"numberOfBytes": "16"
					},
					"t_mapping(t_bytes16,t_struct(Product)153_storage)": {
						"encoding": "mapping",
						"key": "t_bytes16",
						"label": "mapping(bytes16 => struct Types.Product)",
						"numberOfBytes": "32",
						"value": "t_struct(Product)153_storage"
					},
					"t_string_storage": {
						"encoding": "bytes",
						"label": "string",
						"numberOfBytes": "32"
					},
					"t_struct(Product)153_storage": {
						"encoding": "inplace",
						"label": "struct Types.Product",
						"members": [
							{
								"astId": 144,
								"contract": "Project/backend/web3-controller/contracts/ProductAction.sol:ProductAction",
								"label": "productId",
								"offset": 0,
								"slot": "0",
								"type": "t_bytes16"
							},
							{
								"astId": 146,
								"contract": "Project/backend/web3-controller/contracts/ProductAction.sol:ProductAction",
								"label": "owner",
								"offset": 0,
								"slot": "1",
								"type": "t_address"
							},
							{
								"astId": 148,
								"contract": "Project/backend/web3-controller/contracts/ProductAction.sol:ProductAction",
								"label": "productName",
								"offset": 0,
								"slot": "2",
								"type": "t_string_storage"
							},
							{
								"astId": 150,
								"contract": "Project/backend/web3-controller/contracts/ProductAction.sol:ProductAction",
								"label": "productStatus",
								"offset": 0,
								"slot": "3",
								"type": "t_string_storage"
							},
							{
								"astId": 152,
								"contract": "Project/backend/web3-controller/contracts/ProductAction.sol:ProductAction",
								"label": "timestamp",
								"offset": 0,
								"slot": "4",
								"type": "t_uint256"
							}
						],
						"numberOfBytes": "160"
					},
					"t_uint256": {
						"encoding": "inplace",
						"label": "uint256",
						"numberOfBytes": "32"
					}
				}
			},
			"userdoc": {
				"kind": "user",
				"methods": {},
				"version": 1
			}
		}
	}
}